{
	"contracts/Main.sol": {
		"Main": {
			"abi": [
				{
					"inputs": [],
					"stateMutability": "nonpayable",
					"type": "constructor"
				},
				{
					"anonymous": false,
					"inputs": [
						{
							"indexed": false,
							"internalType": "address",
							"name": "from",
							"type": "address"
						},
						{
							"indexed": false,
							"internalType": "uint256",
							"name": "amount",
							"type": "uint256"
						}
					],
					"name": "PaymentReceived",
					"type": "event"
				},
				{
					"anonymous": false,
					"inputs": [
						{
							"indexed": false,
							"internalType": "address",
							"name": "to",
							"type": "address"
						},
						{
							"indexed": false,
							"internalType": "uint256",
							"name": "amount",
							"type": "uint256"
						}
					],
					"name": "PaymentSent",
					"type": "event"
				},
				{
					"inputs": [
						{
							"internalType": "address payable",
							"name": "_receiver",
							"type": "address"
						}
					],
					"name": "addEthToAddress",
					"outputs": [],
					"stateMutability": "payable",
					"type": "function"
				},
				{
					"inputs": [
						{
							"internalType": "address",
							"name": "_to",
							"type": "address"
						}
					],
					"name": "addressBalance",
					"outputs": [
						{
							"internalType": "uint256",
							"name": "",
							"type": "uint256"
						}
					],
					"stateMutability": "view",
					"type": "function"
				},
				{
					"inputs": [],
					"name": "contractBalance",
					"outputs": [
						{
							"internalType": "uint256",
							"name": "",
							"type": "uint256"
						}
					],
					"stateMutability": "view",
					"type": "function"
				},
				{
					"inputs": [],
					"name": "contrato",
					"outputs": [
						{
							"internalType": "address payable",
							"name": "",
							"type": "address"
						}
					],
					"stateMutability": "view",
					"type": "function"
				},
				{
					"inputs": [],
					"name": "getOwner",
					"outputs": [
						{
							"internalType": "address",
							"name": "",
							"type": "address"
						}
					],
					"stateMutability": "view",
					"type": "function"
				},
				{
					"inputs": [
						{
							"internalType": "address payable",
							"name": "_receiver",
							"type": "address"
						}
					],
					"name": "payment",
					"outputs": [],
					"stateMutability": "payable",
					"type": "function"
				}
			],
			"devdoc": {
				"kind": "dev",
				"methods": {},
				"version": 1
			},
			"evm": {
				"assembly": "    /* \"contracts/Main.sol\":124:3225  contract Main {... */\n  mstore(0x40, 0x80)\n    /* \"contracts/Main.sol\":644:686  0x72f188f3767fE8FE835b7b22191f28A3b19562D1 */\n  0x72f188f3767fe8fe835b7b22191f28a3b19562d1\n    /* \"contracts/Main.sol\":597:687  address payable private intermediary = payable(0x72f188f3767fE8FE835b7b22191f28A3b19562D1) */\n  0x02\n  exp(0x0100, 0x00)\n  dup2\n  sload\n  dup2\n  0xffffffffffffffffffffffffffffffffffffffff\n  mul\n  not\n  and\n  swap1\n  dup4\n  0xffffffffffffffffffffffffffffffffffffffff\n  and\n  mul\n  or\n  swap1\n  sstore\n  pop\n    /* \"contracts/Main.sol\":733:740  1 ether */\n  0x0de0b6b3a7640000\n    /* \"contracts/Main.sol\":694:740  uint256 private maxEthPerTransaction = 1 ether */\n  0x03\n  sstore\n    /* \"contracts/Main.sol\":929:1028  constructor(){ ... */\n  callvalue\n  dup1\n  iszero\n  tag_1\n  jumpi\n  0x00\n  dup1\n  revert\ntag_1:\n  pop\n    /* \"contracts/Main.sol\":962:972  msg.sender */\n  caller\n    /* \"contracts/Main.sol\":954:959  owner */\n  0x00\n  dup1\n    /* \"contracts/Main.sol\":954:972  owner = msg.sender */\n  0x0100\n  exp\n  dup2\n  sload\n  dup2\n  0xffffffffffffffffffffffffffffffffffffffff\n  mul\n  not\n  and\n  swap1\n  dup4\n  0xffffffffffffffffffffffffffffffffffffffff\n  and\n  mul\n  or\n  swap1\n  sstore\n  pop\n    /* \"contracts/Main.sol\":1010:1014  this */\n  address\n    /* \"contracts/Main.sol\":983:991  contrato */\n  0x01\n  0x00\n    /* \"contracts/Main.sol\":983:1016  contrato = payable(address(this)) */\n  0x0100\n  exp\n  dup2\n  sload\n  dup2\n  0xffffffffffffffffffffffffffffffffffffffff\n  mul\n  not\n  and\n  swap1\n  dup4\n  0xffffffffffffffffffffffffffffffffffffffff\n  and\n  mul\n  or\n  swap1\n  sstore\n  pop\n    /* \"contracts/Main.sol\":124:3225  contract Main {... */\n  dataSize(sub_0)\n  dup1\n  dataOffset(sub_0)\n  0x00\n  codecopy\n  0x00\n  return\nstop\n\nsub_0: assembly {\n        /* \"contracts/Main.sol\":124:3225  contract Main {... */\n      mstore(0x40, 0x80)\n      jumpi(tag_1, lt(calldatasize, 0x04))\n      shr(0xe0, calldataload(0x00))\n      dup1\n      0x3b92f3df\n      eq\n      tag_2\n      jumpi\n      dup1\n      0x3ec4de35\n      eq\n      tag_3\n      jumpi\n      dup1\n      0x893d20e8\n      eq\n      tag_4\n      jumpi\n      dup1\n      0x8b7afe2e\n      eq\n      tag_5\n      jumpi\n      dup1\n      0xbbea8f75\n      eq\n      tag_6\n      jumpi\n      dup1\n      0xe1a01e67\n      eq\n      tag_7\n      jumpi\n    tag_1:\n      0x00\n      dup1\n      revert\n        /* \"contracts/Main.sol\":2016:2797  function payment(address payable _receiver) payable external {... */\n    tag_2:\n      tag_8\n      0x04\n      dup1\n      calldatasize\n      sub\n      dup2\n      add\n      swap1\n      tag_9\n      swap2\n      swap1\n      tag_10\n      jump\t// in\n    tag_9:\n      tag_11\n      jump\t// in\n    tag_8:\n      stop\n        /* \"contracts/Main.sol\":2974:3080  function addressBalance(address _to) external view returns (uint256) {... */\n    tag_3:\n      callvalue\n      dup1\n      iszero\n      tag_12\n      jumpi\n      0x00\n      dup1\n      revert\n    tag_12:\n      pop\n      tag_13\n      0x04\n      dup1\n      calldatasize\n      sub\n      dup2\n      add\n      swap1\n      tag_14\n      swap2\n      swap1\n      tag_15\n      jump\t// in\n    tag_14:\n      tag_16\n      jump\t// in\n    tag_13:\n      mload(0x40)\n      tag_17\n      swap2\n      swap1\n      tag_18\n      jump\t// in\n    tag_17:\n      mload(0x40)\n      dup1\n      swap2\n      sub\n      swap1\n      return\n        /* \"contracts/Main.sol\":3129:3212  function getOwner() external view returns (address) {... */\n    tag_4:\n      callvalue\n      dup1\n      iszero\n      tag_19\n      jumpi\n      0x00\n      dup1\n      revert\n    tag_19:\n      pop\n      tag_20\n      tag_21\n      jump\t// in\n    tag_20:\n      mload(0x40)\n      tag_22\n      swap2\n      swap1\n      tag_23\n      jump\t// in\n    tag_22:\n      mload(0x40)\n      dup1\n      swap2\n      sub\n      swap1\n      return\n        /* \"contracts/Main.sol\":2859:2965  function contractBalance() external view returns (uint256) {... */\n    tag_5:\n      callvalue\n      dup1\n      iszero\n      tag_24\n      jumpi\n      0x00\n      dup1\n      revert\n    tag_24:\n      pop\n      tag_25\n      tag_26\n      jump\t// in\n    tag_25:\n      mload(0x40)\n      tag_27\n      swap2\n      swap1\n      tag_18\n      jump\t// in\n    tag_27:\n      mload(0x40)\n      dup1\n      swap2\n      sub\n      swap1\n      return\n        /* \"contracts/Main.sol\":1436:1943  function addEthToAddress(address payable _receiver) external payable {... */\n    tag_6:\n      tag_28\n      0x04\n      dup1\n      calldatasize\n      sub\n      dup2\n      add\n      swap1\n      tag_29\n      swap2\n      swap1\n      tag_10\n      jump\t// in\n    tag_29:\n      tag_30\n      jump\t// in\n    tag_28:\n      stop\n        /* \"contracts/Main.sol\":558:590  address payable  public contrato */\n    tag_7:\n      callvalue\n      dup1\n      iszero\n      tag_31\n      jumpi\n      0x00\n      dup1\n      revert\n    tag_31:\n      pop\n      tag_32\n      tag_33\n      jump\t// in\n    tag_32:\n      mload(0x40)\n      tag_34\n      swap2\n      swap1\n      tag_35\n      jump\t// in\n    tag_34:\n      mload(0x40)\n      dup1\n      swap2\n      sub\n      swap1\n      return\n        /* \"contracts/Main.sol\":2016:2797  function payment(address payable _receiver) payable external {... */\n    tag_11:\n        /* \"contracts/Main.sol\":2108:2109  0 */\n      0x00\n        /* \"contracts/Main.sol\":2096:2105  msg.value */\n      callvalue\n        /* \"contracts/Main.sol\":2096:2109  msg.value > 0 */\n      gt\n        /* \"contracts/Main.sol\":2096:2146  msg.value > 0 && msg.value <= maxEthPerTransaction */\n      dup1\n      iszero\n      tag_37\n      jumpi\n      pop\n        /* \"contracts/Main.sol\":2126:2146  maxEthPerTransaction */\n      sload(0x03)\n        /* \"contracts/Main.sol\":2113:2122  msg.value */\n      callvalue\n        /* \"contracts/Main.sol\":2113:2146  msg.value <= maxEthPerTransaction */\n      gt\n      iszero\n        /* \"contracts/Main.sol\":2096:2146  msg.value > 0 && msg.value <= maxEthPerTransaction */\n    tag_37:\n        /* \"contracts/Main.sol\":2088:2176  require(msg.value > 0 && msg.value <= maxEthPerTransaction, \"Cantidad de ETH no valida\") */\n      tag_38\n      jumpi\n      mload(0x40)\n      0x08c379a000000000000000000000000000000000000000000000000000000000\n      dup2\n      mstore\n      0x04\n      add\n      tag_39\n      swap1\n      tag_40\n      jump\t// in\n    tag_39:\n      mload(0x40)\n      dup1\n      swap2\n      sub\n      swap1\n      revert\n    tag_38:\n        /* \"contracts/Main.sol\":2230:2231  0 */\n      0x00\n        /* \"contracts/Main.sol\":2195:2199  this */\n      address\n        /* \"contracts/Main.sol\":2195:2214  this.addressBalance */\n      0xffffffffffffffffffffffffffffffffffffffff\n      and\n      0x3ec4de35\n        /* \"contracts/Main.sol\":2215:2225  msg.sender */\n      caller\n        /* \"contracts/Main.sol\":2195:2226  this.addressBalance(msg.sender) */\n      mload(0x40)\n      dup3\n      0xffffffff\n      and\n      0xe0\n      shl\n      dup2\n      mstore\n      0x04\n      add\n      tag_41\n      swap2\n      swap1\n      tag_23\n      jump\t// in\n    tag_41:\n      0x20\n      mload(0x40)\n      dup1\n      dup4\n      sub\n      dup2\n      dup7\n      gas\n      staticcall\n      iszero\n      dup1\n      iszero\n      tag_43\n      jumpi\n      returndatasize\n      0x00\n      dup1\n      returndatacopy\n      revert(0x00, returndatasize)\n    tag_43:\n      pop\n      pop\n      pop\n      pop\n      mload(0x40)\n      returndatasize\n      not(0x1f)\n      0x1f\n      dup3\n      add\n      and\n      dup3\n      add\n      dup1\n      0x40\n      mstore\n      pop\n      dup2\n      add\n      swap1\n      tag_44\n      swap2\n      swap1\n      tag_45\n      jump\t// in\n    tag_44:\n        /* \"contracts/Main.sol\":2195:2231  this.addressBalance(msg.sender) == 0 */\n      eq\n        /* \"contracts/Main.sol\":2187:2267  require(this.addressBalance(msg.sender) == 0, \"La cuenta origen no tiene saldo\") */\n      tag_46\n      jumpi\n      mload(0x40)\n      0x08c379a000000000000000000000000000000000000000000000000000000000\n      dup2\n      mstore\n      0x04\n      add\n      tag_47\n      swap1\n      tag_48\n      jump\t// in\n    tag_47:\n      mload(0x40)\n      dup1\n      swap2\n      sub\n      swap1\n      revert\n    tag_46:\n        /* \"contracts/Main.sol\":2287:2312  isValidAddress(_receiver) */\n      tag_49\n        /* \"contracts/Main.sol\":2302:2311  _receiver */\n      dup2\n        /* \"contracts/Main.sol\":2287:2301  isValidAddress */\n      tag_50\n        /* \"contracts/Main.sol\":2287:2312  isValidAddress(_receiver) */\n      jump\t// in\n    tag_49:\n        /* \"contracts/Main.sol\":2279:2355  require(isValidAddress(_receiver), \"La direccion del receptor no es valida\") */\n      tag_51\n      jumpi\n      mload(0x40)\n      0x08c379a000000000000000000000000000000000000000000000000000000000\n      dup2\n      mstore\n      0x04\n      add\n      tag_52\n      swap1\n      tag_53\n      jump\t// in\n    tag_52:\n      mload(0x40)\n      dup1\n      swap2\n      sub\n      swap1\n      revert\n    tag_51:\n        /* \"contracts/Main.sol\":2368:2386  uint256 twoPercent */\n      0x00\n        /* \"contracts/Main.sol\":2389:2428  SafeMath.discountTransaction(msg.value) */\n      tag_54\n        /* \"contracts/Main.sol\":2418:2427  msg.value */\n      callvalue\n        /* \"contracts/Main.sol\":2389:2417  SafeMath.discountTransaction */\n      tag_55\n        /* \"contracts/Main.sol\":2389:2428  SafeMath.discountTransaction(msg.value) */\n      jump\t// in\n    tag_54:\n        /* \"contracts/Main.sol\":2368:2428  uint256 twoPercent = SafeMath.discountTransaction(msg.value) */\n      swap1\n      pop\n        /* \"contracts/Main.sol\":2439:2462  uint256 remainingAmount */\n      0x00\n        /* \"contracts/Main.sol\":2465:2500  SafeMath.sub(msg.value, twoPercent) */\n      tag_56\n        /* \"contracts/Main.sol\":2478:2487  msg.value */\n      callvalue\n        /* \"contracts/Main.sol\":2489:2499  twoPercent */\n      dup4\n        /* \"contracts/Main.sol\":2465:2477  SafeMath.sub */\n      tag_57\n        /* \"contracts/Main.sol\":2465:2500  SafeMath.sub(msg.value, twoPercent) */\n      jump\t// in\n    tag_56:\n        /* \"contracts/Main.sol\":2439:2500  uint256 remainingAmount = SafeMath.sub(msg.value, twoPercent) */\n      swap1\n      pop\n        /* \"contracts/Main.sol\":2551:2563  intermediary */\n      0x02\n      0x00\n      swap1\n      sload\n      swap1\n      0x0100\n      exp\n      swap1\n      div\n      0xffffffffffffffffffffffffffffffffffffffff\n      and\n        /* \"contracts/Main.sol\":2551:2572  intermediary.transfer */\n      0xffffffffffffffffffffffffffffffffffffffff\n      and\n        /* \"contracts/Main.sol\":2551:2584  intermediary.transfer(twoPercent) */\n      0x08fc\n        /* \"contracts/Main.sol\":2573:2583  twoPercent */\n      dup4\n        /* \"contracts/Main.sol\":2551:2584  intermediary.transfer(twoPercent) */\n      swap1\n      dup2\n      iszero\n      mul\n      swap1\n      mload(0x40)\n      0x00\n      mload(0x40)\n      dup1\n      dup4\n      sub\n      dup2\n      dup6\n      dup9\n      dup9\n      call\n      swap4\n      pop\n      pop\n      pop\n      pop\n      iszero\n      dup1\n      iszero\n      tag_59\n      jumpi\n      returndatasize\n      0x00\n      dup1\n      returndatacopy\n      revert(0x00, returndatasize)\n    tag_59:\n      pop\n        /* \"contracts/Main.sol\":2600:2638  PaymentReceived(_receiver, twoPercent) */\n      0x6ef95f06320e7a25a04a175ca677b7052bdd97131872c2192525a629f51be770\n        /* \"contracts/Main.sol\":2616:2625  _receiver */\n      dup4\n        /* \"contracts/Main.sol\":2627:2637  twoPercent */\n      dup4\n        /* \"contracts/Main.sol\":2600:2638  PaymentReceived(_receiver, twoPercent) */\n      mload(0x40)\n      tag_60\n      swap3\n      swap2\n      swap1\n      tag_61\n      jump\t// in\n    tag_60:\n      mload(0x40)\n      dup1\n      swap2\n      sub\n      swap1\n      log1\n        /* \"contracts/Main.sol\":2695:2704  _receiver */\n      dup3\n        /* \"contracts/Main.sol\":2695:2713  _receiver.transfer */\n      0xffffffffffffffffffffffffffffffffffffffff\n      and\n        /* \"contracts/Main.sol\":2695:2730  _receiver.transfer(remainingAmount) */\n      0x08fc\n        /* \"contracts/Main.sol\":2714:2729  remainingAmount */\n      dup3\n        /* \"contracts/Main.sol\":2695:2730  _receiver.transfer(remainingAmount) */\n      swap1\n      dup2\n      iszero\n      mul\n      swap1\n      mload(0x40)\n      0x00\n      mload(0x40)\n      dup1\n      dup4\n      sub\n      dup2\n      dup6\n      dup9\n      dup9\n      call\n      swap4\n      pop\n      pop\n      pop\n      pop\n      iszero\n      dup1\n      iszero\n      tag_63\n      jumpi\n      returndatasize\n      0x00\n      dup1\n      returndatacopy\n      revert(0x00, returndatasize)\n    tag_63:\n      pop\n        /* \"contracts/Main.sol\":2746:2789  PaymentReceived(_receiver, remainingAmount) */\n      0x6ef95f06320e7a25a04a175ca677b7052bdd97131872c2192525a629f51be770\n        /* \"contracts/Main.sol\":2762:2771  _receiver */\n      dup4\n        /* \"contracts/Main.sol\":2773:2788  remainingAmount */\n      dup3\n        /* \"contracts/Main.sol\":2746:2789  PaymentReceived(_receiver, remainingAmount) */\n      mload(0x40)\n      tag_64\n      swap3\n      swap2\n      swap1\n      tag_61\n      jump\t// in\n    tag_64:\n      mload(0x40)\n      dup1\n      swap2\n      sub\n      swap1\n      log1\n        /* \"contracts/Main.sol\":2077:2797  {... */\n      pop\n      pop\n        /* \"contracts/Main.sol\":2016:2797  function payment(address payable _receiver) payable external {... */\n      pop\n      jump\t// out\n        /* \"contracts/Main.sol\":2974:3080  function addressBalance(address _to) external view returns (uint256) {... */\n    tag_16:\n        /* \"contracts/Main.sol\":3034:3041  uint256 */\n      0x00\n        /* \"contracts/Main.sol\":3061:3064  _to */\n      dup2\n        /* \"contracts/Main.sol\":3061:3072  _to.balance */\n      0xffffffffffffffffffffffffffffffffffffffff\n      and\n      balance\n        /* \"contracts/Main.sol\":3054:3072  return _to.balance */\n      swap1\n      pop\n        /* \"contracts/Main.sol\":2974:3080  function addressBalance(address _to) external view returns (uint256) {... */\n      swap2\n      swap1\n      pop\n      jump\t// out\n        /* \"contracts/Main.sol\":3129:3212  function getOwner() external view returns (address) {... */\n    tag_21:\n        /* \"contracts/Main.sol\":3172:3179  address */\n      0x00\n        /* \"contracts/Main.sol\":3199:3204  owner */\n      dup1\n      0x00\n      swap1\n      sload\n      swap1\n      0x0100\n      exp\n      swap1\n      div\n      0xffffffffffffffffffffffffffffffffffffffff\n      and\n        /* \"contracts/Main.sol\":3192:3204  return owner */\n      swap1\n      pop\n        /* \"contracts/Main.sol\":3129:3212  function getOwner() external view returns (address) {... */\n      swap1\n      jump\t// out\n        /* \"contracts/Main.sol\":2859:2965  function contractBalance() external view returns (uint256) {... */\n    tag_26:\n        /* \"contracts/Main.sol\":2909:2916  uint256 */\n      0x00\n        /* \"contracts/Main.sol\":2936:2957  address(this).balance */\n      selfbalance\n        /* \"contracts/Main.sol\":2929:2957  return address(this).balance */\n      swap1\n      pop\n        /* \"contracts/Main.sol\":2859:2965  function contractBalance() external view returns (uint256) {... */\n      swap1\n      jump\t// out\n        /* \"contracts/Main.sol\":1436:1943  function addEthToAddress(address payable _receiver) external payable {... */\n    tag_30:\n        /* \"contracts/Main.sol\":1524:1549  isValidAddress(_receiver) */\n      tag_69\n        /* \"contracts/Main.sol\":1539:1548  _receiver */\n      dup2\n        /* \"contracts/Main.sol\":1524:1538  isValidAddress */\n      tag_50\n        /* \"contracts/Main.sol\":1524:1549  isValidAddress(_receiver) */\n      jump\t// in\n    tag_69:\n        /* \"contracts/Main.sol\":1516:1592  require(isValidAddress(_receiver), \"La direccion del receptor no es valida\") */\n      tag_70\n      jumpi\n      mload(0x40)\n      0x08c379a000000000000000000000000000000000000000000000000000000000\n      dup2\n      mstore\n      0x04\n      add\n      tag_71\n      swap1\n      tag_53\n      jump\t// in\n    tag_71:\n      mload(0x40)\n      dup1\n      swap2\n      sub\n      swap1\n      revert\n    tag_70:\n        /* \"contracts/Main.sol\":1623:1624  0 */\n      0x00\n        /* \"contracts/Main.sol\":1611:1620  msg.value */\n      callvalue\n        /* \"contracts/Main.sol\":1611:1624  msg.value > 0 */\n      gt\n        /* \"contracts/Main.sol\":1611:1661  msg.value > 0 && msg.value <= maxEthPerTransaction */\n      dup1\n      iszero\n      tag_72\n      jumpi\n      pop\n        /* \"contracts/Main.sol\":1641:1661  maxEthPerTransaction */\n      sload(0x03)\n        /* \"contracts/Main.sol\":1628:1637  msg.value */\n      callvalue\n        /* \"contracts/Main.sol\":1628:1661  msg.value <= maxEthPerTransaction */\n      gt\n      iszero\n        /* \"contracts/Main.sol\":1611:1661  msg.value > 0 && msg.value <= maxEthPerTransaction */\n    tag_72:\n        /* \"contracts/Main.sol\":1603:1691  require(msg.value > 0 && msg.value <= maxEthPerTransaction, \"Cantidad de ETH no valida\") */\n      tag_73\n      jumpi\n      mload(0x40)\n      0x08c379a000000000000000000000000000000000000000000000000000000000\n      dup2\n      mstore\n      0x04\n      add\n      tag_74\n      swap1\n      tag_40\n      jump\t// in\n    tag_74:\n      mload(0x40)\n      dup1\n      swap2\n      sub\n      swap1\n      revert\n    tag_73:\n        /* \"contracts/Main.sol\":1744:1745  0 */\n      0x00\n        /* \"contracts/Main.sol\":1710:1714  this */\n      address\n        /* \"contracts/Main.sol\":1710:1729  this.addressBalance */\n      0xffffffffffffffffffffffffffffffffffffffff\n      and\n      0x3ec4de35\n        /* \"contracts/Main.sol\":1730:1740  msg.sender */\n      caller\n        /* \"contracts/Main.sol\":1710:1741  this.addressBalance(msg.sender) */\n      mload(0x40)\n      dup3\n      0xffffffff\n      and\n      0xe0\n      shl\n      dup2\n      mstore\n      0x04\n      add\n      tag_75\n      swap2\n      swap1\n      tag_23\n      jump\t// in\n    tag_75:\n      0x20\n      mload(0x40)\n      dup1\n      dup4\n      sub\n      dup2\n      dup7\n      gas\n      staticcall\n      iszero\n      dup1\n      iszero\n      tag_77\n      jumpi\n      returndatasize\n      0x00\n      dup1\n      returndatacopy\n      revert(0x00, returndatasize)\n    tag_77:\n      pop\n      pop\n      pop\n      pop\n      mload(0x40)\n      returndatasize\n      not(0x1f)\n      0x1f\n      dup3\n      add\n      and\n      dup3\n      add\n      dup1\n      0x40\n      mstore\n      pop\n      dup2\n      add\n      swap1\n      tag_78\n      swap2\n      swap1\n      tag_45\n      jump\t// in\n    tag_78:\n        /* \"contracts/Main.sol\":1710:1745  this.addressBalance(msg.sender) > 0 */\n      gt\n        /* \"contracts/Main.sol\":1702:1781  require(this.addressBalance(msg.sender) > 0, \"La cuenta origen no tiene saldo\") */\n      tag_79\n      jumpi\n      mload(0x40)\n      0x08c379a000000000000000000000000000000000000000000000000000000000\n      dup2\n      mstore\n      0x04\n      add\n      tag_80\n      swap1\n      tag_48\n      jump\t// in\n    tag_80:\n      mload(0x40)\n      dup1\n      swap2\n      sub\n      swap1\n      revert\n    tag_79:\n        /* \"contracts/Main.sol\":1857:1866  _receiver */\n      dup1\n        /* \"contracts/Main.sol\":1857:1875  _receiver.transfer */\n      0xffffffffffffffffffffffffffffffffffffffff\n      and\n        /* \"contracts/Main.sol\":1857:1886  _receiver.transfer(msg.value) */\n      0x08fc\n        /* \"contracts/Main.sol\":1876:1885  msg.value */\n      callvalue\n        /* \"contracts/Main.sol\":1857:1886  _receiver.transfer(msg.value) */\n      swap1\n      dup2\n      iszero\n      mul\n      swap1\n      mload(0x40)\n      0x00\n      mload(0x40)\n      dup1\n      dup4\n      sub\n      dup2\n      dup6\n      dup9\n      dup9\n      call\n      swap4\n      pop\n      pop\n      pop\n      pop\n      iszero\n      dup1\n      iszero\n      tag_82\n      jumpi\n      returndatasize\n      0x00\n      dup1\n      returndatacopy\n      revert(0x00, returndatasize)\n    tag_82:\n      pop\n        /* \"contracts/Main.sol\":1902:1935  PaymentSent(_receiver, msg.value) */\n      0x47db2abce6d5fbcd80ffd9b4ba74dcde804a746ef732bc7f8a70fabfc912c590\n        /* \"contracts/Main.sol\":1914:1923  _receiver */\n      dup2\n        /* \"contracts/Main.sol\":1925:1934  msg.value */\n      callvalue\n        /* \"contracts/Main.sol\":1902:1935  PaymentSent(_receiver, msg.value) */\n      mload(0x40)\n      tag_83\n      swap3\n      swap2\n      swap1\n      tag_61\n      jump\t// in\n    tag_83:\n      mload(0x40)\n      dup1\n      swap2\n      sub\n      swap1\n      log1\n        /* \"contracts/Main.sol\":1436:1943  function addEthToAddress(address payable _receiver) external payable {... */\n      pop\n      jump\t// out\n        /* \"contracts/Main.sol\":558:590  address payable  public contrato */\n    tag_33:\n      0x01\n      0x00\n      swap1\n      sload\n      swap1\n      0x0100\n      exp\n      swap1\n      div\n      0xffffffffffffffffffffffffffffffffffffffff\n      and\n      dup2\n      jump\t// out\n        /* \"contracts/Main.sol\":1177:1365  function isValidAddress(address _address) internal view returns (bool) {... */\n    tag_50:\n        /* \"contracts/Main.sol\":1242:1246  bool */\n      0x00\n        /* \"contracts/Main.sol\":1287:1288  0 */\n      dup1\n        /* \"contracts/Main.sol\":1267:1289  _address != address(0) */\n      0xffffffffffffffffffffffffffffffffffffffff\n      and\n        /* \"contracts/Main.sol\":1267:1275  _address */\n      dup3\n        /* \"contracts/Main.sol\":1267:1289  _address != address(0) */\n      0xffffffffffffffffffffffffffffffffffffffff\n      and\n      eq\n      iszero\n        /* \"contracts/Main.sol\":1267:1322  _address != address(0) && _address != address(contrato) */\n      dup1\n      iszero\n      tag_85\n      jumpi\n      pop\n        /* \"contracts/Main.sol\":1313:1321  contrato */\n      0x01\n      0x00\n      swap1\n      sload\n      swap1\n      0x0100\n      exp\n      swap1\n      div\n      0xffffffffffffffffffffffffffffffffffffffff\n      and\n        /* \"contracts/Main.sol\":1293:1322  _address != address(contrato) */\n      0xffffffffffffffffffffffffffffffffffffffff\n      and\n        /* \"contracts/Main.sol\":1293:1301  _address */\n      dup3\n        /* \"contracts/Main.sol\":1293:1322  _address != address(contrato) */\n      0xffffffffffffffffffffffffffffffffffffffff\n      and\n      eq\n      iszero\n        /* \"contracts/Main.sol\":1267:1322  _address != address(0) && _address != address(contrato) */\n    tag_85:\n        /* \"contracts/Main.sol\":1267:1356  _address != address(0) && _address != address(contrato) && bytes20(_address).length == 20 */\n      dup1\n      iszero\n      tag_86\n      jumpi\n      pop\n        /* \"contracts/Main.sol\":1354:1356  20 */\n      0x14\n        /* \"contracts/Main.sol\":1326:1350  bytes20(_address).length */\n      dup1\n        /* \"contracts/Main.sol\":1326:1356  bytes20(_address).length == 20 */\n      0xff\n      and\n      eq\n        /* \"contracts/Main.sol\":1267:1356  _address != address(0) && _address != address(contrato) && bytes20(_address).length == 20 */\n    tag_86:\n        /* \"contracts/Main.sol\":1259:1357  return (_address != address(0) && _address != address(contrato) && bytes20(_address).length == 20) */\n      swap1\n      pop\n        /* \"contracts/Main.sol\":1177:1365  function isValidAddress(address _address) internal view returns (bool) {... */\n      swap2\n      swap1\n      pop\n      jump\t// out\n        /* \"contracts/utils/SafeMath.sol\":1365:1522  function discountTransaction(uint256 number) internal pure returns (uint256){... */\n    tag_55:\n        /* \"contracts/utils/SafeMath.sol\":1433:1440  uint256 */\n      0x00\n        /* \"contracts/utils/SafeMath.sol\":1511:1514  100 */\n      0x64\n        /* \"contracts/utils/SafeMath.sol\":1494:1508  mul(number, 2) */\n      tag_88\n        /* \"contracts/utils/SafeMath.sol\":1498:1504  number */\n      dup4\n        /* \"contracts/utils/SafeMath.sol\":1506:1507  2 */\n      0x02\n        /* \"contracts/utils/SafeMath.sol\":1494:1497  mul */\n      tag_89\n        /* \"contracts/utils/SafeMath.sol\":1494:1508  mul(number, 2) */\n      jump\t// in\n    tag_88:\n        /* \"contracts/utils/SafeMath.sol\":1494:1514  mul(number, 2) / 100 */\n      tag_90\n      swap2\n      swap1\n      tag_91\n      jump\t// in\n    tag_90:\n        /* \"contracts/utils/SafeMath.sol\":1486:1514  return  mul(number, 2) / 100 */\n      swap1\n      pop\n        /* \"contracts/utils/SafeMath.sol\":1365:1522  function discountTransaction(uint256 number) internal pure returns (uint256){... */\n      swap2\n      swap1\n      pop\n      jump\t// out\n        /* \"contracts/utils/SafeMath.sol\":311:430  function sub(uint256 a, uint256 b) internal pure returns (uint256) {... */\n    tag_57:\n        /* \"contracts/utils/SafeMath.sol\":369:376  uint256 */\n      0x00\n        /* \"contracts/utils/SafeMath.sol\":399:400  a */\n      dup3\n        /* \"contracts/utils/SafeMath.sol\":394:395  b */\n      dup3\n        /* \"contracts/utils/SafeMath.sol\":394:400  b <= a */\n      gt\n      iszero\n        /* \"contracts/utils/SafeMath.sol\":387:401  assert(b <= a) */\n      tag_93\n      jumpi\n      tag_94\n      tag_95\n      jump\t// in\n    tag_94:\n    tag_93:\n        /* \"contracts/utils/SafeMath.sol\":421:422  b */\n      dup2\n        /* \"contracts/utils/SafeMath.sol\":417:418  a */\n      dup4\n        /* \"contracts/utils/SafeMath.sol\":417:422  a - b */\n      tag_96\n      swap2\n      swap1\n      tag_97\n      jump\t// in\n    tag_96:\n        /* \"contracts/utils/SafeMath.sol\":410:422  return a - b */\n      swap1\n      pop\n        /* \"contracts/utils/SafeMath.sol\":311:430  function sub(uint256 a, uint256 b) internal pure returns (uint256) {... */\n      swap3\n      swap2\n      pop\n      pop\n      jump\t// out\n        /* \"contracts/utils/SafeMath.sol\":632:868  function mul(uint256 a, uint256 b) internal pure returns (uint256) {... */\n    tag_89:\n        /* \"contracts/utils/SafeMath.sol\":690:697  uint256 */\n      0x00\n        /* \"contracts/utils/SafeMath.sol\":717:718  0 */\n      dup1\n        /* \"contracts/utils/SafeMath.sol\":712:713  a */\n      dup4\n        /* \"contracts/utils/SafeMath.sol\":712:718  a == 0 */\n      sub\n        /* \"contracts/utils/SafeMath.sol\":708:749  if (a == 0) {... */\n      tag_99\n      jumpi\n        /* \"contracts/utils/SafeMath.sol\":738:739  0 */\n      0x00\n        /* \"contracts/utils/SafeMath.sol\":731:739  return 0 */\n      swap1\n      pop\n      jump(tag_98)\n        /* \"contracts/utils/SafeMath.sol\":708:749  if (a == 0) {... */\n    tag_99:\n        /* \"contracts/utils/SafeMath.sol\":759:768  uint256 c */\n      0x00\n        /* \"contracts/utils/SafeMath.sol\":775:776  b */\n      dup3\n        /* \"contracts/utils/SafeMath.sol\":771:772  a */\n      dup5\n        /* \"contracts/utils/SafeMath.sol\":771:776  a * b */\n      tag_100\n      swap2\n      swap1\n      tag_101\n      jump\t// in\n    tag_100:\n        /* \"contracts/utils/SafeMath.sol\":759:776  uint256 c = a * b */\n      swap1\n      pop\n        /* \"contracts/utils/SafeMath.sol\":802:803  b */\n      dup3\n        /* \"contracts/utils/SafeMath.sol\":797:798  a */\n      dup5\n        /* \"contracts/utils/SafeMath.sol\":793:794  c */\n      dup3\n        /* \"contracts/utils/SafeMath.sol\":793:798  c / a */\n      tag_102\n      swap2\n      swap1\n      tag_91\n      jump\t// in\n    tag_102:\n        /* \"contracts/utils/SafeMath.sol\":793:803  c / a == b */\n      eq\n        /* \"contracts/utils/SafeMath.sol\":785:841  require(c / a == b, \"SafeMath: multiplication overflow\") */\n      tag_103\n      jumpi\n      mload(0x40)\n      0x08c379a000000000000000000000000000000000000000000000000000000000\n      dup2\n      mstore\n      0x04\n      add\n      tag_104\n      swap1\n      tag_105\n      jump\t// in\n    tag_104:\n      mload(0x40)\n      dup1\n      swap2\n      sub\n      swap1\n      revert\n    tag_103:\n        /* \"contracts/utils/SafeMath.sol\":859:860  c */\n      dup1\n        /* \"contracts/utils/SafeMath.sol\":852:860  return c */\n      swap2\n      pop\n      pop\n        /* \"contracts/utils/SafeMath.sol\":632:868  function mul(uint256 a, uint256 b) internal pure returns (uint256) {... */\n    tag_98:\n      swap3\n      swap2\n      pop\n      pop\n      jump\t// out\n        /* \"#utility.yul\":88:205   */\n    tag_107:\n        /* \"#utility.yul\":197:198   */\n      0x00\n        /* \"#utility.yul\":194:195   */\n      dup1\n        /* \"#utility.yul\":187:199   */\n      revert\n        /* \"#utility.yul\":334:460   */\n    tag_109:\n        /* \"#utility.yul\":371:378   */\n      0x00\n        /* \"#utility.yul\":411:453   */\n      0xffffffffffffffffffffffffffffffffffffffff\n        /* \"#utility.yul\":404:409   */\n      dup3\n        /* \"#utility.yul\":400:454   */\n      and\n        /* \"#utility.yul\":389:454   */\n      swap1\n      pop\n        /* \"#utility.yul\":334:460   */\n      swap2\n      swap1\n      pop\n      jump\t// out\n        /* \"#utility.yul\":466:570   */\n    tag_110:\n        /* \"#utility.yul\":511:518   */\n      0x00\n        /* \"#utility.yul\":540:564   */\n      tag_144\n        /* \"#utility.yul\":558:563   */\n      dup3\n        /* \"#utility.yul\":540:564   */\n      tag_109\n      jump\t// in\n    tag_144:\n        /* \"#utility.yul\":529:564   */\n      swap1\n      pop\n        /* \"#utility.yul\":466:570   */\n      swap2\n      swap1\n      pop\n      jump\t// out\n        /* \"#utility.yul\":576:714   */\n    tag_111:\n        /* \"#utility.yul\":657:689   */\n      tag_146\n        /* \"#utility.yul\":683:688   */\n      dup2\n        /* \"#utility.yul\":657:689   */\n      tag_110\n      jump\t// in\n    tag_146:\n        /* \"#utility.yul\":650:655   */\n      dup2\n        /* \"#utility.yul\":647:690   */\n      eq\n        /* \"#utility.yul\":637:708   */\n      tag_147\n      jumpi\n        /* \"#utility.yul\":704:705   */\n      0x00\n        /* \"#utility.yul\":701:702   */\n      dup1\n        /* \"#utility.yul\":694:706   */\n      revert\n        /* \"#utility.yul\":637:708   */\n    tag_147:\n        /* \"#utility.yul\":576:714   */\n      pop\n      jump\t// out\n        /* \"#utility.yul\":720:875   */\n    tag_112:\n        /* \"#utility.yul\":774:779   */\n      0x00\n        /* \"#utility.yul\":812:818   */\n      dup2\n        /* \"#utility.yul\":799:819   */\n      calldataload\n        /* \"#utility.yul\":790:819   */\n      swap1\n      pop\n        /* \"#utility.yul\":828:869   */\n      tag_149\n        /* \"#utility.yul\":863:868   */\n      dup2\n        /* \"#utility.yul\":828:869   */\n      tag_111\n      jump\t// in\n    tag_149:\n        /* \"#utility.yul\":720:875   */\n      swap3\n      swap2\n      pop\n      pop\n      jump\t// out\n        /* \"#utility.yul\":881:1226   */\n    tag_10:\n        /* \"#utility.yul\":948:954   */\n      0x00\n        /* \"#utility.yul\":997:999   */\n      0x20\n        /* \"#utility.yul\":985:994   */\n      dup3\n        /* \"#utility.yul\":976:983   */\n      dup5\n        /* \"#utility.yul\":972:995   */\n      sub\n        /* \"#utility.yul\":968:1000   */\n      slt\n        /* \"#utility.yul\":965:1084   */\n      iszero\n      tag_151\n      jumpi\n        /* \"#utility.yul\":1003:1082   */\n      tag_152\n      tag_107\n      jump\t// in\n    tag_152:\n        /* \"#utility.yul\":965:1084   */\n    tag_151:\n        /* \"#utility.yul\":1123:1124   */\n      0x00\n        /* \"#utility.yul\":1148:1209   */\n      tag_153\n        /* \"#utility.yul\":1201:1208   */\n      dup5\n        /* \"#utility.yul\":1192:1198   */\n      dup3\n        /* \"#utility.yul\":1181:1190   */\n      dup6\n        /* \"#utility.yul\":1177:1199   */\n      add\n        /* \"#utility.yul\":1148:1209   */\n      tag_112\n      jump\t// in\n    tag_153:\n        /* \"#utility.yul\":1138:1209   */\n      swap2\n      pop\n        /* \"#utility.yul\":1094:1219   */\n      pop\n        /* \"#utility.yul\":881:1226   */\n      swap3\n      swap2\n      pop\n      pop\n      jump\t// out\n        /* \"#utility.yul\":1232:1328   */\n    tag_113:\n        /* \"#utility.yul\":1269:1276   */\n      0x00\n        /* \"#utility.yul\":1298:1322   */\n      tag_155\n        /* \"#utility.yul\":1316:1321   */\n      dup3\n        /* \"#utility.yul\":1298:1322   */\n      tag_109\n      jump\t// in\n    tag_155:\n        /* \"#utility.yul\":1287:1322   */\n      swap1\n      pop\n        /* \"#utility.yul\":1232:1328   */\n      swap2\n      swap1\n      pop\n      jump\t// out\n        /* \"#utility.yul\":1334:1456   */\n    tag_114:\n        /* \"#utility.yul\":1407:1431   */\n      tag_157\n        /* \"#utility.yul\":1425:1430   */\n      dup2\n        /* \"#utility.yul\":1407:1431   */\n      tag_113\n      jump\t// in\n    tag_157:\n        /* \"#utility.yul\":1400:1405   */\n      dup2\n        /* \"#utility.yul\":1397:1432   */\n      eq\n        /* \"#utility.yul\":1387:1450   */\n      tag_158\n      jumpi\n        /* \"#utility.yul\":1446:1447   */\n      0x00\n        /* \"#utility.yul\":1443:1444   */\n      dup1\n        /* \"#utility.yul\":1436:1448   */\n      revert\n        /* \"#utility.yul\":1387:1450   */\n    tag_158:\n        /* \"#utility.yul\":1334:1456   */\n      pop\n      jump\t// out\n        /* \"#utility.yul\":1462:1601   */\n    tag_115:\n        /* \"#utility.yul\":1508:1513   */\n      0x00\n        /* \"#utility.yul\":1546:1552   */\n      dup2\n        /* \"#utility.yul\":1533:1553   */\n      calldataload\n        /* \"#utility.yul\":1524:1553   */\n      swap1\n      pop\n        /* \"#utility.yul\":1562:1595   */\n      tag_160\n        /* \"#utility.yul\":1589:1594   */\n      dup2\n        /* \"#utility.yul\":1562:1595   */\n      tag_114\n      jump\t// in\n    tag_160:\n        /* \"#utility.yul\":1462:1601   */\n      swap3\n      swap2\n      pop\n      pop\n      jump\t// out\n        /* \"#utility.yul\":1607:1936   */\n    tag_15:\n        /* \"#utility.yul\":1666:1672   */\n      0x00\n        /* \"#utility.yul\":1715:1717   */\n      0x20\n        /* \"#utility.yul\":1703:1712   */\n      dup3\n        /* \"#utility.yul\":1694:1701   */\n      dup5\n        /* \"#utility.yul\":1690:1713   */\n      sub\n        /* \"#utility.yul\":1686:1718   */\n      slt\n        /* \"#utility.yul\":1683:1802   */\n      iszero\n      tag_162\n      jumpi\n        /* \"#utility.yul\":1721:1800   */\n      tag_163\n      tag_107\n      jump\t// in\n    tag_163:\n        /* \"#utility.yul\":1683:1802   */\n    tag_162:\n        /* \"#utility.yul\":1841:1842   */\n      0x00\n        /* \"#utility.yul\":1866:1919   */\n      tag_164\n        /* \"#utility.yul\":1911:1918   */\n      dup5\n        /* \"#utility.yul\":1902:1908   */\n      dup3\n        /* \"#utility.yul\":1891:1900   */\n      dup6\n        /* \"#utility.yul\":1887:1909   */\n      add\n        /* \"#utility.yul\":1866:1919   */\n      tag_115\n      jump\t// in\n    tag_164:\n        /* \"#utility.yul\":1856:1919   */\n      swap2\n      pop\n        /* \"#utility.yul\":1812:1929   */\n      pop\n        /* \"#utility.yul\":1607:1936   */\n      swap3\n      swap2\n      pop\n      pop\n      jump\t// out\n        /* \"#utility.yul\":1942:2019   */\n    tag_116:\n        /* \"#utility.yul\":1979:1986   */\n      0x00\n        /* \"#utility.yul\":2008:2013   */\n      dup2\n        /* \"#utility.yul\":1997:2013   */\n      swap1\n      pop\n        /* \"#utility.yul\":1942:2019   */\n      swap2\n      swap1\n      pop\n      jump\t// out\n        /* \"#utility.yul\":2025:2143   */\n    tag_117:\n        /* \"#utility.yul\":2112:2136   */\n      tag_167\n        /* \"#utility.yul\":2130:2135   */\n      dup2\n        /* \"#utility.yul\":2112:2136   */\n      tag_116\n      jump\t// in\n    tag_167:\n        /* \"#utility.yul\":2107:2110   */\n      dup3\n        /* \"#utility.yul\":2100:2137   */\n      mstore\n        /* \"#utility.yul\":2025:2143   */\n      pop\n      pop\n      jump\t// out\n        /* \"#utility.yul\":2149:2371   */\n    tag_18:\n        /* \"#utility.yul\":2242:2246   */\n      0x00\n        /* \"#utility.yul\":2280:2282   */\n      0x20\n        /* \"#utility.yul\":2269:2278   */\n      dup3\n        /* \"#utility.yul\":2265:2283   */\n      add\n        /* \"#utility.yul\":2257:2283   */\n      swap1\n      pop\n        /* \"#utility.yul\":2293:2364   */\n      tag_169\n        /* \"#utility.yul\":2361:2362   */\n      0x00\n        /* \"#utility.yul\":2350:2359   */\n      dup4\n        /* \"#utility.yul\":2346:2363   */\n      add\n        /* \"#utility.yul\":2337:2343   */\n      dup5\n        /* \"#utility.yul\":2293:2364   */\n      tag_117\n      jump\t// in\n    tag_169:\n        /* \"#utility.yul\":2149:2371   */\n      swap3\n      swap2\n      pop\n      pop\n      jump\t// out\n        /* \"#utility.yul\":2377:2495   */\n    tag_118:\n        /* \"#utility.yul\":2464:2488   */\n      tag_171\n        /* \"#utility.yul\":2482:2487   */\n      dup2\n        /* \"#utility.yul\":2464:2488   */\n      tag_113\n      jump\t// in\n    tag_171:\n        /* \"#utility.yul\":2459:2462   */\n      dup3\n        /* \"#utility.yul\":2452:2489   */\n      mstore\n        /* \"#utility.yul\":2377:2495   */\n      pop\n      pop\n      jump\t// out\n        /* \"#utility.yul\":2501:2723   */\n    tag_23:\n        /* \"#utility.yul\":2594:2598   */\n      0x00\n        /* \"#utility.yul\":2632:2634   */\n      0x20\n        /* \"#utility.yul\":2621:2630   */\n      dup3\n        /* \"#utility.yul\":2617:2635   */\n      add\n        /* \"#utility.yul\":2609:2635   */\n      swap1\n      pop\n        /* \"#utility.yul\":2645:2716   */\n      tag_173\n        /* \"#utility.yul\":2713:2714   */\n      0x00\n        /* \"#utility.yul\":2702:2711   */\n      dup4\n        /* \"#utility.yul\":2698:2715   */\n      add\n        /* \"#utility.yul\":2689:2695   */\n      dup5\n        /* \"#utility.yul\":2645:2716   */\n      tag_118\n      jump\t// in\n    tag_173:\n        /* \"#utility.yul\":2501:2723   */\n      swap3\n      swap2\n      pop\n      pop\n      jump\t// out\n        /* \"#utility.yul\":2729:2871   */\n    tag_119:\n        /* \"#utility.yul\":2832:2864   */\n      tag_175\n        /* \"#utility.yul\":2858:2863   */\n      dup2\n        /* \"#utility.yul\":2832:2864   */\n      tag_110\n      jump\t// in\n    tag_175:\n        /* \"#utility.yul\":2827:2830   */\n      dup3\n        /* \"#utility.yul\":2820:2865   */\n      mstore\n        /* \"#utility.yul\":2729:2871   */\n      pop\n      pop\n      jump\t// out\n        /* \"#utility.yul\":2877:3131   */\n    tag_35:\n        /* \"#utility.yul\":2986:2990   */\n      0x00\n        /* \"#utility.yul\":3024:3026   */\n      0x20\n        /* \"#utility.yul\":3013:3022   */\n      dup3\n        /* \"#utility.yul\":3009:3027   */\n      add\n        /* \"#utility.yul\":3001:3027   */\n      swap1\n      pop\n        /* \"#utility.yul\":3037:3124   */\n      tag_177\n        /* \"#utility.yul\":3121:3122   */\n      0x00\n        /* \"#utility.yul\":3110:3119   */\n      dup4\n        /* \"#utility.yul\":3106:3123   */\n      add\n        /* \"#utility.yul\":3097:3103   */\n      dup5\n        /* \"#utility.yul\":3037:3124   */\n      tag_119\n      jump\t// in\n    tag_177:\n        /* \"#utility.yul\":2877:3131   */\n      swap3\n      swap2\n      pop\n      pop\n      jump\t// out\n        /* \"#utility.yul\":3137:3306   */\n    tag_120:\n        /* \"#utility.yul\":3221:3232   */\n      0x00\n        /* \"#utility.yul\":3255:3261   */\n      dup3\n        /* \"#utility.yul\":3250:3253   */\n      dup3\n        /* \"#utility.yul\":3243:3262   */\n      mstore\n        /* \"#utility.yul\":3295:3299   */\n      0x20\n        /* \"#utility.yul\":3290:3293   */\n      dup3\n        /* \"#utility.yul\":3286:3300   */\n      add\n        /* \"#utility.yul\":3271:3300   */\n      swap1\n      pop\n        /* \"#utility.yul\":3137:3306   */\n      swap3\n      swap2\n      pop\n      pop\n      jump\t// out\n        /* \"#utility.yul\":3312:3487   */\n    tag_121:\n        /* \"#utility.yul\":3452:3479   */\n      0x43616e746964616420646520455448206e6f2076616c69646100000000000000\n        /* \"#utility.yul\":3448:3449   */\n      0x00\n        /* \"#utility.yul\":3440:3446   */\n      dup3\n        /* \"#utility.yul\":3436:3450   */\n      add\n        /* \"#utility.yul\":3429:3480   */\n      mstore\n        /* \"#utility.yul\":3312:3487   */\n      pop\n      jump\t// out\n        /* \"#utility.yul\":3493:3859   */\n    tag_122:\n        /* \"#utility.yul\":3635:3638   */\n      0x00\n        /* \"#utility.yul\":3656:3723   */\n      tag_181\n        /* \"#utility.yul\":3720:3722   */\n      0x19\n        /* \"#utility.yul\":3715:3718   */\n      dup4\n        /* \"#utility.yul\":3656:3723   */\n      tag_120\n      jump\t// in\n    tag_181:\n        /* \"#utility.yul\":3649:3723   */\n      swap2\n      pop\n        /* \"#utility.yul\":3732:3825   */\n      tag_182\n        /* \"#utility.yul\":3821:3824   */\n      dup3\n        /* \"#utility.yul\":3732:3825   */\n      tag_121\n      jump\t// in\n    tag_182:\n        /* \"#utility.yul\":3850:3852   */\n      0x20\n        /* \"#utility.yul\":3845:3848   */\n      dup3\n        /* \"#utility.yul\":3841:3853   */\n      add\n        /* \"#utility.yul\":3834:3853   */\n      swap1\n      pop\n        /* \"#utility.yul\":3493:3859   */\n      swap2\n      swap1\n      pop\n      jump\t// out\n        /* \"#utility.yul\":3865:4284   */\n    tag_40:\n        /* \"#utility.yul\":4031:4035   */\n      0x00\n        /* \"#utility.yul\":4069:4071   */\n      0x20\n        /* \"#utility.yul\":4058:4067   */\n      dup3\n        /* \"#utility.yul\":4054:4072   */\n      add\n        /* \"#utility.yul\":4046:4072   */\n      swap1\n      pop\n        /* \"#utility.yul\":4118:4127   */\n      dup2\n        /* \"#utility.yul\":4112:4116   */\n      dup2\n        /* \"#utility.yul\":4108:4128   */\n      sub\n        /* \"#utility.yul\":4104:4105   */\n      0x00\n        /* \"#utility.yul\":4093:4102   */\n      dup4\n        /* \"#utility.yul\":4089:4106   */\n      add\n        /* \"#utility.yul\":4082:4129   */\n      mstore\n        /* \"#utility.yul\":4146:4277   */\n      tag_184\n        /* \"#utility.yul\":4272:4276   */\n      dup2\n        /* \"#utility.yul\":4146:4277   */\n      tag_122\n      jump\t// in\n    tag_184:\n        /* \"#utility.yul\":4138:4277   */\n      swap1\n      pop\n        /* \"#utility.yul\":3865:4284   */\n      swap2\n      swap1\n      pop\n      jump\t// out\n        /* \"#utility.yul\":4290:4412   */\n    tag_123:\n        /* \"#utility.yul\":4363:4387   */\n      tag_186\n        /* \"#utility.yul\":4381:4386   */\n      dup2\n        /* \"#utility.yul\":4363:4387   */\n      tag_116\n      jump\t// in\n    tag_186:\n        /* \"#utility.yul\":4356:4361   */\n      dup2\n        /* \"#utility.yul\":4353:4388   */\n      eq\n        /* \"#utility.yul\":4343:4406   */\n      tag_187\n      jumpi\n        /* \"#utility.yul\":4402:4403   */\n      0x00\n        /* \"#utility.yul\":4399:4400   */\n      dup1\n        /* \"#utility.yul\":4392:4404   */\n      revert\n        /* \"#utility.yul\":4343:4406   */\n    tag_187:\n        /* \"#utility.yul\":4290:4412   */\n      pop\n      jump\t// out\n        /* \"#utility.yul\":4418:4561   */\n    tag_124:\n        /* \"#utility.yul\":4475:4480   */\n      0x00\n        /* \"#utility.yul\":4506:4512   */\n      dup2\n        /* \"#utility.yul\":4500:4513   */\n      mload\n        /* \"#utility.yul\":4491:4513   */\n      swap1\n      pop\n        /* \"#utility.yul\":4522:4555   */\n      tag_189\n        /* \"#utility.yul\":4549:4554   */\n      dup2\n        /* \"#utility.yul\":4522:4555   */\n      tag_123\n      jump\t// in\n    tag_189:\n        /* \"#utility.yul\":4418:4561   */\n      swap3\n      swap2\n      pop\n      pop\n      jump\t// out\n        /* \"#utility.yul\":4567:4918   */\n    tag_45:\n        /* \"#utility.yul\":4637:4643   */\n      0x00\n        /* \"#utility.yul\":4686:4688   */\n      0x20\n        /* \"#utility.yul\":4674:4683   */\n      dup3\n        /* \"#utility.yul\":4665:4672   */\n      dup5\n        /* \"#utility.yul\":4661:4684   */\n      sub\n        /* \"#utility.yul\":4657:4689   */\n      slt\n        /* \"#utility.yul\":4654:4773   */\n      iszero\n      tag_191\n      jumpi\n        /* \"#utility.yul\":4692:4771   */\n      tag_192\n      tag_107\n      jump\t// in\n    tag_192:\n        /* \"#utility.yul\":4654:4773   */\n    tag_191:\n        /* \"#utility.yul\":4812:4813   */\n      0x00\n        /* \"#utility.yul\":4837:4901   */\n      tag_193\n        /* \"#utility.yul\":4893:4900   */\n      dup5\n        /* \"#utility.yul\":4884:4890   */\n      dup3\n        /* \"#utility.yul\":4873:4882   */\n      dup6\n        /* \"#utility.yul\":4869:4891   */\n      add\n        /* \"#utility.yul\":4837:4901   */\n      tag_124\n      jump\t// in\n    tag_193:\n        /* \"#utility.yul\":4827:4901   */\n      swap2\n      pop\n        /* \"#utility.yul\":4783:4911   */\n      pop\n        /* \"#utility.yul\":4567:4918   */\n      swap3\n      swap2\n      pop\n      pop\n      jump\t// out\n        /* \"#utility.yul\":4924:5105   */\n    tag_125:\n        /* \"#utility.yul\":5064:5097   */\n      0x4c61206375656e7461206f726967656e206e6f207469656e652073616c646f00\n        /* \"#utility.yul\":5060:5061   */\n      0x00\n        /* \"#utility.yul\":5052:5058   */\n      dup3\n        /* \"#utility.yul\":5048:5062   */\n      add\n        /* \"#utility.yul\":5041:5098   */\n      mstore\n        /* \"#utility.yul\":4924:5105   */\n      pop\n      jump\t// out\n        /* \"#utility.yul\":5111:5477   */\n    tag_126:\n        /* \"#utility.yul\":5253:5256   */\n      0x00\n        /* \"#utility.yul\":5274:5341   */\n      tag_196\n        /* \"#utility.yul\":5338:5340   */\n      0x1f\n        /* \"#utility.yul\":5333:5336   */\n      dup4\n        /* \"#utility.yul\":5274:5341   */\n      tag_120\n      jump\t// in\n    tag_196:\n        /* \"#utility.yul\":5267:5341   */\n      swap2\n      pop\n        /* \"#utility.yul\":5350:5443   */\n      tag_197\n        /* \"#utility.yul\":5439:5442   */\n      dup3\n        /* \"#utility.yul\":5350:5443   */\n      tag_125\n      jump\t// in\n    tag_197:\n        /* \"#utility.yul\":5468:5470   */\n      0x20\n        /* \"#utility.yul\":5463:5466   */\n      dup3\n        /* \"#utility.yul\":5459:5471   */\n      add\n        /* \"#utility.yul\":5452:5471   */\n      swap1\n      pop\n        /* \"#utility.yul\":5111:5477   */\n      swap2\n      swap1\n      pop\n      jump\t// out\n        /* \"#utility.yul\":5483:5902   */\n    tag_48:\n        /* \"#utility.yul\":5649:5653   */\n      0x00\n        /* \"#utility.yul\":5687:5689   */\n      0x20\n        /* \"#utility.yul\":5676:5685   */\n      dup3\n        /* \"#utility.yul\":5672:5690   */\n      add\n        /* \"#utility.yul\":5664:5690   */\n      swap1\n      pop\n        /* \"#utility.yul\":5736:5745   */\n      dup2\n        /* \"#utility.yul\":5730:5734   */\n      dup2\n        /* \"#utility.yul\":5726:5746   */\n      sub\n        /* \"#utility.yul\":5722:5723   */\n      0x00\n        /* \"#utility.yul\":5711:5720   */\n      dup4\n        /* \"#utility.yul\":5707:5724   */\n      add\n        /* \"#utility.yul\":5700:5747   */\n      mstore\n        /* \"#utility.yul\":5764:5895   */\n      tag_199\n        /* \"#utility.yul\":5890:5894   */\n      dup2\n        /* \"#utility.yul\":5764:5895   */\n      tag_126\n      jump\t// in\n    tag_199:\n        /* \"#utility.yul\":5756:5895   */\n      swap1\n      pop\n        /* \"#utility.yul\":5483:5902   */\n      swap2\n      swap1\n      pop\n      jump\t// out\n        /* \"#utility.yul\":5908:6133   */\n    tag_127:\n        /* \"#utility.yul\":6048:6082   */\n      0x4c6120646972656363696f6e2064656c207265636570746f72206e6f20657320\n        /* \"#utility.yul\":6044:6045   */\n      0x00\n        /* \"#utility.yul\":6036:6042   */\n      dup3\n        /* \"#utility.yul\":6032:6046   */\n      add\n        /* \"#utility.yul\":6025:6083   */\n      mstore\n        /* \"#utility.yul\":6117:6125   */\n      0x76616c6964610000000000000000000000000000000000000000000000000000\n        /* \"#utility.yul\":6112:6114   */\n      0x20\n        /* \"#utility.yul\":6104:6110   */\n      dup3\n        /* \"#utility.yul\":6100:6115   */\n      add\n        /* \"#utility.yul\":6093:6126   */\n      mstore\n        /* \"#utility.yul\":5908:6133   */\n      pop\n      jump\t// out\n        /* \"#utility.yul\":6139:6505   */\n    tag_128:\n        /* \"#utility.yul\":6281:6284   */\n      0x00\n        /* \"#utility.yul\":6302:6369   */\n      tag_202\n        /* \"#utility.yul\":6366:6368   */\n      0x26\n        /* \"#utility.yul\":6361:6364   */\n      dup4\n        /* \"#utility.yul\":6302:6369   */\n      tag_120\n      jump\t// in\n    tag_202:\n        /* \"#utility.yul\":6295:6369   */\n      swap2\n      pop\n        /* \"#utility.yul\":6378:6471   */\n      tag_203\n        /* \"#utility.yul\":6467:6470   */\n      dup3\n        /* \"#utility.yul\":6378:6471   */\n      tag_127\n      jump\t// in\n    tag_203:\n        /* \"#utility.yul\":6496:6498   */\n      0x40\n        /* \"#utility.yul\":6491:6494   */\n      dup3\n        /* \"#utility.yul\":6487:6499   */\n      add\n        /* \"#utility.yul\":6480:6499   */\n      swap1\n      pop\n        /* \"#utility.yul\":6139:6505   */\n      swap2\n      swap1\n      pop\n      jump\t// out\n        /* \"#utility.yul\":6511:6930   */\n    tag_53:\n        /* \"#utility.yul\":6677:6681   */\n      0x00\n        /* \"#utility.yul\":6715:6717   */\n      0x20\n        /* \"#utility.yul\":6704:6713   */\n      dup3\n        /* \"#utility.yul\":6700:6718   */\n      add\n        /* \"#utility.yul\":6692:6718   */\n      swap1\n      pop\n        /* \"#utility.yul\":6764:6773   */\n      dup2\n        /* \"#utility.yul\":6758:6762   */\n      dup2\n        /* \"#utility.yul\":6754:6774   */\n      sub\n        /* \"#utility.yul\":6750:6751   */\n      0x00\n        /* \"#utility.yul\":6739:6748   */\n      dup4\n        /* \"#utility.yul\":6735:6752   */\n      add\n        /* \"#utility.yul\":6728:6775   */\n      mstore\n        /* \"#utility.yul\":6792:6923   */\n      tag_205\n        /* \"#utility.yul\":6918:6922   */\n      dup2\n        /* \"#utility.yul\":6792:6923   */\n      tag_128\n      jump\t// in\n    tag_205:\n        /* \"#utility.yul\":6784:6923   */\n      swap1\n      pop\n        /* \"#utility.yul\":6511:6930   */\n      swap2\n      swap1\n      pop\n      jump\t// out\n        /* \"#utility.yul\":6936:6996   */\n    tag_129:\n        /* \"#utility.yul\":6964:6967   */\n      0x00\n        /* \"#utility.yul\":6985:6990   */\n      dup2\n        /* \"#utility.yul\":6978:6990   */\n      swap1\n      pop\n        /* \"#utility.yul\":6936:6996   */\n      swap2\n      swap1\n      pop\n      jump\t// out\n        /* \"#utility.yul\":7002:7144   */\n    tag_130:\n        /* \"#utility.yul\":7052:7061   */\n      0x00\n        /* \"#utility.yul\":7085:7138   */\n      tag_208\n        /* \"#utility.yul\":7103:7137   */\n      tag_209\n        /* \"#utility.yul\":7112:7136   */\n      tag_210\n        /* \"#utility.yul\":7130:7135   */\n      dup5\n        /* \"#utility.yul\":7112:7136   */\n      tag_109\n      jump\t// in\n    tag_210:\n        /* \"#utility.yul\":7103:7137   */\n      tag_129\n      jump\t// in\n    tag_209:\n        /* \"#utility.yul\":7085:7138   */\n      tag_109\n      jump\t// in\n    tag_208:\n        /* \"#utility.yul\":7072:7138   */\n      swap1\n      pop\n        /* \"#utility.yul\":7002:7144   */\n      swap2\n      swap1\n      pop\n      jump\t// out\n        /* \"#utility.yul\":7150:7276   */\n    tag_131:\n        /* \"#utility.yul\":7200:7209   */\n      0x00\n        /* \"#utility.yul\":7233:7270   */\n      tag_212\n        /* \"#utility.yul\":7264:7269   */\n      dup3\n        /* \"#utility.yul\":7233:7270   */\n      tag_130\n      jump\t// in\n    tag_212:\n        /* \"#utility.yul\":7220:7270   */\n      swap1\n      pop\n        /* \"#utility.yul\":7150:7276   */\n      swap2\n      swap1\n      pop\n      jump\t// out\n        /* \"#utility.yul\":7282:7416   */\n    tag_132:\n        /* \"#utility.yul\":7340:7349   */\n      0x00\n        /* \"#utility.yul\":7373:7410   */\n      tag_214\n        /* \"#utility.yul\":7404:7409   */\n      dup3\n        /* \"#utility.yul\":7373:7410   */\n      tag_131\n      jump\t// in\n    tag_214:\n        /* \"#utility.yul\":7360:7410   */\n      swap1\n      pop\n        /* \"#utility.yul\":7282:7416   */\n      swap2\n      swap1\n      pop\n      jump\t// out\n        /* \"#utility.yul\":7422:7569   */\n    tag_133:\n        /* \"#utility.yul\":7517:7562   */\n      tag_216\n        /* \"#utility.yul\":7556:7561   */\n      dup2\n        /* \"#utility.yul\":7517:7562   */\n      tag_132\n      jump\t// in\n    tag_216:\n        /* \"#utility.yul\":7512:7515   */\n      dup3\n        /* \"#utility.yul\":7505:7563   */\n      mstore\n        /* \"#utility.yul\":7422:7569   */\n      pop\n      pop\n      jump\t// out\n        /* \"#utility.yul\":7575:7923   */\n    tag_61:\n        /* \"#utility.yul\":7704:7708   */\n      0x00\n        /* \"#utility.yul\":7742:7744   */\n      0x40\n        /* \"#utility.yul\":7731:7740   */\n      dup3\n        /* \"#utility.yul\":7727:7745   */\n      add\n        /* \"#utility.yul\":7719:7745   */\n      swap1\n      pop\n        /* \"#utility.yul\":7755:7834   */\n      tag_218\n        /* \"#utility.yul\":7831:7832   */\n      0x00\n        /* \"#utility.yul\":7820:7829   */\n      dup4\n        /* \"#utility.yul\":7816:7833   */\n      add\n        /* \"#utility.yul\":7807:7813   */\n      dup6\n        /* \"#utility.yul\":7755:7834   */\n      tag_133\n      jump\t// in\n    tag_218:\n        /* \"#utility.yul\":7844:7916   */\n      tag_219\n        /* \"#utility.yul\":7912:7914   */\n      0x20\n        /* \"#utility.yul\":7901:7910   */\n      dup4\n        /* \"#utility.yul\":7897:7915   */\n      add\n        /* \"#utility.yul\":7888:7894   */\n      dup5\n        /* \"#utility.yul\":7844:7916   */\n      tag_117\n      jump\t// in\n    tag_219:\n        /* \"#utility.yul\":7575:7923   */\n      swap4\n      swap3\n      pop\n      pop\n      pop\n      jump\t// out\n        /* \"#utility.yul\":7929:8109   */\n    tag_134:\n        /* \"#utility.yul\":7977:8054   */\n      0x4e487b7100000000000000000000000000000000000000000000000000000000\n        /* \"#utility.yul\":7974:7975   */\n      0x00\n        /* \"#utility.yul\":7967:8055   */\n      mstore\n        /* \"#utility.yul\":8074:8078   */\n      0x12\n        /* \"#utility.yul\":8071:8072   */\n      0x04\n        /* \"#utility.yul\":8064:8079   */\n      mstore\n        /* \"#utility.yul\":8098:8102   */\n      0x24\n        /* \"#utility.yul\":8095:8096   */\n      0x00\n        /* \"#utility.yul\":8088:8103   */\n      revert\n        /* \"#utility.yul\":8115:8295   */\n    tag_135:\n        /* \"#utility.yul\":8163:8240   */\n      0x4e487b7100000000000000000000000000000000000000000000000000000000\n        /* \"#utility.yul\":8160:8161   */\n      0x00\n        /* \"#utility.yul\":8153:8241   */\n      mstore\n        /* \"#utility.yul\":8260:8264   */\n      0x11\n        /* \"#utility.yul\":8257:8258   */\n      0x04\n        /* \"#utility.yul\":8250:8265   */\n      mstore\n        /* \"#utility.yul\":8284:8288   */\n      0x24\n        /* \"#utility.yul\":8281:8282   */\n      0x00\n        /* \"#utility.yul\":8274:8289   */\n      revert\n        /* \"#utility.yul\":8301:8486   */\n    tag_91:\n        /* \"#utility.yul\":8341:8342   */\n      0x00\n        /* \"#utility.yul\":8358:8378   */\n      tag_223\n        /* \"#utility.yul\":8376:8377   */\n      dup3\n        /* \"#utility.yul\":8358:8378   */\n      tag_116\n      jump\t// in\n    tag_223:\n        /* \"#utility.yul\":8353:8378   */\n      swap2\n      pop\n        /* \"#utility.yul\":8392:8412   */\n      tag_224\n        /* \"#utility.yul\":8410:8411   */\n      dup4\n        /* \"#utility.yul\":8392:8412   */\n      tag_116\n      jump\t// in\n    tag_224:\n        /* \"#utility.yul\":8387:8412   */\n      swap3\n      pop\n        /* \"#utility.yul\":8431:8432   */\n      dup3\n        /* \"#utility.yul\":8421:8456   */\n      tag_225\n      jumpi\n        /* \"#utility.yul\":8436:8454   */\n      tag_226\n      tag_134\n      jump\t// in\n    tag_226:\n        /* \"#utility.yul\":8421:8456   */\n    tag_225:\n        /* \"#utility.yul\":8478:8479   */\n      dup3\n        /* \"#utility.yul\":8475:8476   */\n      dup3\n        /* \"#utility.yul\":8471:8480   */\n      div\n        /* \"#utility.yul\":8466:8480   */\n      swap1\n      pop\n        /* \"#utility.yul\":8301:8486   */\n      swap3\n      swap2\n      pop\n      pop\n      jump\t// out\n        /* \"#utility.yul\":8492:8672   */\n    tag_95:\n        /* \"#utility.yul\":8540:8617   */\n      0x4e487b7100000000000000000000000000000000000000000000000000000000\n        /* \"#utility.yul\":8537:8538   */\n      0x00\n        /* \"#utility.yul\":8530:8618   */\n      mstore\n        /* \"#utility.yul\":8637:8641   */\n      0x01\n        /* \"#utility.yul\":8634:8635   */\n      0x04\n        /* \"#utility.yul\":8627:8642   */\n      mstore\n        /* \"#utility.yul\":8661:8665   */\n      0x24\n        /* \"#utility.yul\":8658:8659   */\n      0x00\n        /* \"#utility.yul\":8651:8666   */\n      revert\n        /* \"#utility.yul\":8678:8872   */\n    tag_97:\n        /* \"#utility.yul\":8718:8722   */\n      0x00\n        /* \"#utility.yul\":8738:8758   */\n      tag_229\n        /* \"#utility.yul\":8756:8757   */\n      dup3\n        /* \"#utility.yul\":8738:8758   */\n      tag_116\n      jump\t// in\n    tag_229:\n        /* \"#utility.yul\":8733:8758   */\n      swap2\n      pop\n        /* \"#utility.yul\":8772:8792   */\n      tag_230\n        /* \"#utility.yul\":8790:8791   */\n      dup4\n        /* \"#utility.yul\":8772:8792   */\n      tag_116\n      jump\t// in\n    tag_230:\n        /* \"#utility.yul\":8767:8792   */\n      swap3\n      pop\n        /* \"#utility.yul\":8816:8817   */\n      dup3\n        /* \"#utility.yul\":8813:8814   */\n      dup3\n        /* \"#utility.yul\":8809:8818   */\n      sub\n        /* \"#utility.yul\":8801:8818   */\n      swap1\n      pop\n        /* \"#utility.yul\":8840:8841   */\n      dup2\n        /* \"#utility.yul\":8834:8838   */\n      dup2\n        /* \"#utility.yul\":8831:8842   */\n      gt\n        /* \"#utility.yul\":8828:8865   */\n      iszero\n      tag_231\n      jumpi\n        /* \"#utility.yul\":8845:8863   */\n      tag_232\n      tag_135\n      jump\t// in\n    tag_232:\n        /* \"#utility.yul\":8828:8865   */\n    tag_231:\n        /* \"#utility.yul\":8678:8872   */\n      swap3\n      swap2\n      pop\n      pop\n      jump\t// out\n        /* \"#utility.yul\":8878:9288   */\n    tag_101:\n        /* \"#utility.yul\":8918:8925   */\n      0x00\n        /* \"#utility.yul\":8941:8961   */\n      tag_234\n        /* \"#utility.yul\":8959:8960   */\n      dup3\n        /* \"#utility.yul\":8941:8961   */\n      tag_116\n      jump\t// in\n    tag_234:\n        /* \"#utility.yul\":8936:8961   */\n      swap2\n      pop\n        /* \"#utility.yul\":8975:8995   */\n      tag_235\n        /* \"#utility.yul\":8993:8994   */\n      dup4\n        /* \"#utility.yul\":8975:8995   */\n      tag_116\n      jump\t// in\n    tag_235:\n        /* \"#utility.yul\":8970:8995   */\n      swap3\n      pop\n        /* \"#utility.yul\":9030:9031   */\n      dup3\n        /* \"#utility.yul\":9027:9028   */\n      dup3\n        /* \"#utility.yul\":9023:9032   */\n      mul\n        /* \"#utility.yul\":9052:9082   */\n      tag_236\n        /* \"#utility.yul\":9070:9081   */\n      dup2\n        /* \"#utility.yul\":9052:9082   */\n      tag_116\n      jump\t// in\n    tag_236:\n        /* \"#utility.yul\":9041:9082   */\n      swap2\n      pop\n        /* \"#utility.yul\":9231:9232   */\n      dup3\n        /* \"#utility.yul\":9222:9229   */\n      dup3\n        /* \"#utility.yul\":9218:9233   */\n      div\n        /* \"#utility.yul\":9215:9216   */\n      dup5\n        /* \"#utility.yul\":9212:9234   */\n      eq\n        /* \"#utility.yul\":9192:9193   */\n      dup4\n        /* \"#utility.yul\":9185:9194   */\n      iszero\n        /* \"#utility.yul\":9165:9248   */\n      or\n        /* \"#utility.yul\":9142:9281   */\n      tag_237\n      jumpi\n        /* \"#utility.yul\":9261:9279   */\n      tag_238\n      tag_135\n      jump\t// in\n    tag_238:\n        /* \"#utility.yul\":9142:9281   */\n    tag_237:\n        /* \"#utility.yul\":8926:9288   */\n      pop\n        /* \"#utility.yul\":8878:9288   */\n      swap3\n      swap2\n      pop\n      pop\n      jump\t// out\n        /* \"#utility.yul\":9294:9514   */\n    tag_136:\n        /* \"#utility.yul\":9434:9468   */\n      0x536166654d6174683a206d756c7469706c69636174696f6e206f766572666c6f\n        /* \"#utility.yul\":9430:9431   */\n      0x00\n        /* \"#utility.yul\":9422:9428   */\n      dup3\n        /* \"#utility.yul\":9418:9432   */\n      add\n        /* \"#utility.yul\":9411:9469   */\n      mstore\n        /* \"#utility.yul\":9503:9506   */\n      0x7700000000000000000000000000000000000000000000000000000000000000\n        /* \"#utility.yul\":9498:9500   */\n      0x20\n        /* \"#utility.yul\":9490:9496   */\n      dup3\n        /* \"#utility.yul\":9486:9501   */\n      add\n        /* \"#utility.yul\":9479:9507   */\n      mstore\n        /* \"#utility.yul\":9294:9514   */\n      pop\n      jump\t// out\n        /* \"#utility.yul\":9520:9886   */\n    tag_137:\n        /* \"#utility.yul\":9662:9665   */\n      0x00\n        /* \"#utility.yul\":9683:9750   */\n      tag_241\n        /* \"#utility.yul\":9747:9749   */\n      0x21\n        /* \"#utility.yul\":9742:9745   */\n      dup4\n        /* \"#utility.yul\":9683:9750   */\n      tag_120\n      jump\t// in\n    tag_241:\n        /* \"#utility.yul\":9676:9750   */\n      swap2\n      pop\n        /* \"#utility.yul\":9759:9852   */\n      tag_242\n        /* \"#utility.yul\":9848:9851   */\n      dup3\n        /* \"#utility.yul\":9759:9852   */\n      tag_136\n      jump\t// in\n    tag_242:\n        /* \"#utility.yul\":9877:9879   */\n      0x40\n        /* \"#utility.yul\":9872:9875   */\n      dup3\n        /* \"#utility.yul\":9868:9880   */\n      add\n        /* \"#utility.yul\":9861:9880   */\n      swap1\n      pop\n        /* \"#utility.yul\":9520:9886   */\n      swap2\n      swap1\n      pop\n      jump\t// out\n        /* \"#utility.yul\":9892:10311   */\n    tag_105:\n        /* \"#utility.yul\":10058:10062   */\n      0x00\n        /* \"#utility.yul\":10096:10098   */\n      0x20\n        /* \"#utility.yul\":10085:10094   */\n      dup3\n        /* \"#utility.yul\":10081:10099   */\n      add\n        /* \"#utility.yul\":10073:10099   */\n      swap1\n      pop\n        /* \"#utility.yul\":10145:10154   */\n      dup2\n        /* \"#utility.yul\":10139:10143   */\n      dup2\n        /* \"#utility.yul\":10135:10155   */\n      sub\n        /* \"#utility.yul\":10131:10132   */\n      0x00\n        /* \"#utility.yul\":10120:10129   */\n      dup4\n        /* \"#utility.yul\":10116:10133   */\n      add\n        /* \"#utility.yul\":10109:10156   */\n      mstore\n        /* \"#utility.yul\":10173:10304   */\n      tag_244\n        /* \"#utility.yul\":10299:10303   */\n      dup2\n        /* \"#utility.yul\":10173:10304   */\n      tag_137\n      jump\t// in\n    tag_244:\n        /* \"#utility.yul\":10165:10304   */\n      swap1\n      pop\n        /* \"#utility.yul\":9892:10311   */\n      swap2\n      swap1\n      pop\n      jump\t// out\n\n    auxdata: 0xa26469706673582212207e48f75fe538d040a134752d3c1a785005cc1d0a79574ec0a2f400de2d79d02564736f6c63430008120033\n}\n",
				"bytecode": {
					"linkReferences": {},
					"object": "60806040527372f188f3767fe8fe835b7b22191f28a3b19562d1600260006101000a81548173ffffffffffffffffffffffffffffffffffffffff021916908373ffffffffffffffffffffffffffffffffffffffff160217905550670de0b6b3a764000060035534801561007157600080fd5b50336000806101000a81548173ffffffffffffffffffffffffffffffffffffffff021916908373ffffffffffffffffffffffffffffffffffffffff16021790555030600160006101000a81548173ffffffffffffffffffffffffffffffffffffffff021916908373ffffffffffffffffffffffffffffffffffffffff160217905550610d75806101026000396000f3fe6080604052600436106100555760003560e01c80633b92f3df1461005a5780633ec4de3514610076578063893d20e8146100b35780638b7afe2e146100de578063bbea8f7514610109578063e1a01e6714610125575b600080fd5b610074600480360381019061006f91906107fd565b610150565b005b34801561008257600080fd5b5061009d60048036038101906100989190610868565b6103e7565b6040516100aa91906108ae565b60405180910390f35b3480156100bf57600080fd5b506100c8610408565b6040516100d591906108d8565b60405180910390f35b3480156100ea57600080fd5b506100f3610431565b60405161010091906108ae565b60405180910390f35b610123600480360381019061011e91906107fd565b610439565b005b34801561013157600080fd5b5061013a610611565b6040516101479190610902565b60405180910390f35b60003411801561016257506003543411155b6101a1576040517f08c379a00000000000000000000000000000000000000000000000000000000081526004016101989061097a565b60405180910390fd5b60003073ffffffffffffffffffffffffffffffffffffffff16633ec4de35336040518263ffffffff1660e01b81526004016101dc91906108d8565b602060405180830381865afa1580156101f9573d6000803e3d6000fd5b505050506040513d601f19601f8201168201806040525081019061021d91906109c6565b1461025d576040517f08c379a000000000000000000000000000000000000000000000000000000000815260040161025490610a3f565b60405180910390fd5b61026681610637565b6102a5576040517f08c379a000000000000000000000000000000000000000000000000000000000815260040161029c90610ad1565b60405180910390fd5b60006102b0346106d9565b905060006102be34836106f9565b9050600260009054906101000a900473ffffffffffffffffffffffffffffffffffffffff1673ffffffffffffffffffffffffffffffffffffffff166108fc839081150290604051600060405180830381858888f19350505050158015610328573d6000803e3d6000fd5b507f6ef95f06320e7a25a04a175ca677b7052bdd97131872c2192525a629f51be770838360405161035a929190610b50565b60405180910390a18273ffffffffffffffffffffffffffffffffffffffff166108fc829081150290604051600060405180830381858888f193505050501580156103a8573d6000803e3d6000fd5b507f6ef95f06320e7a25a04a175ca677b7052bdd97131872c2192525a629f51be77083826040516103da929190610b50565b60405180910390a1505050565b60008173ffffffffffffffffffffffffffffffffffffffff16319050919050565b60008060009054906101000a900473ffffffffffffffffffffffffffffffffffffffff16905090565b600047905090565b61044281610637565b610481576040517f08c379a000000000000000000000000000000000000000000000000000000000815260040161047890610ad1565b60405180910390fd5b60003411801561049357506003543411155b6104d2576040517f08c379a00000000000000000000000000000000000000000000000000000000081526004016104c99061097a565b60405180910390fd5b60003073ffffffffffffffffffffffffffffffffffffffff16633ec4de35336040518263ffffffff1660e01b815260040161050d91906108d8565b602060405180830381865afa15801561052a573d6000803e3d6000fd5b505050506040513d601f19601f8201168201806040525081019061054e91906109c6565b1161058e576040517f08c379a000000000000000000000000000000000000000000000000000000000815260040161058590610a3f565b60405180910390fd5b8073ffffffffffffffffffffffffffffffffffffffff166108fc349081150290604051600060405180830381858888f193505050501580156105d4573d6000803e3d6000fd5b507f47db2abce6d5fbcd80ffd9b4ba74dcde804a746ef732bc7f8a70fabfc912c5908134604051610606929190610b50565b60405180910390a150565b600160009054906101000a900473ffffffffffffffffffffffffffffffffffffffff1681565b60008073ffffffffffffffffffffffffffffffffffffffff168273ffffffffffffffffffffffffffffffffffffffff16141580156106c35750600160009054906101000a900473ffffffffffffffffffffffffffffffffffffffff1673ffffffffffffffffffffffffffffffffffffffff168273ffffffffffffffffffffffffffffffffffffffff1614155b80156106d2575060148060ff16145b9050919050565b600060646106e8836002610720565b6106f29190610bd7565b9050919050565b60008282111561070c5761070b610c08565b5b81836107189190610c37565b905092915050565b60008083036107325760009050610794565b600082846107409190610c6b565b905082848261074f9190610bd7565b1461078f576040517f08c379a000000000000000000000000000000000000000000000000000000000815260040161078690610d1f565b60405180910390fd5b809150505b92915050565b600080fd5b600073ffffffffffffffffffffffffffffffffffffffff82169050919050565b60006107ca8261079f565b9050919050565b6107da816107bf565b81146107e557600080fd5b50565b6000813590506107f7816107d1565b92915050565b6000602082840312156108135761081261079a565b5b6000610821848285016107e8565b91505092915050565b60006108358261079f565b9050919050565b6108458161082a565b811461085057600080fd5b50565b6000813590506108628161083c565b92915050565b60006020828403121561087e5761087d61079a565b5b600061088c84828501610853565b91505092915050565b6000819050919050565b6108a881610895565b82525050565b60006020820190506108c3600083018461089f565b92915050565b6108d28161082a565b82525050565b60006020820190506108ed60008301846108c9565b92915050565b6108fc816107bf565b82525050565b600060208201905061091760008301846108f3565b92915050565b600082825260208201905092915050565b7f43616e746964616420646520455448206e6f2076616c69646100000000000000600082015250565b600061096460198361091d565b915061096f8261092e565b602082019050919050565b6000602082019050818103600083015261099381610957565b9050919050565b6109a381610895565b81146109ae57600080fd5b50565b6000815190506109c08161099a565b92915050565b6000602082840312156109dc576109db61079a565b5b60006109ea848285016109b1565b91505092915050565b7f4c61206375656e7461206f726967656e206e6f207469656e652073616c646f00600082015250565b6000610a29601f8361091d565b9150610a34826109f3565b602082019050919050565b60006020820190508181036000830152610a5881610a1c565b9050919050565b7f4c6120646972656363696f6e2064656c207265636570746f72206e6f2065732060008201527f76616c6964610000000000000000000000000000000000000000000000000000602082015250565b6000610abb60268361091d565b9150610ac682610a5f565b604082019050919050565b60006020820190508181036000830152610aea81610aae565b9050919050565b6000819050919050565b6000610b16610b11610b0c8461079f565b610af1565b61079f565b9050919050565b6000610b2882610afb565b9050919050565b6000610b3a82610b1d565b9050919050565b610b4a81610b2f565b82525050565b6000604082019050610b656000830185610b41565b610b72602083018461089f565b9392505050565b7f4e487b7100000000000000000000000000000000000000000000000000000000600052601260045260246000fd5b7f4e487b7100000000000000000000000000000000000000000000000000000000600052601160045260246000fd5b6000610be282610895565b9150610bed83610895565b925082610bfd57610bfc610b79565b5b828204905092915050565b7f4e487b7100000000000000000000000000000000000000000000000000000000600052600160045260246000fd5b6000610c4282610895565b9150610c4d83610895565b9250828203905081811115610c6557610c64610ba8565b5b92915050565b6000610c7682610895565b9150610c8183610895565b9250828202610c8f81610895565b91508282048414831517610ca657610ca5610ba8565b5b5092915050565b7f536166654d6174683a206d756c7469706c69636174696f6e206f766572666c6f60008201527f7700000000000000000000000000000000000000000000000000000000000000602082015250565b6000610d0960218361091d565b9150610d1482610cad565b604082019050919050565b60006020820190508181036000830152610d3881610cfc565b905091905056fea26469706673582212207e48f75fe538d040a134752d3c1a785005cc1d0a79574ec0a2f400de2d79d02564736f6c63430008120033",
					"opcodes": "PUSH1 0x80 PUSH1 0x40 MSTORE PUSH20 0x72F188F3767FE8FE835B7B22191F28A3B19562D1 PUSH1 0x2 PUSH1 0x0 PUSH2 0x100 EXP DUP2 SLOAD DUP2 PUSH20 0xFFFFFFFFFFFFFFFFFFFFFFFFFFFFFFFFFFFFFFFF MUL NOT AND SWAP1 DUP4 PUSH20 0xFFFFFFFFFFFFFFFFFFFFFFFFFFFFFFFFFFFFFFFF AND MUL OR SWAP1 SSTORE POP PUSH8 0xDE0B6B3A7640000 PUSH1 0x3 SSTORE CALLVALUE DUP1 ISZERO PUSH2 0x71 JUMPI PUSH1 0x0 DUP1 REVERT JUMPDEST POP CALLER PUSH1 0x0 DUP1 PUSH2 0x100 EXP DUP2 SLOAD DUP2 PUSH20 0xFFFFFFFFFFFFFFFFFFFFFFFFFFFFFFFFFFFFFFFF MUL NOT AND SWAP1 DUP4 PUSH20 0xFFFFFFFFFFFFFFFFFFFFFFFFFFFFFFFFFFFFFFFF AND MUL OR SWAP1 SSTORE POP ADDRESS PUSH1 0x1 PUSH1 0x0 PUSH2 0x100 EXP DUP2 SLOAD DUP2 PUSH20 0xFFFFFFFFFFFFFFFFFFFFFFFFFFFFFFFFFFFFFFFF MUL NOT AND SWAP1 DUP4 PUSH20 0xFFFFFFFFFFFFFFFFFFFFFFFFFFFFFFFFFFFFFFFF AND MUL OR SWAP1 SSTORE POP PUSH2 0xD75 DUP1 PUSH2 0x102 PUSH1 0x0 CODECOPY PUSH1 0x0 RETURN INVALID PUSH1 0x80 PUSH1 0x40 MSTORE PUSH1 0x4 CALLDATASIZE LT PUSH2 0x55 JUMPI PUSH1 0x0 CALLDATALOAD PUSH1 0xE0 SHR DUP1 PUSH4 0x3B92F3DF EQ PUSH2 0x5A JUMPI DUP1 PUSH4 0x3EC4DE35 EQ PUSH2 0x76 JUMPI DUP1 PUSH4 0x893D20E8 EQ PUSH2 0xB3 JUMPI DUP1 PUSH4 0x8B7AFE2E EQ PUSH2 0xDE JUMPI DUP1 PUSH4 0xBBEA8F75 EQ PUSH2 0x109 JUMPI DUP1 PUSH4 0xE1A01E67 EQ PUSH2 0x125 JUMPI JUMPDEST PUSH1 0x0 DUP1 REVERT JUMPDEST PUSH2 0x74 PUSH1 0x4 DUP1 CALLDATASIZE SUB DUP2 ADD SWAP1 PUSH2 0x6F SWAP2 SWAP1 PUSH2 0x7FD JUMP JUMPDEST PUSH2 0x150 JUMP JUMPDEST STOP JUMPDEST CALLVALUE DUP1 ISZERO PUSH2 0x82 JUMPI PUSH1 0x0 DUP1 REVERT JUMPDEST POP PUSH2 0x9D PUSH1 0x4 DUP1 CALLDATASIZE SUB DUP2 ADD SWAP1 PUSH2 0x98 SWAP2 SWAP1 PUSH2 0x868 JUMP JUMPDEST PUSH2 0x3E7 JUMP JUMPDEST PUSH1 0x40 MLOAD PUSH2 0xAA SWAP2 SWAP1 PUSH2 0x8AE JUMP JUMPDEST PUSH1 0x40 MLOAD DUP1 SWAP2 SUB SWAP1 RETURN JUMPDEST CALLVALUE DUP1 ISZERO PUSH2 0xBF JUMPI PUSH1 0x0 DUP1 REVERT JUMPDEST POP PUSH2 0xC8 PUSH2 0x408 JUMP JUMPDEST PUSH1 0x40 MLOAD PUSH2 0xD5 SWAP2 SWAP1 PUSH2 0x8D8 JUMP JUMPDEST PUSH1 0x40 MLOAD DUP1 SWAP2 SUB SWAP1 RETURN JUMPDEST CALLVALUE DUP1 ISZERO PUSH2 0xEA JUMPI PUSH1 0x0 DUP1 REVERT JUMPDEST POP PUSH2 0xF3 PUSH2 0x431 JUMP JUMPDEST PUSH1 0x40 MLOAD PUSH2 0x100 SWAP2 SWAP1 PUSH2 0x8AE JUMP JUMPDEST PUSH1 0x40 MLOAD DUP1 SWAP2 SUB SWAP1 RETURN JUMPDEST PUSH2 0x123 PUSH1 0x4 DUP1 CALLDATASIZE SUB DUP2 ADD SWAP1 PUSH2 0x11E SWAP2 SWAP1 PUSH2 0x7FD JUMP JUMPDEST PUSH2 0x439 JUMP JUMPDEST STOP JUMPDEST CALLVALUE DUP1 ISZERO PUSH2 0x131 JUMPI PUSH1 0x0 DUP1 REVERT JUMPDEST POP PUSH2 0x13A PUSH2 0x611 JUMP JUMPDEST PUSH1 0x40 MLOAD PUSH2 0x147 SWAP2 SWAP1 PUSH2 0x902 JUMP JUMPDEST PUSH1 0x40 MLOAD DUP1 SWAP2 SUB SWAP1 RETURN JUMPDEST PUSH1 0x0 CALLVALUE GT DUP1 ISZERO PUSH2 0x162 JUMPI POP PUSH1 0x3 SLOAD CALLVALUE GT ISZERO JUMPDEST PUSH2 0x1A1 JUMPI PUSH1 0x40 MLOAD PUSH32 0x8C379A000000000000000000000000000000000000000000000000000000000 DUP2 MSTORE PUSH1 0x4 ADD PUSH2 0x198 SWAP1 PUSH2 0x97A JUMP JUMPDEST PUSH1 0x40 MLOAD DUP1 SWAP2 SUB SWAP1 REVERT JUMPDEST PUSH1 0x0 ADDRESS PUSH20 0xFFFFFFFFFFFFFFFFFFFFFFFFFFFFFFFFFFFFFFFF AND PUSH4 0x3EC4DE35 CALLER PUSH1 0x40 MLOAD DUP3 PUSH4 0xFFFFFFFF AND PUSH1 0xE0 SHL DUP2 MSTORE PUSH1 0x4 ADD PUSH2 0x1DC SWAP2 SWAP1 PUSH2 0x8D8 JUMP JUMPDEST PUSH1 0x20 PUSH1 0x40 MLOAD DUP1 DUP4 SUB DUP2 DUP7 GAS STATICCALL ISZERO DUP1 ISZERO PUSH2 0x1F9 JUMPI RETURNDATASIZE PUSH1 0x0 DUP1 RETURNDATACOPY RETURNDATASIZE PUSH1 0x0 REVERT JUMPDEST POP POP POP POP PUSH1 0x40 MLOAD RETURNDATASIZE PUSH1 0x1F NOT PUSH1 0x1F DUP3 ADD AND DUP3 ADD DUP1 PUSH1 0x40 MSTORE POP DUP2 ADD SWAP1 PUSH2 0x21D SWAP2 SWAP1 PUSH2 0x9C6 JUMP JUMPDEST EQ PUSH2 0x25D JUMPI PUSH1 0x40 MLOAD PUSH32 0x8C379A000000000000000000000000000000000000000000000000000000000 DUP2 MSTORE PUSH1 0x4 ADD PUSH2 0x254 SWAP1 PUSH2 0xA3F JUMP JUMPDEST PUSH1 0x40 MLOAD DUP1 SWAP2 SUB SWAP1 REVERT JUMPDEST PUSH2 0x266 DUP2 PUSH2 0x637 JUMP JUMPDEST PUSH2 0x2A5 JUMPI PUSH1 0x40 MLOAD PUSH32 0x8C379A000000000000000000000000000000000000000000000000000000000 DUP2 MSTORE PUSH1 0x4 ADD PUSH2 0x29C SWAP1 PUSH2 0xAD1 JUMP JUMPDEST PUSH1 0x40 MLOAD DUP1 SWAP2 SUB SWAP1 REVERT JUMPDEST PUSH1 0x0 PUSH2 0x2B0 CALLVALUE PUSH2 0x6D9 JUMP JUMPDEST SWAP1 POP PUSH1 0x0 PUSH2 0x2BE CALLVALUE DUP4 PUSH2 0x6F9 JUMP JUMPDEST SWAP1 POP PUSH1 0x2 PUSH1 0x0 SWAP1 SLOAD SWAP1 PUSH2 0x100 EXP SWAP1 DIV PUSH20 0xFFFFFFFFFFFFFFFFFFFFFFFFFFFFFFFFFFFFFFFF AND PUSH20 0xFFFFFFFFFFFFFFFFFFFFFFFFFFFFFFFFFFFFFFFF AND PUSH2 0x8FC DUP4 SWAP1 DUP2 ISZERO MUL SWAP1 PUSH1 0x40 MLOAD PUSH1 0x0 PUSH1 0x40 MLOAD DUP1 DUP4 SUB DUP2 DUP6 DUP9 DUP9 CALL SWAP4 POP POP POP POP ISZERO DUP1 ISZERO PUSH2 0x328 JUMPI RETURNDATASIZE PUSH1 0x0 DUP1 RETURNDATACOPY RETURNDATASIZE PUSH1 0x0 REVERT JUMPDEST POP PUSH32 0x6EF95F06320E7A25A04A175CA677B7052BDD97131872C2192525A629F51BE770 DUP4 DUP4 PUSH1 0x40 MLOAD PUSH2 0x35A SWAP3 SWAP2 SWAP1 PUSH2 0xB50 JUMP JUMPDEST PUSH1 0x40 MLOAD DUP1 SWAP2 SUB SWAP1 LOG1 DUP3 PUSH20 0xFFFFFFFFFFFFFFFFFFFFFFFFFFFFFFFFFFFFFFFF AND PUSH2 0x8FC DUP3 SWAP1 DUP2 ISZERO MUL SWAP1 PUSH1 0x40 MLOAD PUSH1 0x0 PUSH1 0x40 MLOAD DUP1 DUP4 SUB DUP2 DUP6 DUP9 DUP9 CALL SWAP4 POP POP POP POP ISZERO DUP1 ISZERO PUSH2 0x3A8 JUMPI RETURNDATASIZE PUSH1 0x0 DUP1 RETURNDATACOPY RETURNDATASIZE PUSH1 0x0 REVERT JUMPDEST POP PUSH32 0x6EF95F06320E7A25A04A175CA677B7052BDD97131872C2192525A629F51BE770 DUP4 DUP3 PUSH1 0x40 MLOAD PUSH2 0x3DA SWAP3 SWAP2 SWAP1 PUSH2 0xB50 JUMP JUMPDEST PUSH1 0x40 MLOAD DUP1 SWAP2 SUB SWAP1 LOG1 POP POP POP JUMP JUMPDEST PUSH1 0x0 DUP2 PUSH20 0xFFFFFFFFFFFFFFFFFFFFFFFFFFFFFFFFFFFFFFFF AND BALANCE SWAP1 POP SWAP2 SWAP1 POP JUMP JUMPDEST PUSH1 0x0 DUP1 PUSH1 0x0 SWAP1 SLOAD SWAP1 PUSH2 0x100 EXP SWAP1 DIV PUSH20 0xFFFFFFFFFFFFFFFFFFFFFFFFFFFFFFFFFFFFFFFF AND SWAP1 POP SWAP1 JUMP JUMPDEST PUSH1 0x0 SELFBALANCE SWAP1 POP SWAP1 JUMP JUMPDEST PUSH2 0x442 DUP2 PUSH2 0x637 JUMP JUMPDEST PUSH2 0x481 JUMPI PUSH1 0x40 MLOAD PUSH32 0x8C379A000000000000000000000000000000000000000000000000000000000 DUP2 MSTORE PUSH1 0x4 ADD PUSH2 0x478 SWAP1 PUSH2 0xAD1 JUMP JUMPDEST PUSH1 0x40 MLOAD DUP1 SWAP2 SUB SWAP1 REVERT JUMPDEST PUSH1 0x0 CALLVALUE GT DUP1 ISZERO PUSH2 0x493 JUMPI POP PUSH1 0x3 SLOAD CALLVALUE GT ISZERO JUMPDEST PUSH2 0x4D2 JUMPI PUSH1 0x40 MLOAD PUSH32 0x8C379A000000000000000000000000000000000000000000000000000000000 DUP2 MSTORE PUSH1 0x4 ADD PUSH2 0x4C9 SWAP1 PUSH2 0x97A JUMP JUMPDEST PUSH1 0x40 MLOAD DUP1 SWAP2 SUB SWAP1 REVERT JUMPDEST PUSH1 0x0 ADDRESS PUSH20 0xFFFFFFFFFFFFFFFFFFFFFFFFFFFFFFFFFFFFFFFF AND PUSH4 0x3EC4DE35 CALLER PUSH1 0x40 MLOAD DUP3 PUSH4 0xFFFFFFFF AND PUSH1 0xE0 SHL DUP2 MSTORE PUSH1 0x4 ADD PUSH2 0x50D SWAP2 SWAP1 PUSH2 0x8D8 JUMP JUMPDEST PUSH1 0x20 PUSH1 0x40 MLOAD DUP1 DUP4 SUB DUP2 DUP7 GAS STATICCALL ISZERO DUP1 ISZERO PUSH2 0x52A JUMPI RETURNDATASIZE PUSH1 0x0 DUP1 RETURNDATACOPY RETURNDATASIZE PUSH1 0x0 REVERT JUMPDEST POP POP POP POP PUSH1 0x40 MLOAD RETURNDATASIZE PUSH1 0x1F NOT PUSH1 0x1F DUP3 ADD AND DUP3 ADD DUP1 PUSH1 0x40 MSTORE POP DUP2 ADD SWAP1 PUSH2 0x54E SWAP2 SWAP1 PUSH2 0x9C6 JUMP JUMPDEST GT PUSH2 0x58E JUMPI PUSH1 0x40 MLOAD PUSH32 0x8C379A000000000000000000000000000000000000000000000000000000000 DUP2 MSTORE PUSH1 0x4 ADD PUSH2 0x585 SWAP1 PUSH2 0xA3F JUMP JUMPDEST PUSH1 0x40 MLOAD DUP1 SWAP2 SUB SWAP1 REVERT JUMPDEST DUP1 PUSH20 0xFFFFFFFFFFFFFFFFFFFFFFFFFFFFFFFFFFFFFFFF AND PUSH2 0x8FC CALLVALUE SWAP1 DUP2 ISZERO MUL SWAP1 PUSH1 0x40 MLOAD PUSH1 0x0 PUSH1 0x40 MLOAD DUP1 DUP4 SUB DUP2 DUP6 DUP9 DUP9 CALL SWAP4 POP POP POP POP ISZERO DUP1 ISZERO PUSH2 0x5D4 JUMPI RETURNDATASIZE PUSH1 0x0 DUP1 RETURNDATACOPY RETURNDATASIZE PUSH1 0x0 REVERT JUMPDEST POP PUSH32 0x47DB2ABCE6D5FBCD80FFD9B4BA74DCDE804A746EF732BC7F8A70FABFC912C590 DUP2 CALLVALUE PUSH1 0x40 MLOAD PUSH2 0x606 SWAP3 SWAP2 SWAP1 PUSH2 0xB50 JUMP JUMPDEST PUSH1 0x40 MLOAD DUP1 SWAP2 SUB SWAP1 LOG1 POP JUMP JUMPDEST PUSH1 0x1 PUSH1 0x0 SWAP1 SLOAD SWAP1 PUSH2 0x100 EXP SWAP1 DIV PUSH20 0xFFFFFFFFFFFFFFFFFFFFFFFFFFFFFFFFFFFFFFFF AND DUP2 JUMP JUMPDEST PUSH1 0x0 DUP1 PUSH20 0xFFFFFFFFFFFFFFFFFFFFFFFFFFFFFFFFFFFFFFFF AND DUP3 PUSH20 0xFFFFFFFFFFFFFFFFFFFFFFFFFFFFFFFFFFFFFFFF AND EQ ISZERO DUP1 ISZERO PUSH2 0x6C3 JUMPI POP PUSH1 0x1 PUSH1 0x0 SWAP1 SLOAD SWAP1 PUSH2 0x100 EXP SWAP1 DIV PUSH20 0xFFFFFFFFFFFFFFFFFFFFFFFFFFFFFFFFFFFFFFFF AND PUSH20 0xFFFFFFFFFFFFFFFFFFFFFFFFFFFFFFFFFFFFFFFF AND DUP3 PUSH20 0xFFFFFFFFFFFFFFFFFFFFFFFFFFFFFFFFFFFFFFFF AND EQ ISZERO JUMPDEST DUP1 ISZERO PUSH2 0x6D2 JUMPI POP PUSH1 0x14 DUP1 PUSH1 0xFF AND EQ JUMPDEST SWAP1 POP SWAP2 SWAP1 POP JUMP JUMPDEST PUSH1 0x0 PUSH1 0x64 PUSH2 0x6E8 DUP4 PUSH1 0x2 PUSH2 0x720 JUMP JUMPDEST PUSH2 0x6F2 SWAP2 SWAP1 PUSH2 0xBD7 JUMP JUMPDEST SWAP1 POP SWAP2 SWAP1 POP JUMP JUMPDEST PUSH1 0x0 DUP3 DUP3 GT ISZERO PUSH2 0x70C JUMPI PUSH2 0x70B PUSH2 0xC08 JUMP JUMPDEST JUMPDEST DUP2 DUP4 PUSH2 0x718 SWAP2 SWAP1 PUSH2 0xC37 JUMP JUMPDEST SWAP1 POP SWAP3 SWAP2 POP POP JUMP JUMPDEST PUSH1 0x0 DUP1 DUP4 SUB PUSH2 0x732 JUMPI PUSH1 0x0 SWAP1 POP PUSH2 0x794 JUMP JUMPDEST PUSH1 0x0 DUP3 DUP5 PUSH2 0x740 SWAP2 SWAP1 PUSH2 0xC6B JUMP JUMPDEST SWAP1 POP DUP3 DUP5 DUP3 PUSH2 0x74F SWAP2 SWAP1 PUSH2 0xBD7 JUMP JUMPDEST EQ PUSH2 0x78F JUMPI PUSH1 0x40 MLOAD PUSH32 0x8C379A000000000000000000000000000000000000000000000000000000000 DUP2 MSTORE PUSH1 0x4 ADD PUSH2 0x786 SWAP1 PUSH2 0xD1F JUMP JUMPDEST PUSH1 0x40 MLOAD DUP1 SWAP2 SUB SWAP1 REVERT JUMPDEST DUP1 SWAP2 POP POP JUMPDEST SWAP3 SWAP2 POP POP JUMP JUMPDEST PUSH1 0x0 DUP1 REVERT JUMPDEST PUSH1 0x0 PUSH20 0xFFFFFFFFFFFFFFFFFFFFFFFFFFFFFFFFFFFFFFFF DUP3 AND SWAP1 POP SWAP2 SWAP1 POP JUMP JUMPDEST PUSH1 0x0 PUSH2 0x7CA DUP3 PUSH2 0x79F JUMP JUMPDEST SWAP1 POP SWAP2 SWAP1 POP JUMP JUMPDEST PUSH2 0x7DA DUP2 PUSH2 0x7BF JUMP JUMPDEST DUP2 EQ PUSH2 0x7E5 JUMPI PUSH1 0x0 DUP1 REVERT JUMPDEST POP JUMP JUMPDEST PUSH1 0x0 DUP2 CALLDATALOAD SWAP1 POP PUSH2 0x7F7 DUP2 PUSH2 0x7D1 JUMP JUMPDEST SWAP3 SWAP2 POP POP JUMP JUMPDEST PUSH1 0x0 PUSH1 0x20 DUP3 DUP5 SUB SLT ISZERO PUSH2 0x813 JUMPI PUSH2 0x812 PUSH2 0x79A JUMP JUMPDEST JUMPDEST PUSH1 0x0 PUSH2 0x821 DUP5 DUP3 DUP6 ADD PUSH2 0x7E8 JUMP JUMPDEST SWAP2 POP POP SWAP3 SWAP2 POP POP JUMP JUMPDEST PUSH1 0x0 PUSH2 0x835 DUP3 PUSH2 0x79F JUMP JUMPDEST SWAP1 POP SWAP2 SWAP1 POP JUMP JUMPDEST PUSH2 0x845 DUP2 PUSH2 0x82A JUMP JUMPDEST DUP2 EQ PUSH2 0x850 JUMPI PUSH1 0x0 DUP1 REVERT JUMPDEST POP JUMP JUMPDEST PUSH1 0x0 DUP2 CALLDATALOAD SWAP1 POP PUSH2 0x862 DUP2 PUSH2 0x83C JUMP JUMPDEST SWAP3 SWAP2 POP POP JUMP JUMPDEST PUSH1 0x0 PUSH1 0x20 DUP3 DUP5 SUB SLT ISZERO PUSH2 0x87E JUMPI PUSH2 0x87D PUSH2 0x79A JUMP JUMPDEST JUMPDEST PUSH1 0x0 PUSH2 0x88C DUP5 DUP3 DUP6 ADD PUSH2 0x853 JUMP JUMPDEST SWAP2 POP POP SWAP3 SWAP2 POP POP JUMP JUMPDEST PUSH1 0x0 DUP2 SWAP1 POP SWAP2 SWAP1 POP JUMP JUMPDEST PUSH2 0x8A8 DUP2 PUSH2 0x895 JUMP JUMPDEST DUP3 MSTORE POP POP JUMP JUMPDEST PUSH1 0x0 PUSH1 0x20 DUP3 ADD SWAP1 POP PUSH2 0x8C3 PUSH1 0x0 DUP4 ADD DUP5 PUSH2 0x89F JUMP JUMPDEST SWAP3 SWAP2 POP POP JUMP JUMPDEST PUSH2 0x8D2 DUP2 PUSH2 0x82A JUMP JUMPDEST DUP3 MSTORE POP POP JUMP JUMPDEST PUSH1 0x0 PUSH1 0x20 DUP3 ADD SWAP1 POP PUSH2 0x8ED PUSH1 0x0 DUP4 ADD DUP5 PUSH2 0x8C9 JUMP JUMPDEST SWAP3 SWAP2 POP POP JUMP JUMPDEST PUSH2 0x8FC DUP2 PUSH2 0x7BF JUMP JUMPDEST DUP3 MSTORE POP POP JUMP JUMPDEST PUSH1 0x0 PUSH1 0x20 DUP3 ADD SWAP1 POP PUSH2 0x917 PUSH1 0x0 DUP4 ADD DUP5 PUSH2 0x8F3 JUMP JUMPDEST SWAP3 SWAP2 POP POP JUMP JUMPDEST PUSH1 0x0 DUP3 DUP3 MSTORE PUSH1 0x20 DUP3 ADD SWAP1 POP SWAP3 SWAP2 POP POP JUMP JUMPDEST PUSH32 0x43616E746964616420646520455448206E6F2076616C69646100000000000000 PUSH1 0x0 DUP3 ADD MSTORE POP JUMP JUMPDEST PUSH1 0x0 PUSH2 0x964 PUSH1 0x19 DUP4 PUSH2 0x91D JUMP JUMPDEST SWAP2 POP PUSH2 0x96F DUP3 PUSH2 0x92E JUMP JUMPDEST PUSH1 0x20 DUP3 ADD SWAP1 POP SWAP2 SWAP1 POP JUMP JUMPDEST PUSH1 0x0 PUSH1 0x20 DUP3 ADD SWAP1 POP DUP2 DUP2 SUB PUSH1 0x0 DUP4 ADD MSTORE PUSH2 0x993 DUP2 PUSH2 0x957 JUMP JUMPDEST SWAP1 POP SWAP2 SWAP1 POP JUMP JUMPDEST PUSH2 0x9A3 DUP2 PUSH2 0x895 JUMP JUMPDEST DUP2 EQ PUSH2 0x9AE JUMPI PUSH1 0x0 DUP1 REVERT JUMPDEST POP JUMP JUMPDEST PUSH1 0x0 DUP2 MLOAD SWAP1 POP PUSH2 0x9C0 DUP2 PUSH2 0x99A JUMP JUMPDEST SWAP3 SWAP2 POP POP JUMP JUMPDEST PUSH1 0x0 PUSH1 0x20 DUP3 DUP5 SUB SLT ISZERO PUSH2 0x9DC JUMPI PUSH2 0x9DB PUSH2 0x79A JUMP JUMPDEST JUMPDEST PUSH1 0x0 PUSH2 0x9EA DUP5 DUP3 DUP6 ADD PUSH2 0x9B1 JUMP JUMPDEST SWAP2 POP POP SWAP3 SWAP2 POP POP JUMP JUMPDEST PUSH32 0x4C61206375656E7461206F726967656E206E6F207469656E652073616C646F00 PUSH1 0x0 DUP3 ADD MSTORE POP JUMP JUMPDEST PUSH1 0x0 PUSH2 0xA29 PUSH1 0x1F DUP4 PUSH2 0x91D JUMP JUMPDEST SWAP2 POP PUSH2 0xA34 DUP3 PUSH2 0x9F3 JUMP JUMPDEST PUSH1 0x20 DUP3 ADD SWAP1 POP SWAP2 SWAP1 POP JUMP JUMPDEST PUSH1 0x0 PUSH1 0x20 DUP3 ADD SWAP1 POP DUP2 DUP2 SUB PUSH1 0x0 DUP4 ADD MSTORE PUSH2 0xA58 DUP2 PUSH2 0xA1C JUMP JUMPDEST SWAP1 POP SWAP2 SWAP1 POP JUMP JUMPDEST PUSH32 0x4C6120646972656363696F6E2064656C207265636570746F72206E6F20657320 PUSH1 0x0 DUP3 ADD MSTORE PUSH32 0x76616C6964610000000000000000000000000000000000000000000000000000 PUSH1 0x20 DUP3 ADD MSTORE POP JUMP JUMPDEST PUSH1 0x0 PUSH2 0xABB PUSH1 0x26 DUP4 PUSH2 0x91D JUMP JUMPDEST SWAP2 POP PUSH2 0xAC6 DUP3 PUSH2 0xA5F JUMP JUMPDEST PUSH1 0x40 DUP3 ADD SWAP1 POP SWAP2 SWAP1 POP JUMP JUMPDEST PUSH1 0x0 PUSH1 0x20 DUP3 ADD SWAP1 POP DUP2 DUP2 SUB PUSH1 0x0 DUP4 ADD MSTORE PUSH2 0xAEA DUP2 PUSH2 0xAAE JUMP JUMPDEST SWAP1 POP SWAP2 SWAP1 POP JUMP JUMPDEST PUSH1 0x0 DUP2 SWAP1 POP SWAP2 SWAP1 POP JUMP JUMPDEST PUSH1 0x0 PUSH2 0xB16 PUSH2 0xB11 PUSH2 0xB0C DUP5 PUSH2 0x79F JUMP JUMPDEST PUSH2 0xAF1 JUMP JUMPDEST PUSH2 0x79F JUMP JUMPDEST SWAP1 POP SWAP2 SWAP1 POP JUMP JUMPDEST PUSH1 0x0 PUSH2 0xB28 DUP3 PUSH2 0xAFB JUMP JUMPDEST SWAP1 POP SWAP2 SWAP1 POP JUMP JUMPDEST PUSH1 0x0 PUSH2 0xB3A DUP3 PUSH2 0xB1D JUMP JUMPDEST SWAP1 POP SWAP2 SWAP1 POP JUMP JUMPDEST PUSH2 0xB4A DUP2 PUSH2 0xB2F JUMP JUMPDEST DUP3 MSTORE POP POP JUMP JUMPDEST PUSH1 0x0 PUSH1 0x40 DUP3 ADD SWAP1 POP PUSH2 0xB65 PUSH1 0x0 DUP4 ADD DUP6 PUSH2 0xB41 JUMP JUMPDEST PUSH2 0xB72 PUSH1 0x20 DUP4 ADD DUP5 PUSH2 0x89F JUMP JUMPDEST SWAP4 SWAP3 POP POP POP JUMP JUMPDEST PUSH32 0x4E487B7100000000000000000000000000000000000000000000000000000000 PUSH1 0x0 MSTORE PUSH1 0x12 PUSH1 0x4 MSTORE PUSH1 0x24 PUSH1 0x0 REVERT JUMPDEST PUSH32 0x4E487B7100000000000000000000000000000000000000000000000000000000 PUSH1 0x0 MSTORE PUSH1 0x11 PUSH1 0x4 MSTORE PUSH1 0x24 PUSH1 0x0 REVERT JUMPDEST PUSH1 0x0 PUSH2 0xBE2 DUP3 PUSH2 0x895 JUMP JUMPDEST SWAP2 POP PUSH2 0xBED DUP4 PUSH2 0x895 JUMP JUMPDEST SWAP3 POP DUP3 PUSH2 0xBFD JUMPI PUSH2 0xBFC PUSH2 0xB79 JUMP JUMPDEST JUMPDEST DUP3 DUP3 DIV SWAP1 POP SWAP3 SWAP2 POP POP JUMP JUMPDEST PUSH32 0x4E487B7100000000000000000000000000000000000000000000000000000000 PUSH1 0x0 MSTORE PUSH1 0x1 PUSH1 0x4 MSTORE PUSH1 0x24 PUSH1 0x0 REVERT JUMPDEST PUSH1 0x0 PUSH2 0xC42 DUP3 PUSH2 0x895 JUMP JUMPDEST SWAP2 POP PUSH2 0xC4D DUP4 PUSH2 0x895 JUMP JUMPDEST SWAP3 POP DUP3 DUP3 SUB SWAP1 POP DUP2 DUP2 GT ISZERO PUSH2 0xC65 JUMPI PUSH2 0xC64 PUSH2 0xBA8 JUMP JUMPDEST JUMPDEST SWAP3 SWAP2 POP POP JUMP JUMPDEST PUSH1 0x0 PUSH2 0xC76 DUP3 PUSH2 0x895 JUMP JUMPDEST SWAP2 POP PUSH2 0xC81 DUP4 PUSH2 0x895 JUMP JUMPDEST SWAP3 POP DUP3 DUP3 MUL PUSH2 0xC8F DUP2 PUSH2 0x895 JUMP JUMPDEST SWAP2 POP DUP3 DUP3 DIV DUP5 EQ DUP4 ISZERO OR PUSH2 0xCA6 JUMPI PUSH2 0xCA5 PUSH2 0xBA8 JUMP JUMPDEST JUMPDEST POP SWAP3 SWAP2 POP POP JUMP JUMPDEST PUSH32 0x536166654D6174683A206D756C7469706C69636174696F6E206F766572666C6F PUSH1 0x0 DUP3 ADD MSTORE PUSH32 0x7700000000000000000000000000000000000000000000000000000000000000 PUSH1 0x20 DUP3 ADD MSTORE POP JUMP JUMPDEST PUSH1 0x0 PUSH2 0xD09 PUSH1 0x21 DUP4 PUSH2 0x91D JUMP JUMPDEST SWAP2 POP PUSH2 0xD14 DUP3 PUSH2 0xCAD JUMP JUMPDEST PUSH1 0x40 DUP3 ADD SWAP1 POP SWAP2 SWAP1 POP JUMP JUMPDEST PUSH1 0x0 PUSH1 0x20 DUP3 ADD SWAP1 POP DUP2 DUP2 SUB PUSH1 0x0 DUP4 ADD MSTORE PUSH2 0xD38 DUP2 PUSH2 0xCFC JUMP JUMPDEST SWAP1 POP SWAP2 SWAP1 POP JUMP INVALID LOG2 PUSH5 0x6970667358 0x22 SLT KECCAK256 PUSH31 0x48F75FE538D040A134752D3C1A785005CC1D0A79574EC0A2F400DE2D79D025 PUSH5 0x736F6C6343 STOP ADDMOD SLT STOP CALLER "
				},
				"gasEstimates": {
					"creation": {
						"codeDepositCost": "689000",
						"executionCost": "95626",
						"totalCost": "784626"
					},
					"external": {
						"addEthToAddress(address)": "infinite",
						"addressBalance(address)": "3257",
						"contractBalance()": "383",
						"contrato()": "2602",
						"getOwner()": "2544",
						"payment(address)": "infinite"
					},
					"internal": {
						"isValidAddress(address)": "2268"
					}
				},
				"methodIdentifiers": {
					"addEthToAddress(address)": "bbea8f75",
					"addressBalance(address)": "3ec4de35",
					"contractBalance()": "8b7afe2e",
					"contrato()": "e1a01e67",
					"getOwner()": "893d20e8",
					"payment(address)": "3b92f3df"
				}
			},
			"storageLayout": {
				"storage": [
					{
						"astId": 8,
						"contract": "contracts/Main.sol:Main",
						"label": "owner",
						"offset": 0,
						"slot": "0",
						"type": "t_address"
					},
					{
						"astId": 10,
						"contract": "contracts/Main.sol:Main",
						"label": "contrato",
						"offset": 0,
						"slot": "1",
						"type": "t_address_payable"
					},
					{
						"astId": 16,
						"contract": "contracts/Main.sol:Main",
						"label": "intermediary",
						"offset": 0,
						"slot": "2",
						"type": "t_address_payable"
					},
					{
						"astId": 19,
						"contract": "contracts/Main.sol:Main",
						"label": "maxEthPerTransaction",
						"offset": 0,
						"slot": "3",
						"type": "t_uint256"
					}
				],
				"types": {
					"t_address": {
						"encoding": "inplace",
						"label": "address",
						"numberOfBytes": "20"
					},
					"t_address_payable": {
						"encoding": "inplace",
						"label": "address payable",
						"numberOfBytes": "20"
					},
					"t_uint256": {
						"encoding": "inplace",
						"label": "uint256",
						"numberOfBytes": "32"
					}
				}
			},
			"userdoc": {
				"kind": "user",
				"methods": {},
				"version": 1
			}
		}
	}
}