{
	"contracts/Main.sol": {
		"Main": {
			"abi": [
				{
					"inputs": [],
					"stateMutability": "nonpayable",
					"type": "constructor"
				},
				{
					"anonymous": false,
					"inputs": [
						{
							"indexed": true,
							"internalType": "address",
							"name": "owner",
							"type": "address"
						},
						{
							"indexed": true,
							"internalType": "address",
							"name": "spender",
							"type": "address"
						},
						{
							"indexed": false,
							"internalType": "uint256",
							"name": "value",
							"type": "uint256"
						}
					],
					"name": "Approval",
					"type": "event"
				},
				{
					"anonymous": false,
					"inputs": [
						{
							"indexed": false,
							"internalType": "address",
							"name": "from",
							"type": "address"
						},
						{
							"indexed": false,
							"internalType": "uint256",
							"name": "amount",
							"type": "uint256"
						}
					],
					"name": "PaymentReceived",
					"type": "event"
				},
				{
					"anonymous": false,
					"inputs": [
						{
							"indexed": false,
							"internalType": "address",
							"name": "to",
							"type": "address"
						},
						{
							"indexed": false,
							"internalType": "uint256",
							"name": "amount",
							"type": "uint256"
						}
					],
					"name": "PaymentSent",
					"type": "event"
				},
				{
					"anonymous": false,
					"inputs": [
						{
							"indexed": true,
							"internalType": "address",
							"name": "from",
							"type": "address"
						},
						{
							"indexed": true,
							"internalType": "address",
							"name": "to",
							"type": "address"
						},
						{
							"indexed": false,
							"internalType": "uint256",
							"name": "value",
							"type": "uint256"
						}
					],
					"name": "Transfer",
					"type": "event"
				},
				{
					"inputs": [
						{
							"internalType": "address",
							"name": "account",
							"type": "address"
						},
						{
							"internalType": "uint256",
							"name": "amount",
							"type": "uint256"
						}
					],
					"name": "GeneraTokens",
					"outputs": [],
					"stateMutability": "nonpayable",
					"type": "function"
				},
				{
					"inputs": [
						{
							"internalType": "address",
							"name": "owner",
							"type": "address"
						},
						{
							"internalType": "address",
							"name": "spender",
							"type": "address"
						}
					],
					"name": "allowance",
					"outputs": [
						{
							"internalType": "uint256",
							"name": "",
							"type": "uint256"
						}
					],
					"stateMutability": "view",
					"type": "function"
				},
				{
					"inputs": [
						{
							"internalType": "address",
							"name": "spender",
							"type": "address"
						},
						{
							"internalType": "uint256",
							"name": "amount",
							"type": "uint256"
						}
					],
					"name": "approve",
					"outputs": [
						{
							"internalType": "bool",
							"name": "",
							"type": "bool"
						}
					],
					"stateMutability": "nonpayable",
					"type": "function"
				},
				{
					"inputs": [
						{
							"internalType": "address",
							"name": "account",
							"type": "address"
						}
					],
					"name": "balanceOf",
					"outputs": [
						{
							"internalType": "uint256",
							"name": "",
							"type": "uint256"
						}
					],
					"stateMutability": "view",
					"type": "function"
				},
				{
					"inputs": [],
					"name": "contrato",
					"outputs": [
						{
							"internalType": "address",
							"name": "",
							"type": "address"
						}
					],
					"stateMutability": "view",
					"type": "function"
				},
				{
					"inputs": [],
					"name": "decimals",
					"outputs": [
						{
							"internalType": "uint8",
							"name": "",
							"type": "uint8"
						}
					],
					"stateMutability": "view",
					"type": "function"
				},
				{
					"inputs": [
						{
							"internalType": "address",
							"name": "spender",
							"type": "address"
						},
						{
							"internalType": "uint256",
							"name": "subtractedValue",
							"type": "uint256"
						}
					],
					"name": "decreaseAllowance",
					"outputs": [
						{
							"internalType": "bool",
							"name": "",
							"type": "bool"
						}
					],
					"stateMutability": "nonpayable",
					"type": "function"
				},
				{
					"inputs": [
						{
							"internalType": "address",
							"name": "spender",
							"type": "address"
						},
						{
							"internalType": "uint256",
							"name": "addedValue",
							"type": "uint256"
						}
					],
					"name": "increaseAllowance",
					"outputs": [
						{
							"internalType": "bool",
							"name": "",
							"type": "bool"
						}
					],
					"stateMutability": "nonpayable",
					"type": "function"
				},
				{
					"inputs": [],
					"name": "intermediary",
					"outputs": [
						{
							"internalType": "address",
							"name": "",
							"type": "address"
						}
					],
					"stateMutability": "view",
					"type": "function"
				},
				{
					"inputs": [],
					"name": "name",
					"outputs": [
						{
							"internalType": "string",
							"name": "",
							"type": "string"
						}
					],
					"stateMutability": "view",
					"type": "function"
				},
				{
					"inputs": [],
					"name": "owner",
					"outputs": [
						{
							"internalType": "address",
							"name": "",
							"type": "address"
						}
					],
					"stateMutability": "view",
					"type": "function"
				},
				{
					"inputs": [
						{
							"internalType": "address payable",
							"name": "to",
							"type": "address"
						},
						{
							"internalType": "uint256",
							"name": "value",
							"type": "uint256"
						}
					],
					"name": "paymentValue",
					"outputs": [],
					"stateMutability": "payable",
					"type": "function"
				},
				{
					"inputs": [],
					"name": "symbol",
					"outputs": [
						{
							"internalType": "string",
							"name": "",
							"type": "string"
						}
					],
					"stateMutability": "view",
					"type": "function"
				},
				{
					"inputs": [],
					"name": "totalSupply",
					"outputs": [
						{
							"internalType": "uint256",
							"name": "",
							"type": "uint256"
						}
					],
					"stateMutability": "view",
					"type": "function"
				},
				{
					"inputs": [
						{
							"internalType": "address",
							"name": "to",
							"type": "address"
						},
						{
							"internalType": "uint256",
							"name": "amount",
							"type": "uint256"
						}
					],
					"name": "transfer",
					"outputs": [
						{
							"internalType": "bool",
							"name": "",
							"type": "bool"
						}
					],
					"stateMutability": "nonpayable",
					"type": "function"
				},
				{
					"inputs": [
						{
							"internalType": "address",
							"name": "from",
							"type": "address"
						},
						{
							"internalType": "address",
							"name": "to",
							"type": "address"
						},
						{
							"internalType": "uint256",
							"name": "amount",
							"type": "uint256"
						}
					],
					"name": "transferFrom",
					"outputs": [
						{
							"internalType": "bool",
							"name": "",
							"type": "bool"
						}
					],
					"stateMutability": "nonpayable",
					"type": "function"
				}
			],
			"devdoc": {
				"events": {
					"Approval(address,address,uint256)": {
						"details": "Emitted when the allowance of a `spender` for an `owner` is set by a call to {approve}. `value` is the new allowance."
					},
					"Transfer(address,address,uint256)": {
						"details": "Emitted when `value` tokens are moved from one account (`from`) to another (`to`). Note that `value` may be zero."
					}
				},
				"kind": "dev",
				"methods": {
					"allowance(address,address)": {
						"details": "See {IERC20-allowance}."
					},
					"approve(address,uint256)": {
						"details": "See {IERC20-approve}. NOTE: If `amount` is the maximum `uint256`, the allowance is not updated on `transferFrom`. This is semantically equivalent to an infinite approval. Requirements: - `spender` cannot be the zero address."
					},
					"balanceOf(address)": {
						"details": "See {IERC20-balanceOf}."
					},
					"decimals()": {
						"details": "Returns the number of decimals used to get its user representation. For example, if `decimals` equals `2`, a balance of `505` tokens should be displayed to a user as `5.05` (`505 / 10 ** 2`). Tokens usually opt for a value of 18, imitating the relationship between Ether and Wei. This is the default value returned by this function, unless it's overridden. NOTE: This information is only used for _display_ purposes: it in no way affects any of the arithmetic of the contract, including {IERC20-balanceOf} and {IERC20-transfer}."
					},
					"decreaseAllowance(address,uint256)": {
						"details": "Atomically decreases the allowance granted to `spender` by the caller. This is an alternative to {approve} that can be used as a mitigation for problems described in {IERC20-approve}. Emits an {Approval} event indicating the updated allowance. Requirements: - `spender` cannot be the zero address. - `spender` must have allowance for the caller of at least `subtractedValue`."
					},
					"increaseAllowance(address,uint256)": {
						"details": "Atomically increases the allowance granted to `spender` by the caller. This is an alternative to {approve} that can be used as a mitigation for problems described in {IERC20-approve}. Emits an {Approval} event indicating the updated allowance. Requirements: - `spender` cannot be the zero address."
					},
					"name()": {
						"details": "Returns the name of the token."
					},
					"symbol()": {
						"details": "Returns the symbol of the token, usually a shorter version of the name."
					},
					"totalSupply()": {
						"details": "See {IERC20-totalSupply}."
					},
					"transfer(address,uint256)": {
						"details": "See {IERC20-transfer}. Requirements: - `to` cannot be the zero address. - the caller must have a balance of at least `amount`."
					},
					"transferFrom(address,address,uint256)": {
						"details": "See {IERC20-transferFrom}. Emits an {Approval} event indicating the updated allowance. This is not required by the EIP. See the note at the beginning of {ERC20}. NOTE: Does not update the allowance if the current allowance is the maximum `uint256`. Requirements: - `from` and `to` cannot be the zero address. - `from` must have a balance of at least `amount`. - the caller must have allowance for ``from``'s tokens of at least `amount`."
					}
				},
				"version": 1
			},
			"evm": {
				"assembly": "    /* \"contracts/Main.sol\":90:3661  contract Main is ERC20 {... */\n  mstore(0x40, 0x80)\n    /* \"contracts/Main.sol\":628:670  0x72f188f3767fE8FE835b7b22191f28A3b19562D1 */\n  0x72f188f3767fe8fe835b7b22191f28a3b19562d1\n    /* \"contracts/Main.sol\":598:670  address public intermediary = 0x72f188f3767fE8FE835b7b22191f28A3b19562D1 */\n  0x07\n  exp(0x0100, 0x00)\n  dup2\n  sload\n  dup2\n  0xffffffffffffffffffffffffffffffffffffffff\n  mul\n  not\n  and\n  swap1\n  dup4\n  0xffffffffffffffffffffffffffffffffffffffff\n  and\n  mul\n  or\n  swap1\n  sstore\n  pop\n    /* \"contracts/Main.sol\":820:1023  constructor() ERC20(\"MyToken\", \"MTK\") { ... */\n  callvalue\n  dup1\n  iszero\n  tag_1\n  jumpi\n  0x00\n  dup1\n  revert\ntag_1:\n  pop\n    /* \"contracts/token/ERC20.sol\":698:814  constructor(string memory name_, string memory symbol_) {... */\n  mload(0x40)\n  dup1\n  0x40\n  add\n  0x40\n  mstore\n  dup1\n  0x07\n  dup2\n  mstore\n  0x20\n  add\n  0x4d79546f6b656e00000000000000000000000000000000000000000000000000\n  dup2\n  mstore\n  pop\n  mload(0x40)\n  dup1\n  0x40\n  add\n  0x40\n  mstore\n  dup1\n  0x03\n  dup2\n  mstore\n  0x20\n  add\n  0x4d544b0000000000000000000000000000000000000000000000000000000000\n  dup2\n  mstore\n  pop\n    /* \"contracts/token/ERC20.sol\":773:778  name_ */\n  dup2\n    /* \"contracts/token/ERC20.sol\":765:770  _name */\n  0x03\n    /* \"contracts/token/ERC20.sol\":765:778  _name = name_ */\n  swap1\n  dup2\n  tag_5\n  swap2\n  swap1\n  tag_6\n  jump\t// in\ntag_5:\n  pop\n    /* \"contracts/token/ERC20.sol\":799:806  symbol_ */\n  dup1\n    /* \"contracts/token/ERC20.sol\":789:796  _symbol */\n  0x04\n    /* \"contracts/token/ERC20.sol\":789:806  _symbol = symbol_ */\n  swap1\n  dup2\n  tag_7\n  swap2\n  swap1\n  tag_6\n  jump\t// in\ntag_7:\n  pop\n    /* \"contracts/token/ERC20.sol\":698:814  constructor(string memory name_, string memory symbol_) {... */\n  pop\n  pop\n    /* \"contracts/Main.sol\":960:970  msg.sender */\n  caller\n    /* \"contracts/Main.sol\":952:957  owner */\n  0x05\n  0x00\n    /* \"contracts/Main.sol\":952:970  owner = msg.sender */\n  0x0100\n  exp\n  dup2\n  sload\n  dup2\n  0xffffffffffffffffffffffffffffffffffffffff\n  mul\n  not\n  and\n  swap1\n  dup4\n  0xffffffffffffffffffffffffffffffffffffffff\n  and\n  mul\n  or\n  swap1\n  sstore\n  pop\n    /* \"contracts/Main.sol\":1000:1004  this */\n  address\n    /* \"contracts/Main.sol\":981:989  contrato */\n  0x06\n  0x00\n    /* \"contracts/Main.sol\":981:1005  contrato = address(this) */\n  0x0100\n  exp\n  dup2\n  sload\n  dup2\n  0xffffffffffffffffffffffffffffffffffffffff\n  mul\n  not\n  and\n  swap1\n  dup4\n  0xffffffffffffffffffffffffffffffffffffffff\n  and\n  mul\n  or\n  swap1\n  sstore\n  pop\n    /* \"contracts/Main.sol\":90:3661  contract Main is ERC20 {... */\n  jump(tag_9)\n    /* \"#utility.yul\":7:106   */\ntag_10:\n    /* \"#utility.yul\":59:65   */\n  0x00\n    /* \"#utility.yul\":93:98   */\n  dup2\n    /* \"#utility.yul\":87:99   */\n  mload\n    /* \"#utility.yul\":77:99   */\n  swap1\n  pop\n    /* \"#utility.yul\":7:106   */\n  swap2\n  swap1\n  pop\n  jump\t// out\n    /* \"#utility.yul\":112:292   */\ntag_11:\n    /* \"#utility.yul\":160:237   */\n  0x4e487b7100000000000000000000000000000000000000000000000000000000\n    /* \"#utility.yul\":157:158   */\n  0x00\n    /* \"#utility.yul\":150:238   */\n  mstore\n    /* \"#utility.yul\":257:261   */\n  0x41\n    /* \"#utility.yul\":254:255   */\n  0x04\n    /* \"#utility.yul\":247:262   */\n  mstore\n    /* \"#utility.yul\":281:285   */\n  0x24\n    /* \"#utility.yul\":278:279   */\n  0x00\n    /* \"#utility.yul\":271:286   */\n  revert\n    /* \"#utility.yul\":298:478   */\ntag_12:\n    /* \"#utility.yul\":346:423   */\n  0x4e487b7100000000000000000000000000000000000000000000000000000000\n    /* \"#utility.yul\":343:344   */\n  0x00\n    /* \"#utility.yul\":336:424   */\n  mstore\n    /* \"#utility.yul\":443:447   */\n  0x22\n    /* \"#utility.yul\":440:441   */\n  0x04\n    /* \"#utility.yul\":433:448   */\n  mstore\n    /* \"#utility.yul\":467:471   */\n  0x24\n    /* \"#utility.yul\":464:465   */\n  0x00\n    /* \"#utility.yul\":457:472   */\n  revert\n    /* \"#utility.yul\":484:804   */\ntag_13:\n    /* \"#utility.yul\":528:534   */\n  0x00\n    /* \"#utility.yul\":565:566   */\n  0x02\n    /* \"#utility.yul\":559:563   */\n  dup3\n    /* \"#utility.yul\":555:567   */\n  div\n    /* \"#utility.yul\":545:567   */\n  swap1\n  pop\n    /* \"#utility.yul\":612:613   */\n  0x01\n    /* \"#utility.yul\":606:610   */\n  dup3\n    /* \"#utility.yul\":602:614   */\n  and\n    /* \"#utility.yul\":633:651   */\n  dup1\n    /* \"#utility.yul\":623:704   */\n  tag_35\n  jumpi\n    /* \"#utility.yul\":689:693   */\n  0x7f\n    /* \"#utility.yul\":681:687   */\n  dup3\n    /* \"#utility.yul\":677:694   */\n  and\n    /* \"#utility.yul\":667:694   */\n  swap2\n  pop\n    /* \"#utility.yul\":623:704   */\ntag_35:\n    /* \"#utility.yul\":751:753   */\n  0x20\n    /* \"#utility.yul\":743:749   */\n  dup3\n    /* \"#utility.yul\":740:754   */\n  lt\n    /* \"#utility.yul\":720:738   */\n  dup2\n    /* \"#utility.yul\":717:755   */\n  sub\n    /* \"#utility.yul\":714:798   */\n  tag_36\n  jumpi\n    /* \"#utility.yul\":770:788   */\n  tag_37\n  tag_12\n  jump\t// in\ntag_37:\n    /* \"#utility.yul\":714:798   */\ntag_36:\n    /* \"#utility.yul\":535:804   */\n  pop\n    /* \"#utility.yul\":484:804   */\n  swap2\n  swap1\n  pop\n  jump\t// out\n    /* \"#utility.yul\":810:951   */\ntag_14:\n    /* \"#utility.yul\":859:863   */\n  0x00\n    /* \"#utility.yul\":882:885   */\n  dup2\n    /* \"#utility.yul\":874:885   */\n  swap1\n  pop\n    /* \"#utility.yul\":905:908   */\n  dup2\n    /* \"#utility.yul\":902:903   */\n  0x00\n    /* \"#utility.yul\":895:909   */\n  mstore\n    /* \"#utility.yul\":939:943   */\n  0x20\n    /* \"#utility.yul\":936:937   */\n  0x00\n    /* \"#utility.yul\":926:944   */\n  keccak256\n    /* \"#utility.yul\":918:944   */\n  swap1\n  pop\n    /* \"#utility.yul\":810:951   */\n  swap2\n  swap1\n  pop\n  jump\t// out\n    /* \"#utility.yul\":957:1050   */\ntag_15:\n    /* \"#utility.yul\":994:1000   */\n  0x00\n    /* \"#utility.yul\":1041:1043   */\n  0x20\n    /* \"#utility.yul\":1036:1038   */\n  0x1f\n    /* \"#utility.yul\":1029:1034   */\n  dup4\n    /* \"#utility.yul\":1025:1039   */\n  add\n    /* \"#utility.yul\":1021:1044   */\n  div\n    /* \"#utility.yul\":1011:1044   */\n  swap1\n  pop\n    /* \"#utility.yul\":957:1050   */\n  swap2\n  swap1\n  pop\n  jump\t// out\n    /* \"#utility.yul\":1056:1163   */\ntag_16:\n    /* \"#utility.yul\":1100:1108   */\n  0x00\n    /* \"#utility.yul\":1150:1155   */\n  dup3\n    /* \"#utility.yul\":1144:1148   */\n  dup3\n    /* \"#utility.yul\":1140:1156   */\n  shl\n    /* \"#utility.yul\":1119:1156   */\n  swap1\n  pop\n    /* \"#utility.yul\":1056:1163   */\n  swap3\n  swap2\n  pop\n  pop\n  jump\t// out\n    /* \"#utility.yul\":1169:1562   */\ntag_17:\n    /* \"#utility.yul\":1238:1244   */\n  0x00\n    /* \"#utility.yul\":1288:1289   */\n  0x08\n    /* \"#utility.yul\":1276:1286   */\n  dup4\n    /* \"#utility.yul\":1272:1290   */\n  mul\n    /* \"#utility.yul\":1311:1408   */\n  tag_42\n    /* \"#utility.yul\":1341:1407   */\n  0xffffffffffffffffffffffffffffffffffffffffffffffffffffffffffffffff\n    /* \"#utility.yul\":1330:1339   */\n  dup3\n    /* \"#utility.yul\":1311:1408   */\n  tag_16\n  jump\t// in\ntag_42:\n    /* \"#utility.yul\":1429:1468   */\n  tag_43\n    /* \"#utility.yul\":1459:1467   */\n  dup7\n    /* \"#utility.yul\":1448:1457   */\n  dup4\n    /* \"#utility.yul\":1429:1468   */\n  tag_16\n  jump\t// in\ntag_43:\n    /* \"#utility.yul\":1417:1468   */\n  swap6\n  pop\n    /* \"#utility.yul\":1501:1505   */\n  dup1\n    /* \"#utility.yul\":1497:1506   */\n  not\n    /* \"#utility.yul\":1490:1495   */\n  dup5\n    /* \"#utility.yul\":1486:1507   */\n  and\n    /* \"#utility.yul\":1477:1507   */\n  swap4\n  pop\n    /* \"#utility.yul\":1550:1554   */\n  dup1\n    /* \"#utility.yul\":1540:1548   */\n  dup7\n    /* \"#utility.yul\":1536:1555   */\n  and\n    /* \"#utility.yul\":1529:1534   */\n  dup5\n    /* \"#utility.yul\":1526:1556   */\n  or\n    /* \"#utility.yul\":1516:1556   */\n  swap3\n  pop\n    /* \"#utility.yul\":1245:1562   */\n  pop\n  pop\n    /* \"#utility.yul\":1169:1562   */\n  swap4\n  swap3\n  pop\n  pop\n  pop\n  jump\t// out\n    /* \"#utility.yul\":1568:1645   */\ntag_18:\n    /* \"#utility.yul\":1605:1612   */\n  0x00\n    /* \"#utility.yul\":1634:1639   */\n  dup2\n    /* \"#utility.yul\":1623:1639   */\n  swap1\n  pop\n    /* \"#utility.yul\":1568:1645   */\n  swap2\n  swap1\n  pop\n  jump\t// out\n    /* \"#utility.yul\":1651:1711   */\ntag_19:\n    /* \"#utility.yul\":1679:1682   */\n  0x00\n    /* \"#utility.yul\":1700:1705   */\n  dup2\n    /* \"#utility.yul\":1693:1705   */\n  swap1\n  pop\n    /* \"#utility.yul\":1651:1711   */\n  swap2\n  swap1\n  pop\n  jump\t// out\n    /* \"#utility.yul\":1717:1859   */\ntag_20:\n    /* \"#utility.yul\":1767:1776   */\n  0x00\n    /* \"#utility.yul\":1800:1853   */\n  tag_47\n    /* \"#utility.yul\":1818:1852   */\n  tag_48\n    /* \"#utility.yul\":1827:1851   */\n  tag_49\n    /* \"#utility.yul\":1845:1850   */\n  dup5\n    /* \"#utility.yul\":1827:1851   */\n  tag_18\n  jump\t// in\ntag_49:\n    /* \"#utility.yul\":1818:1852   */\n  tag_19\n  jump\t// in\ntag_48:\n    /* \"#utility.yul\":1800:1853   */\n  tag_18\n  jump\t// in\ntag_47:\n    /* \"#utility.yul\":1787:1853   */\n  swap1\n  pop\n    /* \"#utility.yul\":1717:1859   */\n  swap2\n  swap1\n  pop\n  jump\t// out\n    /* \"#utility.yul\":1865:1940   */\ntag_21:\n    /* \"#utility.yul\":1908:1911   */\n  0x00\n    /* \"#utility.yul\":1929:1934   */\n  dup2\n    /* \"#utility.yul\":1922:1934   */\n  swap1\n  pop\n    /* \"#utility.yul\":1865:1940   */\n  swap2\n  swap1\n  pop\n  jump\t// out\n    /* \"#utility.yul\":1946:2215   */\ntag_22:\n    /* \"#utility.yul\":2056:2095   */\n  tag_52\n    /* \"#utility.yul\":2087:2094   */\n  dup4\n    /* \"#utility.yul\":2056:2095   */\n  tag_20\n  jump\t// in\ntag_52:\n    /* \"#utility.yul\":2117:2208   */\n  tag_53\n    /* \"#utility.yul\":2166:2207   */\n  tag_54\n    /* \"#utility.yul\":2190:2206   */\n  dup3\n    /* \"#utility.yul\":2166:2207   */\n  tag_21\n  jump\t// in\ntag_54:\n    /* \"#utility.yul\":2158:2164   */\n  dup5\n    /* \"#utility.yul\":2151:2155   */\n  dup5\n    /* \"#utility.yul\":2145:2156   */\n  sload\n    /* \"#utility.yul\":2117:2208   */\n  tag_17\n  jump\t// in\ntag_53:\n    /* \"#utility.yul\":2111:2115   */\n  dup3\n    /* \"#utility.yul\":2104:2209   */\n  sstore\n    /* \"#utility.yul\":2022:2215   */\n  pop\n    /* \"#utility.yul\":1946:2215   */\n  pop\n  pop\n  pop\n  jump\t// out\n    /* \"#utility.yul\":2221:2294   */\ntag_23:\n    /* \"#utility.yul\":2266:2269   */\n  0x00\n    /* \"#utility.yul\":2221:2294   */\n  swap1\n  jump\t// out\n    /* \"#utility.yul\":2300:2489   */\ntag_24:\n    /* \"#utility.yul\":2377:2409   */\n  tag_57\n  tag_23\n  jump\t// in\ntag_57:\n    /* \"#utility.yul\":2418:2483   */\n  tag_58\n    /* \"#utility.yul\":2476:2482   */\n  dup2\n    /* \"#utility.yul\":2468:2474   */\n  dup5\n    /* \"#utility.yul\":2462:2466   */\n  dup5\n    /* \"#utility.yul\":2418:2483   */\n  tag_22\n  jump\t// in\ntag_58:\n    /* \"#utility.yul\":2353:2489   */\n  pop\n    /* \"#utility.yul\":2300:2489   */\n  pop\n  pop\n  jump\t// out\n    /* \"#utility.yul\":2495:2681   */\ntag_25:\n    /* \"#utility.yul\":2555:2675   */\ntag_60:\n    /* \"#utility.yul\":2572:2575   */\n  dup2\n    /* \"#utility.yul\":2565:2570   */\n  dup2\n    /* \"#utility.yul\":2562:2576   */\n  lt\n    /* \"#utility.yul\":2555:2675   */\n  iszero\n  tag_62\n  jumpi\n    /* \"#utility.yul\":2626:2665   */\n  tag_63\n    /* \"#utility.yul\":2663:2664   */\n  0x00\n    /* \"#utility.yul\":2656:2661   */\n  dup3\n    /* \"#utility.yul\":2626:2665   */\n  tag_24\n  jump\t// in\ntag_63:\n    /* \"#utility.yul\":2599:2600   */\n  0x01\n    /* \"#utility.yul\":2592:2597   */\n  dup2\n    /* \"#utility.yul\":2588:2601   */\n  add\n    /* \"#utility.yul\":2579:2601   */\n  swap1\n  pop\n    /* \"#utility.yul\":2555:2675   */\n  jump(tag_60)\ntag_62:\n    /* \"#utility.yul\":2495:2681   */\n  pop\n  pop\n  jump\t// out\n    /* \"#utility.yul\":2687:3230   */\ntag_26:\n    /* \"#utility.yul\":2788:2790   */\n  0x1f\n    /* \"#utility.yul\":2783:2786   */\n  dup3\n    /* \"#utility.yul\":2780:2791   */\n  gt\n    /* \"#utility.yul\":2777:3223   */\n  iszero\n  tag_65\n  jumpi\n    /* \"#utility.yul\":2822:2860   */\n  tag_66\n    /* \"#utility.yul\":2854:2859   */\n  dup2\n    /* \"#utility.yul\":2822:2860   */\n  tag_14\n  jump\t// in\ntag_66:\n    /* \"#utility.yul\":2906:2935   */\n  tag_67\n    /* \"#utility.yul\":2924:2934   */\n  dup5\n    /* \"#utility.yul\":2906:2935   */\n  tag_15\n  jump\t// in\ntag_67:\n    /* \"#utility.yul\":2896:2904   */\n  dup2\n    /* \"#utility.yul\":2892:2936   */\n  add\n    /* \"#utility.yul\":3089:3091   */\n  0x20\n    /* \"#utility.yul\":3077:3087   */\n  dup6\n    /* \"#utility.yul\":3074:3092   */\n  lt\n    /* \"#utility.yul\":3071:3120   */\n  iszero\n  tag_68\n  jumpi\n    /* \"#utility.yul\":3110:3118   */\n  dup2\n    /* \"#utility.yul\":3095:3118   */\n  swap1\n  pop\n    /* \"#utility.yul\":3071:3120   */\ntag_68:\n    /* \"#utility.yul\":3133:3213   */\n  tag_69\n    /* \"#utility.yul\":3189:3211   */\n  tag_70\n    /* \"#utility.yul\":3207:3210   */\n  dup6\n    /* \"#utility.yul\":3189:3211   */\n  tag_15\n  jump\t// in\ntag_70:\n    /* \"#utility.yul\":3179:3187   */\n  dup4\n    /* \"#utility.yul\":3175:3212   */\n  add\n    /* \"#utility.yul\":3162:3173   */\n  dup3\n    /* \"#utility.yul\":3133:3213   */\n  tag_25\n  jump\t// in\ntag_69:\n    /* \"#utility.yul\":2792:3223   */\n  pop\n  pop\n    /* \"#utility.yul\":2777:3223   */\ntag_65:\n    /* \"#utility.yul\":2687:3230   */\n  pop\n  pop\n  pop\n  jump\t// out\n    /* \"#utility.yul\":3236:3353   */\ntag_27:\n    /* \"#utility.yul\":3290:3298   */\n  0x00\n    /* \"#utility.yul\":3340:3345   */\n  dup3\n    /* \"#utility.yul\":3334:3338   */\n  dup3\n    /* \"#utility.yul\":3330:3346   */\n  shr\n    /* \"#utility.yul\":3309:3346   */\n  swap1\n  pop\n    /* \"#utility.yul\":3236:3353   */\n  swap3\n  swap2\n  pop\n  pop\n  jump\t// out\n    /* \"#utility.yul\":3359:3528   */\ntag_28:\n    /* \"#utility.yul\":3403:3409   */\n  0x00\n    /* \"#utility.yul\":3436:3487   */\n  tag_73\n    /* \"#utility.yul\":3484:3485   */\n  0x00\n    /* \"#utility.yul\":3480:3486   */\n  not\n    /* \"#utility.yul\":3472:3477   */\n  dup5\n    /* \"#utility.yul\":3469:3470   */\n  0x08\n    /* \"#utility.yul\":3465:3478   */\n  mul\n    /* \"#utility.yul\":3436:3487   */\n  tag_27\n  jump\t// in\ntag_73:\n    /* \"#utility.yul\":3432:3488   */\n  not\n    /* \"#utility.yul\":3517:3521   */\n  dup1\n    /* \"#utility.yul\":3511:3515   */\n  dup4\n    /* \"#utility.yul\":3507:3522   */\n  and\n    /* \"#utility.yul\":3497:3522   */\n  swap2\n  pop\n    /* \"#utility.yul\":3410:3528   */\n  pop\n    /* \"#utility.yul\":3359:3528   */\n  swap3\n  swap2\n  pop\n  pop\n  jump\t// out\n    /* \"#utility.yul\":3533:3828   */\ntag_29:\n    /* \"#utility.yul\":3609:3613   */\n  0x00\n    /* \"#utility.yul\":3755:3784   */\n  tag_75\n    /* \"#utility.yul\":3780:3783   */\n  dup4\n    /* \"#utility.yul\":3774:3778   */\n  dup4\n    /* \"#utility.yul\":3755:3784   */\n  tag_28\n  jump\t// in\ntag_75:\n    /* \"#utility.yul\":3747:3784   */\n  swap2\n  pop\n    /* \"#utility.yul\":3817:3820   */\n  dup3\n    /* \"#utility.yul\":3814:3815   */\n  0x02\n    /* \"#utility.yul\":3810:3821   */\n  mul\n    /* \"#utility.yul\":3804:3808   */\n  dup3\n    /* \"#utility.yul\":3801:3822   */\n  or\n    /* \"#utility.yul\":3793:3822   */\n  swap1\n  pop\n    /* \"#utility.yul\":3533:3828   */\n  swap3\n  swap2\n  pop\n  pop\n  jump\t// out\n    /* \"#utility.yul\":3833:5228   */\ntag_6:\n    /* \"#utility.yul\":3950:3987   */\n  tag_77\n    /* \"#utility.yul\":3983:3986   */\n  dup3\n    /* \"#utility.yul\":3950:3987   */\n  tag_10\n  jump\t// in\ntag_77:\n    /* \"#utility.yul\":4052:4070   */\n  0xffffffffffffffff\n    /* \"#utility.yul\":4044:4050   */\n  dup2\n    /* \"#utility.yul\":4041:4071   */\n  gt\n    /* \"#utility.yul\":4038:4094   */\n  iszero\n  tag_78\n  jumpi\n    /* \"#utility.yul\":4074:4092   */\n  tag_79\n  tag_11\n  jump\t// in\ntag_79:\n    /* \"#utility.yul\":4038:4094   */\ntag_78:\n    /* \"#utility.yul\":4118:4156   */\n  tag_80\n    /* \"#utility.yul\":4150:4154   */\n  dup3\n    /* \"#utility.yul\":4144:4155   */\n  sload\n    /* \"#utility.yul\":4118:4156   */\n  tag_13\n  jump\t// in\ntag_80:\n    /* \"#utility.yul\":4203:4270   */\n  tag_81\n    /* \"#utility.yul\":4263:4269   */\n  dup3\n    /* \"#utility.yul\":4255:4261   */\n  dup3\n    /* \"#utility.yul\":4249:4253   */\n  dup6\n    /* \"#utility.yul\":4203:4270   */\n  tag_26\n  jump\t// in\ntag_81:\n    /* \"#utility.yul\":4297:4298   */\n  0x00\n    /* \"#utility.yul\":4321:4325   */\n  0x20\n    /* \"#utility.yul\":4308:4325   */\n  swap1\n  pop\n    /* \"#utility.yul\":4353:4355   */\n  0x1f\n    /* \"#utility.yul\":4345:4351   */\n  dup4\n    /* \"#utility.yul\":4342:4356   */\n  gt\n    /* \"#utility.yul\":4370:4371   */\n  0x01\n    /* \"#utility.yul\":4365:4983   */\n  dup2\n  eq\n  tag_83\n  jumpi\n    /* \"#utility.yul\":5027:5028   */\n  0x00\n    /* \"#utility.yul\":5044:5050   */\n  dup5\n    /* \"#utility.yul\":5041:5118   */\n  iszero\n  tag_84\n  jumpi\n    /* \"#utility.yul\":5093:5102   */\n  dup3\n    /* \"#utility.yul\":5088:5091   */\n  dup8\n    /* \"#utility.yul\":5084:5103   */\n  add\n    /* \"#utility.yul\":5078:5104   */\n  mload\n    /* \"#utility.yul\":5069:5104   */\n  swap1\n  pop\n    /* \"#utility.yul\":5041:5118   */\ntag_84:\n    /* \"#utility.yul\":5144:5211   */\n  tag_85\n    /* \"#utility.yul\":5204:5210   */\n  dup6\n    /* \"#utility.yul\":5197:5202   */\n  dup3\n    /* \"#utility.yul\":5144:5211   */\n  tag_29\n  jump\t// in\ntag_85:\n    /* \"#utility.yul\":5138:5142   */\n  dup7\n    /* \"#utility.yul\":5131:5212   */\n  sstore\n    /* \"#utility.yul\":5000:5222   */\n  pop\n    /* \"#utility.yul\":4335:5222   */\n  jump(tag_82)\n    /* \"#utility.yul\":4365:4983   */\ntag_83:\n    /* \"#utility.yul\":4417:4421   */\n  0x1f\n    /* \"#utility.yul\":4413:4422   */\n  not\n    /* \"#utility.yul\":4405:4411   */\n  dup5\n    /* \"#utility.yul\":4401:4423   */\n  and\n    /* \"#utility.yul\":4451:4488   */\n  tag_86\n    /* \"#utility.yul\":4483:4487   */\n  dup7\n    /* \"#utility.yul\":4451:4488   */\n  tag_14\n  jump\t// in\ntag_86:\n    /* \"#utility.yul\":4510:4511   */\n  0x00\n    /* \"#utility.yul\":4524:4732   */\ntag_87:\n    /* \"#utility.yul\":4538:4545   */\n  dup3\n    /* \"#utility.yul\":4535:4536   */\n  dup2\n    /* \"#utility.yul\":4532:4546   */\n  lt\n    /* \"#utility.yul\":4524:4732   */\n  iszero\n  tag_89\n  jumpi\n    /* \"#utility.yul\":4617:4626   */\n  dup5\n    /* \"#utility.yul\":4612:4615   */\n  dup10\n    /* \"#utility.yul\":4608:4627   */\n  add\n    /* \"#utility.yul\":4602:4628   */\n  mload\n    /* \"#utility.yul\":4594:4600   */\n  dup3\n    /* \"#utility.yul\":4587:4629   */\n  sstore\n    /* \"#utility.yul\":4668:4669   */\n  0x01\n    /* \"#utility.yul\":4660:4666   */\n  dup3\n    /* \"#utility.yul\":4656:4670   */\n  add\n    /* \"#utility.yul\":4646:4670   */\n  swap2\n  pop\n    /* \"#utility.yul\":4715:4717   */\n  0x20\n    /* \"#utility.yul\":4704:4713   */\n  dup6\n    /* \"#utility.yul\":4700:4718   */\n  add\n    /* \"#utility.yul\":4687:4718   */\n  swap5\n  pop\n    /* \"#utility.yul\":4561:4565   */\n  0x20\n    /* \"#utility.yul\":4558:4559   */\n  dup2\n    /* \"#utility.yul\":4554:4566   */\n  add\n    /* \"#utility.yul\":4549:4566   */\n  swap1\n  pop\n    /* \"#utility.yul\":4524:4732   */\n  jump(tag_87)\ntag_89:\n    /* \"#utility.yul\":4760:4766   */\n  dup7\n    /* \"#utility.yul\":4751:4758   */\n  dup4\n    /* \"#utility.yul\":4748:4767   */\n  lt\n    /* \"#utility.yul\":4745:4924   */\n  iszero\n  tag_90\n  jumpi\n    /* \"#utility.yul\":4818:4827   */\n  dup5\n    /* \"#utility.yul\":4813:4816   */\n  dup10\n    /* \"#utility.yul\":4809:4828   */\n  add\n    /* \"#utility.yul\":4803:4829   */\n  mload\n    /* \"#utility.yul\":4861:4909   */\n  tag_91\n    /* \"#utility.yul\":4903:4907   */\n  0x1f\n    /* \"#utility.yul\":4895:4901   */\n  dup10\n    /* \"#utility.yul\":4891:4908   */\n  and\n    /* \"#utility.yul\":4880:4889   */\n  dup3\n    /* \"#utility.yul\":4861:4909   */\n  tag_28\n  jump\t// in\ntag_91:\n    /* \"#utility.yul\":4853:4859   */\n  dup4\n    /* \"#utility.yul\":4846:4910   */\n  sstore\n    /* \"#utility.yul\":4768:4924   */\n  pop\n    /* \"#utility.yul\":4745:4924   */\ntag_90:\n    /* \"#utility.yul\":4970:4971   */\n  0x01\n    /* \"#utility.yul\":4966:4967   */\n  0x02\n    /* \"#utility.yul\":4958:4964   */\n  dup9\n    /* \"#utility.yul\":4954:4968   */\n  mul\n    /* \"#utility.yul\":4950:4972   */\n  add\n    /* \"#utility.yul\":4944:4948   */\n  dup9\n    /* \"#utility.yul\":4937:4973   */\n  sstore\n    /* \"#utility.yul\":4372:4983   */\n  pop\n  pop\n  pop\n    /* \"#utility.yul\":4335:5222   */\ntag_82:\n  pop\n    /* \"#utility.yul\":3925:5228   */\n  pop\n  pop\n  pop\n    /* \"#utility.yul\":3833:5228   */\n  pop\n  pop\n  jump\t// out\n    /* \"contracts/Main.sol\":90:3661  contract Main is ERC20 {... */\ntag_9:\n  dataSize(sub_0)\n  dup1\n  dataOffset(sub_0)\n  0x00\n  codecopy\n  0x00\n  return\nstop\n\nsub_0: assembly {\n        /* \"contracts/Main.sol\":90:3661  contract Main is ERC20 {... */\n      mstore(0x40, 0x80)\n      jumpi(tag_1, lt(calldatasize, 0x04))\n      shr(0xe0, calldataload(0x00))\n      dup1\n      0x70a08231\n      gt\n      tag_18\n      jumpi\n      dup1\n      0xa457c2d7\n      gt\n      tag_19\n      jumpi\n      dup1\n      0xa457c2d7\n      eq\n      tag_14\n      jumpi\n      dup1\n      0xa9059cbb\n      eq\n      tag_15\n      jumpi\n      dup1\n      0xdd62ed3e\n      eq\n      tag_16\n      jumpi\n      dup1\n      0xe1a01e67\n      eq\n      tag_17\n      jumpi\n      jump(tag_1)\n    tag_19:\n      dup1\n      0x70a08231\n      eq\n      tag_10\n      jumpi\n      dup1\n      0x79fd022e\n      eq\n      tag_11\n      jumpi\n      dup1\n      0x8da5cb5b\n      eq\n      tag_12\n      jumpi\n      dup1\n      0x95d89b41\n      eq\n      tag_13\n      jumpi\n      jump(tag_1)\n    tag_18:\n      dup1\n      0x23b872dd\n      gt\n      tag_20\n      jumpi\n      dup1\n      0x23b872dd\n      eq\n      tag_6\n      jumpi\n      dup1\n      0x313ce567\n      eq\n      tag_7\n      jumpi\n      dup1\n      0x39509351\n      eq\n      tag_8\n      jumpi\n      dup1\n      0x40c92fde\n      eq\n      tag_9\n      jumpi\n      jump(tag_1)\n    tag_20:\n      dup1\n      0x06fdde03\n      eq\n      tag_2\n      jumpi\n      dup1\n      0x095ea7b3\n      eq\n      tag_3\n      jumpi\n      dup1\n      0x18160ddd\n      eq\n      tag_4\n      jumpi\n      dup1\n      0x21208530\n      eq\n      tag_5\n      jumpi\n    tag_1:\n      0x00\n      dup1\n      revert\n        /* \"contracts/token/ERC20.sol\":884:984  function name() public view virtual override returns (string memory) {... */\n    tag_2:\n      callvalue\n      dup1\n      iszero\n      tag_21\n      jumpi\n      0x00\n      dup1\n      revert\n    tag_21:\n      pop\n      tag_22\n      tag_23\n      jump\t// in\n    tag_22:\n      mload(0x40)\n      tag_24\n      swap2\n      swap1\n      tag_25\n      jump\t// in\n    tag_24:\n      mload(0x40)\n      dup1\n      swap2\n      sub\n      swap1\n      return\n        /* \"contracts/token/ERC20.sol\":3244:3445  function approve(address spender, uint256 amount) public virtual override returns (bool) {... */\n    tag_3:\n      callvalue\n      dup1\n      iszero\n      tag_26\n      jumpi\n      0x00\n      dup1\n      revert\n    tag_26:\n      pop\n      tag_27\n      0x04\n      dup1\n      calldatasize\n      sub\n      dup2\n      add\n      swap1\n      tag_28\n      swap2\n      swap1\n      tag_29\n      jump\t// in\n    tag_28:\n      tag_30\n      jump\t// in\n    tag_27:\n      mload(0x40)\n      tag_31\n      swap2\n      swap1\n      tag_32\n      jump\t// in\n    tag_31:\n      mload(0x40)\n      dup1\n      swap2\n      sub\n      swap1\n      return\n        /* \"contracts/token/ERC20.sol\":2013:2121  function totalSupply() public view virtual override returns (uint256) {... */\n    tag_4:\n      callvalue\n      dup1\n      iszero\n      tag_33\n      jumpi\n      0x00\n      dup1\n      revert\n    tag_33:\n      pop\n      tag_34\n      tag_35\n      jump\t// in\n    tag_34:\n      mload(0x40)\n      tag_36\n      swap2\n      swap1\n      tag_37\n      jump\t// in\n    tag_36:\n      mload(0x40)\n      dup1\n      swap2\n      sub\n      swap1\n      return\n        /* \"contracts/Main.sol\":1686:2817  function paymentValue(address payable to, uint256 value) external payable {... */\n    tag_5:\n      tag_38\n      0x04\n      dup1\n      calldatasize\n      sub\n      dup2\n      add\n      swap1\n      tag_39\n      swap2\n      swap1\n      tag_40\n      jump\t// in\n    tag_39:\n      tag_41\n      jump\t// in\n    tag_38:\n      stop\n        /* \"contracts/token/ERC20.sol\":4025:4286  function transferFrom(address from, address to, uint256 amount) public virtual override returns (bool) {... */\n    tag_6:\n      callvalue\n      dup1\n      iszero\n      tag_42\n      jumpi\n      0x00\n      dup1\n      revert\n    tag_42:\n      pop\n      tag_43\n      0x04\n      dup1\n      calldatasize\n      sub\n      dup2\n      add\n      swap1\n      tag_44\n      swap2\n      swap1\n      tag_45\n      jump\t// in\n    tag_44:\n      tag_46\n      jump\t// in\n    tag_43:\n      mload(0x40)\n      tag_47\n      swap2\n      swap1\n      tag_32\n      jump\t// in\n    tag_47:\n      mload(0x40)\n      dup1\n      swap2\n      sub\n      swap1\n      return\n        /* \"contracts/token/ERC20.sol\":1855:1948  function decimals() public view virtual override returns (uint8) {... */\n    tag_7:\n      callvalue\n      dup1\n      iszero\n      tag_48\n      jumpi\n      0x00\n      dup1\n      revert\n    tag_48:\n      pop\n      tag_49\n      tag_50\n      jump\t// in\n    tag_49:\n      mload(0x40)\n      tag_51\n      swap2\n      swap1\n      tag_52\n      jump\t// in\n    tag_51:\n      mload(0x40)\n      dup1\n      swap2\n      sub\n      swap1\n      return\n        /* \"contracts/token/ERC20.sol\":4695:4933  function increaseAllowance(address spender, uint256 addedValue) public virtual returns (bool) {... */\n    tag_8:\n      callvalue\n      dup1\n      iszero\n      tag_53\n      jumpi\n      0x00\n      dup1\n      revert\n    tag_53:\n      pop\n      tag_54\n      0x04\n      dup1\n      calldatasize\n      sub\n      dup2\n      add\n      swap1\n      tag_55\n      swap2\n      swap1\n      tag_29\n      jump\t// in\n    tag_55:\n      tag_56\n      jump\t// in\n    tag_54:\n      mload(0x40)\n      tag_57\n      swap2\n      swap1\n      tag_32\n      jump\t// in\n    tag_57:\n      mload(0x40)\n      dup1\n      swap2\n      sub\n      swap1\n      return\n        /* \"contracts/Main.sol\":1567:1678  function GeneraTokens(address account, uint amount) public onlyOwner(){... */\n    tag_9:\n      callvalue\n      dup1\n      iszero\n      tag_58\n      jumpi\n      0x00\n      dup1\n      revert\n    tag_58:\n      pop\n      tag_59\n      0x04\n      dup1\n      calldatasize\n      sub\n      dup2\n      add\n      swap1\n      tag_60\n      swap2\n      swap1\n      tag_29\n      jump\t// in\n    tag_60:\n      tag_61\n      jump\t// in\n    tag_59:\n      stop\n        /* \"contracts/token/ERC20.sol\":2184:2311  function balanceOf(address account) public view virtual override returns (uint256) {... */\n    tag_10:\n      callvalue\n      dup1\n      iszero\n      tag_62\n      jumpi\n      0x00\n      dup1\n      revert\n    tag_62:\n      pop\n      tag_63\n      0x04\n      dup1\n      calldatasize\n      sub\n      dup2\n      add\n      swap1\n      tag_64\n      swap2\n      swap1\n      tag_65\n      jump\t// in\n    tag_64:\n      tag_66\n      jump\t// in\n    tag_63:\n      mload(0x40)\n      tag_67\n      swap2\n      swap1\n      tag_37\n      jump\t// in\n    tag_67:\n      mload(0x40)\n      dup1\n      swap2\n      sub\n      swap1\n      return\n        /* \"contracts/Main.sol\":598:670  address public intermediary = 0x72f188f3767fE8FE835b7b22191f28A3b19562D1 */\n    tag_11:\n      callvalue\n      dup1\n      iszero\n      tag_68\n      jumpi\n      0x00\n      dup1\n      revert\n    tag_68:\n      pop\n      tag_69\n      tag_70\n      jump\t// in\n    tag_69:\n      mload(0x40)\n      tag_71\n      swap2\n      swap1\n      tag_72\n      jump\t// in\n    tag_71:\n      mload(0x40)\n      dup1\n      swap2\n      sub\n      swap1\n      return\n        /* \"contracts/Main.sol\":392:412  address public owner */\n    tag_12:\n      callvalue\n      dup1\n      iszero\n      tag_73\n      jumpi\n      0x00\n      dup1\n      revert\n    tag_73:\n      pop\n      tag_74\n      tag_75\n      jump\t// in\n    tag_74:\n      mload(0x40)\n      tag_76\n      swap2\n      swap1\n      tag_72\n      jump\t// in\n    tag_76:\n      mload(0x40)\n      dup1\n      swap2\n      sub\n      swap1\n      return\n        /* \"contracts/token/ERC20.sol\":1103:1207  function symbol() public view virtual override returns (string memory) {... */\n    tag_13:\n      callvalue\n      dup1\n      iszero\n      tag_77\n      jumpi\n      0x00\n      dup1\n      revert\n    tag_77:\n      pop\n      tag_78\n      tag_79\n      jump\t// in\n    tag_78:\n      mload(0x40)\n      tag_80\n      swap2\n      swap1\n      tag_25\n      jump\t// in\n    tag_80:\n      mload(0x40)\n      dup1\n      swap2\n      sub\n      swap1\n      return\n        /* \"contracts/token/ERC20.sol\":5436:5872  function decreaseAllowance(address spender, uint256 subtractedValue) public virtual returns (bool) {... */\n    tag_14:\n      callvalue\n      dup1\n      iszero\n      tag_81\n      jumpi\n      0x00\n      dup1\n      revert\n    tag_81:\n      pop\n      tag_82\n      0x04\n      dup1\n      calldatasize\n      sub\n      dup2\n      add\n      swap1\n      tag_83\n      swap2\n      swap1\n      tag_29\n      jump\t// in\n    tag_83:\n      tag_84\n      jump\t// in\n    tag_82:\n      mload(0x40)\n      tag_85\n      swap2\n      swap1\n      tag_32\n      jump\t// in\n    tag_85:\n      mload(0x40)\n      dup1\n      swap2\n      sub\n      swap1\n      return\n        /* \"contracts/token/ERC20.sol\":2517:2710  function transfer(address to, uint256 amount) public virtual override returns (bool) {... */\n    tag_15:\n      callvalue\n      dup1\n      iszero\n      tag_86\n      jumpi\n      0x00\n      dup1\n      revert\n    tag_86:\n      pop\n      tag_87\n      0x04\n      dup1\n      calldatasize\n      sub\n      dup2\n      add\n      swap1\n      tag_88\n      swap2\n      swap1\n      tag_29\n      jump\t// in\n    tag_88:\n      tag_89\n      jump\t// in\n    tag_87:\n      mload(0x40)\n      tag_90\n      swap2\n      swap1\n      tag_32\n      jump\t// in\n    tag_90:\n      mload(0x40)\n      dup1\n      swap2\n      sub\n      swap1\n      return\n        /* \"contracts/token/ERC20.sol\":2773:2924  function allowance(address owner, address spender) public view virtual override returns (uint256) {... */\n    tag_16:\n      callvalue\n      dup1\n      iszero\n      tag_91\n      jumpi\n      0x00\n      dup1\n      revert\n    tag_91:\n      pop\n      tag_92\n      0x04\n      dup1\n      calldatasize\n      sub\n      dup2\n      add\n      swap1\n      tag_93\n      swap2\n      swap1\n      tag_94\n      jump\t// in\n    tag_93:\n      tag_95\n      jump\t// in\n    tag_92:\n      mload(0x40)\n      tag_96\n      swap2\n      swap1\n      tag_37\n      jump\t// in\n    tag_96:\n      mload(0x40)\n      dup1\n      swap2\n      sub\n      swap1\n      return\n        /* \"contracts/Main.sol\":568:591  address public contrato */\n    tag_17:\n      callvalue\n      dup1\n      iszero\n      tag_97\n      jumpi\n      0x00\n      dup1\n      revert\n    tag_97:\n      pop\n      tag_98\n      tag_99\n      jump\t// in\n    tag_98:\n      mload(0x40)\n      tag_100\n      swap2\n      swap1\n      tag_72\n      jump\t// in\n    tag_100:\n      mload(0x40)\n      dup1\n      swap2\n      sub\n      swap1\n      return\n        /* \"contracts/token/ERC20.sol\":884:984  function name() public view virtual override returns (string memory) {... */\n    tag_23:\n        /* \"contracts/token/ERC20.sol\":938:951  string memory */\n      0x60\n        /* \"contracts/token/ERC20.sol\":971:976  _name */\n      0x03\n        /* \"contracts/token/ERC20.sol\":964:976  return _name */\n      dup1\n      sload\n      tag_102\n      swap1\n      tag_103\n      jump\t// in\n    tag_102:\n      dup1\n      0x1f\n      add\n      0x20\n      dup1\n      swap2\n      div\n      mul\n      0x20\n      add\n      mload(0x40)\n      swap1\n      dup2\n      add\n      0x40\n      mstore\n      dup1\n      swap3\n      swap2\n      swap1\n      dup2\n      dup2\n      mstore\n      0x20\n      add\n      dup3\n      dup1\n      sload\n      tag_104\n      swap1\n      tag_103\n      jump\t// in\n    tag_104:\n      dup1\n      iszero\n      tag_105\n      jumpi\n      dup1\n      0x1f\n      lt\n      tag_106\n      jumpi\n      0x0100\n      dup1\n      dup4\n      sload\n      div\n      mul\n      dup4\n      mstore\n      swap2\n      0x20\n      add\n      swap2\n      jump(tag_105)\n    tag_106:\n      dup3\n      add\n      swap2\n      swap1\n      0x00\n      mstore\n      keccak256(0x00, 0x20)\n      swap1\n    tag_107:\n      dup2\n      sload\n      dup2\n      mstore\n      swap1\n      0x01\n      add\n      swap1\n      0x20\n      add\n      dup1\n      dup4\n      gt\n      tag_107\n      jumpi\n      dup3\n      swap1\n      sub\n      0x1f\n      and\n      dup3\n      add\n      swap2\n    tag_105:\n      pop\n      pop\n      pop\n      pop\n      pop\n      swap1\n      pop\n        /* \"contracts/token/ERC20.sol\":884:984  function name() public view virtual override returns (string memory) {... */\n      swap1\n      jump\t// out\n        /* \"contracts/token/ERC20.sol\":3244:3445  function approve(address spender, uint256 amount) public virtual override returns (bool) {... */\n    tag_30:\n        /* \"contracts/token/ERC20.sol\":3327:3331  bool */\n      0x00\n        /* \"contracts/token/ERC20.sol\":3344:3357  address owner */\n      dup1\n        /* \"contracts/token/ERC20.sol\":3360:3372  _msgSender() */\n      tag_109\n        /* \"contracts/token/ERC20.sol\":3360:3370  _msgSender */\n      tag_110\n        /* \"contracts/token/ERC20.sol\":3360:3372  _msgSender() */\n      jump\t// in\n    tag_109:\n        /* \"contracts/token/ERC20.sol\":3344:3372  address owner = _msgSender() */\n      swap1\n      pop\n        /* \"contracts/token/ERC20.sol\":3383:3415  _approve(owner, spender, amount) */\n      tag_111\n        /* \"contracts/token/ERC20.sol\":3392:3397  owner */\n      dup2\n        /* \"contracts/token/ERC20.sol\":3399:3406  spender */\n      dup6\n        /* \"contracts/token/ERC20.sol\":3408:3414  amount */\n      dup6\n        /* \"contracts/token/ERC20.sol\":3383:3391  _approve */\n      tag_112\n        /* \"contracts/token/ERC20.sol\":3383:3415  _approve(owner, spender, amount) */\n      jump\t// in\n    tag_111:\n        /* \"contracts/token/ERC20.sol\":3433:3437  true */\n      0x01\n        /* \"contracts/token/ERC20.sol\":3426:3437  return true */\n      swap2\n      pop\n      pop\n        /* \"contracts/token/ERC20.sol\":3244:3445  function approve(address spender, uint256 amount) public virtual override returns (bool) {... */\n      swap3\n      swap2\n      pop\n      pop\n      jump\t// out\n        /* \"contracts/token/ERC20.sol\":2013:2121  function totalSupply() public view virtual override returns (uint256) {... */\n    tag_35:\n        /* \"contracts/token/ERC20.sol\":2074:2081  uint256 */\n      0x00\n        /* \"contracts/token/ERC20.sol\":2101:2113  _totalSupply */\n      sload(0x02)\n        /* \"contracts/token/ERC20.sol\":2094:2113  return _totalSupply */\n      swap1\n      pop\n        /* \"contracts/token/ERC20.sol\":2013:2121  function totalSupply() public view virtual override returns (uint256) {... */\n      swap1\n      jump\t// out\n        /* \"contracts/Main.sol\":1686:2817  function paymentValue(address payable to, uint256 value) external payable {... */\n    tag_41:\n        /* \"contracts/Main.sol\":1826:1839  uint256 coste */\n      0x00\n        /* \"contracts/Main.sol\":1842:1865  valueTransaction(value) */\n      tag_115\n        /* \"contracts/Main.sol\":1859:1864  value */\n      dup3\n        /* \"contracts/Main.sol\":1842:1858  valueTransaction */\n      tag_116\n        /* \"contracts/Main.sol\":1842:1865  valueTransaction(value) */\n      jump\t// in\n    tag_115:\n        /* \"contracts/Main.sol\":1826:1865  uint256 coste = valueTransaction(value) */\n      swap1\n      pop\n        /* \"contracts/Main.sol\":1985:1990  coste */\n      dup1\n        /* \"contracts/Main.sol\":1976:1981  value */\n      dup3\n        /* \"contracts/Main.sol\":1976:1990  value >= coste */\n      lt\n      iszero\n        /* \"contracts/Main.sol\":1967:2037  require (value >= coste, \"Compra menos Tokens o paga con mas Ethers.\") */\n      tag_117\n      jumpi\n      mload(0x40)\n      0x08c379a000000000000000000000000000000000000000000000000000000000\n      dup2\n      mstore\n      0x04\n      add\n      tag_118\n      swap1\n      tag_119\n      jump\t// in\n    tag_118:\n      mload(0x40)\n      dup1\n      swap2\n      sub\n      swap1\n      revert\n    tag_117:\n        /* \"contracts/Main.sol\":2090:2109  uint256 returnValue */\n      0x00\n        /* \"contracts/Main.sol\":2120:2125  coste */\n      dup2\n        /* \"contracts/Main.sol\":2112:2117  value */\n      dup4\n        /* \"contracts/Main.sol\":2112:2125  value - coste */\n      tag_120\n      swap2\n      swap1\n      tag_121\n      jump\t// in\n    tag_120:\n        /* \"contracts/Main.sol\":2090:2125  uint256 returnValue = value - coste */\n      swap1\n      pop\n        /* \"contracts/Main.sol\":2197:2199  to */\n      dup4\n        /* \"contracts/Main.sol\":2189:2209  payable(to).transfer */\n      0xffffffffffffffffffffffffffffffffffffffff\n      and\n        /* \"contracts/Main.sol\":2189:2222  payable(to).transfer(returnValue) */\n      0x08fc\n        /* \"contracts/Main.sol\":2210:2221  returnValue */\n      dup3\n        /* \"contracts/Main.sol\":2189:2222  payable(to).transfer(returnValue) */\n      swap1\n      dup2\n      iszero\n      mul\n      swap1\n      mload(0x40)\n      0x00\n      mload(0x40)\n      dup1\n      dup4\n      sub\n      dup2\n      dup6\n      dup9\n      dup9\n      call\n      swap4\n      pop\n      pop\n      pop\n      pop\n      iszero\n      dup1\n      iszero\n      tag_123\n      jumpi\n      returndatasize\n      0x00\n      dup1\n      returndatacopy\n      revert(0x00, returndatasize)\n    tag_123:\n      pop\n        /* \"contracts/Main.sol\":2305:2317  intermediary */\n      0x07\n      0x00\n      swap1\n      sload\n      swap1\n      0x0100\n      exp\n      swap1\n      div\n      0xffffffffffffffffffffffffffffffffffffffff\n      and\n        /* \"contracts/Main.sol\":2297:2327  payable(intermediary).transfer */\n      0xffffffffffffffffffffffffffffffffffffffff\n      and\n        /* \"contracts/Main.sol\":2297:2334  payable(intermediary).transfer(coste) */\n      0x08fc\n        /* \"contracts/Main.sol\":2328:2333  coste */\n      dup4\n        /* \"contracts/Main.sol\":2297:2334  payable(intermediary).transfer(coste) */\n      swap1\n      dup2\n      iszero\n      mul\n      swap1\n      mload(0x40)\n      0x00\n      mload(0x40)\n      dup1\n      dup4\n      sub\n      dup2\n      dup6\n      dup9\n      dup9\n      call\n      swap4\n      pop\n      pop\n      pop\n      pop\n      iszero\n      dup1\n      iszero\n      tag_125\n      jumpi\n      returndatasize\n      0x00\n      dup1\n      returndatacopy\n      revert(0x00, returndatasize)\n    tag_125:\n      pop\n        /* \"contracts/Main.sol\":2409:2425  uint256 tbalance */\n      0x00\n        /* \"contracts/Main.sol\":2429:2433  this */\n      address\n        /* \"contracts/Main.sol\":2429:2443  this.balanceOf */\n      0xffffffffffffffffffffffffffffffffffffffff\n      and\n      0x70a08231\n        /* \"contracts/Main.sol\":2444:2452  contrato */\n      0x06\n      0x00\n      swap1\n      sload\n      swap1\n      0x0100\n      exp\n      swap1\n      div\n      0xffffffffffffffffffffffffffffffffffffffff\n      and\n        /* \"contracts/Main.sol\":2429:2453  this.balanceOf(contrato) */\n      mload(0x40)\n      dup3\n      0xffffffff\n      and\n      0xe0\n      shl\n      dup2\n      mstore\n      0x04\n      add\n      tag_126\n      swap2\n      swap1\n      tag_72\n      jump\t// in\n    tag_126:\n      0x20\n      mload(0x40)\n      dup1\n      dup4\n      sub\n      dup2\n      dup7\n      gas\n      staticcall\n      iszero\n      dup1\n      iszero\n      tag_128\n      jumpi\n      returndatasize\n      0x00\n      dup1\n      returndatacopy\n      revert(0x00, returndatasize)\n    tag_128:\n      pop\n      pop\n      pop\n      pop\n      mload(0x40)\n      returndatasize\n      not(0x1f)\n      0x1f\n      dup3\n      add\n      and\n      dup3\n      add\n      dup1\n      0x40\n      mstore\n      pop\n      dup2\n      add\n      swap1\n      tag_129\n      swap2\n      swap1\n      tag_130\n      jump\t// in\n    tag_129:\n        /* \"contracts/Main.sol\":2409:2453  uint256 tbalance =  this.balanceOf(contrato) */\n      swap1\n      pop\n        /* \"contracts/Main.sol\":2573:2581  tbalance */\n      dup1\n        /* \"contracts/Main.sol\":2564:2569  value */\n      dup5\n        /* \"contracts/Main.sol\":2564:2581  value <= tbalance */\n      gt\n      iszero\n        /* \"contracts/Main.sol\":2555:2622  require (value <= tbalance, \"Compra un numero de Tokens adecuado.\") */\n      tag_131\n      jumpi\n      mload(0x40)\n      0x08c379a000000000000000000000000000000000000000000000000000000000\n      dup2\n      mstore\n      0x04\n      add\n      tag_132\n      swap1\n      tag_133\n      jump\t// in\n    tag_132:\n      mload(0x40)\n      dup1\n      swap2\n      sub\n      swap1\n      revert\n    tag_131:\n        /* \"contracts/Main.sol\":2692:2696  this */\n      address\n        /* \"contracts/Main.sol\":2692:2705  this.transfer */\n      0xffffffffffffffffffffffffffffffffffffffff\n      and\n      0xa9059cbb\n        /* \"contracts/Main.sol\":2706:2708  to */\n      dup7\n        /* \"contracts/Main.sol\":2710:2715  value */\n      dup7\n        /* \"contracts/Main.sol\":2692:2716  this.transfer(to, value) */\n      mload(0x40)\n      dup4\n      0xffffffff\n      and\n      0xe0\n      shl\n      dup2\n      mstore\n      0x04\n      add\n      tag_134\n      swap3\n      swap2\n      swap1\n      tag_135\n      jump\t// in\n    tag_134:\n      0x20\n      mload(0x40)\n      dup1\n      dup4\n      sub\n      dup2\n      0x00\n      dup8\n      gas\n      call\n      iszero\n      dup1\n      iszero\n      tag_137\n      jumpi\n      returndatasize\n      0x00\n      dup1\n      returndatacopy\n      revert(0x00, returndatasize)\n    tag_137:\n      pop\n      pop\n      pop\n      pop\n      mload(0x40)\n      returndatasize\n      not(0x1f)\n      0x1f\n      dup3\n      add\n      and\n      dup3\n      add\n      dup1\n      0x40\n      mstore\n      pop\n      dup2\n      add\n      swap1\n      tag_138\n      swap2\n      swap1\n      tag_139\n      jump\t// in\n    tag_138:\n      pop\n        /* \"contracts/Main.sol\":2787:2809  PaymentSent(to, value) */\n      0x47db2abce6d5fbcd80ffd9b4ba74dcde804a746ef732bc7f8a70fabfc912c590\n        /* \"contracts/Main.sol\":2799:2801  to */\n      dup6\n        /* \"contracts/Main.sol\":2803:2808  value */\n      dup6\n        /* \"contracts/Main.sol\":2787:2809  PaymentSent(to, value) */\n      mload(0x40)\n      tag_140\n      swap3\n      swap2\n      swap1\n      tag_135\n      jump\t// in\n    tag_140:\n      mload(0x40)\n      dup1\n      swap2\n      sub\n      swap1\n      log1\n        /* \"contracts/Main.sol\":1760:2817  {... */\n      pop\n      pop\n      pop\n        /* \"contracts/Main.sol\":1686:2817  function paymentValue(address payable to, uint256 value) external payable {... */\n      pop\n      pop\n      jump\t// out\n        /* \"contracts/token/ERC20.sol\":4025:4286  function transferFrom(address from, address to, uint256 amount) public virtual override returns (bool) {... */\n    tag_46:\n        /* \"contracts/token/ERC20.sol\":4122:4126  bool */\n      0x00\n        /* \"contracts/token/ERC20.sol\":4139:4154  address spender */\n      dup1\n        /* \"contracts/token/ERC20.sol\":4157:4169  _msgSender() */\n      tag_142\n        /* \"contracts/token/ERC20.sol\":4157:4167  _msgSender */\n      tag_110\n        /* \"contracts/token/ERC20.sol\":4157:4169  _msgSender() */\n      jump\t// in\n    tag_142:\n        /* \"contracts/token/ERC20.sol\":4139:4169  address spender = _msgSender() */\n      swap1\n      pop\n        /* \"contracts/token/ERC20.sol\":4180:4218  _spendAllowance(from, spender, amount) */\n      tag_143\n        /* \"contracts/token/ERC20.sol\":4196:4200  from */\n      dup6\n        /* \"contracts/token/ERC20.sol\":4202:4209  spender */\n      dup3\n        /* \"contracts/token/ERC20.sol\":4211:4217  amount */\n      dup6\n        /* \"contracts/token/ERC20.sol\":4180:4195  _spendAllowance */\n      tag_144\n        /* \"contracts/token/ERC20.sol\":4180:4218  _spendAllowance(from, spender, amount) */\n      jump\t// in\n    tag_143:\n        /* \"contracts/token/ERC20.sol\":4229:4256  _transfer(from, to, amount) */\n      tag_145\n        /* \"contracts/token/ERC20.sol\":4239:4243  from */\n      dup6\n        /* \"contracts/token/ERC20.sol\":4245:4247  to */\n      dup6\n        /* \"contracts/token/ERC20.sol\":4249:4255  amount */\n      dup6\n        /* \"contracts/token/ERC20.sol\":4229:4238  _transfer */\n      tag_146\n        /* \"contracts/token/ERC20.sol\":4229:4256  _transfer(from, to, amount) */\n      jump\t// in\n    tag_145:\n        /* \"contracts/token/ERC20.sol\":4274:4278  true */\n      0x01\n        /* \"contracts/token/ERC20.sol\":4267:4278  return true */\n      swap2\n      pop\n      pop\n        /* \"contracts/token/ERC20.sol\":4025:4286  function transferFrom(address from, address to, uint256 amount) public virtual override returns (bool) {... */\n      swap4\n      swap3\n      pop\n      pop\n      pop\n      jump\t// out\n        /* \"contracts/token/ERC20.sol\":1855:1948  function decimals() public view virtual override returns (uint8) {... */\n    tag_50:\n        /* \"contracts/token/ERC20.sol\":1913:1918  uint8 */\n      0x00\n        /* \"contracts/token/ERC20.sol\":1938:1940  18 */\n      0x12\n        /* \"contracts/token/ERC20.sol\":1931:1940  return 18 */\n      swap1\n      pop\n        /* \"contracts/token/ERC20.sol\":1855:1948  function decimals() public view virtual override returns (uint8) {... */\n      swap1\n      jump\t// out\n        /* \"contracts/token/ERC20.sol\":4695:4933  function increaseAllowance(address spender, uint256 addedValue) public virtual returns (bool) {... */\n    tag_56:\n        /* \"contracts/token/ERC20.sol\":4783:4787  bool */\n      0x00\n        /* \"contracts/token/ERC20.sol\":4800:4813  address owner */\n      dup1\n        /* \"contracts/token/ERC20.sol\":4816:4828  _msgSender() */\n      tag_149\n        /* \"contracts/token/ERC20.sol\":4816:4826  _msgSender */\n      tag_110\n        /* \"contracts/token/ERC20.sol\":4816:4828  _msgSender() */\n      jump\t// in\n    tag_149:\n        /* \"contracts/token/ERC20.sol\":4800:4828  address owner = _msgSender() */\n      swap1\n      pop\n        /* \"contracts/token/ERC20.sol\":4839:4903  _approve(owner, spender, allowance(owner, spender) + addedValue) */\n      tag_150\n        /* \"contracts/token/ERC20.sol\":4848:4853  owner */\n      dup2\n        /* \"contracts/token/ERC20.sol\":4855:4862  spender */\n      dup6\n        /* \"contracts/token/ERC20.sol\":4892:4902  addedValue */\n      dup6\n        /* \"contracts/token/ERC20.sol\":4864:4889  allowance(owner, spender) */\n      tag_151\n        /* \"contracts/token/ERC20.sol\":4874:4879  owner */\n      dup6\n        /* \"contracts/token/ERC20.sol\":4881:4888  spender */\n      dup10\n        /* \"contracts/token/ERC20.sol\":4864:4873  allowance */\n      tag_95\n        /* \"contracts/token/ERC20.sol\":4864:4889  allowance(owner, spender) */\n      jump\t// in\n    tag_151:\n        /* \"contracts/token/ERC20.sol\":4864:4902  allowance(owner, spender) + addedValue */\n      tag_152\n      swap2\n      swap1\n      tag_153\n      jump\t// in\n    tag_152:\n        /* \"contracts/token/ERC20.sol\":4839:4847  _approve */\n      tag_112\n        /* \"contracts/token/ERC20.sol\":4839:4903  _approve(owner, spender, allowance(owner, spender) + addedValue) */\n      jump\t// in\n    tag_150:\n        /* \"contracts/token/ERC20.sol\":4921:4925  true */\n      0x01\n        /* \"contracts/token/ERC20.sol\":4914:4925  return true */\n      swap2\n      pop\n      pop\n        /* \"contracts/token/ERC20.sol\":4695:4933  function increaseAllowance(address spender, uint256 addedValue) public virtual returns (bool) {... */\n      swap3\n      swap2\n      pop\n      pop\n      jump\t// out\n        /* \"contracts/Main.sol\":1567:1678  function GeneraTokens(address account, uint amount) public onlyOwner(){... */\n    tag_61:\n        /* \"contracts/Main.sol\":1085:1090  owner */\n      0x05\n      0x00\n      swap1\n      sload\n      swap1\n      0x0100\n      exp\n      swap1\n      div\n      0xffffffffffffffffffffffffffffffffffffffff\n      and\n        /* \"contracts/Main.sol\":1071:1090  msg.sender == owner */\n      0xffffffffffffffffffffffffffffffffffffffff\n      and\n        /* \"contracts/Main.sol\":1071:1081  msg.sender */\n      caller\n        /* \"contracts/Main.sol\":1071:1090  msg.sender == owner */\n      0xffffffffffffffffffffffffffffffffffffffff\n      and\n      eq\n        /* \"contracts/Main.sol\":1063:1143  require(msg.sender == owner, \"Solo el propietario puede ejecutar esta funcion.\") */\n      tag_155\n      jumpi\n      mload(0x40)\n      0x08c379a000000000000000000000000000000000000000000000000000000000\n      dup2\n      mstore\n      0x04\n      add\n      tag_156\n      swap1\n      tag_157\n      jump\t// in\n    tag_156:\n      mload(0x40)\n      dup1\n      swap2\n      sub\n      swap1\n      revert\n    tag_155:\n        /* \"contracts/Main.sol\":1648:1670  _mint(account, amount) */\n      tag_159\n        /* \"contracts/Main.sol\":1654:1661  account */\n      dup3\n        /* \"contracts/Main.sol\":1663:1669  amount */\n      dup3\n        /* \"contracts/Main.sol\":1648:1653  _mint */\n      tag_160\n        /* \"contracts/Main.sol\":1648:1670  _mint(account, amount) */\n      jump\t// in\n    tag_159:\n        /* \"contracts/Main.sol\":1567:1678  function GeneraTokens(address account, uint amount) public onlyOwner(){... */\n      pop\n      pop\n      jump\t// out\n        /* \"contracts/token/ERC20.sol\":2184:2311  function balanceOf(address account) public view virtual override returns (uint256) {... */\n    tag_66:\n        /* \"contracts/token/ERC20.sol\":2258:2265  uint256 */\n      0x00\n        /* \"contracts/token/ERC20.sol\":2285:2294  _balances */\n      dup1\n        /* \"contracts/token/ERC20.sol\":2285:2303  _balances[account] */\n      0x00\n        /* \"contracts/token/ERC20.sol\":2295:2302  account */\n      dup4\n        /* \"contracts/token/ERC20.sol\":2285:2303  _balances[account] */\n      0xffffffffffffffffffffffffffffffffffffffff\n      and\n      0xffffffffffffffffffffffffffffffffffffffff\n      and\n      dup2\n      mstore\n      0x20\n      add\n      swap1\n      dup2\n      mstore\n      0x20\n      add\n      0x00\n      keccak256\n      sload\n        /* \"contracts/token/ERC20.sol\":2278:2303  return _balances[account] */\n      swap1\n      pop\n        /* \"contracts/token/ERC20.sol\":2184:2311  function balanceOf(address account) public view virtual override returns (uint256) {... */\n      swap2\n      swap1\n      pop\n      jump\t// out\n        /* \"contracts/Main.sol\":598:670  address public intermediary = 0x72f188f3767fE8FE835b7b22191f28A3b19562D1 */\n    tag_70:\n      0x07\n      0x00\n      swap1\n      sload\n      swap1\n      0x0100\n      exp\n      swap1\n      div\n      0xffffffffffffffffffffffffffffffffffffffff\n      and\n      dup2\n      jump\t// out\n        /* \"contracts/Main.sol\":392:412  address public owner */\n    tag_75:\n      0x05\n      0x00\n      swap1\n      sload\n      swap1\n      0x0100\n      exp\n      swap1\n      div\n      0xffffffffffffffffffffffffffffffffffffffff\n      and\n      dup2\n      jump\t// out\n        /* \"contracts/token/ERC20.sol\":1103:1207  function symbol() public view virtual override returns (string memory) {... */\n    tag_79:\n        /* \"contracts/token/ERC20.sol\":1159:1172  string memory */\n      0x60\n        /* \"contracts/token/ERC20.sol\":1192:1199  _symbol */\n      0x04\n        /* \"contracts/token/ERC20.sol\":1185:1199  return _symbol */\n      dup1\n      sload\n      tag_163\n      swap1\n      tag_103\n      jump\t// in\n    tag_163:\n      dup1\n      0x1f\n      add\n      0x20\n      dup1\n      swap2\n      div\n      mul\n      0x20\n      add\n      mload(0x40)\n      swap1\n      dup2\n      add\n      0x40\n      mstore\n      dup1\n      swap3\n      swap2\n      swap1\n      dup2\n      dup2\n      mstore\n      0x20\n      add\n      dup3\n      dup1\n      sload\n      tag_164\n      swap1\n      tag_103\n      jump\t// in\n    tag_164:\n      dup1\n      iszero\n      tag_165\n      jumpi\n      dup1\n      0x1f\n      lt\n      tag_166\n      jumpi\n      0x0100\n      dup1\n      dup4\n      sload\n      div\n      mul\n      dup4\n      mstore\n      swap2\n      0x20\n      add\n      swap2\n      jump(tag_165)\n    tag_166:\n      dup3\n      add\n      swap2\n      swap1\n      0x00\n      mstore\n      keccak256(0x00, 0x20)\n      swap1\n    tag_167:\n      dup2\n      sload\n      dup2\n      mstore\n      swap1\n      0x01\n      add\n      swap1\n      0x20\n      add\n      dup1\n      dup4\n      gt\n      tag_167\n      jumpi\n      dup3\n      swap1\n      sub\n      0x1f\n      and\n      dup3\n      add\n      swap2\n    tag_165:\n      pop\n      pop\n      pop\n      pop\n      pop\n      swap1\n      pop\n        /* \"contracts/token/ERC20.sol\":1103:1207  function symbol() public view virtual override returns (string memory) {... */\n      swap1\n      jump\t// out\n        /* \"contracts/token/ERC20.sol\":5436:5872  function decreaseAllowance(address spender, uint256 subtractedValue) public virtual returns (bool) {... */\n    tag_84:\n        /* \"contracts/token/ERC20.sol\":5529:5533  bool */\n      0x00\n        /* \"contracts/token/ERC20.sol\":5546:5559  address owner */\n      dup1\n        /* \"contracts/token/ERC20.sol\":5562:5574  _msgSender() */\n      tag_169\n        /* \"contracts/token/ERC20.sol\":5562:5572  _msgSender */\n      tag_110\n        /* \"contracts/token/ERC20.sol\":5562:5574  _msgSender() */\n      jump\t// in\n    tag_169:\n        /* \"contracts/token/ERC20.sol\":5546:5574  address owner = _msgSender() */\n      swap1\n      pop\n        /* \"contracts/token/ERC20.sol\":5585:5609  uint256 currentAllowance */\n      0x00\n        /* \"contracts/token/ERC20.sol\":5612:5637  allowance(owner, spender) */\n      tag_170\n        /* \"contracts/token/ERC20.sol\":5622:5627  owner */\n      dup3\n        /* \"contracts/token/ERC20.sol\":5629:5636  spender */\n      dup7\n        /* \"contracts/token/ERC20.sol\":5612:5621  allowance */\n      tag_95\n        /* \"contracts/token/ERC20.sol\":5612:5637  allowance(owner, spender) */\n      jump\t// in\n    tag_170:\n        /* \"contracts/token/ERC20.sol\":5585:5637  uint256 currentAllowance = allowance(owner, spender) */\n      swap1\n      pop\n        /* \"contracts/token/ERC20.sol\":5676:5691  subtractedValue */\n      dup4\n        /* \"contracts/token/ERC20.sol\":5656:5672  currentAllowance */\n      dup2\n        /* \"contracts/token/ERC20.sol\":5656:5691  currentAllowance >= subtractedValue */\n      lt\n      iszero\n        /* \"contracts/token/ERC20.sol\":5648:5733  require(currentAllowance >= subtractedValue, \"ERC20: decreased allowance below zero\") */\n      tag_171\n      jumpi\n      mload(0x40)\n      0x08c379a000000000000000000000000000000000000000000000000000000000\n      dup2\n      mstore\n      0x04\n      add\n      tag_172\n      swap1\n      tag_173\n      jump\t// in\n    tag_172:\n      mload(0x40)\n      dup1\n      swap2\n      sub\n      swap1\n      revert\n    tag_171:\n        /* \"contracts/token/ERC20.sol\":5769:5829  _approve(owner, spender, currentAllowance - subtractedValue) */\n      tag_174\n        /* \"contracts/token/ERC20.sol\":5778:5783  owner */\n      dup3\n        /* \"contracts/token/ERC20.sol\":5785:5792  spender */\n      dup7\n        /* \"contracts/token/ERC20.sol\":5813:5828  subtractedValue */\n      dup7\n        /* \"contracts/token/ERC20.sol\":5794:5810  currentAllowance */\n      dup5\n        /* \"contracts/token/ERC20.sol\":5794:5828  currentAllowance - subtractedValue */\n      sub\n        /* \"contracts/token/ERC20.sol\":5769:5777  _approve */\n      tag_112\n        /* \"contracts/token/ERC20.sol\":5769:5829  _approve(owner, spender, currentAllowance - subtractedValue) */\n      jump\t// in\n    tag_174:\n        /* \"contracts/token/ERC20.sol\":5860:5864  true */\n      0x01\n        /* \"contracts/token/ERC20.sol\":5853:5864  return true */\n      swap3\n      pop\n      pop\n      pop\n        /* \"contracts/token/ERC20.sol\":5436:5872  function decreaseAllowance(address spender, uint256 subtractedValue) public virtual returns (bool) {... */\n      swap3\n      swap2\n      pop\n      pop\n      jump\t// out\n        /* \"contracts/token/ERC20.sol\":2517:2710  function transfer(address to, uint256 amount) public virtual override returns (bool) {... */\n    tag_89:\n        /* \"contracts/token/ERC20.sol\":2596:2600  bool */\n      0x00\n        /* \"contracts/token/ERC20.sol\":2613:2626  address owner */\n      dup1\n        /* \"contracts/token/ERC20.sol\":2629:2641  _msgSender() */\n      tag_176\n        /* \"contracts/token/ERC20.sol\":2629:2639  _msgSender */\n      tag_110\n        /* \"contracts/token/ERC20.sol\":2629:2641  _msgSender() */\n      jump\t// in\n    tag_176:\n        /* \"contracts/token/ERC20.sol\":2613:2641  address owner = _msgSender() */\n      swap1\n      pop\n        /* \"contracts/token/ERC20.sol\":2652:2680  _transfer(owner, to, amount) */\n      tag_177\n        /* \"contracts/token/ERC20.sol\":2662:2667  owner */\n      dup2\n        /* \"contracts/token/ERC20.sol\":2669:2671  to */\n      dup6\n        /* \"contracts/token/ERC20.sol\":2673:2679  amount */\n      dup6\n        /* \"contracts/token/ERC20.sol\":2652:2661  _transfer */\n      tag_146\n        /* \"contracts/token/ERC20.sol\":2652:2680  _transfer(owner, to, amount) */\n      jump\t// in\n    tag_177:\n        /* \"contracts/token/ERC20.sol\":2698:2702  true */\n      0x01\n        /* \"contracts/token/ERC20.sol\":2691:2702  return true */\n      swap2\n      pop\n      pop\n        /* \"contracts/token/ERC20.sol\":2517:2710  function transfer(address to, uint256 amount) public virtual override returns (bool) {... */\n      swap3\n      swap2\n      pop\n      pop\n      jump\t// out\n        /* \"contracts/token/ERC20.sol\":2773:2924  function allowance(address owner, address spender) public view virtual override returns (uint256) {... */\n    tag_95:\n        /* \"contracts/token/ERC20.sol\":2862:2869  uint256 */\n      0x00\n        /* \"contracts/token/ERC20.sol\":2889:2900  _allowances */\n      0x01\n        /* \"contracts/token/ERC20.sol\":2889:2907  _allowances[owner] */\n      0x00\n        /* \"contracts/token/ERC20.sol\":2901:2906  owner */\n      dup5\n        /* \"contracts/token/ERC20.sol\":2889:2907  _allowances[owner] */\n      0xffffffffffffffffffffffffffffffffffffffff\n      and\n      0xffffffffffffffffffffffffffffffffffffffff\n      and\n      dup2\n      mstore\n      0x20\n      add\n      swap1\n      dup2\n      mstore\n      0x20\n      add\n      0x00\n      keccak256\n        /* \"contracts/token/ERC20.sol\":2889:2916  _allowances[owner][spender] */\n      0x00\n        /* \"contracts/token/ERC20.sol\":2908:2915  spender */\n      dup4\n        /* \"contracts/token/ERC20.sol\":2889:2916  _allowances[owner][spender] */\n      0xffffffffffffffffffffffffffffffffffffffff\n      and\n      0xffffffffffffffffffffffffffffffffffffffff\n      and\n      dup2\n      mstore\n      0x20\n      add\n      swap1\n      dup2\n      mstore\n      0x20\n      add\n      0x00\n      keccak256\n      sload\n        /* \"contracts/token/ERC20.sol\":2882:2916  return _allowances[owner][spender] */\n      swap1\n      pop\n        /* \"contracts/token/ERC20.sol\":2773:2924  function allowance(address owner, address spender) public view virtual override returns (uint256) {... */\n      swap3\n      swap2\n      pop\n      pop\n      jump\t// out\n        /* \"contracts/Main.sol\":568:591  address public contrato */\n    tag_99:\n      0x06\n      0x00\n      swap1\n      sload\n      swap1\n      0x0100\n      exp\n      swap1\n      div\n      0xffffffffffffffffffffffffffffffffffffffff\n      and\n      dup2\n      jump\t// out\n        /* \"contracts/utils/Context.sol\":601:699  function _msgSender() internal view virtual returns (address) {... */\n    tag_110:\n        /* \"contracts/utils/Context.sol\":654:661  address */\n      0x00\n        /* \"contracts/utils/Context.sol\":681:691  msg.sender */\n      caller\n        /* \"contracts/utils/Context.sol\":674:691  return msg.sender */\n      swap1\n      pop\n        /* \"contracts/utils/Context.sol\":601:699  function _msgSender() internal view virtual returns (address) {... */\n      swap1\n      jump\t// out\n        /* \"contracts/token/ERC20.sol\":9429:9775  function _approve(address owner, address spender, uint256 amount) internal virtual {... */\n    tag_112:\n        /* \"contracts/token/ERC20.sol\":9548:9549  0 */\n      0x00\n        /* \"contracts/token/ERC20.sol\":9531:9550  owner != address(0) */\n      0xffffffffffffffffffffffffffffffffffffffff\n      and\n        /* \"contracts/token/ERC20.sol\":9531:9536  owner */\n      dup4\n        /* \"contracts/token/ERC20.sol\":9531:9550  owner != address(0) */\n      0xffffffffffffffffffffffffffffffffffffffff\n      and\n      sub\n        /* \"contracts/token/ERC20.sol\":9523:9591  require(owner != address(0), \"ERC20: approve from the zero address\") */\n      tag_181\n      jumpi\n      mload(0x40)\n      0x08c379a000000000000000000000000000000000000000000000000000000000\n      dup2\n      mstore\n      0x04\n      add\n      tag_182\n      swap1\n      tag_183\n      jump\t// in\n    tag_182:\n      mload(0x40)\n      dup1\n      swap2\n      sub\n      swap1\n      revert\n    tag_181:\n        /* \"contracts/token/ERC20.sol\":9629:9630  0 */\n      0x00\n        /* \"contracts/token/ERC20.sol\":9610:9631  spender != address(0) */\n      0xffffffffffffffffffffffffffffffffffffffff\n      and\n        /* \"contracts/token/ERC20.sol\":9610:9617  spender */\n      dup3\n        /* \"contracts/token/ERC20.sol\":9610:9631  spender != address(0) */\n      0xffffffffffffffffffffffffffffffffffffffff\n      and\n      sub\n        /* \"contracts/token/ERC20.sol\":9602:9670  require(spender != address(0), \"ERC20: approve to the zero address\") */\n      tag_184\n      jumpi\n      mload(0x40)\n      0x08c379a000000000000000000000000000000000000000000000000000000000\n      dup2\n      mstore\n      0x04\n      add\n      tag_185\n      swap1\n      tag_186\n      jump\t// in\n    tag_185:\n      mload(0x40)\n      dup1\n      swap2\n      sub\n      swap1\n      revert\n    tag_184:\n        /* \"contracts/token/ERC20.sol\":9713:9719  amount */\n      dup1\n        /* \"contracts/token/ERC20.sol\":9683:9694  _allowances */\n      0x01\n        /* \"contracts/token/ERC20.sol\":9683:9701  _allowances[owner] */\n      0x00\n        /* \"contracts/token/ERC20.sol\":9695:9700  owner */\n      dup6\n        /* \"contracts/token/ERC20.sol\":9683:9701  _allowances[owner] */\n      0xffffffffffffffffffffffffffffffffffffffff\n      and\n      0xffffffffffffffffffffffffffffffffffffffff\n      and\n      dup2\n      mstore\n      0x20\n      add\n      swap1\n      dup2\n      mstore\n      0x20\n      add\n      0x00\n      keccak256\n        /* \"contracts/token/ERC20.sol\":9683:9710  _allowances[owner][spender] */\n      0x00\n        /* \"contracts/token/ERC20.sol\":9702:9709  spender */\n      dup5\n        /* \"contracts/token/ERC20.sol\":9683:9710  _allowances[owner][spender] */\n      0xffffffffffffffffffffffffffffffffffffffff\n      and\n      0xffffffffffffffffffffffffffffffffffffffff\n      and\n      dup2\n      mstore\n      0x20\n      add\n      swap1\n      dup2\n      mstore\n      0x20\n      add\n      0x00\n      keccak256\n        /* \"contracts/token/ERC20.sol\":9683:9719  _allowances[owner][spender] = amount */\n      dup2\n      swap1\n      sstore\n      pop\n        /* \"contracts/token/ERC20.sol\":9751:9758  spender */\n      dup2\n        /* \"contracts/token/ERC20.sol\":9735:9767  Approval(owner, spender, amount) */\n      0xffffffffffffffffffffffffffffffffffffffff\n      and\n        /* \"contracts/token/ERC20.sol\":9744:9749  owner */\n      dup4\n        /* \"contracts/token/ERC20.sol\":9735:9767  Approval(owner, spender, amount) */\n      0xffffffffffffffffffffffffffffffffffffffff\n      and\n      0x8c5be1e5ebec7d5bd14f71427d1e84f3dd0314c0f7b2291e5b200ac8c7c3b925\n        /* \"contracts/token/ERC20.sol\":9760:9766  amount */\n      dup4\n        /* \"contracts/token/ERC20.sol\":9735:9767  Approval(owner, spender, amount) */\n      mload(0x40)\n      tag_187\n      swap2\n      swap1\n      tag_37\n      jump\t// in\n    tag_187:\n      mload(0x40)\n      dup1\n      swap2\n      sub\n      swap1\n      log3\n        /* \"contracts/token/ERC20.sol\":9429:9775  function _approve(address owner, address spender, uint256 amount) internal virtual {... */\n      pop\n      pop\n      pop\n      jump\t// out\n        /* \"contracts/Main.sol\":1287:1442  function valueTransaction(uint256 number) internal pure returns (uint256){... */\n    tag_116:\n        /* \"contracts/Main.sol\":1352:1359  uint256 */\n      0x00\n        /* \"contracts/Main.sol\":1431:1434  100 */\n      0x64\n        /* \"contracts/Main.sol\":1426:1427  2 */\n      0x02\n        /* \"contracts/Main.sol\":1417:1423  number */\n      dup4\n        /* \"contracts/Main.sol\":1417:1427  number * 2 */\n      tag_189\n      swap2\n      swap1\n      tag_190\n      jump\t// in\n    tag_189:\n        /* \"contracts/Main.sol\":1416:1434  (number * 2) / 100 */\n      tag_191\n      swap2\n      swap1\n      tag_192\n      jump\t// in\n    tag_191:\n        /* \"contracts/Main.sol\":1409:1434  return (number * 2) / 100 */\n      swap1\n      pop\n        /* \"contracts/Main.sol\":1287:1442  function valueTransaction(uint256 number) internal pure returns (uint256){... */\n      swap2\n      swap1\n      pop\n      jump\t// out\n        /* \"contracts/token/ERC20.sol\":10066:10485  function _spendAllowance(address owner, address spender, uint256 amount) internal virtual {... */\n    tag_144:\n        /* \"contracts/token/ERC20.sol\":10167:10191  uint256 currentAllowance */\n      0x00\n        /* \"contracts/token/ERC20.sol\":10194:10219  allowance(owner, spender) */\n      tag_194\n        /* \"contracts/token/ERC20.sol\":10204:10209  owner */\n      dup5\n        /* \"contracts/token/ERC20.sol\":10211:10218  spender */\n      dup5\n        /* \"contracts/token/ERC20.sol\":10194:10203  allowance */\n      tag_95\n        /* \"contracts/token/ERC20.sol\":10194:10219  allowance(owner, spender) */\n      jump\t// in\n    tag_194:\n        /* \"contracts/token/ERC20.sol\":10167:10219  uint256 currentAllowance = allowance(owner, spender) */\n      swap1\n      pop\n        /* \"contracts/token/ERC20.sol\":10254:10271  type(uint256).max */\n      0xffffffffffffffffffffffffffffffffffffffffffffffffffffffffffffffff\n        /* \"contracts/token/ERC20.sol\":10234:10250  currentAllowance */\n      dup2\n        /* \"contracts/token/ERC20.sol\":10234:10271  currentAllowance != type(uint256).max */\n      eq\n        /* \"contracts/token/ERC20.sol\":10230:10478  if (currentAllowance != type(uint256).max) {... */\n      tag_195\n      jumpi\n        /* \"contracts/token/ERC20.sol\":10316:10322  amount */\n      dup2\n        /* \"contracts/token/ERC20.sol\":10296:10312  currentAllowance */\n      dup2\n        /* \"contracts/token/ERC20.sol\":10296:10322  currentAllowance >= amount */\n      lt\n      iszero\n        /* \"contracts/token/ERC20.sol\":10288:10356  require(currentAllowance >= amount, \"ERC20: insufficient allowance\") */\n      tag_196\n      jumpi\n      mload(0x40)\n      0x08c379a000000000000000000000000000000000000000000000000000000000\n      dup2\n      mstore\n      0x04\n      add\n      tag_197\n      swap1\n      tag_198\n      jump\t// in\n    tag_197:\n      mload(0x40)\n      dup1\n      swap2\n      sub\n      swap1\n      revert\n    tag_196:\n        /* \"contracts/token/ERC20.sol\":10400:10451  _approve(owner, spender, currentAllowance - amount) */\n      tag_199\n        /* \"contracts/token/ERC20.sol\":10409:10414  owner */\n      dup5\n        /* \"contracts/token/ERC20.sol\":10416:10423  spender */\n      dup5\n        /* \"contracts/token/ERC20.sol\":10444:10450  amount */\n      dup5\n        /* \"contracts/token/ERC20.sol\":10425:10441  currentAllowance */\n      dup5\n        /* \"contracts/token/ERC20.sol\":10425:10450  currentAllowance - amount */\n      sub\n        /* \"contracts/token/ERC20.sol\":10400:10408  _approve */\n      tag_112\n        /* \"contracts/token/ERC20.sol\":10400:10451  _approve(owner, spender, currentAllowance - amount) */\n      jump\t// in\n    tag_199:\n        /* \"contracts/token/ERC20.sol\":10230:10478  if (currentAllowance != type(uint256).max) {... */\n    tag_195:\n        /* \"contracts/token/ERC20.sol\":10156:10485  {... */\n      pop\n        /* \"contracts/token/ERC20.sol\":10066:10485  function _spendAllowance(address owner, address spender, uint256 amount) internal virtual {... */\n      pop\n      pop\n      pop\n      jump\t// out\n        /* \"contracts/token/ERC20.sol\":6342:7148  function _transfer(address from, address to, uint256 amount) internal virtual {... */\n    tag_146:\n        /* \"contracts/token/ERC20.sol\":6455:6456  0 */\n      0x00\n        /* \"contracts/token/ERC20.sol\":6439:6457  from != address(0) */\n      0xffffffffffffffffffffffffffffffffffffffff\n      and\n        /* \"contracts/token/ERC20.sol\":6439:6443  from */\n      dup4\n        /* \"contracts/token/ERC20.sol\":6439:6457  from != address(0) */\n      0xffffffffffffffffffffffffffffffffffffffff\n      and\n      sub\n        /* \"contracts/token/ERC20.sol\":6431:6499  require(from != address(0), \"ERC20: transfer from the zero address\") */\n      tag_201\n      jumpi\n      mload(0x40)\n      0x08c379a000000000000000000000000000000000000000000000000000000000\n      dup2\n      mstore\n      0x04\n      add\n      tag_202\n      swap1\n      tag_203\n      jump\t// in\n    tag_202:\n      mload(0x40)\n      dup1\n      swap2\n      sub\n      swap1\n      revert\n    tag_201:\n        /* \"contracts/token/ERC20.sol\":6532:6533  0 */\n      0x00\n        /* \"contracts/token/ERC20.sol\":6518:6534  to != address(0) */\n      0xffffffffffffffffffffffffffffffffffffffff\n      and\n        /* \"contracts/token/ERC20.sol\":6518:6520  to */\n      dup3\n        /* \"contracts/token/ERC20.sol\":6518:6534  to != address(0) */\n      0xffffffffffffffffffffffffffffffffffffffff\n      and\n      sub\n        /* \"contracts/token/ERC20.sol\":6510:6574  require(to != address(0), \"ERC20: transfer to the zero address\") */\n      tag_204\n      jumpi\n      mload(0x40)\n      0x08c379a000000000000000000000000000000000000000000000000000000000\n      dup2\n      mstore\n      0x04\n      add\n      tag_205\n      swap1\n      tag_206\n      jump\t// in\n    tag_205:\n      mload(0x40)\n      dup1\n      swap2\n      sub\n      swap1\n      revert\n    tag_204:\n        /* \"contracts/token/ERC20.sol\":6587:6625  _beforeTokenTransfer(from, to, amount) */\n      tag_207\n        /* \"contracts/token/ERC20.sol\":6608:6612  from */\n      dup4\n        /* \"contracts/token/ERC20.sol\":6614:6616  to */\n      dup4\n        /* \"contracts/token/ERC20.sol\":6618:6624  amount */\n      dup4\n        /* \"contracts/token/ERC20.sol\":6587:6607  _beforeTokenTransfer */\n      tag_208\n        /* \"contracts/token/ERC20.sol\":6587:6625  _beforeTokenTransfer(from, to, amount) */\n      jump\t// in\n    tag_207:\n        /* \"contracts/token/ERC20.sol\":6638:6657  uint256 fromBalance */\n      0x00\n        /* \"contracts/token/ERC20.sol\":6660:6669  _balances */\n      dup1\n        /* \"contracts/token/ERC20.sol\":6660:6675  _balances[from] */\n      0x00\n        /* \"contracts/token/ERC20.sol\":6670:6674  from */\n      dup6\n        /* \"contracts/token/ERC20.sol\":6660:6675  _balances[from] */\n      0xffffffffffffffffffffffffffffffffffffffff\n      and\n      0xffffffffffffffffffffffffffffffffffffffff\n      and\n      dup2\n      mstore\n      0x20\n      add\n      swap1\n      dup2\n      mstore\n      0x20\n      add\n      0x00\n      keccak256\n      sload\n        /* \"contracts/token/ERC20.sol\":6638:6675  uint256 fromBalance = _balances[from] */\n      swap1\n      pop\n        /* \"contracts/token/ERC20.sol\":6709:6715  amount */\n      dup2\n        /* \"contracts/token/ERC20.sol\":6694:6705  fromBalance */\n      dup2\n        /* \"contracts/token/ERC20.sol\":6694:6715  fromBalance >= amount */\n      lt\n      iszero\n        /* \"contracts/token/ERC20.sol\":6686:6758  require(fromBalance >= amount, \"ERC20: transfer amount exceeds balance\") */\n      tag_209\n      jumpi\n      mload(0x40)\n      0x08c379a000000000000000000000000000000000000000000000000000000000\n      dup2\n      mstore\n      0x04\n      add\n      tag_210\n      swap1\n      tag_211\n      jump\t// in\n    tag_210:\n      mload(0x40)\n      dup1\n      swap2\n      sub\n      swap1\n      revert\n    tag_209:\n        /* \"contracts/token/ERC20.sol\":6826:6832  amount */\n      dup2\n        /* \"contracts/token/ERC20.sol\":6812:6823  fromBalance */\n      dup2\n        /* \"contracts/token/ERC20.sol\":6812:6832  fromBalance - amount */\n      sub\n        /* \"contracts/token/ERC20.sol\":6794:6803  _balances */\n      0x00\n        /* \"contracts/token/ERC20.sol\":6794:6809  _balances[from] */\n      dup1\n        /* \"contracts/token/ERC20.sol\":6804:6808  from */\n      dup7\n        /* \"contracts/token/ERC20.sol\":6794:6809  _balances[from] */\n      0xffffffffffffffffffffffffffffffffffffffff\n      and\n      0xffffffffffffffffffffffffffffffffffffffff\n      and\n      dup2\n      mstore\n      0x20\n      add\n      swap1\n      dup2\n      mstore\n      0x20\n      add\n      0x00\n      keccak256\n        /* \"contracts/token/ERC20.sol\":6794:6832  _balances[from] = fromBalance - amount */\n      dup2\n      swap1\n      sstore\n      pop\n        /* \"contracts/token/ERC20.sol\":7029:7035  amount */\n      dup2\n        /* \"contracts/token/ERC20.sol\":7012:7021  _balances */\n      0x00\n        /* \"contracts/token/ERC20.sol\":7012:7025  _balances[to] */\n      dup1\n        /* \"contracts/token/ERC20.sol\":7022:7024  to */\n      dup6\n        /* \"contracts/token/ERC20.sol\":7012:7025  _balances[to] */\n      0xffffffffffffffffffffffffffffffffffffffff\n      and\n      0xffffffffffffffffffffffffffffffffffffffff\n      and\n      dup2\n      mstore\n      0x20\n      add\n      swap1\n      dup2\n      mstore\n      0x20\n      add\n      0x00\n      keccak256\n      0x00\n        /* \"contracts/token/ERC20.sol\":7012:7035  _balances[to] += amount */\n      dup3\n      dup3\n      sload\n      add\n      swap3\n      pop\n      pop\n      dup2\n      swap1\n      sstore\n      pop\n        /* \"contracts/token/ERC20.sol\":7079:7081  to */\n      dup3\n        /* \"contracts/token/ERC20.sol\":7064:7090  Transfer(from, to, amount) */\n      0xffffffffffffffffffffffffffffffffffffffff\n      and\n        /* \"contracts/token/ERC20.sol\":7073:7077  from */\n      dup5\n        /* \"contracts/token/ERC20.sol\":7064:7090  Transfer(from, to, amount) */\n      0xffffffffffffffffffffffffffffffffffffffff\n      and\n      0xddf252ad1be2c89b69c2b068fc378daa952ba7f163c4a11628f55a4df523b3ef\n        /* \"contracts/token/ERC20.sol\":7083:7089  amount */\n      dup5\n        /* \"contracts/token/ERC20.sol\":7064:7090  Transfer(from, to, amount) */\n      mload(0x40)\n      tag_212\n      swap2\n      swap1\n      tag_37\n      jump\t// in\n    tag_212:\n      mload(0x40)\n      dup1\n      swap2\n      sub\n      swap1\n      log3\n        /* \"contracts/token/ERC20.sol\":7103:7140  _afterTokenTransfer(from, to, amount) */\n      tag_213\n        /* \"contracts/token/ERC20.sol\":7123:7127  from */\n      dup5\n        /* \"contracts/token/ERC20.sol\":7129:7131  to */\n      dup5\n        /* \"contracts/token/ERC20.sol\":7133:7139  amount */\n      dup5\n        /* \"contracts/token/ERC20.sol\":7103:7122  _afterTokenTransfer */\n      tag_214\n        /* \"contracts/token/ERC20.sol\":7103:7140  _afterTokenTransfer(from, to, amount) */\n      jump\t// in\n    tag_213:\n        /* \"contracts/token/ERC20.sol\":6420:7148  {... */\n      pop\n        /* \"contracts/token/ERC20.sol\":6342:7148  function _transfer(address from, address to, uint256 amount) internal virtual {... */\n      pop\n      pop\n      pop\n      jump\t// out\n        /* \"contracts/token/ERC20.sol\":7435:7983  function _mint(address account, uint256 amount) internal virtual {... */\n    tag_160:\n        /* \"contracts/token/ERC20.sol\":7538:7539  0 */\n      0x00\n        /* \"contracts/token/ERC20.sol\":7519:7540  account != address(0) */\n      0xffffffffffffffffffffffffffffffffffffffff\n      and\n        /* \"contracts/token/ERC20.sol\":7519:7526  account */\n      dup3\n        /* \"contracts/token/ERC20.sol\":7519:7540  account != address(0) */\n      0xffffffffffffffffffffffffffffffffffffffff\n      and\n      sub\n        /* \"contracts/token/ERC20.sol\":7511:7576  require(account != address(0), \"ERC20: mint to the zero address\") */\n      tag_216\n      jumpi\n      mload(0x40)\n      0x08c379a000000000000000000000000000000000000000000000000000000000\n      dup2\n      mstore\n      0x04\n      add\n      tag_217\n      swap1\n      tag_218\n      jump\t// in\n    tag_217:\n      mload(0x40)\n      dup1\n      swap2\n      sub\n      swap1\n      revert\n    tag_216:\n        /* \"contracts/token/ERC20.sol\":7589:7638  _beforeTokenTransfer(address(0), account, amount) */\n      tag_219\n        /* \"contracts/token/ERC20.sol\":7618:7619  0 */\n      0x00\n        /* \"contracts/token/ERC20.sol\":7622:7629  account */\n      dup4\n        /* \"contracts/token/ERC20.sol\":7631:7637  amount */\n      dup4\n        /* \"contracts/token/ERC20.sol\":7589:7609  _beforeTokenTransfer */\n      tag_208\n        /* \"contracts/token/ERC20.sol\":7589:7638  _beforeTokenTransfer(address(0), account, amount) */\n      jump\t// in\n    tag_219:\n        /* \"contracts/token/ERC20.sol\":7667:7673  amount */\n      dup1\n        /* \"contracts/token/ERC20.sol\":7651:7663  _totalSupply */\n      0x02\n      0x00\n        /* \"contracts/token/ERC20.sol\":7651:7673  _totalSupply += amount */\n      dup3\n      dup3\n      sload\n      tag_220\n      swap2\n      swap1\n      tag_153\n      jump\t// in\n    tag_220:\n      swap3\n      pop\n      pop\n      dup2\n      swap1\n      sstore\n      pop\n        /* \"contracts/token/ERC20.sol\":7844:7850  amount */\n      dup1\n        /* \"contracts/token/ERC20.sol\":7822:7831  _balances */\n      0x00\n        /* \"contracts/token/ERC20.sol\":7822:7840  _balances[account] */\n      dup1\n        /* \"contracts/token/ERC20.sol\":7832:7839  account */\n      dup5\n        /* \"contracts/token/ERC20.sol\":7822:7840  _balances[account] */\n      0xffffffffffffffffffffffffffffffffffffffff\n      and\n      0xffffffffffffffffffffffffffffffffffffffff\n      and\n      dup2\n      mstore\n      0x20\n      add\n      swap1\n      dup2\n      mstore\n      0x20\n      add\n      0x00\n      keccak256\n      0x00\n        /* \"contracts/token/ERC20.sol\":7822:7850  _balances[account] += amount */\n      dup3\n      dup3\n      sload\n      add\n      swap3\n      pop\n      pop\n      dup2\n      swap1\n      sstore\n      pop\n        /* \"contracts/token/ERC20.sol\":7898:7905  account */\n      dup2\n        /* \"contracts/token/ERC20.sol\":7877:7914  Transfer(address(0), account, amount) */\n      0xffffffffffffffffffffffffffffffffffffffff\n      and\n        /* \"contracts/token/ERC20.sol\":7894:7895  0 */\n      0x00\n        /* \"contracts/token/ERC20.sol\":7877:7914  Transfer(address(0), account, amount) */\n      0xffffffffffffffffffffffffffffffffffffffff\n      and\n      0xddf252ad1be2c89b69c2b068fc378daa952ba7f163c4a11628f55a4df523b3ef\n        /* \"contracts/token/ERC20.sol\":7907:7913  amount */\n      dup4\n        /* \"contracts/token/ERC20.sol\":7877:7914  Transfer(address(0), account, amount) */\n      mload(0x40)\n      tag_221\n      swap2\n      swap1\n      tag_37\n      jump\t// in\n    tag_221:\n      mload(0x40)\n      dup1\n      swap2\n      sub\n      swap1\n      log3\n        /* \"contracts/token/ERC20.sol\":7927:7975  _afterTokenTransfer(address(0), account, amount) */\n      tag_222\n        /* \"contracts/token/ERC20.sol\":7955:7956  0 */\n      0x00\n        /* \"contracts/token/ERC20.sol\":7959:7966  account */\n      dup4\n        /* \"contracts/token/ERC20.sol\":7968:7974  amount */\n      dup4\n        /* \"contracts/token/ERC20.sol\":7927:7946  _afterTokenTransfer */\n      tag_214\n        /* \"contracts/token/ERC20.sol\":7927:7975  _afterTokenTransfer(address(0), account, amount) */\n      jump\t// in\n    tag_222:\n        /* \"contracts/token/ERC20.sol\":7435:7983  function _mint(address account, uint256 amount) internal virtual {... */\n      pop\n      pop\n      jump\t// out\n        /* \"contracts/token/ERC20.sol\":11085:11176  function _beforeTokenTransfer(address from, address to, uint256 amount) internal virtual {} */\n    tag_208:\n      pop\n      pop\n      pop\n      jump\t// out\n        /* \"contracts/token/ERC20.sol\":11780:11870  function _afterTokenTransfer(address from, address to, uint256 amount) internal virtual {} */\n    tag_214:\n      pop\n      pop\n      pop\n      jump\t// out\n        /* \"#utility.yul\":7:106   */\n    tag_225:\n        /* \"#utility.yul\":59:65   */\n      0x00\n        /* \"#utility.yul\":93:98   */\n      dup2\n        /* \"#utility.yul\":87:99   */\n      mload\n        /* \"#utility.yul\":77:99   */\n      swap1\n      pop\n        /* \"#utility.yul\":7:106   */\n      swap2\n      swap1\n      pop\n      jump\t// out\n        /* \"#utility.yul\":112:281   */\n    tag_226:\n        /* \"#utility.yul\":196:207   */\n      0x00\n        /* \"#utility.yul\":230:236   */\n      dup3\n        /* \"#utility.yul\":225:228   */\n      dup3\n        /* \"#utility.yul\":218:237   */\n      mstore\n        /* \"#utility.yul\":270:274   */\n      0x20\n        /* \"#utility.yul\":265:268   */\n      dup3\n        /* \"#utility.yul\":261:275   */\n      add\n        /* \"#utility.yul\":246:275   */\n      swap1\n      pop\n        /* \"#utility.yul\":112:281   */\n      swap3\n      swap2\n      pop\n      pop\n      jump\t// out\n        /* \"#utility.yul\":287:533   */\n    tag_227:\n        /* \"#utility.yul\":368:369   */\n      0x00\n        /* \"#utility.yul\":378:491   */\n    tag_286:\n        /* \"#utility.yul\":392:398   */\n      dup4\n        /* \"#utility.yul\":389:390   */\n      dup2\n        /* \"#utility.yul\":386:399   */\n      lt\n        /* \"#utility.yul\":378:491   */\n      iszero\n      tag_288\n      jumpi\n        /* \"#utility.yul\":477:478   */\n      dup1\n        /* \"#utility.yul\":472:475   */\n      dup3\n        /* \"#utility.yul\":468:479   */\n      add\n        /* \"#utility.yul\":462:480   */\n      mload\n        /* \"#utility.yul\":458:459   */\n      dup2\n        /* \"#utility.yul\":453:456   */\n      dup5\n        /* \"#utility.yul\":449:460   */\n      add\n        /* \"#utility.yul\":442:481   */\n      mstore\n        /* \"#utility.yul\":414:416   */\n      0x20\n        /* \"#utility.yul\":411:412   */\n      dup2\n        /* \"#utility.yul\":407:417   */\n      add\n        /* \"#utility.yul\":402:417   */\n      swap1\n      pop\n        /* \"#utility.yul\":378:491   */\n      jump(tag_286)\n    tag_288:\n        /* \"#utility.yul\":525:526   */\n      0x00\n        /* \"#utility.yul\":516:522   */\n      dup5\n        /* \"#utility.yul\":511:514   */\n      dup5\n        /* \"#utility.yul\":507:523   */\n      add\n        /* \"#utility.yul\":500:527   */\n      mstore\n        /* \"#utility.yul\":349:533   */\n      pop\n        /* \"#utility.yul\":287:533   */\n      pop\n      pop\n      pop\n      jump\t// out\n        /* \"#utility.yul\":539:641   */\n    tag_228:\n        /* \"#utility.yul\":580:586   */\n      0x00\n        /* \"#utility.yul\":631:633   */\n      0x1f\n        /* \"#utility.yul\":627:634   */\n      not\n        /* \"#utility.yul\":622:624   */\n      0x1f\n        /* \"#utility.yul\":615:620   */\n      dup4\n        /* \"#utility.yul\":611:625   */\n      add\n        /* \"#utility.yul\":607:635   */\n      and\n        /* \"#utility.yul\":597:635   */\n      swap1\n      pop\n        /* \"#utility.yul\":539:641   */\n      swap2\n      swap1\n      pop\n      jump\t// out\n        /* \"#utility.yul\":647:1024   */\n    tag_229:\n        /* \"#utility.yul\":735:738   */\n      0x00\n        /* \"#utility.yul\":763:802   */\n      tag_291\n        /* \"#utility.yul\":796:801   */\n      dup3\n        /* \"#utility.yul\":763:802   */\n      tag_225\n      jump\t// in\n    tag_291:\n        /* \"#utility.yul\":818:889   */\n      tag_292\n        /* \"#utility.yul\":882:888   */\n      dup2\n        /* \"#utility.yul\":877:880   */\n      dup6\n        /* \"#utility.yul\":818:889   */\n      tag_226\n      jump\t// in\n    tag_292:\n        /* \"#utility.yul\":811:889   */\n      swap4\n      pop\n        /* \"#utility.yul\":898:963   */\n      tag_293\n        /* \"#utility.yul\":956:962   */\n      dup2\n        /* \"#utility.yul\":951:954   */\n      dup6\n        /* \"#utility.yul\":944:948   */\n      0x20\n        /* \"#utility.yul\":937:942   */\n      dup7\n        /* \"#utility.yul\":933:949   */\n      add\n        /* \"#utility.yul\":898:963   */\n      tag_227\n      jump\t// in\n    tag_293:\n        /* \"#utility.yul\":988:1017   */\n      tag_294\n        /* \"#utility.yul\":1010:1016   */\n      dup2\n        /* \"#utility.yul\":988:1017   */\n      tag_228\n      jump\t// in\n    tag_294:\n        /* \"#utility.yul\":983:986   */\n      dup5\n        /* \"#utility.yul\":979:1018   */\n      add\n        /* \"#utility.yul\":972:1018   */\n      swap2\n      pop\n        /* \"#utility.yul\":739:1024   */\n      pop\n        /* \"#utility.yul\":647:1024   */\n      swap3\n      swap2\n      pop\n      pop\n      jump\t// out\n        /* \"#utility.yul\":1030:1343   */\n    tag_25:\n        /* \"#utility.yul\":1143:1147   */\n      0x00\n        /* \"#utility.yul\":1181:1183   */\n      0x20\n        /* \"#utility.yul\":1170:1179   */\n      dup3\n        /* \"#utility.yul\":1166:1184   */\n      add\n        /* \"#utility.yul\":1158:1184   */\n      swap1\n      pop\n        /* \"#utility.yul\":1230:1239   */\n      dup2\n        /* \"#utility.yul\":1224:1228   */\n      dup2\n        /* \"#utility.yul\":1220:1240   */\n      sub\n        /* \"#utility.yul\":1216:1217   */\n      0x00\n        /* \"#utility.yul\":1205:1214   */\n      dup4\n        /* \"#utility.yul\":1201:1218   */\n      add\n        /* \"#utility.yul\":1194:1241   */\n      mstore\n        /* \"#utility.yul\":1258:1336   */\n      tag_296\n        /* \"#utility.yul\":1331:1335   */\n      dup2\n        /* \"#utility.yul\":1322:1328   */\n      dup5\n        /* \"#utility.yul\":1258:1336   */\n      tag_229\n      jump\t// in\n    tag_296:\n        /* \"#utility.yul\":1250:1336   */\n      swap1\n      pop\n        /* \"#utility.yul\":1030:1343   */\n      swap3\n      swap2\n      pop\n      pop\n      jump\t// out\n        /* \"#utility.yul\":1430:1547   */\n    tag_231:\n        /* \"#utility.yul\":1539:1540   */\n      0x00\n        /* \"#utility.yul\":1536:1537   */\n      dup1\n        /* \"#utility.yul\":1529:1541   */\n      revert\n        /* \"#utility.yul\":1676:1802   */\n    tag_233:\n        /* \"#utility.yul\":1713:1720   */\n      0x00\n        /* \"#utility.yul\":1753:1795   */\n      0xffffffffffffffffffffffffffffffffffffffff\n        /* \"#utility.yul\":1746:1751   */\n      dup3\n        /* \"#utility.yul\":1742:1796   */\n      and\n        /* \"#utility.yul\":1731:1796   */\n      swap1\n      pop\n        /* \"#utility.yul\":1676:1802   */\n      swap2\n      swap1\n      pop\n      jump\t// out\n        /* \"#utility.yul\":1808:1904   */\n    tag_234:\n        /* \"#utility.yul\":1845:1852   */\n      0x00\n        /* \"#utility.yul\":1874:1898   */\n      tag_302\n        /* \"#utility.yul\":1892:1897   */\n      dup3\n        /* \"#utility.yul\":1874:1898   */\n      tag_233\n      jump\t// in\n    tag_302:\n        /* \"#utility.yul\":1863:1898   */\n      swap1\n      pop\n        /* \"#utility.yul\":1808:1904   */\n      swap2\n      swap1\n      pop\n      jump\t// out\n        /* \"#utility.yul\":1910:2032   */\n    tag_235:\n        /* \"#utility.yul\":1983:2007   */\n      tag_304\n        /* \"#utility.yul\":2001:2006   */\n      dup2\n        /* \"#utility.yul\":1983:2007   */\n      tag_234\n      jump\t// in\n    tag_304:\n        /* \"#utility.yul\":1976:1981   */\n      dup2\n        /* \"#utility.yul\":1973:2008   */\n      eq\n        /* \"#utility.yul\":1963:2026   */\n      tag_305\n      jumpi\n        /* \"#utility.yul\":2022:2023   */\n      0x00\n        /* \"#utility.yul\":2019:2020   */\n      dup1\n        /* \"#utility.yul\":2012:2024   */\n      revert\n        /* \"#utility.yul\":1963:2026   */\n    tag_305:\n        /* \"#utility.yul\":1910:2032   */\n      pop\n      jump\t// out\n        /* \"#utility.yul\":2038:2177   */\n    tag_236:\n        /* \"#utility.yul\":2084:2089   */\n      0x00\n        /* \"#utility.yul\":2122:2128   */\n      dup2\n        /* \"#utility.yul\":2109:2129   */\n      calldataload\n        /* \"#utility.yul\":2100:2129   */\n      swap1\n      pop\n        /* \"#utility.yul\":2138:2171   */\n      tag_307\n        /* \"#utility.yul\":2165:2170   */\n      dup2\n        /* \"#utility.yul\":2138:2171   */\n      tag_235\n      jump\t// in\n    tag_307:\n        /* \"#utility.yul\":2038:2177   */\n      swap3\n      swap2\n      pop\n      pop\n      jump\t// out\n        /* \"#utility.yul\":2183:2260   */\n    tag_237:\n        /* \"#utility.yul\":2220:2227   */\n      0x00\n        /* \"#utility.yul\":2249:2254   */\n      dup2\n        /* \"#utility.yul\":2238:2254   */\n      swap1\n      pop\n        /* \"#utility.yul\":2183:2260   */\n      swap2\n      swap1\n      pop\n      jump\t// out\n        /* \"#utility.yul\":2266:2388   */\n    tag_238:\n        /* \"#utility.yul\":2339:2363   */\n      tag_310\n        /* \"#utility.yul\":2357:2362   */\n      dup2\n        /* \"#utility.yul\":2339:2363   */\n      tag_237\n      jump\t// in\n    tag_310:\n        /* \"#utility.yul\":2332:2337   */\n      dup2\n        /* \"#utility.yul\":2329:2364   */\n      eq\n        /* \"#utility.yul\":2319:2382   */\n      tag_311\n      jumpi\n        /* \"#utility.yul\":2378:2379   */\n      0x00\n        /* \"#utility.yul\":2375:2376   */\n      dup1\n        /* \"#utility.yul\":2368:2380   */\n      revert\n        /* \"#utility.yul\":2319:2382   */\n    tag_311:\n        /* \"#utility.yul\":2266:2388   */\n      pop\n      jump\t// out\n        /* \"#utility.yul\":2394:2533   */\n    tag_239:\n        /* \"#utility.yul\":2440:2445   */\n      0x00\n        /* \"#utility.yul\":2478:2484   */\n      dup2\n        /* \"#utility.yul\":2465:2485   */\n      calldataload\n        /* \"#utility.yul\":2456:2485   */\n      swap1\n      pop\n        /* \"#utility.yul\":2494:2527   */\n      tag_313\n        /* \"#utility.yul\":2521:2526   */\n      dup2\n        /* \"#utility.yul\":2494:2527   */\n      tag_238\n      jump\t// in\n    tag_313:\n        /* \"#utility.yul\":2394:2533   */\n      swap3\n      swap2\n      pop\n      pop\n      jump\t// out\n        /* \"#utility.yul\":2539:3013   */\n    tag_29:\n        /* \"#utility.yul\":2607:2613   */\n      0x00\n        /* \"#utility.yul\":2615:2621   */\n      dup1\n        /* \"#utility.yul\":2664:2666   */\n      0x40\n        /* \"#utility.yul\":2652:2661   */\n      dup4\n        /* \"#utility.yul\":2643:2650   */\n      dup6\n        /* \"#utility.yul\":2639:2662   */\n      sub\n        /* \"#utility.yul\":2635:2667   */\n      slt\n        /* \"#utility.yul\":2632:2751   */\n      iszero\n      tag_315\n      jumpi\n        /* \"#utility.yul\":2670:2749   */\n      tag_316\n      tag_231\n      jump\t// in\n    tag_316:\n        /* \"#utility.yul\":2632:2751   */\n    tag_315:\n        /* \"#utility.yul\":2790:2791   */\n      0x00\n        /* \"#utility.yul\":2815:2868   */\n      tag_317\n        /* \"#utility.yul\":2860:2867   */\n      dup6\n        /* \"#utility.yul\":2851:2857   */\n      dup3\n        /* \"#utility.yul\":2840:2849   */\n      dup7\n        /* \"#utility.yul\":2836:2858   */\n      add\n        /* \"#utility.yul\":2815:2868   */\n      tag_236\n      jump\t// in\n    tag_317:\n        /* \"#utility.yul\":2805:2868   */\n      swap3\n      pop\n        /* \"#utility.yul\":2761:2878   */\n      pop\n        /* \"#utility.yul\":2917:2919   */\n      0x20\n        /* \"#utility.yul\":2943:2996   */\n      tag_318\n        /* \"#utility.yul\":2988:2995   */\n      dup6\n        /* \"#utility.yul\":2979:2985   */\n      dup3\n        /* \"#utility.yul\":2968:2977   */\n      dup7\n        /* \"#utility.yul\":2964:2986   */\n      add\n        /* \"#utility.yul\":2943:2996   */\n      tag_239\n      jump\t// in\n    tag_318:\n        /* \"#utility.yul\":2933:2996   */\n      swap2\n      pop\n        /* \"#utility.yul\":2888:3006   */\n      pop\n        /* \"#utility.yul\":2539:3013   */\n      swap3\n      pop\n      swap3\n      swap1\n      pop\n      jump\t// out\n        /* \"#utility.yul\":3019:3109   */\n    tag_240:\n        /* \"#utility.yul\":3053:3060   */\n      0x00\n        /* \"#utility.yul\":3096:3101   */\n      dup2\n        /* \"#utility.yul\":3089:3102   */\n      iszero\n        /* \"#utility.yul\":3082:3103   */\n      iszero\n        /* \"#utility.yul\":3071:3103   */\n      swap1\n      pop\n        /* \"#utility.yul\":3019:3109   */\n      swap2\n      swap1\n      pop\n      jump\t// out\n        /* \"#utility.yul\":3115:3224   */\n    tag_241:\n        /* \"#utility.yul\":3196:3217   */\n      tag_321\n        /* \"#utility.yul\":3211:3216   */\n      dup2\n        /* \"#utility.yul\":3196:3217   */\n      tag_240\n      jump\t// in\n    tag_321:\n        /* \"#utility.yul\":3191:3194   */\n      dup3\n        /* \"#utility.yul\":3184:3218   */\n      mstore\n        /* \"#utility.yul\":3115:3224   */\n      pop\n      pop\n      jump\t// out\n        /* \"#utility.yul\":3230:3440   */\n    tag_32:\n        /* \"#utility.yul\":3317:3321   */\n      0x00\n        /* \"#utility.yul\":3355:3357   */\n      0x20\n        /* \"#utility.yul\":3344:3353   */\n      dup3\n        /* \"#utility.yul\":3340:3358   */\n      add\n        /* \"#utility.yul\":3332:3358   */\n      swap1\n      pop\n        /* \"#utility.yul\":3368:3433   */\n      tag_323\n        /* \"#utility.yul\":3430:3431   */\n      0x00\n        /* \"#utility.yul\":3419:3428   */\n      dup4\n        /* \"#utility.yul\":3415:3432   */\n      add\n        /* \"#utility.yul\":3406:3412   */\n      dup5\n        /* \"#utility.yul\":3368:3433   */\n      tag_241\n      jump\t// in\n    tag_323:\n        /* \"#utility.yul\":3230:3440   */\n      swap3\n      swap2\n      pop\n      pop\n      jump\t// out\n        /* \"#utility.yul\":3446:3564   */\n    tag_242:\n        /* \"#utility.yul\":3533:3557   */\n      tag_325\n        /* \"#utility.yul\":3551:3556   */\n      dup2\n        /* \"#utility.yul\":3533:3557   */\n      tag_237\n      jump\t// in\n    tag_325:\n        /* \"#utility.yul\":3528:3531   */\n      dup3\n        /* \"#utility.yul\":3521:3558   */\n      mstore\n        /* \"#utility.yul\":3446:3564   */\n      pop\n      pop\n      jump\t// out\n        /* \"#utility.yul\":3570:3792   */\n    tag_37:\n        /* \"#utility.yul\":3663:3667   */\n      0x00\n        /* \"#utility.yul\":3701:3703   */\n      0x20\n        /* \"#utility.yul\":3690:3699   */\n      dup3\n        /* \"#utility.yul\":3686:3704   */\n      add\n        /* \"#utility.yul\":3678:3704   */\n      swap1\n      pop\n        /* \"#utility.yul\":3714:3785   */\n      tag_327\n        /* \"#utility.yul\":3782:3783   */\n      0x00\n        /* \"#utility.yul\":3771:3780   */\n      dup4\n        /* \"#utility.yul\":3767:3784   */\n      add\n        /* \"#utility.yul\":3758:3764   */\n      dup5\n        /* \"#utility.yul\":3714:3785   */\n      tag_242\n      jump\t// in\n    tag_327:\n        /* \"#utility.yul\":3570:3792   */\n      swap3\n      swap2\n      pop\n      pop\n      jump\t// out\n        /* \"#utility.yul\":3798:3902   */\n    tag_243:\n        /* \"#utility.yul\":3843:3850   */\n      0x00\n        /* \"#utility.yul\":3872:3896   */\n      tag_329\n        /* \"#utility.yul\":3890:3895   */\n      dup3\n        /* \"#utility.yul\":3872:3896   */\n      tag_233\n      jump\t// in\n    tag_329:\n        /* \"#utility.yul\":3861:3896   */\n      swap1\n      pop\n        /* \"#utility.yul\":3798:3902   */\n      swap2\n      swap1\n      pop\n      jump\t// out\n        /* \"#utility.yul\":3908:4046   */\n    tag_244:\n        /* \"#utility.yul\":3989:4021   */\n      tag_331\n        /* \"#utility.yul\":4015:4020   */\n      dup2\n        /* \"#utility.yul\":3989:4021   */\n      tag_243\n      jump\t// in\n    tag_331:\n        /* \"#utility.yul\":3982:3987   */\n      dup2\n        /* \"#utility.yul\":3979:4022   */\n      eq\n        /* \"#utility.yul\":3969:4040   */\n      tag_332\n      jumpi\n        /* \"#utility.yul\":4036:4037   */\n      0x00\n        /* \"#utility.yul\":4033:4034   */\n      dup1\n        /* \"#utility.yul\":4026:4038   */\n      revert\n        /* \"#utility.yul\":3969:4040   */\n    tag_332:\n        /* \"#utility.yul\":3908:4046   */\n      pop\n      jump\t// out\n        /* \"#utility.yul\":4052:4207   */\n    tag_245:\n        /* \"#utility.yul\":4106:4111   */\n      0x00\n        /* \"#utility.yul\":4144:4150   */\n      dup2\n        /* \"#utility.yul\":4131:4151   */\n      calldataload\n        /* \"#utility.yul\":4122:4151   */\n      swap1\n      pop\n        /* \"#utility.yul\":4160:4201   */\n      tag_334\n        /* \"#utility.yul\":4195:4200   */\n      dup2\n        /* \"#utility.yul\":4160:4201   */\n      tag_244\n      jump\t// in\n    tag_334:\n        /* \"#utility.yul\":4052:4207   */\n      swap3\n      swap2\n      pop\n      pop\n      jump\t// out\n        /* \"#utility.yul\":4213:4703   */\n    tag_40:\n        /* \"#utility.yul\":4289:4295   */\n      0x00\n        /* \"#utility.yul\":4297:4303   */\n      dup1\n        /* \"#utility.yul\":4346:4348   */\n      0x40\n        /* \"#utility.yul\":4334:4343   */\n      dup4\n        /* \"#utility.yul\":4325:4332   */\n      dup6\n        /* \"#utility.yul\":4321:4344   */\n      sub\n        /* \"#utility.yul\":4317:4349   */\n      slt\n        /* \"#utility.yul\":4314:4433   */\n      iszero\n      tag_336\n      jumpi\n        /* \"#utility.yul\":4352:4431   */\n      tag_337\n      tag_231\n      jump\t// in\n    tag_337:\n        /* \"#utility.yul\":4314:4433   */\n    tag_336:\n        /* \"#utility.yul\":4472:4473   */\n      0x00\n        /* \"#utility.yul\":4497:4558   */\n      tag_338\n        /* \"#utility.yul\":4550:4557   */\n      dup6\n        /* \"#utility.yul\":4541:4547   */\n      dup3\n        /* \"#utility.yul\":4530:4539   */\n      dup7\n        /* \"#utility.yul\":4526:4548   */\n      add\n        /* \"#utility.yul\":4497:4558   */\n      tag_245\n      jump\t// in\n    tag_338:\n        /* \"#utility.yul\":4487:4558   */\n      swap3\n      pop\n        /* \"#utility.yul\":4443:4568   */\n      pop\n        /* \"#utility.yul\":4607:4609   */\n      0x20\n        /* \"#utility.yul\":4633:4686   */\n      tag_339\n        /* \"#utility.yul\":4678:4685   */\n      dup6\n        /* \"#utility.yul\":4669:4675   */\n      dup3\n        /* \"#utility.yul\":4658:4667   */\n      dup7\n        /* \"#utility.yul\":4654:4676   */\n      add\n        /* \"#utility.yul\":4633:4686   */\n      tag_239\n      jump\t// in\n    tag_339:\n        /* \"#utility.yul\":4623:4686   */\n      swap2\n      pop\n        /* \"#utility.yul\":4578:4696   */\n      pop\n        /* \"#utility.yul\":4213:4703   */\n      swap3\n      pop\n      swap3\n      swap1\n      pop\n      jump\t// out\n        /* \"#utility.yul\":4709:5328   */\n    tag_45:\n        /* \"#utility.yul\":4786:4792   */\n      0x00\n        /* \"#utility.yul\":4794:4800   */\n      dup1\n        /* \"#utility.yul\":4802:4808   */\n      0x00\n        /* \"#utility.yul\":4851:4853   */\n      0x60\n        /* \"#utility.yul\":4839:4848   */\n      dup5\n        /* \"#utility.yul\":4830:4837   */\n      dup7\n        /* \"#utility.yul\":4826:4849   */\n      sub\n        /* \"#utility.yul\":4822:4854   */\n      slt\n        /* \"#utility.yul\":4819:4938   */\n      iszero\n      tag_341\n      jumpi\n        /* \"#utility.yul\":4857:4936   */\n      tag_342\n      tag_231\n      jump\t// in\n    tag_342:\n        /* \"#utility.yul\":4819:4938   */\n    tag_341:\n        /* \"#utility.yul\":4977:4978   */\n      0x00\n        /* \"#utility.yul\":5002:5055   */\n      tag_343\n        /* \"#utility.yul\":5047:5054   */\n      dup7\n        /* \"#utility.yul\":5038:5044   */\n      dup3\n        /* \"#utility.yul\":5027:5036   */\n      dup8\n        /* \"#utility.yul\":5023:5045   */\n      add\n        /* \"#utility.yul\":5002:5055   */\n      tag_236\n      jump\t// in\n    tag_343:\n        /* \"#utility.yul\":4992:5055   */\n      swap4\n      pop\n        /* \"#utility.yul\":4948:5065   */\n      pop\n        /* \"#utility.yul\":5104:5106   */\n      0x20\n        /* \"#utility.yul\":5130:5183   */\n      tag_344\n        /* \"#utility.yul\":5175:5182   */\n      dup7\n        /* \"#utility.yul\":5166:5172   */\n      dup3\n        /* \"#utility.yul\":5155:5164   */\n      dup8\n        /* \"#utility.yul\":5151:5173   */\n      add\n        /* \"#utility.yul\":5130:5183   */\n      tag_236\n      jump\t// in\n    tag_344:\n        /* \"#utility.yul\":5120:5183   */\n      swap3\n      pop\n        /* \"#utility.yul\":5075:5193   */\n      pop\n        /* \"#utility.yul\":5232:5234   */\n      0x40\n        /* \"#utility.yul\":5258:5311   */\n      tag_345\n        /* \"#utility.yul\":5303:5310   */\n      dup7\n        /* \"#utility.yul\":5294:5300   */\n      dup3\n        /* \"#utility.yul\":5283:5292   */\n      dup8\n        /* \"#utility.yul\":5279:5301   */\n      add\n        /* \"#utility.yul\":5258:5311   */\n      tag_239\n      jump\t// in\n    tag_345:\n        /* \"#utility.yul\":5248:5311   */\n      swap2\n      pop\n        /* \"#utility.yul\":5203:5321   */\n      pop\n        /* \"#utility.yul\":4709:5328   */\n      swap3\n      pop\n      swap3\n      pop\n      swap3\n      jump\t// out\n        /* \"#utility.yul\":5334:5420   */\n    tag_246:\n        /* \"#utility.yul\":5369:5376   */\n      0x00\n        /* \"#utility.yul\":5409:5413   */\n      0xff\n        /* \"#utility.yul\":5402:5407   */\n      dup3\n        /* \"#utility.yul\":5398:5414   */\n      and\n        /* \"#utility.yul\":5387:5414   */\n      swap1\n      pop\n        /* \"#utility.yul\":5334:5420   */\n      swap2\n      swap1\n      pop\n      jump\t// out\n        /* \"#utility.yul\":5426:5538   */\n    tag_247:\n        /* \"#utility.yul\":5509:5531   */\n      tag_348\n        /* \"#utility.yul\":5525:5530   */\n      dup2\n        /* \"#utility.yul\":5509:5531   */\n      tag_246\n      jump\t// in\n    tag_348:\n        /* \"#utility.yul\":5504:5507   */\n      dup3\n        /* \"#utility.yul\":5497:5532   */\n      mstore\n        /* \"#utility.yul\":5426:5538   */\n      pop\n      pop\n      jump\t// out\n        /* \"#utility.yul\":5544:5758   */\n    tag_52:\n        /* \"#utility.yul\":5633:5637   */\n      0x00\n        /* \"#utility.yul\":5671:5673   */\n      0x20\n        /* \"#utility.yul\":5660:5669   */\n      dup3\n        /* \"#utility.yul\":5656:5674   */\n      add\n        /* \"#utility.yul\":5648:5674   */\n      swap1\n      pop\n        /* \"#utility.yul\":5684:5751   */\n      tag_350\n        /* \"#utility.yul\":5748:5749   */\n      0x00\n        /* \"#utility.yul\":5737:5746   */\n      dup4\n        /* \"#utility.yul\":5733:5750   */\n      add\n        /* \"#utility.yul\":5724:5730   */\n      dup5\n        /* \"#utility.yul\":5684:5751   */\n      tag_247\n      jump\t// in\n    tag_350:\n        /* \"#utility.yul\":5544:5758   */\n      swap3\n      swap2\n      pop\n      pop\n      jump\t// out\n        /* \"#utility.yul\":5764:6093   */\n    tag_65:\n        /* \"#utility.yul\":5823:5829   */\n      0x00\n        /* \"#utility.yul\":5872:5874   */\n      0x20\n        /* \"#utility.yul\":5860:5869   */\n      dup3\n        /* \"#utility.yul\":5851:5858   */\n      dup5\n        /* \"#utility.yul\":5847:5870   */\n      sub\n        /* \"#utility.yul\":5843:5875   */\n      slt\n        /* \"#utility.yul\":5840:5959   */\n      iszero\n      tag_352\n      jumpi\n        /* \"#utility.yul\":5878:5957   */\n      tag_353\n      tag_231\n      jump\t// in\n    tag_353:\n        /* \"#utility.yul\":5840:5959   */\n    tag_352:\n        /* \"#utility.yul\":5998:5999   */\n      0x00\n        /* \"#utility.yul\":6023:6076   */\n      tag_354\n        /* \"#utility.yul\":6068:6075   */\n      dup5\n        /* \"#utility.yul\":6059:6065   */\n      dup3\n        /* \"#utility.yul\":6048:6057   */\n      dup6\n        /* \"#utility.yul\":6044:6066   */\n      add\n        /* \"#utility.yul\":6023:6076   */\n      tag_236\n      jump\t// in\n    tag_354:\n        /* \"#utility.yul\":6013:6076   */\n      swap2\n      pop\n        /* \"#utility.yul\":5969:6086   */\n      pop\n        /* \"#utility.yul\":5764:6093   */\n      swap3\n      swap2\n      pop\n      pop\n      jump\t// out\n        /* \"#utility.yul\":6099:6217   */\n    tag_248:\n        /* \"#utility.yul\":6186:6210   */\n      tag_356\n        /* \"#utility.yul\":6204:6209   */\n      dup2\n        /* \"#utility.yul\":6186:6210   */\n      tag_234\n      jump\t// in\n    tag_356:\n        /* \"#utility.yul\":6181:6184   */\n      dup3\n        /* \"#utility.yul\":6174:6211   */\n      mstore\n        /* \"#utility.yul\":6099:6217   */\n      pop\n      pop\n      jump\t// out\n        /* \"#utility.yul\":6223:6445   */\n    tag_72:\n        /* \"#utility.yul\":6316:6320   */\n      0x00\n        /* \"#utility.yul\":6354:6356   */\n      0x20\n        /* \"#utility.yul\":6343:6352   */\n      dup3\n        /* \"#utility.yul\":6339:6357   */\n      add\n        /* \"#utility.yul\":6331:6357   */\n      swap1\n      pop\n        /* \"#utility.yul\":6367:6438   */\n      tag_358\n        /* \"#utility.yul\":6435:6436   */\n      0x00\n        /* \"#utility.yul\":6424:6433   */\n      dup4\n        /* \"#utility.yul\":6420:6437   */\n      add\n        /* \"#utility.yul\":6411:6417   */\n      dup5\n        /* \"#utility.yul\":6367:6438   */\n      tag_248\n      jump\t// in\n    tag_358:\n        /* \"#utility.yul\":6223:6445   */\n      swap3\n      swap2\n      pop\n      pop\n      jump\t// out\n        /* \"#utility.yul\":6451:6925   */\n    tag_94:\n        /* \"#utility.yul\":6519:6525   */\n      0x00\n        /* \"#utility.yul\":6527:6533   */\n      dup1\n        /* \"#utility.yul\":6576:6578   */\n      0x40\n        /* \"#utility.yul\":6564:6573   */\n      dup4\n        /* \"#utility.yul\":6555:6562   */\n      dup6\n        /* \"#utility.yul\":6551:6574   */\n      sub\n        /* \"#utility.yul\":6547:6579   */\n      slt\n        /* \"#utility.yul\":6544:6663   */\n      iszero\n      tag_360\n      jumpi\n        /* \"#utility.yul\":6582:6661   */\n      tag_361\n      tag_231\n      jump\t// in\n    tag_361:\n        /* \"#utility.yul\":6544:6663   */\n    tag_360:\n        /* \"#utility.yul\":6702:6703   */\n      0x00\n        /* \"#utility.yul\":6727:6780   */\n      tag_362\n        /* \"#utility.yul\":6772:6779   */\n      dup6\n        /* \"#utility.yul\":6763:6769   */\n      dup3\n        /* \"#utility.yul\":6752:6761   */\n      dup7\n        /* \"#utility.yul\":6748:6770   */\n      add\n        /* \"#utility.yul\":6727:6780   */\n      tag_236\n      jump\t// in\n    tag_362:\n        /* \"#utility.yul\":6717:6780   */\n      swap3\n      pop\n        /* \"#utility.yul\":6673:6790   */\n      pop\n        /* \"#utility.yul\":6829:6831   */\n      0x20\n        /* \"#utility.yul\":6855:6908   */\n      tag_363\n        /* \"#utility.yul\":6900:6907   */\n      dup6\n        /* \"#utility.yul\":6891:6897   */\n      dup3\n        /* \"#utility.yul\":6880:6889   */\n      dup7\n        /* \"#utility.yul\":6876:6898   */\n      add\n        /* \"#utility.yul\":6855:6908   */\n      tag_236\n      jump\t// in\n    tag_363:\n        /* \"#utility.yul\":6845:6908   */\n      swap2\n      pop\n        /* \"#utility.yul\":6800:6918   */\n      pop\n        /* \"#utility.yul\":6451:6925   */\n      swap3\n      pop\n      swap3\n      swap1\n      pop\n      jump\t// out\n        /* \"#utility.yul\":6931:7111   */\n    tag_249:\n        /* \"#utility.yul\":6979:7056   */\n      0x4e487b7100000000000000000000000000000000000000000000000000000000\n        /* \"#utility.yul\":6976:6977   */\n      0x00\n        /* \"#utility.yul\":6969:7057   */\n      mstore\n        /* \"#utility.yul\":7076:7080   */\n      0x22\n        /* \"#utility.yul\":7073:7074   */\n      0x04\n        /* \"#utility.yul\":7066:7081   */\n      mstore\n        /* \"#utility.yul\":7100:7104   */\n      0x24\n        /* \"#utility.yul\":7097:7098   */\n      0x00\n        /* \"#utility.yul\":7090:7105   */\n      revert\n        /* \"#utility.yul\":7117:7437   */\n    tag_103:\n        /* \"#utility.yul\":7161:7167   */\n      0x00\n        /* \"#utility.yul\":7198:7199   */\n      0x02\n        /* \"#utility.yul\":7192:7196   */\n      dup3\n        /* \"#utility.yul\":7188:7200   */\n      div\n        /* \"#utility.yul\":7178:7200   */\n      swap1\n      pop\n        /* \"#utility.yul\":7245:7246   */\n      0x01\n        /* \"#utility.yul\":7239:7243   */\n      dup3\n        /* \"#utility.yul\":7235:7247   */\n      and\n        /* \"#utility.yul\":7266:7284   */\n      dup1\n        /* \"#utility.yul\":7256:7337   */\n      tag_366\n      jumpi\n        /* \"#utility.yul\":7322:7326   */\n      0x7f\n        /* \"#utility.yul\":7314:7320   */\n      dup3\n        /* \"#utility.yul\":7310:7327   */\n      and\n        /* \"#utility.yul\":7300:7327   */\n      swap2\n      pop\n        /* \"#utility.yul\":7256:7337   */\n    tag_366:\n        /* \"#utility.yul\":7384:7386   */\n      0x20\n        /* \"#utility.yul\":7376:7382   */\n      dup3\n        /* \"#utility.yul\":7373:7387   */\n      lt\n        /* \"#utility.yul\":7353:7371   */\n      dup2\n        /* \"#utility.yul\":7350:7388   */\n      sub\n        /* \"#utility.yul\":7347:7431   */\n      tag_367\n      jumpi\n        /* \"#utility.yul\":7403:7421   */\n      tag_368\n      tag_249\n      jump\t// in\n    tag_368:\n        /* \"#utility.yul\":7347:7431   */\n    tag_367:\n        /* \"#utility.yul\":7168:7437   */\n      pop\n        /* \"#utility.yul\":7117:7437   */\n      swap2\n      swap1\n      pop\n      jump\t// out\n        /* \"#utility.yul\":7443:7672   */\n    tag_250:\n        /* \"#utility.yul\":7583:7617   */\n      0x436f6d707261206d656e6f7320546f6b656e73206f207061676120636f6e206d\n        /* \"#utility.yul\":7579:7580   */\n      0x00\n        /* \"#utility.yul\":7571:7577   */\n      dup3\n        /* \"#utility.yul\":7567:7581   */\n      add\n        /* \"#utility.yul\":7560:7618   */\n      mstore\n        /* \"#utility.yul\":7652:7664   */\n      0x6173204574686572732e00000000000000000000000000000000000000000000\n        /* \"#utility.yul\":7647:7649   */\n      0x20\n        /* \"#utility.yul\":7639:7645   */\n      dup3\n        /* \"#utility.yul\":7635:7650   */\n      add\n        /* \"#utility.yul\":7628:7665   */\n      mstore\n        /* \"#utility.yul\":7443:7672   */\n      pop\n      jump\t// out\n        /* \"#utility.yul\":7678:8044   */\n    tag_251:\n        /* \"#utility.yul\":7820:7823   */\n      0x00\n        /* \"#utility.yul\":7841:7908   */\n      tag_371\n        /* \"#utility.yul\":7905:7907   */\n      0x2a\n        /* \"#utility.yul\":7900:7903   */\n      dup4\n        /* \"#utility.yul\":7841:7908   */\n      tag_226\n      jump\t// in\n    tag_371:\n        /* \"#utility.yul\":7834:7908   */\n      swap2\n      pop\n        /* \"#utility.yul\":7917:8010   */\n      tag_372\n        /* \"#utility.yul\":8006:8009   */\n      dup3\n        /* \"#utility.yul\":7917:8010   */\n      tag_250\n      jump\t// in\n    tag_372:\n        /* \"#utility.yul\":8035:8037   */\n      0x40\n        /* \"#utility.yul\":8030:8033   */\n      dup3\n        /* \"#utility.yul\":8026:8038   */\n      add\n        /* \"#utility.yul\":8019:8038   */\n      swap1\n      pop\n        /* \"#utility.yul\":7678:8044   */\n      swap2\n      swap1\n      pop\n      jump\t// out\n        /* \"#utility.yul\":8050:8469   */\n    tag_119:\n        /* \"#utility.yul\":8216:8220   */\n      0x00\n        /* \"#utility.yul\":8254:8256   */\n      0x20\n        /* \"#utility.yul\":8243:8252   */\n      dup3\n        /* \"#utility.yul\":8239:8257   */\n      add\n        /* \"#utility.yul\":8231:8257   */\n      swap1\n      pop\n        /* \"#utility.yul\":8303:8312   */\n      dup2\n        /* \"#utility.yul\":8297:8301   */\n      dup2\n        /* \"#utility.yul\":8293:8313   */\n      sub\n        /* \"#utility.yul\":8289:8290   */\n      0x00\n        /* \"#utility.yul\":8278:8287   */\n      dup4\n        /* \"#utility.yul\":8274:8291   */\n      add\n        /* \"#utility.yul\":8267:8314   */\n      mstore\n        /* \"#utility.yul\":8331:8462   */\n      tag_374\n        /* \"#utility.yul\":8457:8461   */\n      dup2\n        /* \"#utility.yul\":8331:8462   */\n      tag_251\n      jump\t// in\n    tag_374:\n        /* \"#utility.yul\":8323:8462   */\n      swap1\n      pop\n        /* \"#utility.yul\":8050:8469   */\n      swap2\n      swap1\n      pop\n      jump\t// out\n        /* \"#utility.yul\":8475:8655   */\n    tag_252:\n        /* \"#utility.yul\":8523:8600   */\n      0x4e487b7100000000000000000000000000000000000000000000000000000000\n        /* \"#utility.yul\":8520:8521   */\n      0x00\n        /* \"#utility.yul\":8513:8601   */\n      mstore\n        /* \"#utility.yul\":8620:8624   */\n      0x11\n        /* \"#utility.yul\":8617:8618   */\n      0x04\n        /* \"#utility.yul\":8610:8625   */\n      mstore\n        /* \"#utility.yul\":8644:8648   */\n      0x24\n        /* \"#utility.yul\":8641:8642   */\n      0x00\n        /* \"#utility.yul\":8634:8649   */\n      revert\n        /* \"#utility.yul\":8661:8855   */\n    tag_121:\n        /* \"#utility.yul\":8701:8705   */\n      0x00\n        /* \"#utility.yul\":8721:8741   */\n      tag_377\n        /* \"#utility.yul\":8739:8740   */\n      dup3\n        /* \"#utility.yul\":8721:8741   */\n      tag_237\n      jump\t// in\n    tag_377:\n        /* \"#utility.yul\":8716:8741   */\n      swap2\n      pop\n        /* \"#utility.yul\":8755:8775   */\n      tag_378\n        /* \"#utility.yul\":8773:8774   */\n      dup4\n        /* \"#utility.yul\":8755:8775   */\n      tag_237\n      jump\t// in\n    tag_378:\n        /* \"#utility.yul\":8750:8775   */\n      swap3\n      pop\n        /* \"#utility.yul\":8799:8800   */\n      dup3\n        /* \"#utility.yul\":8796:8797   */\n      dup3\n        /* \"#utility.yul\":8792:8801   */\n      sub\n        /* \"#utility.yul\":8784:8801   */\n      swap1\n      pop\n        /* \"#utility.yul\":8823:8824   */\n      dup2\n        /* \"#utility.yul\":8817:8821   */\n      dup2\n        /* \"#utility.yul\":8814:8825   */\n      gt\n        /* \"#utility.yul\":8811:8848   */\n      iszero\n      tag_379\n      jumpi\n        /* \"#utility.yul\":8828:8846   */\n      tag_380\n      tag_252\n      jump\t// in\n    tag_380:\n        /* \"#utility.yul\":8811:8848   */\n    tag_379:\n        /* \"#utility.yul\":8661:8855   */\n      swap3\n      swap2\n      pop\n      pop\n      jump\t// out\n        /* \"#utility.yul\":8861:9004   */\n    tag_253:\n        /* \"#utility.yul\":8918:8923   */\n      0x00\n        /* \"#utility.yul\":8949:8955   */\n      dup2\n        /* \"#utility.yul\":8943:8956   */\n      mload\n        /* \"#utility.yul\":8934:8956   */\n      swap1\n      pop\n        /* \"#utility.yul\":8965:8998   */\n      tag_382\n        /* \"#utility.yul\":8992:8997   */\n      dup2\n        /* \"#utility.yul\":8965:8998   */\n      tag_238\n      jump\t// in\n    tag_382:\n        /* \"#utility.yul\":8861:9004   */\n      swap3\n      swap2\n      pop\n      pop\n      jump\t// out\n        /* \"#utility.yul\":9010:9361   */\n    tag_130:\n        /* \"#utility.yul\":9080:9086   */\n      0x00\n        /* \"#utility.yul\":9129:9131   */\n      0x20\n        /* \"#utility.yul\":9117:9126   */\n      dup3\n        /* \"#utility.yul\":9108:9115   */\n      dup5\n        /* \"#utility.yul\":9104:9127   */\n      sub\n        /* \"#utility.yul\":9100:9132   */\n      slt\n        /* \"#utility.yul\":9097:9216   */\n      iszero\n      tag_384\n      jumpi\n        /* \"#utility.yul\":9135:9214   */\n      tag_385\n      tag_231\n      jump\t// in\n    tag_385:\n        /* \"#utility.yul\":9097:9216   */\n    tag_384:\n        /* \"#utility.yul\":9255:9256   */\n      0x00\n        /* \"#utility.yul\":9280:9344   */\n      tag_386\n        /* \"#utility.yul\":9336:9343   */\n      dup5\n        /* \"#utility.yul\":9327:9333   */\n      dup3\n        /* \"#utility.yul\":9316:9325   */\n      dup6\n        /* \"#utility.yul\":9312:9334   */\n      add\n        /* \"#utility.yul\":9280:9344   */\n      tag_253\n      jump\t// in\n    tag_386:\n        /* \"#utility.yul\":9270:9344   */\n      swap2\n      pop\n        /* \"#utility.yul\":9226:9354   */\n      pop\n        /* \"#utility.yul\":9010:9361   */\n      swap3\n      swap2\n      pop\n      pop\n      jump\t// out\n        /* \"#utility.yul\":9367:9590   */\n    tag_254:\n        /* \"#utility.yul\":9507:9541   */\n      0x436f6d70726120756e206e756d65726f20646520546f6b656e73206164656375\n        /* \"#utility.yul\":9503:9504   */\n      0x00\n        /* \"#utility.yul\":9495:9501   */\n      dup3\n        /* \"#utility.yul\":9491:9505   */\n      add\n        /* \"#utility.yul\":9484:9542   */\n      mstore\n        /* \"#utility.yul\":9576:9582   */\n      0x61646f2e00000000000000000000000000000000000000000000000000000000\n        /* \"#utility.yul\":9571:9573   */\n      0x20\n        /* \"#utility.yul\":9563:9569   */\n      dup3\n        /* \"#utility.yul\":9559:9574   */\n      add\n        /* \"#utility.yul\":9552:9583   */\n      mstore\n        /* \"#utility.yul\":9367:9590   */\n      pop\n      jump\t// out\n        /* \"#utility.yul\":9596:9962   */\n    tag_255:\n        /* \"#utility.yul\":9738:9741   */\n      0x00\n        /* \"#utility.yul\":9759:9826   */\n      tag_389\n        /* \"#utility.yul\":9823:9825   */\n      0x24\n        /* \"#utility.yul\":9818:9821   */\n      dup4\n        /* \"#utility.yul\":9759:9826   */\n      tag_226\n      jump\t// in\n    tag_389:\n        /* \"#utility.yul\":9752:9826   */\n      swap2\n      pop\n        /* \"#utility.yul\":9835:9928   */\n      tag_390\n        /* \"#utility.yul\":9924:9927   */\n      dup3\n        /* \"#utility.yul\":9835:9928   */\n      tag_254\n      jump\t// in\n    tag_390:\n        /* \"#utility.yul\":9953:9955   */\n      0x40\n        /* \"#utility.yul\":9948:9951   */\n      dup3\n        /* \"#utility.yul\":9944:9956   */\n      add\n        /* \"#utility.yul\":9937:9956   */\n      swap1\n      pop\n        /* \"#utility.yul\":9596:9962   */\n      swap2\n      swap1\n      pop\n      jump\t// out\n        /* \"#utility.yul\":9968:10387   */\n    tag_133:\n        /* \"#utility.yul\":10134:10138   */\n      0x00\n        /* \"#utility.yul\":10172:10174   */\n      0x20\n        /* \"#utility.yul\":10161:10170   */\n      dup3\n        /* \"#utility.yul\":10157:10175   */\n      add\n        /* \"#utility.yul\":10149:10175   */\n      swap1\n      pop\n        /* \"#utility.yul\":10221:10230   */\n      dup2\n        /* \"#utility.yul\":10215:10219   */\n      dup2\n        /* \"#utility.yul\":10211:10231   */\n      sub\n        /* \"#utility.yul\":10207:10208   */\n      0x00\n        /* \"#utility.yul\":10196:10205   */\n      dup4\n        /* \"#utility.yul\":10192:10209   */\n      add\n        /* \"#utility.yul\":10185:10232   */\n      mstore\n        /* \"#utility.yul\":10249:10380   */\n      tag_392\n        /* \"#utility.yul\":10375:10379   */\n      dup2\n        /* \"#utility.yul\":10249:10380   */\n      tag_255\n      jump\t// in\n    tag_392:\n        /* \"#utility.yul\":10241:10380   */\n      swap1\n      pop\n        /* \"#utility.yul\":9968:10387   */\n      swap2\n      swap1\n      pop\n      jump\t// out\n        /* \"#utility.yul\":10393:10453   */\n    tag_256:\n        /* \"#utility.yul\":10421:10424   */\n      0x00\n        /* \"#utility.yul\":10442:10447   */\n      dup2\n        /* \"#utility.yul\":10435:10447   */\n      swap1\n      pop\n        /* \"#utility.yul\":10393:10453   */\n      swap2\n      swap1\n      pop\n      jump\t// out\n        /* \"#utility.yul\":10459:10601   */\n    tag_257:\n        /* \"#utility.yul\":10509:10518   */\n      0x00\n        /* \"#utility.yul\":10542:10595   */\n      tag_395\n        /* \"#utility.yul\":10560:10594   */\n      tag_396\n        /* \"#utility.yul\":10569:10593   */\n      tag_397\n        /* \"#utility.yul\":10587:10592   */\n      dup5\n        /* \"#utility.yul\":10569:10593   */\n      tag_233\n      jump\t// in\n    tag_397:\n        /* \"#utility.yul\":10560:10594   */\n      tag_256\n      jump\t// in\n    tag_396:\n        /* \"#utility.yul\":10542:10595   */\n      tag_233\n      jump\t// in\n    tag_395:\n        /* \"#utility.yul\":10529:10595   */\n      swap1\n      pop\n        /* \"#utility.yul\":10459:10601   */\n      swap2\n      swap1\n      pop\n      jump\t// out\n        /* \"#utility.yul\":10607:10733   */\n    tag_258:\n        /* \"#utility.yul\":10657:10666   */\n      0x00\n        /* \"#utility.yul\":10690:10727   */\n      tag_399\n        /* \"#utility.yul\":10721:10726   */\n      dup3\n        /* \"#utility.yul\":10690:10727   */\n      tag_257\n      jump\t// in\n    tag_399:\n        /* \"#utility.yul\":10677:10727   */\n      swap1\n      pop\n        /* \"#utility.yul\":10607:10733   */\n      swap2\n      swap1\n      pop\n      jump\t// out\n        /* \"#utility.yul\":10739:10873   */\n    tag_259:\n        /* \"#utility.yul\":10797:10806   */\n      0x00\n        /* \"#utility.yul\":10830:10867   */\n      tag_401\n        /* \"#utility.yul\":10861:10866   */\n      dup3\n        /* \"#utility.yul\":10830:10867   */\n      tag_258\n      jump\t// in\n    tag_401:\n        /* \"#utility.yul\":10817:10867   */\n      swap1\n      pop\n        /* \"#utility.yul\":10739:10873   */\n      swap2\n      swap1\n      pop\n      jump\t// out\n        /* \"#utility.yul\":10879:11026   */\n    tag_260:\n        /* \"#utility.yul\":10974:11019   */\n      tag_403\n        /* \"#utility.yul\":11013:11018   */\n      dup2\n        /* \"#utility.yul\":10974:11019   */\n      tag_259\n      jump\t// in\n    tag_403:\n        /* \"#utility.yul\":10969:10972   */\n      dup3\n        /* \"#utility.yul\":10962:11020   */\n      mstore\n        /* \"#utility.yul\":10879:11026   */\n      pop\n      pop\n      jump\t// out\n        /* \"#utility.yul\":11032:11380   */\n    tag_135:\n        /* \"#utility.yul\":11161:11165   */\n      0x00\n        /* \"#utility.yul\":11199:11201   */\n      0x40\n        /* \"#utility.yul\":11188:11197   */\n      dup3\n        /* \"#utility.yul\":11184:11202   */\n      add\n        /* \"#utility.yul\":11176:11202   */\n      swap1\n      pop\n        /* \"#utility.yul\":11212:11291   */\n      tag_405\n        /* \"#utility.yul\":11288:11289   */\n      0x00\n        /* \"#utility.yul\":11277:11286   */\n      dup4\n        /* \"#utility.yul\":11273:11290   */\n      add\n        /* \"#utility.yul\":11264:11270   */\n      dup6\n        /* \"#utility.yul\":11212:11291   */\n      tag_260\n      jump\t// in\n    tag_405:\n        /* \"#utility.yul\":11301:11373   */\n      tag_406\n        /* \"#utility.yul\":11369:11371   */\n      0x20\n        /* \"#utility.yul\":11358:11367   */\n      dup4\n        /* \"#utility.yul\":11354:11372   */\n      add\n        /* \"#utility.yul\":11345:11351   */\n      dup5\n        /* \"#utility.yul\":11301:11373   */\n      tag_242\n      jump\t// in\n    tag_406:\n        /* \"#utility.yul\":11032:11380   */\n      swap4\n      swap3\n      pop\n      pop\n      pop\n      jump\t// out\n        /* \"#utility.yul\":11386:11502   */\n    tag_261:\n        /* \"#utility.yul\":11456:11477   */\n      tag_408\n        /* \"#utility.yul\":11471:11476   */\n      dup2\n        /* \"#utility.yul\":11456:11477   */\n      tag_240\n      jump\t// in\n    tag_408:\n        /* \"#utility.yul\":11449:11454   */\n      dup2\n        /* \"#utility.yul\":11446:11478   */\n      eq\n        /* \"#utility.yul\":11436:11496   */\n      tag_409\n      jumpi\n        /* \"#utility.yul\":11492:11493   */\n      0x00\n        /* \"#utility.yul\":11489:11490   */\n      dup1\n        /* \"#utility.yul\":11482:11494   */\n      revert\n        /* \"#utility.yul\":11436:11496   */\n    tag_409:\n        /* \"#utility.yul\":11386:11502   */\n      pop\n      jump\t// out\n        /* \"#utility.yul\":11508:11645   */\n    tag_262:\n        /* \"#utility.yul\":11562:11567   */\n      0x00\n        /* \"#utility.yul\":11593:11599   */\n      dup2\n        /* \"#utility.yul\":11587:11600   */\n      mload\n        /* \"#utility.yul\":11578:11600   */\n      swap1\n      pop\n        /* \"#utility.yul\":11609:11639   */\n      tag_411\n        /* \"#utility.yul\":11633:11638   */\n      dup2\n        /* \"#utility.yul\":11609:11639   */\n      tag_261\n      jump\t// in\n    tag_411:\n        /* \"#utility.yul\":11508:11645   */\n      swap3\n      swap2\n      pop\n      pop\n      jump\t// out\n        /* \"#utility.yul\":11651:11996   */\n    tag_139:\n        /* \"#utility.yul\":11718:11724   */\n      0x00\n        /* \"#utility.yul\":11767:11769   */\n      0x20\n        /* \"#utility.yul\":11755:11764   */\n      dup3\n        /* \"#utility.yul\":11746:11753   */\n      dup5\n        /* \"#utility.yul\":11742:11765   */\n      sub\n        /* \"#utility.yul\":11738:11770   */\n      slt\n        /* \"#utility.yul\":11735:11854   */\n      iszero\n      tag_413\n      jumpi\n        /* \"#utility.yul\":11773:11852   */\n      tag_414\n      tag_231\n      jump\t// in\n    tag_414:\n        /* \"#utility.yul\":11735:11854   */\n    tag_413:\n        /* \"#utility.yul\":11893:11894   */\n      0x00\n        /* \"#utility.yul\":11918:11979   */\n      tag_415\n        /* \"#utility.yul\":11971:11978   */\n      dup5\n        /* \"#utility.yul\":11962:11968   */\n      dup3\n        /* \"#utility.yul\":11951:11960   */\n      dup6\n        /* \"#utility.yul\":11947:11969   */\n      add\n        /* \"#utility.yul\":11918:11979   */\n      tag_262\n      jump\t// in\n    tag_415:\n        /* \"#utility.yul\":11908:11979   */\n      swap2\n      pop\n        /* \"#utility.yul\":11864:11989   */\n      pop\n        /* \"#utility.yul\":11651:11996   */\n      swap3\n      swap2\n      pop\n      pop\n      jump\t// out\n        /* \"#utility.yul\":12002:12193   */\n    tag_153:\n        /* \"#utility.yul\":12042:12045   */\n      0x00\n        /* \"#utility.yul\":12061:12081   */\n      tag_417\n        /* \"#utility.yul\":12079:12080   */\n      dup3\n        /* \"#utility.yul\":12061:12081   */\n      tag_237\n      jump\t// in\n    tag_417:\n        /* \"#utility.yul\":12056:12081   */\n      swap2\n      pop\n        /* \"#utility.yul\":12095:12115   */\n      tag_418\n        /* \"#utility.yul\":12113:12114   */\n      dup4\n        /* \"#utility.yul\":12095:12115   */\n      tag_237\n      jump\t// in\n    tag_418:\n        /* \"#utility.yul\":12090:12115   */\n      swap3\n      pop\n        /* \"#utility.yul\":12138:12139   */\n      dup3\n        /* \"#utility.yul\":12135:12136   */\n      dup3\n        /* \"#utility.yul\":12131:12140   */\n      add\n        /* \"#utility.yul\":12124:12140   */\n      swap1\n      pop\n        /* \"#utility.yul\":12159:12162   */\n      dup1\n        /* \"#utility.yul\":12156:12157   */\n      dup3\n        /* \"#utility.yul\":12153:12163   */\n      gt\n        /* \"#utility.yul\":12150:12186   */\n      iszero\n      tag_419\n      jumpi\n        /* \"#utility.yul\":12166:12184   */\n      tag_420\n      tag_252\n      jump\t// in\n    tag_420:\n        /* \"#utility.yul\":12150:12186   */\n    tag_419:\n        /* \"#utility.yul\":12002:12193   */\n      swap3\n      swap2\n      pop\n      pop\n      jump\t// out\n        /* \"#utility.yul\":12199:12434   */\n    tag_263:\n        /* \"#utility.yul\":12339:12373   */\n      0x536f6c6f20656c2070726f706965746172696f20707565646520656a65637574\n        /* \"#utility.yul\":12335:12336   */\n      0x00\n        /* \"#utility.yul\":12327:12333   */\n      dup3\n        /* \"#utility.yul\":12323:12337   */\n      add\n        /* \"#utility.yul\":12316:12374   */\n      mstore\n        /* \"#utility.yul\":12408:12426   */\n      0x617220657374612066756e63696f6e2e00000000000000000000000000000000\n        /* \"#utility.yul\":12403:12405   */\n      0x20\n        /* \"#utility.yul\":12395:12401   */\n      dup3\n        /* \"#utility.yul\":12391:12406   */\n      add\n        /* \"#utility.yul\":12384:12427   */\n      mstore\n        /* \"#utility.yul\":12199:12434   */\n      pop\n      jump\t// out\n        /* \"#utility.yul\":12440:12806   */\n    tag_264:\n        /* \"#utility.yul\":12582:12585   */\n      0x00\n        /* \"#utility.yul\":12603:12670   */\n      tag_423\n        /* \"#utility.yul\":12667:12669   */\n      0x30\n        /* \"#utility.yul\":12662:12665   */\n      dup4\n        /* \"#utility.yul\":12603:12670   */\n      tag_226\n      jump\t// in\n    tag_423:\n        /* \"#utility.yul\":12596:12670   */\n      swap2\n      pop\n        /* \"#utility.yul\":12679:12772   */\n      tag_424\n        /* \"#utility.yul\":12768:12771   */\n      dup3\n        /* \"#utility.yul\":12679:12772   */\n      tag_263\n      jump\t// in\n    tag_424:\n        /* \"#utility.yul\":12797:12799   */\n      0x40\n        /* \"#utility.yul\":12792:12795   */\n      dup3\n        /* \"#utility.yul\":12788:12800   */\n      add\n        /* \"#utility.yul\":12781:12800   */\n      swap1\n      pop\n        /* \"#utility.yul\":12440:12806   */\n      swap2\n      swap1\n      pop\n      jump\t// out\n        /* \"#utility.yul\":12812:13231   */\n    tag_157:\n        /* \"#utility.yul\":12978:12982   */\n      0x00\n        /* \"#utility.yul\":13016:13018   */\n      0x20\n        /* \"#utility.yul\":13005:13014   */\n      dup3\n        /* \"#utility.yul\":13001:13019   */\n      add\n        /* \"#utility.yul\":12993:13019   */\n      swap1\n      pop\n        /* \"#utility.yul\":13065:13074   */\n      dup2\n        /* \"#utility.yul\":13059:13063   */\n      dup2\n        /* \"#utility.yul\":13055:13075   */\n      sub\n        /* \"#utility.yul\":13051:13052   */\n      0x00\n        /* \"#utility.yul\":13040:13049   */\n      dup4\n        /* \"#utility.yul\":13036:13053   */\n      add\n        /* \"#utility.yul\":13029:13076   */\n      mstore\n        /* \"#utility.yul\":13093:13224   */\n      tag_426\n        /* \"#utility.yul\":13219:13223   */\n      dup2\n        /* \"#utility.yul\":13093:13224   */\n      tag_264\n      jump\t// in\n    tag_426:\n        /* \"#utility.yul\":13085:13224   */\n      swap1\n      pop\n        /* \"#utility.yul\":12812:13231   */\n      swap2\n      swap1\n      pop\n      jump\t// out\n        /* \"#utility.yul\":13237:13461   */\n    tag_265:\n        /* \"#utility.yul\":13377:13411   */\n      0x45524332303a2064656372656173656420616c6c6f77616e63652062656c6f77\n        /* \"#utility.yul\":13373:13374   */\n      0x00\n        /* \"#utility.yul\":13365:13371   */\n      dup3\n        /* \"#utility.yul\":13361:13375   */\n      add\n        /* \"#utility.yul\":13354:13412   */\n      mstore\n        /* \"#utility.yul\":13446:13453   */\n      0x207a65726f000000000000000000000000000000000000000000000000000000\n        /* \"#utility.yul\":13441:13443   */\n      0x20\n        /* \"#utility.yul\":13433:13439   */\n      dup3\n        /* \"#utility.yul\":13429:13444   */\n      add\n        /* \"#utility.yul\":13422:13454   */\n      mstore\n        /* \"#utility.yul\":13237:13461   */\n      pop\n      jump\t// out\n        /* \"#utility.yul\":13467:13833   */\n    tag_266:\n        /* \"#utility.yul\":13609:13612   */\n      0x00\n        /* \"#utility.yul\":13630:13697   */\n      tag_429\n        /* \"#utility.yul\":13694:13696   */\n      0x25\n        /* \"#utility.yul\":13689:13692   */\n      dup4\n        /* \"#utility.yul\":13630:13697   */\n      tag_226\n      jump\t// in\n    tag_429:\n        /* \"#utility.yul\":13623:13697   */\n      swap2\n      pop\n        /* \"#utility.yul\":13706:13799   */\n      tag_430\n        /* \"#utility.yul\":13795:13798   */\n      dup3\n        /* \"#utility.yul\":13706:13799   */\n      tag_265\n      jump\t// in\n    tag_430:\n        /* \"#utility.yul\":13824:13826   */\n      0x40\n        /* \"#utility.yul\":13819:13822   */\n      dup3\n        /* \"#utility.yul\":13815:13827   */\n      add\n        /* \"#utility.yul\":13808:13827   */\n      swap1\n      pop\n        /* \"#utility.yul\":13467:13833   */\n      swap2\n      swap1\n      pop\n      jump\t// out\n        /* \"#utility.yul\":13839:14258   */\n    tag_173:\n        /* \"#utility.yul\":14005:14009   */\n      0x00\n        /* \"#utility.yul\":14043:14045   */\n      0x20\n        /* \"#utility.yul\":14032:14041   */\n      dup3\n        /* \"#utility.yul\":14028:14046   */\n      add\n        /* \"#utility.yul\":14020:14046   */\n      swap1\n      pop\n        /* \"#utility.yul\":14092:14101   */\n      dup2\n        /* \"#utility.yul\":14086:14090   */\n      dup2\n        /* \"#utility.yul\":14082:14102   */\n      sub\n        /* \"#utility.yul\":14078:14079   */\n      0x00\n        /* \"#utility.yul\":14067:14076   */\n      dup4\n        /* \"#utility.yul\":14063:14080   */\n      add\n        /* \"#utility.yul\":14056:14103   */\n      mstore\n        /* \"#utility.yul\":14120:14251   */\n      tag_432\n        /* \"#utility.yul\":14246:14250   */\n      dup2\n        /* \"#utility.yul\":14120:14251   */\n      tag_266\n      jump\t// in\n    tag_432:\n        /* \"#utility.yul\":14112:14251   */\n      swap1\n      pop\n        /* \"#utility.yul\":13839:14258   */\n      swap2\n      swap1\n      pop\n      jump\t// out\n        /* \"#utility.yul\":14264:14487   */\n    tag_267:\n        /* \"#utility.yul\":14404:14438   */\n      0x45524332303a20617070726f76652066726f6d20746865207a65726f20616464\n        /* \"#utility.yul\":14400:14401   */\n      0x00\n        /* \"#utility.yul\":14392:14398   */\n      dup3\n        /* \"#utility.yul\":14388:14402   */\n      add\n        /* \"#utility.yul\":14381:14439   */\n      mstore\n        /* \"#utility.yul\":14473:14479   */\n      0x7265737300000000000000000000000000000000000000000000000000000000\n        /* \"#utility.yul\":14468:14470   */\n      0x20\n        /* \"#utility.yul\":14460:14466   */\n      dup3\n        /* \"#utility.yul\":14456:14471   */\n      add\n        /* \"#utility.yul\":14449:14480   */\n      mstore\n        /* \"#utility.yul\":14264:14487   */\n      pop\n      jump\t// out\n        /* \"#utility.yul\":14493:14859   */\n    tag_268:\n        /* \"#utility.yul\":14635:14638   */\n      0x00\n        /* \"#utility.yul\":14656:14723   */\n      tag_435\n        /* \"#utility.yul\":14720:14722   */\n      0x24\n        /* \"#utility.yul\":14715:14718   */\n      dup4\n        /* \"#utility.yul\":14656:14723   */\n      tag_226\n      jump\t// in\n    tag_435:\n        /* \"#utility.yul\":14649:14723   */\n      swap2\n      pop\n        /* \"#utility.yul\":14732:14825   */\n      tag_436\n        /* \"#utility.yul\":14821:14824   */\n      dup3\n        /* \"#utility.yul\":14732:14825   */\n      tag_267\n      jump\t// in\n    tag_436:\n        /* \"#utility.yul\":14850:14852   */\n      0x40\n        /* \"#utility.yul\":14845:14848   */\n      dup3\n        /* \"#utility.yul\":14841:14853   */\n      add\n        /* \"#utility.yul\":14834:14853   */\n      swap1\n      pop\n        /* \"#utility.yul\":14493:14859   */\n      swap2\n      swap1\n      pop\n      jump\t// out\n        /* \"#utility.yul\":14865:15284   */\n    tag_183:\n        /* \"#utility.yul\":15031:15035   */\n      0x00\n        /* \"#utility.yul\":15069:15071   */\n      0x20\n        /* \"#utility.yul\":15058:15067   */\n      dup3\n        /* \"#utility.yul\":15054:15072   */\n      add\n        /* \"#utility.yul\":15046:15072   */\n      swap1\n      pop\n        /* \"#utility.yul\":15118:15127   */\n      dup2\n        /* \"#utility.yul\":15112:15116   */\n      dup2\n        /* \"#utility.yul\":15108:15128   */\n      sub\n        /* \"#utility.yul\":15104:15105   */\n      0x00\n        /* \"#utility.yul\":15093:15102   */\n      dup4\n        /* \"#utility.yul\":15089:15106   */\n      add\n        /* \"#utility.yul\":15082:15129   */\n      mstore\n        /* \"#utility.yul\":15146:15277   */\n      tag_438\n        /* \"#utility.yul\":15272:15276   */\n      dup2\n        /* \"#utility.yul\":15146:15277   */\n      tag_268\n      jump\t// in\n    tag_438:\n        /* \"#utility.yul\":15138:15277   */\n      swap1\n      pop\n        /* \"#utility.yul\":14865:15284   */\n      swap2\n      swap1\n      pop\n      jump\t// out\n        /* \"#utility.yul\":15290:15511   */\n    tag_269:\n        /* \"#utility.yul\":15430:15464   */\n      0x45524332303a20617070726f766520746f20746865207a65726f206164647265\n        /* \"#utility.yul\":15426:15427   */\n      0x00\n        /* \"#utility.yul\":15418:15424   */\n      dup3\n        /* \"#utility.yul\":15414:15428   */\n      add\n        /* \"#utility.yul\":15407:15465   */\n      mstore\n        /* \"#utility.yul\":15499:15503   */\n      0x7373000000000000000000000000000000000000000000000000000000000000\n        /* \"#utility.yul\":15494:15496   */\n      0x20\n        /* \"#utility.yul\":15486:15492   */\n      dup3\n        /* \"#utility.yul\":15482:15497   */\n      add\n        /* \"#utility.yul\":15475:15504   */\n      mstore\n        /* \"#utility.yul\":15290:15511   */\n      pop\n      jump\t// out\n        /* \"#utility.yul\":15517:15883   */\n    tag_270:\n        /* \"#utility.yul\":15659:15662   */\n      0x00\n        /* \"#utility.yul\":15680:15747   */\n      tag_441\n        /* \"#utility.yul\":15744:15746   */\n      0x22\n        /* \"#utility.yul\":15739:15742   */\n      dup4\n        /* \"#utility.yul\":15680:15747   */\n      tag_226\n      jump\t// in\n    tag_441:\n        /* \"#utility.yul\":15673:15747   */\n      swap2\n      pop\n        /* \"#utility.yul\":15756:15849   */\n      tag_442\n        /* \"#utility.yul\":15845:15848   */\n      dup3\n        /* \"#utility.yul\":15756:15849   */\n      tag_269\n      jump\t// in\n    tag_442:\n        /* \"#utility.yul\":15874:15876   */\n      0x40\n        /* \"#utility.yul\":15869:15872   */\n      dup3\n        /* \"#utility.yul\":15865:15877   */\n      add\n        /* \"#utility.yul\":15858:15877   */\n      swap1\n      pop\n        /* \"#utility.yul\":15517:15883   */\n      swap2\n      swap1\n      pop\n      jump\t// out\n        /* \"#utility.yul\":15889:16308   */\n    tag_186:\n        /* \"#utility.yul\":16055:16059   */\n      0x00\n        /* \"#utility.yul\":16093:16095   */\n      0x20\n        /* \"#utility.yul\":16082:16091   */\n      dup3\n        /* \"#utility.yul\":16078:16096   */\n      add\n        /* \"#utility.yul\":16070:16096   */\n      swap1\n      pop\n        /* \"#utility.yul\":16142:16151   */\n      dup2\n        /* \"#utility.yul\":16136:16140   */\n      dup2\n        /* \"#utility.yul\":16132:16152   */\n      sub\n        /* \"#utility.yul\":16128:16129   */\n      0x00\n        /* \"#utility.yul\":16117:16126   */\n      dup4\n        /* \"#utility.yul\":16113:16130   */\n      add\n        /* \"#utility.yul\":16106:16153   */\n      mstore\n        /* \"#utility.yul\":16170:16301   */\n      tag_444\n        /* \"#utility.yul\":16296:16300   */\n      dup2\n        /* \"#utility.yul\":16170:16301   */\n      tag_270\n      jump\t// in\n    tag_444:\n        /* \"#utility.yul\":16162:16301   */\n      swap1\n      pop\n        /* \"#utility.yul\":15889:16308   */\n      swap2\n      swap1\n      pop\n      jump\t// out\n        /* \"#utility.yul\":16314:16724   */\n    tag_190:\n        /* \"#utility.yul\":16354:16361   */\n      0x00\n        /* \"#utility.yul\":16377:16397   */\n      tag_446\n        /* \"#utility.yul\":16395:16396   */\n      dup3\n        /* \"#utility.yul\":16377:16397   */\n      tag_237\n      jump\t// in\n    tag_446:\n        /* \"#utility.yul\":16372:16397   */\n      swap2\n      pop\n        /* \"#utility.yul\":16411:16431   */\n      tag_447\n        /* \"#utility.yul\":16429:16430   */\n      dup4\n        /* \"#utility.yul\":16411:16431   */\n      tag_237\n      jump\t// in\n    tag_447:\n        /* \"#utility.yul\":16406:16431   */\n      swap3\n      pop\n        /* \"#utility.yul\":16466:16467   */\n      dup3\n        /* \"#utility.yul\":16463:16464   */\n      dup3\n        /* \"#utility.yul\":16459:16468   */\n      mul\n        /* \"#utility.yul\":16488:16518   */\n      tag_448\n        /* \"#utility.yul\":16506:16517   */\n      dup2\n        /* \"#utility.yul\":16488:16518   */\n      tag_237\n      jump\t// in\n    tag_448:\n        /* \"#utility.yul\":16477:16518   */\n      swap2\n      pop\n        /* \"#utility.yul\":16667:16668   */\n      dup3\n        /* \"#utility.yul\":16658:16665   */\n      dup3\n        /* \"#utility.yul\":16654:16669   */\n      div\n        /* \"#utility.yul\":16651:16652   */\n      dup5\n        /* \"#utility.yul\":16648:16670   */\n      eq\n        /* \"#utility.yul\":16628:16629   */\n      dup4\n        /* \"#utility.yul\":16621:16630   */\n      iszero\n        /* \"#utility.yul\":16601:16684   */\n      or\n        /* \"#utility.yul\":16578:16717   */\n      tag_449\n      jumpi\n        /* \"#utility.yul\":16697:16715   */\n      tag_450\n      tag_252\n      jump\t// in\n    tag_450:\n        /* \"#utility.yul\":16578:16717   */\n    tag_449:\n        /* \"#utility.yul\":16362:16724   */\n      pop\n        /* \"#utility.yul\":16314:16724   */\n      swap3\n      swap2\n      pop\n      pop\n      jump\t// out\n        /* \"#utility.yul\":16730:16910   */\n    tag_271:\n        /* \"#utility.yul\":16778:16855   */\n      0x4e487b7100000000000000000000000000000000000000000000000000000000\n        /* \"#utility.yul\":16775:16776   */\n      0x00\n        /* \"#utility.yul\":16768:16856   */\n      mstore\n        /* \"#utility.yul\":16875:16879   */\n      0x12\n        /* \"#utility.yul\":16872:16873   */\n      0x04\n        /* \"#utility.yul\":16865:16880   */\n      mstore\n        /* \"#utility.yul\":16899:16903   */\n      0x24\n        /* \"#utility.yul\":16896:16897   */\n      0x00\n        /* \"#utility.yul\":16889:16904   */\n      revert\n        /* \"#utility.yul\":16916:17101   */\n    tag_192:\n        /* \"#utility.yul\":16956:16957   */\n      0x00\n        /* \"#utility.yul\":16973:16993   */\n      tag_453\n        /* \"#utility.yul\":16991:16992   */\n      dup3\n        /* \"#utility.yul\":16973:16993   */\n      tag_237\n      jump\t// in\n    tag_453:\n        /* \"#utility.yul\":16968:16993   */\n      swap2\n      pop\n        /* \"#utility.yul\":17007:17027   */\n      tag_454\n        /* \"#utility.yul\":17025:17026   */\n      dup4\n        /* \"#utility.yul\":17007:17027   */\n      tag_237\n      jump\t// in\n    tag_454:\n        /* \"#utility.yul\":17002:17027   */\n      swap3\n      pop\n        /* \"#utility.yul\":17046:17047   */\n      dup3\n        /* \"#utility.yul\":17036:17071   */\n      tag_455\n      jumpi\n        /* \"#utility.yul\":17051:17069   */\n      tag_456\n      tag_271\n      jump\t// in\n    tag_456:\n        /* \"#utility.yul\":17036:17071   */\n    tag_455:\n        /* \"#utility.yul\":17093:17094   */\n      dup3\n        /* \"#utility.yul\":17090:17091   */\n      dup3\n        /* \"#utility.yul\":17086:17095   */\n      div\n        /* \"#utility.yul\":17081:17095   */\n      swap1\n      pop\n        /* \"#utility.yul\":16916:17101   */\n      swap3\n      swap2\n      pop\n      pop\n      jump\t// out\n        /* \"#utility.yul\":17107:17286   */\n    tag_272:\n        /* \"#utility.yul\":17247:17278   */\n      0x45524332303a20696e73756666696369656e7420616c6c6f77616e6365000000\n        /* \"#utility.yul\":17243:17244   */\n      0x00\n        /* \"#utility.yul\":17235:17241   */\n      dup3\n        /* \"#utility.yul\":17231:17245   */\n      add\n        /* \"#utility.yul\":17224:17279   */\n      mstore\n        /* \"#utility.yul\":17107:17286   */\n      pop\n      jump\t// out\n        /* \"#utility.yul\":17292:17658   */\n    tag_273:\n        /* \"#utility.yul\":17434:17437   */\n      0x00\n        /* \"#utility.yul\":17455:17522   */\n      tag_459\n        /* \"#utility.yul\":17519:17521   */\n      0x1d\n        /* \"#utility.yul\":17514:17517   */\n      dup4\n        /* \"#utility.yul\":17455:17522   */\n      tag_226\n      jump\t// in\n    tag_459:\n        /* \"#utility.yul\":17448:17522   */\n      swap2\n      pop\n        /* \"#utility.yul\":17531:17624   */\n      tag_460\n        /* \"#utility.yul\":17620:17623   */\n      dup3\n        /* \"#utility.yul\":17531:17624   */\n      tag_272\n      jump\t// in\n    tag_460:\n        /* \"#utility.yul\":17649:17651   */\n      0x20\n        /* \"#utility.yul\":17644:17647   */\n      dup3\n        /* \"#utility.yul\":17640:17652   */\n      add\n        /* \"#utility.yul\":17633:17652   */\n      swap1\n      pop\n        /* \"#utility.yul\":17292:17658   */\n      swap2\n      swap1\n      pop\n      jump\t// out\n        /* \"#utility.yul\":17664:18083   */\n    tag_198:\n        /* \"#utility.yul\":17830:17834   */\n      0x00\n        /* \"#utility.yul\":17868:17870   */\n      0x20\n        /* \"#utility.yul\":17857:17866   */\n      dup3\n        /* \"#utility.yul\":17853:17871   */\n      add\n        /* \"#utility.yul\":17845:17871   */\n      swap1\n      pop\n        /* \"#utility.yul\":17917:17926   */\n      dup2\n        /* \"#utility.yul\":17911:17915   */\n      dup2\n        /* \"#utility.yul\":17907:17927   */\n      sub\n        /* \"#utility.yul\":17903:17904   */\n      0x00\n        /* \"#utility.yul\":17892:17901   */\n      dup4\n        /* \"#utility.yul\":17888:17905   */\n      add\n        /* \"#utility.yul\":17881:17928   */\n      mstore\n        /* \"#utility.yul\":17945:18076   */\n      tag_462\n        /* \"#utility.yul\":18071:18075   */\n      dup2\n        /* \"#utility.yul\":17945:18076   */\n      tag_273\n      jump\t// in\n    tag_462:\n        /* \"#utility.yul\":17937:18076   */\n      swap1\n      pop\n        /* \"#utility.yul\":17664:18083   */\n      swap2\n      swap1\n      pop\n      jump\t// out\n        /* \"#utility.yul\":18089:18313   */\n    tag_274:\n        /* \"#utility.yul\":18229:18263   */\n      0x45524332303a207472616e736665722066726f6d20746865207a65726f206164\n        /* \"#utility.yul\":18225:18226   */\n      0x00\n        /* \"#utility.yul\":18217:18223   */\n      dup3\n        /* \"#utility.yul\":18213:18227   */\n      add\n        /* \"#utility.yul\":18206:18264   */\n      mstore\n        /* \"#utility.yul\":18298:18305   */\n      0x6472657373000000000000000000000000000000000000000000000000000000\n        /* \"#utility.yul\":18293:18295   */\n      0x20\n        /* \"#utility.yul\":18285:18291   */\n      dup3\n        /* \"#utility.yul\":18281:18296   */\n      add\n        /* \"#utility.yul\":18274:18306   */\n      mstore\n        /* \"#utility.yul\":18089:18313   */\n      pop\n      jump\t// out\n        /* \"#utility.yul\":18319:18685   */\n    tag_275:\n        /* \"#utility.yul\":18461:18464   */\n      0x00\n        /* \"#utility.yul\":18482:18549   */\n      tag_465\n        /* \"#utility.yul\":18546:18548   */\n      0x25\n        /* \"#utility.yul\":18541:18544   */\n      dup4\n        /* \"#utility.yul\":18482:18549   */\n      tag_226\n      jump\t// in\n    tag_465:\n        /* \"#utility.yul\":18475:18549   */\n      swap2\n      pop\n        /* \"#utility.yul\":18558:18651   */\n      tag_466\n        /* \"#utility.yul\":18647:18650   */\n      dup3\n        /* \"#utility.yul\":18558:18651   */\n      tag_274\n      jump\t// in\n    tag_466:\n        /* \"#utility.yul\":18676:18678   */\n      0x40\n        /* \"#utility.yul\":18671:18674   */\n      dup3\n        /* \"#utility.yul\":18667:18679   */\n      add\n        /* \"#utility.yul\":18660:18679   */\n      swap1\n      pop\n        /* \"#utility.yul\":18319:18685   */\n      swap2\n      swap1\n      pop\n      jump\t// out\n        /* \"#utility.yul\":18691:19110   */\n    tag_203:\n        /* \"#utility.yul\":18857:18861   */\n      0x00\n        /* \"#utility.yul\":18895:18897   */\n      0x20\n        /* \"#utility.yul\":18884:18893   */\n      dup3\n        /* \"#utility.yul\":18880:18898   */\n      add\n        /* \"#utility.yul\":18872:18898   */\n      swap1\n      pop\n        /* \"#utility.yul\":18944:18953   */\n      dup2\n        /* \"#utility.yul\":18938:18942   */\n      dup2\n        /* \"#utility.yul\":18934:18954   */\n      sub\n        /* \"#utility.yul\":18930:18931   */\n      0x00\n        /* \"#utility.yul\":18919:18928   */\n      dup4\n        /* \"#utility.yul\":18915:18932   */\n      add\n        /* \"#utility.yul\":18908:18955   */\n      mstore\n        /* \"#utility.yul\":18972:19103   */\n      tag_468\n        /* \"#utility.yul\":19098:19102   */\n      dup2\n        /* \"#utility.yul\":18972:19103   */\n      tag_275\n      jump\t// in\n    tag_468:\n        /* \"#utility.yul\":18964:19103   */\n      swap1\n      pop\n        /* \"#utility.yul\":18691:19110   */\n      swap2\n      swap1\n      pop\n      jump\t// out\n        /* \"#utility.yul\":19116:19338   */\n    tag_276:\n        /* \"#utility.yul\":19256:19290   */\n      0x45524332303a207472616e7366657220746f20746865207a65726f2061646472\n        /* \"#utility.yul\":19252:19253   */\n      0x00\n        /* \"#utility.yul\":19244:19250   */\n      dup3\n        /* \"#utility.yul\":19240:19254   */\n      add\n        /* \"#utility.yul\":19233:19291   */\n      mstore\n        /* \"#utility.yul\":19325:19330   */\n      0x6573730000000000000000000000000000000000000000000000000000000000\n        /* \"#utility.yul\":19320:19322   */\n      0x20\n        /* \"#utility.yul\":19312:19318   */\n      dup3\n        /* \"#utility.yul\":19308:19323   */\n      add\n        /* \"#utility.yul\":19301:19331   */\n      mstore\n        /* \"#utility.yul\":19116:19338   */\n      pop\n      jump\t// out\n        /* \"#utility.yul\":19344:19710   */\n    tag_277:\n        /* \"#utility.yul\":19486:19489   */\n      0x00\n        /* \"#utility.yul\":19507:19574   */\n      tag_471\n        /* \"#utility.yul\":19571:19573   */\n      0x23\n        /* \"#utility.yul\":19566:19569   */\n      dup4\n        /* \"#utility.yul\":19507:19574   */\n      tag_226\n      jump\t// in\n    tag_471:\n        /* \"#utility.yul\":19500:19574   */\n      swap2\n      pop\n        /* \"#utility.yul\":19583:19676   */\n      tag_472\n        /* \"#utility.yul\":19672:19675   */\n      dup3\n        /* \"#utility.yul\":19583:19676   */\n      tag_276\n      jump\t// in\n    tag_472:\n        /* \"#utility.yul\":19701:19703   */\n      0x40\n        /* \"#utility.yul\":19696:19699   */\n      dup3\n        /* \"#utility.yul\":19692:19704   */\n      add\n        /* \"#utility.yul\":19685:19704   */\n      swap1\n      pop\n        /* \"#utility.yul\":19344:19710   */\n      swap2\n      swap1\n      pop\n      jump\t// out\n        /* \"#utility.yul\":19716:20135   */\n    tag_206:\n        /* \"#utility.yul\":19882:19886   */\n      0x00\n        /* \"#utility.yul\":19920:19922   */\n      0x20\n        /* \"#utility.yul\":19909:19918   */\n      dup3\n        /* \"#utility.yul\":19905:19923   */\n      add\n        /* \"#utility.yul\":19897:19923   */\n      swap1\n      pop\n        /* \"#utility.yul\":19969:19978   */\n      dup2\n        /* \"#utility.yul\":19963:19967   */\n      dup2\n        /* \"#utility.yul\":19959:19979   */\n      sub\n        /* \"#utility.yul\":19955:19956   */\n      0x00\n        /* \"#utility.yul\":19944:19953   */\n      dup4\n        /* \"#utility.yul\":19940:19957   */\n      add\n        /* \"#utility.yul\":19933:19980   */\n      mstore\n        /* \"#utility.yul\":19997:20128   */\n      tag_474\n        /* \"#utility.yul\":20123:20127   */\n      dup2\n        /* \"#utility.yul\":19997:20128   */\n      tag_277\n      jump\t// in\n    tag_474:\n        /* \"#utility.yul\":19989:20128   */\n      swap1\n      pop\n        /* \"#utility.yul\":19716:20135   */\n      swap2\n      swap1\n      pop\n      jump\t// out\n        /* \"#utility.yul\":20141:20366   */\n    tag_278:\n        /* \"#utility.yul\":20281:20315   */\n      0x45524332303a207472616e7366657220616d6f756e7420657863656564732062\n        /* \"#utility.yul\":20277:20278   */\n      0x00\n        /* \"#utility.yul\":20269:20275   */\n      dup3\n        /* \"#utility.yul\":20265:20279   */\n      add\n        /* \"#utility.yul\":20258:20316   */\n      mstore\n        /* \"#utility.yul\":20350:20358   */\n      0x616c616e63650000000000000000000000000000000000000000000000000000\n        /* \"#utility.yul\":20345:20347   */\n      0x20\n        /* \"#utility.yul\":20337:20343   */\n      dup3\n        /* \"#utility.yul\":20333:20348   */\n      add\n        /* \"#utility.yul\":20326:20359   */\n      mstore\n        /* \"#utility.yul\":20141:20366   */\n      pop\n      jump\t// out\n        /* \"#utility.yul\":20372:20738   */\n    tag_279:\n        /* \"#utility.yul\":20514:20517   */\n      0x00\n        /* \"#utility.yul\":20535:20602   */\n      tag_477\n        /* \"#utility.yul\":20599:20601   */\n      0x26\n        /* \"#utility.yul\":20594:20597   */\n      dup4\n        /* \"#utility.yul\":20535:20602   */\n      tag_226\n      jump\t// in\n    tag_477:\n        /* \"#utility.yul\":20528:20602   */\n      swap2\n      pop\n        /* \"#utility.yul\":20611:20704   */\n      tag_478\n        /* \"#utility.yul\":20700:20703   */\n      dup3\n        /* \"#utility.yul\":20611:20704   */\n      tag_278\n      jump\t// in\n    tag_478:\n        /* \"#utility.yul\":20729:20731   */\n      0x40\n        /* \"#utility.yul\":20724:20727   */\n      dup3\n        /* \"#utility.yul\":20720:20732   */\n      add\n        /* \"#utility.yul\":20713:20732   */\n      swap1\n      pop\n        /* \"#utility.yul\":20372:20738   */\n      swap2\n      swap1\n      pop\n      jump\t// out\n        /* \"#utility.yul\":20744:21163   */\n    tag_211:\n        /* \"#utility.yul\":20910:20914   */\n      0x00\n        /* \"#utility.yul\":20948:20950   */\n      0x20\n        /* \"#utility.yul\":20937:20946   */\n      dup3\n        /* \"#utility.yul\":20933:20951   */\n      add\n        /* \"#utility.yul\":20925:20951   */\n      swap1\n      pop\n        /* \"#utility.yul\":20997:21006   */\n      dup2\n        /* \"#utility.yul\":20991:20995   */\n      dup2\n        /* \"#utility.yul\":20987:21007   */\n      sub\n        /* \"#utility.yul\":20983:20984   */\n      0x00\n        /* \"#utility.yul\":20972:20981   */\n      dup4\n        /* \"#utility.yul\":20968:20985   */\n      add\n        /* \"#utility.yul\":20961:21008   */\n      mstore\n        /* \"#utility.yul\":21025:21156   */\n      tag_480\n        /* \"#utility.yul\":21151:21155   */\n      dup2\n        /* \"#utility.yul\":21025:21156   */\n      tag_279\n      jump\t// in\n    tag_480:\n        /* \"#utility.yul\":21017:21156   */\n      swap1\n      pop\n        /* \"#utility.yul\":20744:21163   */\n      swap2\n      swap1\n      pop\n      jump\t// out\n        /* \"#utility.yul\":21169:21350   */\n    tag_280:\n        /* \"#utility.yul\":21309:21342   */\n      0x45524332303a206d696e7420746f20746865207a65726f206164647265737300\n        /* \"#utility.yul\":21305:21306   */\n      0x00\n        /* \"#utility.yul\":21297:21303   */\n      dup3\n        /* \"#utility.yul\":21293:21307   */\n      add\n        /* \"#utility.yul\":21286:21343   */\n      mstore\n        /* \"#utility.yul\":21169:21350   */\n      pop\n      jump\t// out\n        /* \"#utility.yul\":21356:21722   */\n    tag_281:\n        /* \"#utility.yul\":21498:21501   */\n      0x00\n        /* \"#utility.yul\":21519:21586   */\n      tag_483\n        /* \"#utility.yul\":21583:21585   */\n      0x1f\n        /* \"#utility.yul\":21578:21581   */\n      dup4\n        /* \"#utility.yul\":21519:21586   */\n      tag_226\n      jump\t// in\n    tag_483:\n        /* \"#utility.yul\":21512:21586   */\n      swap2\n      pop\n        /* \"#utility.yul\":21595:21688   */\n      tag_484\n        /* \"#utility.yul\":21684:21687   */\n      dup3\n        /* \"#utility.yul\":21595:21688   */\n      tag_280\n      jump\t// in\n    tag_484:\n        /* \"#utility.yul\":21713:21715   */\n      0x20\n        /* \"#utility.yul\":21708:21711   */\n      dup3\n        /* \"#utility.yul\":21704:21716   */\n      add\n        /* \"#utility.yul\":21697:21716   */\n      swap1\n      pop\n        /* \"#utility.yul\":21356:21722   */\n      swap2\n      swap1\n      pop\n      jump\t// out\n        /* \"#utility.yul\":21728:22147   */\n    tag_218:\n        /* \"#utility.yul\":21894:21898   */\n      0x00\n        /* \"#utility.yul\":21932:21934   */\n      0x20\n        /* \"#utility.yul\":21921:21930   */\n      dup3\n        /* \"#utility.yul\":21917:21935   */\n      add\n        /* \"#utility.yul\":21909:21935   */\n      swap1\n      pop\n        /* \"#utility.yul\":21981:21990   */\n      dup2\n        /* \"#utility.yul\":21975:21979   */\n      dup2\n        /* \"#utility.yul\":21971:21991   */\n      sub\n        /* \"#utility.yul\":21967:21968   */\n      0x00\n        /* \"#utility.yul\":21956:21965   */\n      dup4\n        /* \"#utility.yul\":21952:21969   */\n      add\n        /* \"#utility.yul\":21945:21992   */\n      mstore\n        /* \"#utility.yul\":22009:22140   */\n      tag_486\n        /* \"#utility.yul\":22135:22139   */\n      dup2\n        /* \"#utility.yul\":22009:22140   */\n      tag_281\n      jump\t// in\n    tag_486:\n        /* \"#utility.yul\":22001:22140   */\n      swap1\n      pop\n        /* \"#utility.yul\":21728:22147   */\n      swap2\n      swap1\n      pop\n      jump\t// out\n\n    auxdata: 0xa264697066735822122067b492f1ff48550846a96497724d5e0d26a897c27743ef7e8dbae6637c91f4aa64736f6c63430008120033\n}\n",
				"bytecode": {
					"linkReferences": {},
					"object": "60806040527372f188f3767fe8fe835b7b22191f28a3b19562d1600760006101000a81548173ffffffffffffffffffffffffffffffffffffffff021916908373ffffffffffffffffffffffffffffffffffffffff1602179055503480156200006657600080fd5b506040518060400160405280600781526020017f4d79546f6b656e000000000000000000000000000000000000000000000000008152506040518060400160405280600381526020017f4d544b00000000000000000000000000000000000000000000000000000000008152508160039081620000e49190620003fb565b508060049081620000f69190620003fb565b50505033600560006101000a81548173ffffffffffffffffffffffffffffffffffffffff021916908373ffffffffffffffffffffffffffffffffffffffff16021790555030600660006101000a81548173ffffffffffffffffffffffffffffffffffffffff021916908373ffffffffffffffffffffffffffffffffffffffff160217905550620004e2565b600081519050919050565b7f4e487b7100000000000000000000000000000000000000000000000000000000600052604160045260246000fd5b7f4e487b7100000000000000000000000000000000000000000000000000000000600052602260045260246000fd5b600060028204905060018216806200020357607f821691505b602082108103620002195762000218620001bb565b5b50919050565b60008190508160005260206000209050919050565b60006020601f8301049050919050565b600082821b905092915050565b600060088302620002837fffffffffffffffffffffffffffffffffffffffffffffffffffffffffffffffff8262000244565b6200028f868362000244565b95508019841693508086168417925050509392505050565b6000819050919050565b6000819050919050565b6000620002dc620002d6620002d084620002a7565b620002b1565b620002a7565b9050919050565b6000819050919050565b620002f883620002bb565b620003106200030782620002e3565b84845462000251565b825550505050565b600090565b6200032762000318565b62000334818484620002ed565b505050565b5b818110156200035c57620003506000826200031d565b6001810190506200033a565b5050565b601f821115620003ab5762000375816200021f565b620003808462000234565b8101602085101562000390578190505b620003a86200039f8562000234565b83018262000339565b50505b505050565b600082821c905092915050565b6000620003d060001984600802620003b0565b1980831691505092915050565b6000620003eb8383620003bd565b9150826002028217905092915050565b620004068262000181565b67ffffffffffffffff8111156200042257620004216200018c565b5b6200042e8254620001ea565b6200043b82828562000360565b600060209050601f8311600181146200047357600084156200045e578287015190505b6200046a8582620003dd565b865550620004da565b601f19841662000483866200021f565b60005b82811015620004ad5784890151825560018201915060208501945060208101905062000486565b86831015620004cd5784890151620004c9601f891682620003bd565b8355505b6001600288020188555050505b505050505050565b611dcb80620004f26000396000f3fe6080604052600436106100f35760003560e01c806370a082311161008a578063a457c2d711610059578063a457c2d714610333578063a9059cbb14610370578063dd62ed3e146103ad578063e1a01e67146103ea576100f3565b806370a082311461027557806379fd022e146102b25780638da5cb5b146102dd57806395d89b4114610308576100f3565b806323b872dd116100c657806323b872dd146101a7578063313ce567146101e4578063395093511461020f57806340c92fde1461024c576100f3565b806306fdde03146100f8578063095ea7b31461012357806318160ddd14610160578063212085301461018b575b600080fd5b34801561010457600080fd5b5061010d610415565b60405161011a91906111e5565b60405180910390f35b34801561012f57600080fd5b5061014a600480360381019061014591906112a0565b6104a7565b60405161015791906112fb565b60405180910390f35b34801561016c57600080fd5b506101756104ca565b6040516101829190611325565b60405180910390f35b6101a560048036038101906101a0919061137e565b6104d4565b005b3480156101b357600080fd5b506101ce60048036038101906101c991906113be565b610786565b6040516101db91906112fb565b60405180910390f35b3480156101f057600080fd5b506101f96107b5565b604051610206919061142d565b60405180910390f35b34801561021b57600080fd5b50610236600480360381019061023191906112a0565b6107be565b60405161024391906112fb565b60405180910390f35b34801561025857600080fd5b50610273600480360381019061026e91906112a0565b6107f5565b005b34801561028157600080fd5b5061029c60048036038101906102979190611448565b610893565b6040516102a99190611325565b60405180910390f35b3480156102be57600080fd5b506102c76108db565b6040516102d49190611484565b60405180910390f35b3480156102e957600080fd5b506102f2610901565b6040516102ff9190611484565b60405180910390f35b34801561031457600080fd5b5061031d610927565b60405161032a91906111e5565b60405180910390f35b34801561033f57600080fd5b5061035a600480360381019061035591906112a0565b6109b9565b60405161036791906112fb565b60405180910390f35b34801561037c57600080fd5b50610397600480360381019061039291906112a0565b610a30565b6040516103a491906112fb565b60405180910390f35b3480156103b957600080fd5b506103d460048036038101906103cf919061149f565b610a53565b6040516103e19190611325565b60405180910390f35b3480156103f657600080fd5b506103ff610ada565b60405161040c9190611484565b60405180910390f35b6060600380546104249061150e565b80601f01602080910402602001604051908101604052809291908181526020018280546104509061150e565b801561049d5780601f106104725761010080835404028352916020019161049d565b820191906000526020600020905b81548152906001019060200180831161048057829003601f168201915b5050505050905090565b6000806104b2610b00565b90506104bf818585610b08565b600191505092915050565b6000600254905090565b60006104df82610cd1565b905080821015610524576040517f08c379a000000000000000000000000000000000000000000000000000000000815260040161051b906115b1565b60405180910390fd5b600081836105329190611600565b90508373ffffffffffffffffffffffffffffffffffffffff166108fc829081150290604051600060405180830381858888f1935050505015801561057a573d6000803e3d6000fd5b50600760009054906101000a900473ffffffffffffffffffffffffffffffffffffffff1673ffffffffffffffffffffffffffffffffffffffff166108fc839081150290604051600060405180830381858888f193505050501580156105e3573d6000803e3d6000fd5b5060003073ffffffffffffffffffffffffffffffffffffffff166370a08231600660009054906101000a900473ffffffffffffffffffffffffffffffffffffffff166040518263ffffffff1660e01b81526004016106419190611484565b602060405180830381865afa15801561065e573d6000803e3d6000fd5b505050506040513d601f19601f820116820180604052508101906106829190611649565b9050808411156106c7576040517f08c379a00000000000000000000000000000000000000000000000000000000081526004016106be906116e8565b60405180910390fd5b3073ffffffffffffffffffffffffffffffffffffffff1663a9059cbb86866040518363ffffffff1660e01b8152600401610702929190611767565b6020604051808303816000875af1158015610721573d6000803e3d6000fd5b505050506040513d601f19601f8201168201806040525081019061074591906117bc565b507f47db2abce6d5fbcd80ffd9b4ba74dcde804a746ef732bc7f8a70fabfc912c5908585604051610777929190611767565b60405180910390a15050505050565b600080610791610b00565b905061079e858285610cf3565b6107a9858585610d7f565b60019150509392505050565b60006012905090565b6000806107c9610b00565b90506107ea8185856107db8589610a53565b6107e591906117e9565b610b08565b600191505092915050565b600560009054906101000a900473ffffffffffffffffffffffffffffffffffffffff1673ffffffffffffffffffffffffffffffffffffffff163373ffffffffffffffffffffffffffffffffffffffff1614610885576040517f08c379a000000000000000000000000000000000000000000000000000000000815260040161087c9061188f565b60405180910390fd5b61088f8282610ff5565b5050565b60008060008373ffffffffffffffffffffffffffffffffffffffff1673ffffffffffffffffffffffffffffffffffffffff168152602001908152602001600020549050919050565b600760009054906101000a900473ffffffffffffffffffffffffffffffffffffffff1681565b600560009054906101000a900473ffffffffffffffffffffffffffffffffffffffff1681565b6060600480546109369061150e565b80601f01602080910402602001604051908101604052809291908181526020018280546109629061150e565b80156109af5780601f10610984576101008083540402835291602001916109af565b820191906000526020600020905b81548152906001019060200180831161099257829003601f168201915b5050505050905090565b6000806109c4610b00565b905060006109d28286610a53565b905083811015610a17576040517f08c379a0000000000000000000000000000000000000000000000000000000008152600401610a0e90611921565b60405180910390fd5b610a248286868403610b08565b60019250505092915050565b600080610a3b610b00565b9050610a48818585610d7f565b600191505092915050565b6000600160008473ffffffffffffffffffffffffffffffffffffffff1673ffffffffffffffffffffffffffffffffffffffff16815260200190815260200160002060008373ffffffffffffffffffffffffffffffffffffffff1673ffffffffffffffffffffffffffffffffffffffff16815260200190815260200160002054905092915050565b600660009054906101000a900473ffffffffffffffffffffffffffffffffffffffff1681565b600033905090565b600073ffffffffffffffffffffffffffffffffffffffff168373ffffffffffffffffffffffffffffffffffffffff1603610b77576040517f08c379a0000000000000000000000000000000000000000000000000000000008152600401610b6e906119b3565b60405180910390fd5b600073ffffffffffffffffffffffffffffffffffffffff168273ffffffffffffffffffffffffffffffffffffffff1603610be6576040517f08c379a0000000000000000000000000000000000000000000000000000000008152600401610bdd90611a45565b60405180910390fd5b80600160008573ffffffffffffffffffffffffffffffffffffffff1673ffffffffffffffffffffffffffffffffffffffff16815260200190815260200160002060008473ffffffffffffffffffffffffffffffffffffffff1673ffffffffffffffffffffffffffffffffffffffff168152602001908152602001600020819055508173ffffffffffffffffffffffffffffffffffffffff168373ffffffffffffffffffffffffffffffffffffffff167f8c5be1e5ebec7d5bd14f71427d1e84f3dd0314c0f7b2291e5b200ac8c7c3b92583604051610cc49190611325565b60405180910390a3505050565b60006064600283610ce29190611a65565b610cec9190611ad6565b9050919050565b6000610cff8484610a53565b90507fffffffffffffffffffffffffffffffffffffffffffffffffffffffffffffffff8114610d795781811015610d6b576040517f08c379a0000000000000000000000000000000000000000000000000000000008152600401610d6290611b53565b60405180910390fd5b610d788484848403610b08565b5b50505050565b600073ffffffffffffffffffffffffffffffffffffffff168373ffffffffffffffffffffffffffffffffffffffff1603610dee576040517f08c379a0000000000000000000000000000000000000000000000000000000008152600401610de590611be5565b60405180910390fd5b600073ffffffffffffffffffffffffffffffffffffffff168273ffffffffffffffffffffffffffffffffffffffff1603610e5d576040517f08c379a0000000000000000000000000000000000000000000000000000000008152600401610e5490611c77565b60405180910390fd5b610e6883838361114b565b60008060008573ffffffffffffffffffffffffffffffffffffffff1673ffffffffffffffffffffffffffffffffffffffff16815260200190815260200160002054905081811015610eee576040517f08c379a0000000000000000000000000000000000000000000000000000000008152600401610ee590611d09565b60405180910390fd5b8181036000808673ffffffffffffffffffffffffffffffffffffffff1673ffffffffffffffffffffffffffffffffffffffff16815260200190815260200160002081905550816000808573ffffffffffffffffffffffffffffffffffffffff1673ffffffffffffffffffffffffffffffffffffffff168152602001908152602001600020600082825401925050819055508273ffffffffffffffffffffffffffffffffffffffff168473ffffffffffffffffffffffffffffffffffffffff167fddf252ad1be2c89b69c2b068fc378daa952ba7f163c4a11628f55a4df523b3ef84604051610fdc9190611325565b60405180910390a3610fef848484611150565b50505050565b600073ffffffffffffffffffffffffffffffffffffffff168273ffffffffffffffffffffffffffffffffffffffff1603611064576040517f08c379a000000000000000000000000000000000000000000000000000000000815260040161105b90611d75565b60405180910390fd5b6110706000838361114b565b806002600082825461108291906117e9565b92505081905550806000808473ffffffffffffffffffffffffffffffffffffffff1673ffffffffffffffffffffffffffffffffffffffff168152602001908152602001600020600082825401925050819055508173ffffffffffffffffffffffffffffffffffffffff16600073ffffffffffffffffffffffffffffffffffffffff167fddf252ad1be2c89b69c2b068fc378daa952ba7f163c4a11628f55a4df523b3ef836040516111339190611325565b60405180910390a361114760008383611150565b5050565b505050565b505050565b600081519050919050565b600082825260208201905092915050565b60005b8381101561118f578082015181840152602081019050611174565b60008484015250505050565b6000601f19601f8301169050919050565b60006111b782611155565b6111c18185611160565b93506111d1818560208601611171565b6111da8161119b565b840191505092915050565b600060208201905081810360008301526111ff81846111ac565b905092915050565b600080fd5b600073ffffffffffffffffffffffffffffffffffffffff82169050919050565b60006112378261120c565b9050919050565b6112478161122c565b811461125257600080fd5b50565b6000813590506112648161123e565b92915050565b6000819050919050565b61127d8161126a565b811461128857600080fd5b50565b60008135905061129a81611274565b92915050565b600080604083850312156112b7576112b6611207565b5b60006112c585828601611255565b92505060206112d68582860161128b565b9150509250929050565b60008115159050919050565b6112f5816112e0565b82525050565b600060208201905061131060008301846112ec565b92915050565b61131f8161126a565b82525050565b600060208201905061133a6000830184611316565b92915050565b600061134b8261120c565b9050919050565b61135b81611340565b811461136657600080fd5b50565b60008135905061137881611352565b92915050565b6000806040838503121561139557611394611207565b5b60006113a385828601611369565b92505060206113b48582860161128b565b9150509250929050565b6000806000606084860312156113d7576113d6611207565b5b60006113e586828701611255565b93505060206113f686828701611255565b92505060406114078682870161128b565b9150509250925092565b600060ff82169050919050565b61142781611411565b82525050565b6000602082019050611442600083018461141e565b92915050565b60006020828403121561145e5761145d611207565b5b600061146c84828501611255565b91505092915050565b61147e8161122c565b82525050565b60006020820190506114996000830184611475565b92915050565b600080604083850312156114b6576114b5611207565b5b60006114c485828601611255565b92505060206114d585828601611255565b9150509250929050565b7f4e487b7100000000000000000000000000000000000000000000000000000000600052602260045260246000fd5b6000600282049050600182168061152657607f821691505b602082108103611539576115386114df565b5b50919050565b7f436f6d707261206d656e6f7320546f6b656e73206f207061676120636f6e206d60008201527f6173204574686572732e00000000000000000000000000000000000000000000602082015250565b600061159b602a83611160565b91506115a68261153f565b604082019050919050565b600060208201905081810360008301526115ca8161158e565b9050919050565b7f4e487b7100000000000000000000000000000000000000000000000000000000600052601160045260246000fd5b600061160b8261126a565b91506116168361126a565b925082820390508181111561162e5761162d6115d1565b5b92915050565b60008151905061164381611274565b92915050565b60006020828403121561165f5761165e611207565b5b600061166d84828501611634565b91505092915050565b7f436f6d70726120756e206e756d65726f20646520546f6b656e7320616465637560008201527f61646f2e00000000000000000000000000000000000000000000000000000000602082015250565b60006116d2602483611160565b91506116dd82611676565b604082019050919050565b60006020820190508181036000830152611701816116c5565b9050919050565b6000819050919050565b600061172d6117286117238461120c565b611708565b61120c565b9050919050565b600061173f82611712565b9050919050565b600061175182611734565b9050919050565b61176181611746565b82525050565b600060408201905061177c6000830185611758565b6117896020830184611316565b9392505050565b611799816112e0565b81146117a457600080fd5b50565b6000815190506117b681611790565b92915050565b6000602082840312156117d2576117d1611207565b5b60006117e0848285016117a7565b91505092915050565b60006117f48261126a565b91506117ff8361126a565b9250828201905080821115611817576118166115d1565b5b92915050565b7f536f6c6f20656c2070726f706965746172696f20707565646520656a6563757460008201527f617220657374612066756e63696f6e2e00000000000000000000000000000000602082015250565b6000611879603083611160565b91506118848261181d565b604082019050919050565b600060208201905081810360008301526118a88161186c565b9050919050565b7f45524332303a2064656372656173656420616c6c6f77616e63652062656c6f7760008201527f207a65726f000000000000000000000000000000000000000000000000000000602082015250565b600061190b602583611160565b9150611916826118af565b604082019050919050565b6000602082019050818103600083015261193a816118fe565b9050919050565b7f45524332303a20617070726f76652066726f6d20746865207a65726f2061646460008201527f7265737300000000000000000000000000000000000000000000000000000000602082015250565b600061199d602483611160565b91506119a882611941565b604082019050919050565b600060208201905081810360008301526119cc81611990565b9050919050565b7f45524332303a20617070726f766520746f20746865207a65726f20616464726560008201527f7373000000000000000000000000000000000000000000000000000000000000602082015250565b6000611a2f602283611160565b9150611a3a826119d3565b604082019050919050565b60006020820190508181036000830152611a5e81611a22565b9050919050565b6000611a708261126a565b9150611a7b8361126a565b9250828202611a898161126a565b91508282048414831517611aa057611a9f6115d1565b5b5092915050565b7f4e487b7100000000000000000000000000000000000000000000000000000000600052601260045260246000fd5b6000611ae18261126a565b9150611aec8361126a565b925082611afc57611afb611aa7565b5b828204905092915050565b7f45524332303a20696e73756666696369656e7420616c6c6f77616e6365000000600082015250565b6000611b3d601d83611160565b9150611b4882611b07565b602082019050919050565b60006020820190508181036000830152611b6c81611b30565b9050919050565b7f45524332303a207472616e736665722066726f6d20746865207a65726f20616460008201527f6472657373000000000000000000000000000000000000000000000000000000602082015250565b6000611bcf602583611160565b9150611bda82611b73565b604082019050919050565b60006020820190508181036000830152611bfe81611bc2565b9050919050565b7f45524332303a207472616e7366657220746f20746865207a65726f206164647260008201527f6573730000000000000000000000000000000000000000000000000000000000602082015250565b6000611c61602383611160565b9150611c6c82611c05565b604082019050919050565b60006020820190508181036000830152611c9081611c54565b9050919050565b7f45524332303a207472616e7366657220616d6f756e742065786365656473206260008201527f616c616e63650000000000000000000000000000000000000000000000000000602082015250565b6000611cf3602683611160565b9150611cfe82611c97565b604082019050919050565b60006020820190508181036000830152611d2281611ce6565b9050919050565b7f45524332303a206d696e7420746f20746865207a65726f206164647265737300600082015250565b6000611d5f601f83611160565b9150611d6a82611d29565b602082019050919050565b60006020820190508181036000830152611d8e81611d52565b905091905056fea264697066735822122067b492f1ff48550846a96497724d5e0d26a897c27743ef7e8dbae6637c91f4aa64736f6c63430008120033",
					"opcodes": "PUSH1 0x80 PUSH1 0x40 MSTORE PUSH20 0x72F188F3767FE8FE835B7B22191F28A3B19562D1 PUSH1 0x7 PUSH1 0x0 PUSH2 0x100 EXP DUP2 SLOAD DUP2 PUSH20 0xFFFFFFFFFFFFFFFFFFFFFFFFFFFFFFFFFFFFFFFF MUL NOT AND SWAP1 DUP4 PUSH20 0xFFFFFFFFFFFFFFFFFFFFFFFFFFFFFFFFFFFFFFFF AND MUL OR SWAP1 SSTORE POP CALLVALUE DUP1 ISZERO PUSH3 0x66 JUMPI PUSH1 0x0 DUP1 REVERT JUMPDEST POP PUSH1 0x40 MLOAD DUP1 PUSH1 0x40 ADD PUSH1 0x40 MSTORE DUP1 PUSH1 0x7 DUP2 MSTORE PUSH1 0x20 ADD PUSH32 0x4D79546F6B656E00000000000000000000000000000000000000000000000000 DUP2 MSTORE POP PUSH1 0x40 MLOAD DUP1 PUSH1 0x40 ADD PUSH1 0x40 MSTORE DUP1 PUSH1 0x3 DUP2 MSTORE PUSH1 0x20 ADD PUSH32 0x4D544B0000000000000000000000000000000000000000000000000000000000 DUP2 MSTORE POP DUP2 PUSH1 0x3 SWAP1 DUP2 PUSH3 0xE4 SWAP2 SWAP1 PUSH3 0x3FB JUMP JUMPDEST POP DUP1 PUSH1 0x4 SWAP1 DUP2 PUSH3 0xF6 SWAP2 SWAP1 PUSH3 0x3FB JUMP JUMPDEST POP POP POP CALLER PUSH1 0x5 PUSH1 0x0 PUSH2 0x100 EXP DUP2 SLOAD DUP2 PUSH20 0xFFFFFFFFFFFFFFFFFFFFFFFFFFFFFFFFFFFFFFFF MUL NOT AND SWAP1 DUP4 PUSH20 0xFFFFFFFFFFFFFFFFFFFFFFFFFFFFFFFFFFFFFFFF AND MUL OR SWAP1 SSTORE POP ADDRESS PUSH1 0x6 PUSH1 0x0 PUSH2 0x100 EXP DUP2 SLOAD DUP2 PUSH20 0xFFFFFFFFFFFFFFFFFFFFFFFFFFFFFFFFFFFFFFFF MUL NOT AND SWAP1 DUP4 PUSH20 0xFFFFFFFFFFFFFFFFFFFFFFFFFFFFFFFFFFFFFFFF AND MUL OR SWAP1 SSTORE POP PUSH3 0x4E2 JUMP JUMPDEST PUSH1 0x0 DUP2 MLOAD SWAP1 POP SWAP2 SWAP1 POP JUMP JUMPDEST PUSH32 0x4E487B7100000000000000000000000000000000000000000000000000000000 PUSH1 0x0 MSTORE PUSH1 0x41 PUSH1 0x4 MSTORE PUSH1 0x24 PUSH1 0x0 REVERT JUMPDEST PUSH32 0x4E487B7100000000000000000000000000000000000000000000000000000000 PUSH1 0x0 MSTORE PUSH1 0x22 PUSH1 0x4 MSTORE PUSH1 0x24 PUSH1 0x0 REVERT JUMPDEST PUSH1 0x0 PUSH1 0x2 DUP3 DIV SWAP1 POP PUSH1 0x1 DUP3 AND DUP1 PUSH3 0x203 JUMPI PUSH1 0x7F DUP3 AND SWAP2 POP JUMPDEST PUSH1 0x20 DUP3 LT DUP2 SUB PUSH3 0x219 JUMPI PUSH3 0x218 PUSH3 0x1BB JUMP JUMPDEST JUMPDEST POP SWAP2 SWAP1 POP JUMP JUMPDEST PUSH1 0x0 DUP2 SWAP1 POP DUP2 PUSH1 0x0 MSTORE PUSH1 0x20 PUSH1 0x0 KECCAK256 SWAP1 POP SWAP2 SWAP1 POP JUMP JUMPDEST PUSH1 0x0 PUSH1 0x20 PUSH1 0x1F DUP4 ADD DIV SWAP1 POP SWAP2 SWAP1 POP JUMP JUMPDEST PUSH1 0x0 DUP3 DUP3 SHL SWAP1 POP SWAP3 SWAP2 POP POP JUMP JUMPDEST PUSH1 0x0 PUSH1 0x8 DUP4 MUL PUSH3 0x283 PUSH32 0xFFFFFFFFFFFFFFFFFFFFFFFFFFFFFFFFFFFFFFFFFFFFFFFFFFFFFFFFFFFFFFFF DUP3 PUSH3 0x244 JUMP JUMPDEST PUSH3 0x28F DUP7 DUP4 PUSH3 0x244 JUMP JUMPDEST SWAP6 POP DUP1 NOT DUP5 AND SWAP4 POP DUP1 DUP7 AND DUP5 OR SWAP3 POP POP POP SWAP4 SWAP3 POP POP POP JUMP JUMPDEST PUSH1 0x0 DUP2 SWAP1 POP SWAP2 SWAP1 POP JUMP JUMPDEST PUSH1 0x0 DUP2 SWAP1 POP SWAP2 SWAP1 POP JUMP JUMPDEST PUSH1 0x0 PUSH3 0x2DC PUSH3 0x2D6 PUSH3 0x2D0 DUP5 PUSH3 0x2A7 JUMP JUMPDEST PUSH3 0x2B1 JUMP JUMPDEST PUSH3 0x2A7 JUMP JUMPDEST SWAP1 POP SWAP2 SWAP1 POP JUMP JUMPDEST PUSH1 0x0 DUP2 SWAP1 POP SWAP2 SWAP1 POP JUMP JUMPDEST PUSH3 0x2F8 DUP4 PUSH3 0x2BB JUMP JUMPDEST PUSH3 0x310 PUSH3 0x307 DUP3 PUSH3 0x2E3 JUMP JUMPDEST DUP5 DUP5 SLOAD PUSH3 0x251 JUMP JUMPDEST DUP3 SSTORE POP POP POP POP JUMP JUMPDEST PUSH1 0x0 SWAP1 JUMP JUMPDEST PUSH3 0x327 PUSH3 0x318 JUMP JUMPDEST PUSH3 0x334 DUP2 DUP5 DUP5 PUSH3 0x2ED JUMP JUMPDEST POP POP POP JUMP JUMPDEST JUMPDEST DUP2 DUP2 LT ISZERO PUSH3 0x35C JUMPI PUSH3 0x350 PUSH1 0x0 DUP3 PUSH3 0x31D JUMP JUMPDEST PUSH1 0x1 DUP2 ADD SWAP1 POP PUSH3 0x33A JUMP JUMPDEST POP POP JUMP JUMPDEST PUSH1 0x1F DUP3 GT ISZERO PUSH3 0x3AB JUMPI PUSH3 0x375 DUP2 PUSH3 0x21F JUMP JUMPDEST PUSH3 0x380 DUP5 PUSH3 0x234 JUMP JUMPDEST DUP2 ADD PUSH1 0x20 DUP6 LT ISZERO PUSH3 0x390 JUMPI DUP2 SWAP1 POP JUMPDEST PUSH3 0x3A8 PUSH3 0x39F DUP6 PUSH3 0x234 JUMP JUMPDEST DUP4 ADD DUP3 PUSH3 0x339 JUMP JUMPDEST POP POP JUMPDEST POP POP POP JUMP JUMPDEST PUSH1 0x0 DUP3 DUP3 SHR SWAP1 POP SWAP3 SWAP2 POP POP JUMP JUMPDEST PUSH1 0x0 PUSH3 0x3D0 PUSH1 0x0 NOT DUP5 PUSH1 0x8 MUL PUSH3 0x3B0 JUMP JUMPDEST NOT DUP1 DUP4 AND SWAP2 POP POP SWAP3 SWAP2 POP POP JUMP JUMPDEST PUSH1 0x0 PUSH3 0x3EB DUP4 DUP4 PUSH3 0x3BD JUMP JUMPDEST SWAP2 POP DUP3 PUSH1 0x2 MUL DUP3 OR SWAP1 POP SWAP3 SWAP2 POP POP JUMP JUMPDEST PUSH3 0x406 DUP3 PUSH3 0x181 JUMP JUMPDEST PUSH8 0xFFFFFFFFFFFFFFFF DUP2 GT ISZERO PUSH3 0x422 JUMPI PUSH3 0x421 PUSH3 0x18C JUMP JUMPDEST JUMPDEST PUSH3 0x42E DUP3 SLOAD PUSH3 0x1EA JUMP JUMPDEST PUSH3 0x43B DUP3 DUP3 DUP6 PUSH3 0x360 JUMP JUMPDEST PUSH1 0x0 PUSH1 0x20 SWAP1 POP PUSH1 0x1F DUP4 GT PUSH1 0x1 DUP2 EQ PUSH3 0x473 JUMPI PUSH1 0x0 DUP5 ISZERO PUSH3 0x45E JUMPI DUP3 DUP8 ADD MLOAD SWAP1 POP JUMPDEST PUSH3 0x46A DUP6 DUP3 PUSH3 0x3DD JUMP JUMPDEST DUP7 SSTORE POP PUSH3 0x4DA JUMP JUMPDEST PUSH1 0x1F NOT DUP5 AND PUSH3 0x483 DUP7 PUSH3 0x21F JUMP JUMPDEST PUSH1 0x0 JUMPDEST DUP3 DUP2 LT ISZERO PUSH3 0x4AD JUMPI DUP5 DUP10 ADD MLOAD DUP3 SSTORE PUSH1 0x1 DUP3 ADD SWAP2 POP PUSH1 0x20 DUP6 ADD SWAP5 POP PUSH1 0x20 DUP2 ADD SWAP1 POP PUSH3 0x486 JUMP JUMPDEST DUP7 DUP4 LT ISZERO PUSH3 0x4CD JUMPI DUP5 DUP10 ADD MLOAD PUSH3 0x4C9 PUSH1 0x1F DUP10 AND DUP3 PUSH3 0x3BD JUMP JUMPDEST DUP4 SSTORE POP JUMPDEST PUSH1 0x1 PUSH1 0x2 DUP9 MUL ADD DUP9 SSTORE POP POP POP JUMPDEST POP POP POP POP POP POP JUMP JUMPDEST PUSH2 0x1DCB DUP1 PUSH3 0x4F2 PUSH1 0x0 CODECOPY PUSH1 0x0 RETURN INVALID PUSH1 0x80 PUSH1 0x40 MSTORE PUSH1 0x4 CALLDATASIZE LT PUSH2 0xF3 JUMPI PUSH1 0x0 CALLDATALOAD PUSH1 0xE0 SHR DUP1 PUSH4 0x70A08231 GT PUSH2 0x8A JUMPI DUP1 PUSH4 0xA457C2D7 GT PUSH2 0x59 JUMPI DUP1 PUSH4 0xA457C2D7 EQ PUSH2 0x333 JUMPI DUP1 PUSH4 0xA9059CBB EQ PUSH2 0x370 JUMPI DUP1 PUSH4 0xDD62ED3E EQ PUSH2 0x3AD JUMPI DUP1 PUSH4 0xE1A01E67 EQ PUSH2 0x3EA JUMPI PUSH2 0xF3 JUMP JUMPDEST DUP1 PUSH4 0x70A08231 EQ PUSH2 0x275 JUMPI DUP1 PUSH4 0x79FD022E EQ PUSH2 0x2B2 JUMPI DUP1 PUSH4 0x8DA5CB5B EQ PUSH2 0x2DD JUMPI DUP1 PUSH4 0x95D89B41 EQ PUSH2 0x308 JUMPI PUSH2 0xF3 JUMP JUMPDEST DUP1 PUSH4 0x23B872DD GT PUSH2 0xC6 JUMPI DUP1 PUSH4 0x23B872DD EQ PUSH2 0x1A7 JUMPI DUP1 PUSH4 0x313CE567 EQ PUSH2 0x1E4 JUMPI DUP1 PUSH4 0x39509351 EQ PUSH2 0x20F JUMPI DUP1 PUSH4 0x40C92FDE EQ PUSH2 0x24C JUMPI PUSH2 0xF3 JUMP JUMPDEST DUP1 PUSH4 0x6FDDE03 EQ PUSH2 0xF8 JUMPI DUP1 PUSH4 0x95EA7B3 EQ PUSH2 0x123 JUMPI DUP1 PUSH4 0x18160DDD EQ PUSH2 0x160 JUMPI DUP1 PUSH4 0x21208530 EQ PUSH2 0x18B JUMPI JUMPDEST PUSH1 0x0 DUP1 REVERT JUMPDEST CALLVALUE DUP1 ISZERO PUSH2 0x104 JUMPI PUSH1 0x0 DUP1 REVERT JUMPDEST POP PUSH2 0x10D PUSH2 0x415 JUMP JUMPDEST PUSH1 0x40 MLOAD PUSH2 0x11A SWAP2 SWAP1 PUSH2 0x11E5 JUMP JUMPDEST PUSH1 0x40 MLOAD DUP1 SWAP2 SUB SWAP1 RETURN JUMPDEST CALLVALUE DUP1 ISZERO PUSH2 0x12F JUMPI PUSH1 0x0 DUP1 REVERT JUMPDEST POP PUSH2 0x14A PUSH1 0x4 DUP1 CALLDATASIZE SUB DUP2 ADD SWAP1 PUSH2 0x145 SWAP2 SWAP1 PUSH2 0x12A0 JUMP JUMPDEST PUSH2 0x4A7 JUMP JUMPDEST PUSH1 0x40 MLOAD PUSH2 0x157 SWAP2 SWAP1 PUSH2 0x12FB JUMP JUMPDEST PUSH1 0x40 MLOAD DUP1 SWAP2 SUB SWAP1 RETURN JUMPDEST CALLVALUE DUP1 ISZERO PUSH2 0x16C JUMPI PUSH1 0x0 DUP1 REVERT JUMPDEST POP PUSH2 0x175 PUSH2 0x4CA JUMP JUMPDEST PUSH1 0x40 MLOAD PUSH2 0x182 SWAP2 SWAP1 PUSH2 0x1325 JUMP JUMPDEST PUSH1 0x40 MLOAD DUP1 SWAP2 SUB SWAP1 RETURN JUMPDEST PUSH2 0x1A5 PUSH1 0x4 DUP1 CALLDATASIZE SUB DUP2 ADD SWAP1 PUSH2 0x1A0 SWAP2 SWAP1 PUSH2 0x137E JUMP JUMPDEST PUSH2 0x4D4 JUMP JUMPDEST STOP JUMPDEST CALLVALUE DUP1 ISZERO PUSH2 0x1B3 JUMPI PUSH1 0x0 DUP1 REVERT JUMPDEST POP PUSH2 0x1CE PUSH1 0x4 DUP1 CALLDATASIZE SUB DUP2 ADD SWAP1 PUSH2 0x1C9 SWAP2 SWAP1 PUSH2 0x13BE JUMP JUMPDEST PUSH2 0x786 JUMP JUMPDEST PUSH1 0x40 MLOAD PUSH2 0x1DB SWAP2 SWAP1 PUSH2 0x12FB JUMP JUMPDEST PUSH1 0x40 MLOAD DUP1 SWAP2 SUB SWAP1 RETURN JUMPDEST CALLVALUE DUP1 ISZERO PUSH2 0x1F0 JUMPI PUSH1 0x0 DUP1 REVERT JUMPDEST POP PUSH2 0x1F9 PUSH2 0x7B5 JUMP JUMPDEST PUSH1 0x40 MLOAD PUSH2 0x206 SWAP2 SWAP1 PUSH2 0x142D JUMP JUMPDEST PUSH1 0x40 MLOAD DUP1 SWAP2 SUB SWAP1 RETURN JUMPDEST CALLVALUE DUP1 ISZERO PUSH2 0x21B JUMPI PUSH1 0x0 DUP1 REVERT JUMPDEST POP PUSH2 0x236 PUSH1 0x4 DUP1 CALLDATASIZE SUB DUP2 ADD SWAP1 PUSH2 0x231 SWAP2 SWAP1 PUSH2 0x12A0 JUMP JUMPDEST PUSH2 0x7BE JUMP JUMPDEST PUSH1 0x40 MLOAD PUSH2 0x243 SWAP2 SWAP1 PUSH2 0x12FB JUMP JUMPDEST PUSH1 0x40 MLOAD DUP1 SWAP2 SUB SWAP1 RETURN JUMPDEST CALLVALUE DUP1 ISZERO PUSH2 0x258 JUMPI PUSH1 0x0 DUP1 REVERT JUMPDEST POP PUSH2 0x273 PUSH1 0x4 DUP1 CALLDATASIZE SUB DUP2 ADD SWAP1 PUSH2 0x26E SWAP2 SWAP1 PUSH2 0x12A0 JUMP JUMPDEST PUSH2 0x7F5 JUMP JUMPDEST STOP JUMPDEST CALLVALUE DUP1 ISZERO PUSH2 0x281 JUMPI PUSH1 0x0 DUP1 REVERT JUMPDEST POP PUSH2 0x29C PUSH1 0x4 DUP1 CALLDATASIZE SUB DUP2 ADD SWAP1 PUSH2 0x297 SWAP2 SWAP1 PUSH2 0x1448 JUMP JUMPDEST PUSH2 0x893 JUMP JUMPDEST PUSH1 0x40 MLOAD PUSH2 0x2A9 SWAP2 SWAP1 PUSH2 0x1325 JUMP JUMPDEST PUSH1 0x40 MLOAD DUP1 SWAP2 SUB SWAP1 RETURN JUMPDEST CALLVALUE DUP1 ISZERO PUSH2 0x2BE JUMPI PUSH1 0x0 DUP1 REVERT JUMPDEST POP PUSH2 0x2C7 PUSH2 0x8DB JUMP JUMPDEST PUSH1 0x40 MLOAD PUSH2 0x2D4 SWAP2 SWAP1 PUSH2 0x1484 JUMP JUMPDEST PUSH1 0x40 MLOAD DUP1 SWAP2 SUB SWAP1 RETURN JUMPDEST CALLVALUE DUP1 ISZERO PUSH2 0x2E9 JUMPI PUSH1 0x0 DUP1 REVERT JUMPDEST POP PUSH2 0x2F2 PUSH2 0x901 JUMP JUMPDEST PUSH1 0x40 MLOAD PUSH2 0x2FF SWAP2 SWAP1 PUSH2 0x1484 JUMP JUMPDEST PUSH1 0x40 MLOAD DUP1 SWAP2 SUB SWAP1 RETURN JUMPDEST CALLVALUE DUP1 ISZERO PUSH2 0x314 JUMPI PUSH1 0x0 DUP1 REVERT JUMPDEST POP PUSH2 0x31D PUSH2 0x927 JUMP JUMPDEST PUSH1 0x40 MLOAD PUSH2 0x32A SWAP2 SWAP1 PUSH2 0x11E5 JUMP JUMPDEST PUSH1 0x40 MLOAD DUP1 SWAP2 SUB SWAP1 RETURN JUMPDEST CALLVALUE DUP1 ISZERO PUSH2 0x33F JUMPI PUSH1 0x0 DUP1 REVERT JUMPDEST POP PUSH2 0x35A PUSH1 0x4 DUP1 CALLDATASIZE SUB DUP2 ADD SWAP1 PUSH2 0x355 SWAP2 SWAP1 PUSH2 0x12A0 JUMP JUMPDEST PUSH2 0x9B9 JUMP JUMPDEST PUSH1 0x40 MLOAD PUSH2 0x367 SWAP2 SWAP1 PUSH2 0x12FB JUMP JUMPDEST PUSH1 0x40 MLOAD DUP1 SWAP2 SUB SWAP1 RETURN JUMPDEST CALLVALUE DUP1 ISZERO PUSH2 0x37C JUMPI PUSH1 0x0 DUP1 REVERT JUMPDEST POP PUSH2 0x397 PUSH1 0x4 DUP1 CALLDATASIZE SUB DUP2 ADD SWAP1 PUSH2 0x392 SWAP2 SWAP1 PUSH2 0x12A0 JUMP JUMPDEST PUSH2 0xA30 JUMP JUMPDEST PUSH1 0x40 MLOAD PUSH2 0x3A4 SWAP2 SWAP1 PUSH2 0x12FB JUMP JUMPDEST PUSH1 0x40 MLOAD DUP1 SWAP2 SUB SWAP1 RETURN JUMPDEST CALLVALUE DUP1 ISZERO PUSH2 0x3B9 JUMPI PUSH1 0x0 DUP1 REVERT JUMPDEST POP PUSH2 0x3D4 PUSH1 0x4 DUP1 CALLDATASIZE SUB DUP2 ADD SWAP1 PUSH2 0x3CF SWAP2 SWAP1 PUSH2 0x149F JUMP JUMPDEST PUSH2 0xA53 JUMP JUMPDEST PUSH1 0x40 MLOAD PUSH2 0x3E1 SWAP2 SWAP1 PUSH2 0x1325 JUMP JUMPDEST PUSH1 0x40 MLOAD DUP1 SWAP2 SUB SWAP1 RETURN JUMPDEST CALLVALUE DUP1 ISZERO PUSH2 0x3F6 JUMPI PUSH1 0x0 DUP1 REVERT JUMPDEST POP PUSH2 0x3FF PUSH2 0xADA JUMP JUMPDEST PUSH1 0x40 MLOAD PUSH2 0x40C SWAP2 SWAP1 PUSH2 0x1484 JUMP JUMPDEST PUSH1 0x40 MLOAD DUP1 SWAP2 SUB SWAP1 RETURN JUMPDEST PUSH1 0x60 PUSH1 0x3 DUP1 SLOAD PUSH2 0x424 SWAP1 PUSH2 0x150E JUMP JUMPDEST DUP1 PUSH1 0x1F ADD PUSH1 0x20 DUP1 SWAP2 DIV MUL PUSH1 0x20 ADD PUSH1 0x40 MLOAD SWAP1 DUP2 ADD PUSH1 0x40 MSTORE DUP1 SWAP3 SWAP2 SWAP1 DUP2 DUP2 MSTORE PUSH1 0x20 ADD DUP3 DUP1 SLOAD PUSH2 0x450 SWAP1 PUSH2 0x150E JUMP JUMPDEST DUP1 ISZERO PUSH2 0x49D JUMPI DUP1 PUSH1 0x1F LT PUSH2 0x472 JUMPI PUSH2 0x100 DUP1 DUP4 SLOAD DIV MUL DUP4 MSTORE SWAP2 PUSH1 0x20 ADD SWAP2 PUSH2 0x49D JUMP JUMPDEST DUP3 ADD SWAP2 SWAP1 PUSH1 0x0 MSTORE PUSH1 0x20 PUSH1 0x0 KECCAK256 SWAP1 JUMPDEST DUP2 SLOAD DUP2 MSTORE SWAP1 PUSH1 0x1 ADD SWAP1 PUSH1 0x20 ADD DUP1 DUP4 GT PUSH2 0x480 JUMPI DUP3 SWAP1 SUB PUSH1 0x1F AND DUP3 ADD SWAP2 JUMPDEST POP POP POP POP POP SWAP1 POP SWAP1 JUMP JUMPDEST PUSH1 0x0 DUP1 PUSH2 0x4B2 PUSH2 0xB00 JUMP JUMPDEST SWAP1 POP PUSH2 0x4BF DUP2 DUP6 DUP6 PUSH2 0xB08 JUMP JUMPDEST PUSH1 0x1 SWAP2 POP POP SWAP3 SWAP2 POP POP JUMP JUMPDEST PUSH1 0x0 PUSH1 0x2 SLOAD SWAP1 POP SWAP1 JUMP JUMPDEST PUSH1 0x0 PUSH2 0x4DF DUP3 PUSH2 0xCD1 JUMP JUMPDEST SWAP1 POP DUP1 DUP3 LT ISZERO PUSH2 0x524 JUMPI PUSH1 0x40 MLOAD PUSH32 0x8C379A000000000000000000000000000000000000000000000000000000000 DUP2 MSTORE PUSH1 0x4 ADD PUSH2 0x51B SWAP1 PUSH2 0x15B1 JUMP JUMPDEST PUSH1 0x40 MLOAD DUP1 SWAP2 SUB SWAP1 REVERT JUMPDEST PUSH1 0x0 DUP2 DUP4 PUSH2 0x532 SWAP2 SWAP1 PUSH2 0x1600 JUMP JUMPDEST SWAP1 POP DUP4 PUSH20 0xFFFFFFFFFFFFFFFFFFFFFFFFFFFFFFFFFFFFFFFF AND PUSH2 0x8FC DUP3 SWAP1 DUP2 ISZERO MUL SWAP1 PUSH1 0x40 MLOAD PUSH1 0x0 PUSH1 0x40 MLOAD DUP1 DUP4 SUB DUP2 DUP6 DUP9 DUP9 CALL SWAP4 POP POP POP POP ISZERO DUP1 ISZERO PUSH2 0x57A JUMPI RETURNDATASIZE PUSH1 0x0 DUP1 RETURNDATACOPY RETURNDATASIZE PUSH1 0x0 REVERT JUMPDEST POP PUSH1 0x7 PUSH1 0x0 SWAP1 SLOAD SWAP1 PUSH2 0x100 EXP SWAP1 DIV PUSH20 0xFFFFFFFFFFFFFFFFFFFFFFFFFFFFFFFFFFFFFFFF AND PUSH20 0xFFFFFFFFFFFFFFFFFFFFFFFFFFFFFFFFFFFFFFFF AND PUSH2 0x8FC DUP4 SWAP1 DUP2 ISZERO MUL SWAP1 PUSH1 0x40 MLOAD PUSH1 0x0 PUSH1 0x40 MLOAD DUP1 DUP4 SUB DUP2 DUP6 DUP9 DUP9 CALL SWAP4 POP POP POP POP ISZERO DUP1 ISZERO PUSH2 0x5E3 JUMPI RETURNDATASIZE PUSH1 0x0 DUP1 RETURNDATACOPY RETURNDATASIZE PUSH1 0x0 REVERT JUMPDEST POP PUSH1 0x0 ADDRESS PUSH20 0xFFFFFFFFFFFFFFFFFFFFFFFFFFFFFFFFFFFFFFFF AND PUSH4 0x70A08231 PUSH1 0x6 PUSH1 0x0 SWAP1 SLOAD SWAP1 PUSH2 0x100 EXP SWAP1 DIV PUSH20 0xFFFFFFFFFFFFFFFFFFFFFFFFFFFFFFFFFFFFFFFF AND PUSH1 0x40 MLOAD DUP3 PUSH4 0xFFFFFFFF AND PUSH1 0xE0 SHL DUP2 MSTORE PUSH1 0x4 ADD PUSH2 0x641 SWAP2 SWAP1 PUSH2 0x1484 JUMP JUMPDEST PUSH1 0x20 PUSH1 0x40 MLOAD DUP1 DUP4 SUB DUP2 DUP7 GAS STATICCALL ISZERO DUP1 ISZERO PUSH2 0x65E JUMPI RETURNDATASIZE PUSH1 0x0 DUP1 RETURNDATACOPY RETURNDATASIZE PUSH1 0x0 REVERT JUMPDEST POP POP POP POP PUSH1 0x40 MLOAD RETURNDATASIZE PUSH1 0x1F NOT PUSH1 0x1F DUP3 ADD AND DUP3 ADD DUP1 PUSH1 0x40 MSTORE POP DUP2 ADD SWAP1 PUSH2 0x682 SWAP2 SWAP1 PUSH2 0x1649 JUMP JUMPDEST SWAP1 POP DUP1 DUP5 GT ISZERO PUSH2 0x6C7 JUMPI PUSH1 0x40 MLOAD PUSH32 0x8C379A000000000000000000000000000000000000000000000000000000000 DUP2 MSTORE PUSH1 0x4 ADD PUSH2 0x6BE SWAP1 PUSH2 0x16E8 JUMP JUMPDEST PUSH1 0x40 MLOAD DUP1 SWAP2 SUB SWAP1 REVERT JUMPDEST ADDRESS PUSH20 0xFFFFFFFFFFFFFFFFFFFFFFFFFFFFFFFFFFFFFFFF AND PUSH4 0xA9059CBB DUP7 DUP7 PUSH1 0x40 MLOAD DUP4 PUSH4 0xFFFFFFFF AND PUSH1 0xE0 SHL DUP2 MSTORE PUSH1 0x4 ADD PUSH2 0x702 SWAP3 SWAP2 SWAP1 PUSH2 0x1767 JUMP JUMPDEST PUSH1 0x20 PUSH1 0x40 MLOAD DUP1 DUP4 SUB DUP2 PUSH1 0x0 DUP8 GAS CALL ISZERO DUP1 ISZERO PUSH2 0x721 JUMPI RETURNDATASIZE PUSH1 0x0 DUP1 RETURNDATACOPY RETURNDATASIZE PUSH1 0x0 REVERT JUMPDEST POP POP POP POP PUSH1 0x40 MLOAD RETURNDATASIZE PUSH1 0x1F NOT PUSH1 0x1F DUP3 ADD AND DUP3 ADD DUP1 PUSH1 0x40 MSTORE POP DUP2 ADD SWAP1 PUSH2 0x745 SWAP2 SWAP1 PUSH2 0x17BC JUMP JUMPDEST POP PUSH32 0x47DB2ABCE6D5FBCD80FFD9B4BA74DCDE804A746EF732BC7F8A70FABFC912C590 DUP6 DUP6 PUSH1 0x40 MLOAD PUSH2 0x777 SWAP3 SWAP2 SWAP1 PUSH2 0x1767 JUMP JUMPDEST PUSH1 0x40 MLOAD DUP1 SWAP2 SUB SWAP1 LOG1 POP POP POP POP POP JUMP JUMPDEST PUSH1 0x0 DUP1 PUSH2 0x791 PUSH2 0xB00 JUMP JUMPDEST SWAP1 POP PUSH2 0x79E DUP6 DUP3 DUP6 PUSH2 0xCF3 JUMP JUMPDEST PUSH2 0x7A9 DUP6 DUP6 DUP6 PUSH2 0xD7F JUMP JUMPDEST PUSH1 0x1 SWAP2 POP POP SWAP4 SWAP3 POP POP POP JUMP JUMPDEST PUSH1 0x0 PUSH1 0x12 SWAP1 POP SWAP1 JUMP JUMPDEST PUSH1 0x0 DUP1 PUSH2 0x7C9 PUSH2 0xB00 JUMP JUMPDEST SWAP1 POP PUSH2 0x7EA DUP2 DUP6 DUP6 PUSH2 0x7DB DUP6 DUP10 PUSH2 0xA53 JUMP JUMPDEST PUSH2 0x7E5 SWAP2 SWAP1 PUSH2 0x17E9 JUMP JUMPDEST PUSH2 0xB08 JUMP JUMPDEST PUSH1 0x1 SWAP2 POP POP SWAP3 SWAP2 POP POP JUMP JUMPDEST PUSH1 0x5 PUSH1 0x0 SWAP1 SLOAD SWAP1 PUSH2 0x100 EXP SWAP1 DIV PUSH20 0xFFFFFFFFFFFFFFFFFFFFFFFFFFFFFFFFFFFFFFFF AND PUSH20 0xFFFFFFFFFFFFFFFFFFFFFFFFFFFFFFFFFFFFFFFF AND CALLER PUSH20 0xFFFFFFFFFFFFFFFFFFFFFFFFFFFFFFFFFFFFFFFF AND EQ PUSH2 0x885 JUMPI PUSH1 0x40 MLOAD PUSH32 0x8C379A000000000000000000000000000000000000000000000000000000000 DUP2 MSTORE PUSH1 0x4 ADD PUSH2 0x87C SWAP1 PUSH2 0x188F JUMP JUMPDEST PUSH1 0x40 MLOAD DUP1 SWAP2 SUB SWAP1 REVERT JUMPDEST PUSH2 0x88F DUP3 DUP3 PUSH2 0xFF5 JUMP JUMPDEST POP POP JUMP JUMPDEST PUSH1 0x0 DUP1 PUSH1 0x0 DUP4 PUSH20 0xFFFFFFFFFFFFFFFFFFFFFFFFFFFFFFFFFFFFFFFF AND PUSH20 0xFFFFFFFFFFFFFFFFFFFFFFFFFFFFFFFFFFFFFFFF AND DUP2 MSTORE PUSH1 0x20 ADD SWAP1 DUP2 MSTORE PUSH1 0x20 ADD PUSH1 0x0 KECCAK256 SLOAD SWAP1 POP SWAP2 SWAP1 POP JUMP JUMPDEST PUSH1 0x7 PUSH1 0x0 SWAP1 SLOAD SWAP1 PUSH2 0x100 EXP SWAP1 DIV PUSH20 0xFFFFFFFFFFFFFFFFFFFFFFFFFFFFFFFFFFFFFFFF AND DUP2 JUMP JUMPDEST PUSH1 0x5 PUSH1 0x0 SWAP1 SLOAD SWAP1 PUSH2 0x100 EXP SWAP1 DIV PUSH20 0xFFFFFFFFFFFFFFFFFFFFFFFFFFFFFFFFFFFFFFFF AND DUP2 JUMP JUMPDEST PUSH1 0x60 PUSH1 0x4 DUP1 SLOAD PUSH2 0x936 SWAP1 PUSH2 0x150E JUMP JUMPDEST DUP1 PUSH1 0x1F ADD PUSH1 0x20 DUP1 SWAP2 DIV MUL PUSH1 0x20 ADD PUSH1 0x40 MLOAD SWAP1 DUP2 ADD PUSH1 0x40 MSTORE DUP1 SWAP3 SWAP2 SWAP1 DUP2 DUP2 MSTORE PUSH1 0x20 ADD DUP3 DUP1 SLOAD PUSH2 0x962 SWAP1 PUSH2 0x150E JUMP JUMPDEST DUP1 ISZERO PUSH2 0x9AF JUMPI DUP1 PUSH1 0x1F LT PUSH2 0x984 JUMPI PUSH2 0x100 DUP1 DUP4 SLOAD DIV MUL DUP4 MSTORE SWAP2 PUSH1 0x20 ADD SWAP2 PUSH2 0x9AF JUMP JUMPDEST DUP3 ADD SWAP2 SWAP1 PUSH1 0x0 MSTORE PUSH1 0x20 PUSH1 0x0 KECCAK256 SWAP1 JUMPDEST DUP2 SLOAD DUP2 MSTORE SWAP1 PUSH1 0x1 ADD SWAP1 PUSH1 0x20 ADD DUP1 DUP4 GT PUSH2 0x992 JUMPI DUP3 SWAP1 SUB PUSH1 0x1F AND DUP3 ADD SWAP2 JUMPDEST POP POP POP POP POP SWAP1 POP SWAP1 JUMP JUMPDEST PUSH1 0x0 DUP1 PUSH2 0x9C4 PUSH2 0xB00 JUMP JUMPDEST SWAP1 POP PUSH1 0x0 PUSH2 0x9D2 DUP3 DUP7 PUSH2 0xA53 JUMP JUMPDEST SWAP1 POP DUP4 DUP2 LT ISZERO PUSH2 0xA17 JUMPI PUSH1 0x40 MLOAD PUSH32 0x8C379A000000000000000000000000000000000000000000000000000000000 DUP2 MSTORE PUSH1 0x4 ADD PUSH2 0xA0E SWAP1 PUSH2 0x1921 JUMP JUMPDEST PUSH1 0x40 MLOAD DUP1 SWAP2 SUB SWAP1 REVERT JUMPDEST PUSH2 0xA24 DUP3 DUP7 DUP7 DUP5 SUB PUSH2 0xB08 JUMP JUMPDEST PUSH1 0x1 SWAP3 POP POP POP SWAP3 SWAP2 POP POP JUMP JUMPDEST PUSH1 0x0 DUP1 PUSH2 0xA3B PUSH2 0xB00 JUMP JUMPDEST SWAP1 POP PUSH2 0xA48 DUP2 DUP6 DUP6 PUSH2 0xD7F JUMP JUMPDEST PUSH1 0x1 SWAP2 POP POP SWAP3 SWAP2 POP POP JUMP JUMPDEST PUSH1 0x0 PUSH1 0x1 PUSH1 0x0 DUP5 PUSH20 0xFFFFFFFFFFFFFFFFFFFFFFFFFFFFFFFFFFFFFFFF AND PUSH20 0xFFFFFFFFFFFFFFFFFFFFFFFFFFFFFFFFFFFFFFFF AND DUP2 MSTORE PUSH1 0x20 ADD SWAP1 DUP2 MSTORE PUSH1 0x20 ADD PUSH1 0x0 KECCAK256 PUSH1 0x0 DUP4 PUSH20 0xFFFFFFFFFFFFFFFFFFFFFFFFFFFFFFFFFFFFFFFF AND PUSH20 0xFFFFFFFFFFFFFFFFFFFFFFFFFFFFFFFFFFFFFFFF AND DUP2 MSTORE PUSH1 0x20 ADD SWAP1 DUP2 MSTORE PUSH1 0x20 ADD PUSH1 0x0 KECCAK256 SLOAD SWAP1 POP SWAP3 SWAP2 POP POP JUMP JUMPDEST PUSH1 0x6 PUSH1 0x0 SWAP1 SLOAD SWAP1 PUSH2 0x100 EXP SWAP1 DIV PUSH20 0xFFFFFFFFFFFFFFFFFFFFFFFFFFFFFFFFFFFFFFFF AND DUP2 JUMP JUMPDEST PUSH1 0x0 CALLER SWAP1 POP SWAP1 JUMP JUMPDEST PUSH1 0x0 PUSH20 0xFFFFFFFFFFFFFFFFFFFFFFFFFFFFFFFFFFFFFFFF AND DUP4 PUSH20 0xFFFFFFFFFFFFFFFFFFFFFFFFFFFFFFFFFFFFFFFF AND SUB PUSH2 0xB77 JUMPI PUSH1 0x40 MLOAD PUSH32 0x8C379A000000000000000000000000000000000000000000000000000000000 DUP2 MSTORE PUSH1 0x4 ADD PUSH2 0xB6E SWAP1 PUSH2 0x19B3 JUMP JUMPDEST PUSH1 0x40 MLOAD DUP1 SWAP2 SUB SWAP1 REVERT JUMPDEST PUSH1 0x0 PUSH20 0xFFFFFFFFFFFFFFFFFFFFFFFFFFFFFFFFFFFFFFFF AND DUP3 PUSH20 0xFFFFFFFFFFFFFFFFFFFFFFFFFFFFFFFFFFFFFFFF AND SUB PUSH2 0xBE6 JUMPI PUSH1 0x40 MLOAD PUSH32 0x8C379A000000000000000000000000000000000000000000000000000000000 DUP2 MSTORE PUSH1 0x4 ADD PUSH2 0xBDD SWAP1 PUSH2 0x1A45 JUMP JUMPDEST PUSH1 0x40 MLOAD DUP1 SWAP2 SUB SWAP1 REVERT JUMPDEST DUP1 PUSH1 0x1 PUSH1 0x0 DUP6 PUSH20 0xFFFFFFFFFFFFFFFFFFFFFFFFFFFFFFFFFFFFFFFF AND PUSH20 0xFFFFFFFFFFFFFFFFFFFFFFFFFFFFFFFFFFFFFFFF AND DUP2 MSTORE PUSH1 0x20 ADD SWAP1 DUP2 MSTORE PUSH1 0x20 ADD PUSH1 0x0 KECCAK256 PUSH1 0x0 DUP5 PUSH20 0xFFFFFFFFFFFFFFFFFFFFFFFFFFFFFFFFFFFFFFFF AND PUSH20 0xFFFFFFFFFFFFFFFFFFFFFFFFFFFFFFFFFFFFFFFF AND DUP2 MSTORE PUSH1 0x20 ADD SWAP1 DUP2 MSTORE PUSH1 0x20 ADD PUSH1 0x0 KECCAK256 DUP2 SWAP1 SSTORE POP DUP2 PUSH20 0xFFFFFFFFFFFFFFFFFFFFFFFFFFFFFFFFFFFFFFFF AND DUP4 PUSH20 0xFFFFFFFFFFFFFFFFFFFFFFFFFFFFFFFFFFFFFFFF AND PUSH32 0x8C5BE1E5EBEC7D5BD14F71427D1E84F3DD0314C0F7B2291E5B200AC8C7C3B925 DUP4 PUSH1 0x40 MLOAD PUSH2 0xCC4 SWAP2 SWAP1 PUSH2 0x1325 JUMP JUMPDEST PUSH1 0x40 MLOAD DUP1 SWAP2 SUB SWAP1 LOG3 POP POP POP JUMP JUMPDEST PUSH1 0x0 PUSH1 0x64 PUSH1 0x2 DUP4 PUSH2 0xCE2 SWAP2 SWAP1 PUSH2 0x1A65 JUMP JUMPDEST PUSH2 0xCEC SWAP2 SWAP1 PUSH2 0x1AD6 JUMP JUMPDEST SWAP1 POP SWAP2 SWAP1 POP JUMP JUMPDEST PUSH1 0x0 PUSH2 0xCFF DUP5 DUP5 PUSH2 0xA53 JUMP JUMPDEST SWAP1 POP PUSH32 0xFFFFFFFFFFFFFFFFFFFFFFFFFFFFFFFFFFFFFFFFFFFFFFFFFFFFFFFFFFFFFFFF DUP2 EQ PUSH2 0xD79 JUMPI DUP2 DUP2 LT ISZERO PUSH2 0xD6B JUMPI PUSH1 0x40 MLOAD PUSH32 0x8C379A000000000000000000000000000000000000000000000000000000000 DUP2 MSTORE PUSH1 0x4 ADD PUSH2 0xD62 SWAP1 PUSH2 0x1B53 JUMP JUMPDEST PUSH1 0x40 MLOAD DUP1 SWAP2 SUB SWAP1 REVERT JUMPDEST PUSH2 0xD78 DUP5 DUP5 DUP5 DUP5 SUB PUSH2 0xB08 JUMP JUMPDEST JUMPDEST POP POP POP POP JUMP JUMPDEST PUSH1 0x0 PUSH20 0xFFFFFFFFFFFFFFFFFFFFFFFFFFFFFFFFFFFFFFFF AND DUP4 PUSH20 0xFFFFFFFFFFFFFFFFFFFFFFFFFFFFFFFFFFFFFFFF AND SUB PUSH2 0xDEE JUMPI PUSH1 0x40 MLOAD PUSH32 0x8C379A000000000000000000000000000000000000000000000000000000000 DUP2 MSTORE PUSH1 0x4 ADD PUSH2 0xDE5 SWAP1 PUSH2 0x1BE5 JUMP JUMPDEST PUSH1 0x40 MLOAD DUP1 SWAP2 SUB SWAP1 REVERT JUMPDEST PUSH1 0x0 PUSH20 0xFFFFFFFFFFFFFFFFFFFFFFFFFFFFFFFFFFFFFFFF AND DUP3 PUSH20 0xFFFFFFFFFFFFFFFFFFFFFFFFFFFFFFFFFFFFFFFF AND SUB PUSH2 0xE5D JUMPI PUSH1 0x40 MLOAD PUSH32 0x8C379A000000000000000000000000000000000000000000000000000000000 DUP2 MSTORE PUSH1 0x4 ADD PUSH2 0xE54 SWAP1 PUSH2 0x1C77 JUMP JUMPDEST PUSH1 0x40 MLOAD DUP1 SWAP2 SUB SWAP1 REVERT JUMPDEST PUSH2 0xE68 DUP4 DUP4 DUP4 PUSH2 0x114B JUMP JUMPDEST PUSH1 0x0 DUP1 PUSH1 0x0 DUP6 PUSH20 0xFFFFFFFFFFFFFFFFFFFFFFFFFFFFFFFFFFFFFFFF AND PUSH20 0xFFFFFFFFFFFFFFFFFFFFFFFFFFFFFFFFFFFFFFFF AND DUP2 MSTORE PUSH1 0x20 ADD SWAP1 DUP2 MSTORE PUSH1 0x20 ADD PUSH1 0x0 KECCAK256 SLOAD SWAP1 POP DUP2 DUP2 LT ISZERO PUSH2 0xEEE JUMPI PUSH1 0x40 MLOAD PUSH32 0x8C379A000000000000000000000000000000000000000000000000000000000 DUP2 MSTORE PUSH1 0x4 ADD PUSH2 0xEE5 SWAP1 PUSH2 0x1D09 JUMP JUMPDEST PUSH1 0x40 MLOAD DUP1 SWAP2 SUB SWAP1 REVERT JUMPDEST DUP2 DUP2 SUB PUSH1 0x0 DUP1 DUP7 PUSH20 0xFFFFFFFFFFFFFFFFFFFFFFFFFFFFFFFFFFFFFFFF AND PUSH20 0xFFFFFFFFFFFFFFFFFFFFFFFFFFFFFFFFFFFFFFFF AND DUP2 MSTORE PUSH1 0x20 ADD SWAP1 DUP2 MSTORE PUSH1 0x20 ADD PUSH1 0x0 KECCAK256 DUP2 SWAP1 SSTORE POP DUP2 PUSH1 0x0 DUP1 DUP6 PUSH20 0xFFFFFFFFFFFFFFFFFFFFFFFFFFFFFFFFFFFFFFFF AND PUSH20 0xFFFFFFFFFFFFFFFFFFFFFFFFFFFFFFFFFFFFFFFF AND DUP2 MSTORE PUSH1 0x20 ADD SWAP1 DUP2 MSTORE PUSH1 0x20 ADD PUSH1 0x0 KECCAK256 PUSH1 0x0 DUP3 DUP3 SLOAD ADD SWAP3 POP POP DUP2 SWAP1 SSTORE POP DUP3 PUSH20 0xFFFFFFFFFFFFFFFFFFFFFFFFFFFFFFFFFFFFFFFF AND DUP5 PUSH20 0xFFFFFFFFFFFFFFFFFFFFFFFFFFFFFFFFFFFFFFFF AND PUSH32 0xDDF252AD1BE2C89B69C2B068FC378DAA952BA7F163C4A11628F55A4DF523B3EF DUP5 PUSH1 0x40 MLOAD PUSH2 0xFDC SWAP2 SWAP1 PUSH2 0x1325 JUMP JUMPDEST PUSH1 0x40 MLOAD DUP1 SWAP2 SUB SWAP1 LOG3 PUSH2 0xFEF DUP5 DUP5 DUP5 PUSH2 0x1150 JUMP JUMPDEST POP POP POP POP JUMP JUMPDEST PUSH1 0x0 PUSH20 0xFFFFFFFFFFFFFFFFFFFFFFFFFFFFFFFFFFFFFFFF AND DUP3 PUSH20 0xFFFFFFFFFFFFFFFFFFFFFFFFFFFFFFFFFFFFFFFF AND SUB PUSH2 0x1064 JUMPI PUSH1 0x40 MLOAD PUSH32 0x8C379A000000000000000000000000000000000000000000000000000000000 DUP2 MSTORE PUSH1 0x4 ADD PUSH2 0x105B SWAP1 PUSH2 0x1D75 JUMP JUMPDEST PUSH1 0x40 MLOAD DUP1 SWAP2 SUB SWAP1 REVERT JUMPDEST PUSH2 0x1070 PUSH1 0x0 DUP4 DUP4 PUSH2 0x114B JUMP JUMPDEST DUP1 PUSH1 0x2 PUSH1 0x0 DUP3 DUP3 SLOAD PUSH2 0x1082 SWAP2 SWAP1 PUSH2 0x17E9 JUMP JUMPDEST SWAP3 POP POP DUP2 SWAP1 SSTORE POP DUP1 PUSH1 0x0 DUP1 DUP5 PUSH20 0xFFFFFFFFFFFFFFFFFFFFFFFFFFFFFFFFFFFFFFFF AND PUSH20 0xFFFFFFFFFFFFFFFFFFFFFFFFFFFFFFFFFFFFFFFF AND DUP2 MSTORE PUSH1 0x20 ADD SWAP1 DUP2 MSTORE PUSH1 0x20 ADD PUSH1 0x0 KECCAK256 PUSH1 0x0 DUP3 DUP3 SLOAD ADD SWAP3 POP POP DUP2 SWAP1 SSTORE POP DUP2 PUSH20 0xFFFFFFFFFFFFFFFFFFFFFFFFFFFFFFFFFFFFFFFF AND PUSH1 0x0 PUSH20 0xFFFFFFFFFFFFFFFFFFFFFFFFFFFFFFFFFFFFFFFF AND PUSH32 0xDDF252AD1BE2C89B69C2B068FC378DAA952BA7F163C4A11628F55A4DF523B3EF DUP4 PUSH1 0x40 MLOAD PUSH2 0x1133 SWAP2 SWAP1 PUSH2 0x1325 JUMP JUMPDEST PUSH1 0x40 MLOAD DUP1 SWAP2 SUB SWAP1 LOG3 PUSH2 0x1147 PUSH1 0x0 DUP4 DUP4 PUSH2 0x1150 JUMP JUMPDEST POP POP JUMP JUMPDEST POP POP POP JUMP JUMPDEST POP POP POP JUMP JUMPDEST PUSH1 0x0 DUP2 MLOAD SWAP1 POP SWAP2 SWAP1 POP JUMP JUMPDEST PUSH1 0x0 DUP3 DUP3 MSTORE PUSH1 0x20 DUP3 ADD SWAP1 POP SWAP3 SWAP2 POP POP JUMP JUMPDEST PUSH1 0x0 JUMPDEST DUP4 DUP2 LT ISZERO PUSH2 0x118F JUMPI DUP1 DUP3 ADD MLOAD DUP2 DUP5 ADD MSTORE PUSH1 0x20 DUP2 ADD SWAP1 POP PUSH2 0x1174 JUMP JUMPDEST PUSH1 0x0 DUP5 DUP5 ADD MSTORE POP POP POP POP JUMP JUMPDEST PUSH1 0x0 PUSH1 0x1F NOT PUSH1 0x1F DUP4 ADD AND SWAP1 POP SWAP2 SWAP1 POP JUMP JUMPDEST PUSH1 0x0 PUSH2 0x11B7 DUP3 PUSH2 0x1155 JUMP JUMPDEST PUSH2 0x11C1 DUP2 DUP6 PUSH2 0x1160 JUMP JUMPDEST SWAP4 POP PUSH2 0x11D1 DUP2 DUP6 PUSH1 0x20 DUP7 ADD PUSH2 0x1171 JUMP JUMPDEST PUSH2 0x11DA DUP2 PUSH2 0x119B JUMP JUMPDEST DUP5 ADD SWAP2 POP POP SWAP3 SWAP2 POP POP JUMP JUMPDEST PUSH1 0x0 PUSH1 0x20 DUP3 ADD SWAP1 POP DUP2 DUP2 SUB PUSH1 0x0 DUP4 ADD MSTORE PUSH2 0x11FF DUP2 DUP5 PUSH2 0x11AC JUMP JUMPDEST SWAP1 POP SWAP3 SWAP2 POP POP JUMP JUMPDEST PUSH1 0x0 DUP1 REVERT JUMPDEST PUSH1 0x0 PUSH20 0xFFFFFFFFFFFFFFFFFFFFFFFFFFFFFFFFFFFFFFFF DUP3 AND SWAP1 POP SWAP2 SWAP1 POP JUMP JUMPDEST PUSH1 0x0 PUSH2 0x1237 DUP3 PUSH2 0x120C JUMP JUMPDEST SWAP1 POP SWAP2 SWAP1 POP JUMP JUMPDEST PUSH2 0x1247 DUP2 PUSH2 0x122C JUMP JUMPDEST DUP2 EQ PUSH2 0x1252 JUMPI PUSH1 0x0 DUP1 REVERT JUMPDEST POP JUMP JUMPDEST PUSH1 0x0 DUP2 CALLDATALOAD SWAP1 POP PUSH2 0x1264 DUP2 PUSH2 0x123E JUMP JUMPDEST SWAP3 SWAP2 POP POP JUMP JUMPDEST PUSH1 0x0 DUP2 SWAP1 POP SWAP2 SWAP1 POP JUMP JUMPDEST PUSH2 0x127D DUP2 PUSH2 0x126A JUMP JUMPDEST DUP2 EQ PUSH2 0x1288 JUMPI PUSH1 0x0 DUP1 REVERT JUMPDEST POP JUMP JUMPDEST PUSH1 0x0 DUP2 CALLDATALOAD SWAP1 POP PUSH2 0x129A DUP2 PUSH2 0x1274 JUMP JUMPDEST SWAP3 SWAP2 POP POP JUMP JUMPDEST PUSH1 0x0 DUP1 PUSH1 0x40 DUP4 DUP6 SUB SLT ISZERO PUSH2 0x12B7 JUMPI PUSH2 0x12B6 PUSH2 0x1207 JUMP JUMPDEST JUMPDEST PUSH1 0x0 PUSH2 0x12C5 DUP6 DUP3 DUP7 ADD PUSH2 0x1255 JUMP JUMPDEST SWAP3 POP POP PUSH1 0x20 PUSH2 0x12D6 DUP6 DUP3 DUP7 ADD PUSH2 0x128B JUMP JUMPDEST SWAP2 POP POP SWAP3 POP SWAP3 SWAP1 POP JUMP JUMPDEST PUSH1 0x0 DUP2 ISZERO ISZERO SWAP1 POP SWAP2 SWAP1 POP JUMP JUMPDEST PUSH2 0x12F5 DUP2 PUSH2 0x12E0 JUMP JUMPDEST DUP3 MSTORE POP POP JUMP JUMPDEST PUSH1 0x0 PUSH1 0x20 DUP3 ADD SWAP1 POP PUSH2 0x1310 PUSH1 0x0 DUP4 ADD DUP5 PUSH2 0x12EC JUMP JUMPDEST SWAP3 SWAP2 POP POP JUMP JUMPDEST PUSH2 0x131F DUP2 PUSH2 0x126A JUMP JUMPDEST DUP3 MSTORE POP POP JUMP JUMPDEST PUSH1 0x0 PUSH1 0x20 DUP3 ADD SWAP1 POP PUSH2 0x133A PUSH1 0x0 DUP4 ADD DUP5 PUSH2 0x1316 JUMP JUMPDEST SWAP3 SWAP2 POP POP JUMP JUMPDEST PUSH1 0x0 PUSH2 0x134B DUP3 PUSH2 0x120C JUMP JUMPDEST SWAP1 POP SWAP2 SWAP1 POP JUMP JUMPDEST PUSH2 0x135B DUP2 PUSH2 0x1340 JUMP JUMPDEST DUP2 EQ PUSH2 0x1366 JUMPI PUSH1 0x0 DUP1 REVERT JUMPDEST POP JUMP JUMPDEST PUSH1 0x0 DUP2 CALLDATALOAD SWAP1 POP PUSH2 0x1378 DUP2 PUSH2 0x1352 JUMP JUMPDEST SWAP3 SWAP2 POP POP JUMP JUMPDEST PUSH1 0x0 DUP1 PUSH1 0x40 DUP4 DUP6 SUB SLT ISZERO PUSH2 0x1395 JUMPI PUSH2 0x1394 PUSH2 0x1207 JUMP JUMPDEST JUMPDEST PUSH1 0x0 PUSH2 0x13A3 DUP6 DUP3 DUP7 ADD PUSH2 0x1369 JUMP JUMPDEST SWAP3 POP POP PUSH1 0x20 PUSH2 0x13B4 DUP6 DUP3 DUP7 ADD PUSH2 0x128B JUMP JUMPDEST SWAP2 POP POP SWAP3 POP SWAP3 SWAP1 POP JUMP JUMPDEST PUSH1 0x0 DUP1 PUSH1 0x0 PUSH1 0x60 DUP5 DUP7 SUB SLT ISZERO PUSH2 0x13D7 JUMPI PUSH2 0x13D6 PUSH2 0x1207 JUMP JUMPDEST JUMPDEST PUSH1 0x0 PUSH2 0x13E5 DUP7 DUP3 DUP8 ADD PUSH2 0x1255 JUMP JUMPDEST SWAP4 POP POP PUSH1 0x20 PUSH2 0x13F6 DUP7 DUP3 DUP8 ADD PUSH2 0x1255 JUMP JUMPDEST SWAP3 POP POP PUSH1 0x40 PUSH2 0x1407 DUP7 DUP3 DUP8 ADD PUSH2 0x128B JUMP JUMPDEST SWAP2 POP POP SWAP3 POP SWAP3 POP SWAP3 JUMP JUMPDEST PUSH1 0x0 PUSH1 0xFF DUP3 AND SWAP1 POP SWAP2 SWAP1 POP JUMP JUMPDEST PUSH2 0x1427 DUP2 PUSH2 0x1411 JUMP JUMPDEST DUP3 MSTORE POP POP JUMP JUMPDEST PUSH1 0x0 PUSH1 0x20 DUP3 ADD SWAP1 POP PUSH2 0x1442 PUSH1 0x0 DUP4 ADD DUP5 PUSH2 0x141E JUMP JUMPDEST SWAP3 SWAP2 POP POP JUMP JUMPDEST PUSH1 0x0 PUSH1 0x20 DUP3 DUP5 SUB SLT ISZERO PUSH2 0x145E JUMPI PUSH2 0x145D PUSH2 0x1207 JUMP JUMPDEST JUMPDEST PUSH1 0x0 PUSH2 0x146C DUP5 DUP3 DUP6 ADD PUSH2 0x1255 JUMP JUMPDEST SWAP2 POP POP SWAP3 SWAP2 POP POP JUMP JUMPDEST PUSH2 0x147E DUP2 PUSH2 0x122C JUMP JUMPDEST DUP3 MSTORE POP POP JUMP JUMPDEST PUSH1 0x0 PUSH1 0x20 DUP3 ADD SWAP1 POP PUSH2 0x1499 PUSH1 0x0 DUP4 ADD DUP5 PUSH2 0x1475 JUMP JUMPDEST SWAP3 SWAP2 POP POP JUMP JUMPDEST PUSH1 0x0 DUP1 PUSH1 0x40 DUP4 DUP6 SUB SLT ISZERO PUSH2 0x14B6 JUMPI PUSH2 0x14B5 PUSH2 0x1207 JUMP JUMPDEST JUMPDEST PUSH1 0x0 PUSH2 0x14C4 DUP6 DUP3 DUP7 ADD PUSH2 0x1255 JUMP JUMPDEST SWAP3 POP POP PUSH1 0x20 PUSH2 0x14D5 DUP6 DUP3 DUP7 ADD PUSH2 0x1255 JUMP JUMPDEST SWAP2 POP POP SWAP3 POP SWAP3 SWAP1 POP JUMP JUMPDEST PUSH32 0x4E487B7100000000000000000000000000000000000000000000000000000000 PUSH1 0x0 MSTORE PUSH1 0x22 PUSH1 0x4 MSTORE PUSH1 0x24 PUSH1 0x0 REVERT JUMPDEST PUSH1 0x0 PUSH1 0x2 DUP3 DIV SWAP1 POP PUSH1 0x1 DUP3 AND DUP1 PUSH2 0x1526 JUMPI PUSH1 0x7F DUP3 AND SWAP2 POP JUMPDEST PUSH1 0x20 DUP3 LT DUP2 SUB PUSH2 0x1539 JUMPI PUSH2 0x1538 PUSH2 0x14DF JUMP JUMPDEST JUMPDEST POP SWAP2 SWAP1 POP JUMP JUMPDEST PUSH32 0x436F6D707261206D656E6F7320546F6B656E73206F207061676120636F6E206D PUSH1 0x0 DUP3 ADD MSTORE PUSH32 0x6173204574686572732E00000000000000000000000000000000000000000000 PUSH1 0x20 DUP3 ADD MSTORE POP JUMP JUMPDEST PUSH1 0x0 PUSH2 0x159B PUSH1 0x2A DUP4 PUSH2 0x1160 JUMP JUMPDEST SWAP2 POP PUSH2 0x15A6 DUP3 PUSH2 0x153F JUMP JUMPDEST PUSH1 0x40 DUP3 ADD SWAP1 POP SWAP2 SWAP1 POP JUMP JUMPDEST PUSH1 0x0 PUSH1 0x20 DUP3 ADD SWAP1 POP DUP2 DUP2 SUB PUSH1 0x0 DUP4 ADD MSTORE PUSH2 0x15CA DUP2 PUSH2 0x158E JUMP JUMPDEST SWAP1 POP SWAP2 SWAP1 POP JUMP JUMPDEST PUSH32 0x4E487B7100000000000000000000000000000000000000000000000000000000 PUSH1 0x0 MSTORE PUSH1 0x11 PUSH1 0x4 MSTORE PUSH1 0x24 PUSH1 0x0 REVERT JUMPDEST PUSH1 0x0 PUSH2 0x160B DUP3 PUSH2 0x126A JUMP JUMPDEST SWAP2 POP PUSH2 0x1616 DUP4 PUSH2 0x126A JUMP JUMPDEST SWAP3 POP DUP3 DUP3 SUB SWAP1 POP DUP2 DUP2 GT ISZERO PUSH2 0x162E JUMPI PUSH2 0x162D PUSH2 0x15D1 JUMP JUMPDEST JUMPDEST SWAP3 SWAP2 POP POP JUMP JUMPDEST PUSH1 0x0 DUP2 MLOAD SWAP1 POP PUSH2 0x1643 DUP2 PUSH2 0x1274 JUMP JUMPDEST SWAP3 SWAP2 POP POP JUMP JUMPDEST PUSH1 0x0 PUSH1 0x20 DUP3 DUP5 SUB SLT ISZERO PUSH2 0x165F JUMPI PUSH2 0x165E PUSH2 0x1207 JUMP JUMPDEST JUMPDEST PUSH1 0x0 PUSH2 0x166D DUP5 DUP3 DUP6 ADD PUSH2 0x1634 JUMP JUMPDEST SWAP2 POP POP SWAP3 SWAP2 POP POP JUMP JUMPDEST PUSH32 0x436F6D70726120756E206E756D65726F20646520546F6B656E73206164656375 PUSH1 0x0 DUP3 ADD MSTORE PUSH32 0x61646F2E00000000000000000000000000000000000000000000000000000000 PUSH1 0x20 DUP3 ADD MSTORE POP JUMP JUMPDEST PUSH1 0x0 PUSH2 0x16D2 PUSH1 0x24 DUP4 PUSH2 0x1160 JUMP JUMPDEST SWAP2 POP PUSH2 0x16DD DUP3 PUSH2 0x1676 JUMP JUMPDEST PUSH1 0x40 DUP3 ADD SWAP1 POP SWAP2 SWAP1 POP JUMP JUMPDEST PUSH1 0x0 PUSH1 0x20 DUP3 ADD SWAP1 POP DUP2 DUP2 SUB PUSH1 0x0 DUP4 ADD MSTORE PUSH2 0x1701 DUP2 PUSH2 0x16C5 JUMP JUMPDEST SWAP1 POP SWAP2 SWAP1 POP JUMP JUMPDEST PUSH1 0x0 DUP2 SWAP1 POP SWAP2 SWAP1 POP JUMP JUMPDEST PUSH1 0x0 PUSH2 0x172D PUSH2 0x1728 PUSH2 0x1723 DUP5 PUSH2 0x120C JUMP JUMPDEST PUSH2 0x1708 JUMP JUMPDEST PUSH2 0x120C JUMP JUMPDEST SWAP1 POP SWAP2 SWAP1 POP JUMP JUMPDEST PUSH1 0x0 PUSH2 0x173F DUP3 PUSH2 0x1712 JUMP JUMPDEST SWAP1 POP SWAP2 SWAP1 POP JUMP JUMPDEST PUSH1 0x0 PUSH2 0x1751 DUP3 PUSH2 0x1734 JUMP JUMPDEST SWAP1 POP SWAP2 SWAP1 POP JUMP JUMPDEST PUSH2 0x1761 DUP2 PUSH2 0x1746 JUMP JUMPDEST DUP3 MSTORE POP POP JUMP JUMPDEST PUSH1 0x0 PUSH1 0x40 DUP3 ADD SWAP1 POP PUSH2 0x177C PUSH1 0x0 DUP4 ADD DUP6 PUSH2 0x1758 JUMP JUMPDEST PUSH2 0x1789 PUSH1 0x20 DUP4 ADD DUP5 PUSH2 0x1316 JUMP JUMPDEST SWAP4 SWAP3 POP POP POP JUMP JUMPDEST PUSH2 0x1799 DUP2 PUSH2 0x12E0 JUMP JUMPDEST DUP2 EQ PUSH2 0x17A4 JUMPI PUSH1 0x0 DUP1 REVERT JUMPDEST POP JUMP JUMPDEST PUSH1 0x0 DUP2 MLOAD SWAP1 POP PUSH2 0x17B6 DUP2 PUSH2 0x1790 JUMP JUMPDEST SWAP3 SWAP2 POP POP JUMP JUMPDEST PUSH1 0x0 PUSH1 0x20 DUP3 DUP5 SUB SLT ISZERO PUSH2 0x17D2 JUMPI PUSH2 0x17D1 PUSH2 0x1207 JUMP JUMPDEST JUMPDEST PUSH1 0x0 PUSH2 0x17E0 DUP5 DUP3 DUP6 ADD PUSH2 0x17A7 JUMP JUMPDEST SWAP2 POP POP SWAP3 SWAP2 POP POP JUMP JUMPDEST PUSH1 0x0 PUSH2 0x17F4 DUP3 PUSH2 0x126A JUMP JUMPDEST SWAP2 POP PUSH2 0x17FF DUP4 PUSH2 0x126A JUMP JUMPDEST SWAP3 POP DUP3 DUP3 ADD SWAP1 POP DUP1 DUP3 GT ISZERO PUSH2 0x1817 JUMPI PUSH2 0x1816 PUSH2 0x15D1 JUMP JUMPDEST JUMPDEST SWAP3 SWAP2 POP POP JUMP JUMPDEST PUSH32 0x536F6C6F20656C2070726F706965746172696F20707565646520656A65637574 PUSH1 0x0 DUP3 ADD MSTORE PUSH32 0x617220657374612066756E63696F6E2E00000000000000000000000000000000 PUSH1 0x20 DUP3 ADD MSTORE POP JUMP JUMPDEST PUSH1 0x0 PUSH2 0x1879 PUSH1 0x30 DUP4 PUSH2 0x1160 JUMP JUMPDEST SWAP2 POP PUSH2 0x1884 DUP3 PUSH2 0x181D JUMP JUMPDEST PUSH1 0x40 DUP3 ADD SWAP1 POP SWAP2 SWAP1 POP JUMP JUMPDEST PUSH1 0x0 PUSH1 0x20 DUP3 ADD SWAP1 POP DUP2 DUP2 SUB PUSH1 0x0 DUP4 ADD MSTORE PUSH2 0x18A8 DUP2 PUSH2 0x186C JUMP JUMPDEST SWAP1 POP SWAP2 SWAP1 POP JUMP JUMPDEST PUSH32 0x45524332303A2064656372656173656420616C6C6F77616E63652062656C6F77 PUSH1 0x0 DUP3 ADD MSTORE PUSH32 0x207A65726F000000000000000000000000000000000000000000000000000000 PUSH1 0x20 DUP3 ADD MSTORE POP JUMP JUMPDEST PUSH1 0x0 PUSH2 0x190B PUSH1 0x25 DUP4 PUSH2 0x1160 JUMP JUMPDEST SWAP2 POP PUSH2 0x1916 DUP3 PUSH2 0x18AF JUMP JUMPDEST PUSH1 0x40 DUP3 ADD SWAP1 POP SWAP2 SWAP1 POP JUMP JUMPDEST PUSH1 0x0 PUSH1 0x20 DUP3 ADD SWAP1 POP DUP2 DUP2 SUB PUSH1 0x0 DUP4 ADD MSTORE PUSH2 0x193A DUP2 PUSH2 0x18FE JUMP JUMPDEST SWAP1 POP SWAP2 SWAP1 POP JUMP JUMPDEST PUSH32 0x45524332303A20617070726F76652066726F6D20746865207A65726F20616464 PUSH1 0x0 DUP3 ADD MSTORE PUSH32 0x7265737300000000000000000000000000000000000000000000000000000000 PUSH1 0x20 DUP3 ADD MSTORE POP JUMP JUMPDEST PUSH1 0x0 PUSH2 0x199D PUSH1 0x24 DUP4 PUSH2 0x1160 JUMP JUMPDEST SWAP2 POP PUSH2 0x19A8 DUP3 PUSH2 0x1941 JUMP JUMPDEST PUSH1 0x40 DUP3 ADD SWAP1 POP SWAP2 SWAP1 POP JUMP JUMPDEST PUSH1 0x0 PUSH1 0x20 DUP3 ADD SWAP1 POP DUP2 DUP2 SUB PUSH1 0x0 DUP4 ADD MSTORE PUSH2 0x19CC DUP2 PUSH2 0x1990 JUMP JUMPDEST SWAP1 POP SWAP2 SWAP1 POP JUMP JUMPDEST PUSH32 0x45524332303A20617070726F766520746F20746865207A65726F206164647265 PUSH1 0x0 DUP3 ADD MSTORE PUSH32 0x7373000000000000000000000000000000000000000000000000000000000000 PUSH1 0x20 DUP3 ADD MSTORE POP JUMP JUMPDEST PUSH1 0x0 PUSH2 0x1A2F PUSH1 0x22 DUP4 PUSH2 0x1160 JUMP JUMPDEST SWAP2 POP PUSH2 0x1A3A DUP3 PUSH2 0x19D3 JUMP JUMPDEST PUSH1 0x40 DUP3 ADD SWAP1 POP SWAP2 SWAP1 POP JUMP JUMPDEST PUSH1 0x0 PUSH1 0x20 DUP3 ADD SWAP1 POP DUP2 DUP2 SUB PUSH1 0x0 DUP4 ADD MSTORE PUSH2 0x1A5E DUP2 PUSH2 0x1A22 JUMP JUMPDEST SWAP1 POP SWAP2 SWAP1 POP JUMP JUMPDEST PUSH1 0x0 PUSH2 0x1A70 DUP3 PUSH2 0x126A JUMP JUMPDEST SWAP2 POP PUSH2 0x1A7B DUP4 PUSH2 0x126A JUMP JUMPDEST SWAP3 POP DUP3 DUP3 MUL PUSH2 0x1A89 DUP2 PUSH2 0x126A JUMP JUMPDEST SWAP2 POP DUP3 DUP3 DIV DUP5 EQ DUP4 ISZERO OR PUSH2 0x1AA0 JUMPI PUSH2 0x1A9F PUSH2 0x15D1 JUMP JUMPDEST JUMPDEST POP SWAP3 SWAP2 POP POP JUMP JUMPDEST PUSH32 0x4E487B7100000000000000000000000000000000000000000000000000000000 PUSH1 0x0 MSTORE PUSH1 0x12 PUSH1 0x4 MSTORE PUSH1 0x24 PUSH1 0x0 REVERT JUMPDEST PUSH1 0x0 PUSH2 0x1AE1 DUP3 PUSH2 0x126A JUMP JUMPDEST SWAP2 POP PUSH2 0x1AEC DUP4 PUSH2 0x126A JUMP JUMPDEST SWAP3 POP DUP3 PUSH2 0x1AFC JUMPI PUSH2 0x1AFB PUSH2 0x1AA7 JUMP JUMPDEST JUMPDEST DUP3 DUP3 DIV SWAP1 POP SWAP3 SWAP2 POP POP JUMP JUMPDEST PUSH32 0x45524332303A20696E73756666696369656E7420616C6C6F77616E6365000000 PUSH1 0x0 DUP3 ADD MSTORE POP JUMP JUMPDEST PUSH1 0x0 PUSH2 0x1B3D PUSH1 0x1D DUP4 PUSH2 0x1160 JUMP JUMPDEST SWAP2 POP PUSH2 0x1B48 DUP3 PUSH2 0x1B07 JUMP JUMPDEST PUSH1 0x20 DUP3 ADD SWAP1 POP SWAP2 SWAP1 POP JUMP JUMPDEST PUSH1 0x0 PUSH1 0x20 DUP3 ADD SWAP1 POP DUP2 DUP2 SUB PUSH1 0x0 DUP4 ADD MSTORE PUSH2 0x1B6C DUP2 PUSH2 0x1B30 JUMP JUMPDEST SWAP1 POP SWAP2 SWAP1 POP JUMP JUMPDEST PUSH32 0x45524332303A207472616E736665722066726F6D20746865207A65726F206164 PUSH1 0x0 DUP3 ADD MSTORE PUSH32 0x6472657373000000000000000000000000000000000000000000000000000000 PUSH1 0x20 DUP3 ADD MSTORE POP JUMP JUMPDEST PUSH1 0x0 PUSH2 0x1BCF PUSH1 0x25 DUP4 PUSH2 0x1160 JUMP JUMPDEST SWAP2 POP PUSH2 0x1BDA DUP3 PUSH2 0x1B73 JUMP JUMPDEST PUSH1 0x40 DUP3 ADD SWAP1 POP SWAP2 SWAP1 POP JUMP JUMPDEST PUSH1 0x0 PUSH1 0x20 DUP3 ADD SWAP1 POP DUP2 DUP2 SUB PUSH1 0x0 DUP4 ADD MSTORE PUSH2 0x1BFE DUP2 PUSH2 0x1BC2 JUMP JUMPDEST SWAP1 POP SWAP2 SWAP1 POP JUMP JUMPDEST PUSH32 0x45524332303A207472616E7366657220746F20746865207A65726F2061646472 PUSH1 0x0 DUP3 ADD MSTORE PUSH32 0x6573730000000000000000000000000000000000000000000000000000000000 PUSH1 0x20 DUP3 ADD MSTORE POP JUMP JUMPDEST PUSH1 0x0 PUSH2 0x1C61 PUSH1 0x23 DUP4 PUSH2 0x1160 JUMP JUMPDEST SWAP2 POP PUSH2 0x1C6C DUP3 PUSH2 0x1C05 JUMP JUMPDEST PUSH1 0x40 DUP3 ADD SWAP1 POP SWAP2 SWAP1 POP JUMP JUMPDEST PUSH1 0x0 PUSH1 0x20 DUP3 ADD SWAP1 POP DUP2 DUP2 SUB PUSH1 0x0 DUP4 ADD MSTORE PUSH2 0x1C90 DUP2 PUSH2 0x1C54 JUMP JUMPDEST SWAP1 POP SWAP2 SWAP1 POP JUMP JUMPDEST PUSH32 0x45524332303A207472616E7366657220616D6F756E7420657863656564732062 PUSH1 0x0 DUP3 ADD MSTORE PUSH32 0x616C616E63650000000000000000000000000000000000000000000000000000 PUSH1 0x20 DUP3 ADD MSTORE POP JUMP JUMPDEST PUSH1 0x0 PUSH2 0x1CF3 PUSH1 0x26 DUP4 PUSH2 0x1160 JUMP JUMPDEST SWAP2 POP PUSH2 0x1CFE DUP3 PUSH2 0x1C97 JUMP JUMPDEST PUSH1 0x40 DUP3 ADD SWAP1 POP SWAP2 SWAP1 POP JUMP JUMPDEST PUSH1 0x0 PUSH1 0x20 DUP3 ADD SWAP1 POP DUP2 DUP2 SUB PUSH1 0x0 DUP4 ADD MSTORE PUSH2 0x1D22 DUP2 PUSH2 0x1CE6 JUMP JUMPDEST SWAP1 POP SWAP2 SWAP1 POP JUMP JUMPDEST PUSH32 0x45524332303A206D696E7420746F20746865207A65726F206164647265737300 PUSH1 0x0 DUP3 ADD MSTORE POP JUMP JUMPDEST PUSH1 0x0 PUSH2 0x1D5F PUSH1 0x1F DUP4 PUSH2 0x1160 JUMP JUMPDEST SWAP2 POP PUSH2 0x1D6A DUP3 PUSH2 0x1D29 JUMP JUMPDEST PUSH1 0x20 DUP3 ADD SWAP1 POP SWAP2 SWAP1 POP JUMP JUMPDEST PUSH1 0x0 PUSH1 0x20 DUP3 ADD SWAP1 POP DUP2 DUP2 SUB PUSH1 0x0 DUP4 ADD MSTORE PUSH2 0x1D8E DUP2 PUSH2 0x1D52 JUMP JUMPDEST SWAP1 POP SWAP2 SWAP1 POP JUMP INVALID LOG2 PUSH5 0x6970667358 0x22 SLT KECCAK256 PUSH8 0xB492F1FF48550846 0xA9 PUSH5 0x97724D5E0D 0x26 0xA8 SWAP8 0xC2 PUSH24 0x43EF7E8DBAE6637C91F4AA64736F6C634300081200330000 "
				},
				"gasEstimates": {
					"creation": {
						"codeDepositCost": "1525400",
						"executionCost": "infinite",
						"totalCost": "infinite"
					},
					"external": {
						"GeneraTokens(address,uint256)": "infinite",
						"allowance(address,address)": "infinite",
						"approve(address,uint256)": "infinite",
						"balanceOf(address)": "2864",
						"contrato()": "2602",
						"decimals()": "388",
						"decreaseAllowance(address,uint256)": "infinite",
						"increaseAllowance(address,uint256)": "infinite",
						"intermediary()": "2559",
						"name()": "infinite",
						"owner()": "2581",
						"paymentValue(address,uint256)": "infinite",
						"symbol()": "infinite",
						"totalSupply()": "2505",
						"transfer(address,uint256)": "infinite",
						"transferFrom(address,address,uint256)": "infinite"
					},
					"internal": {
						"costValue(uint256)": "infinite",
						"valueTransaction(uint256)": "infinite"
					}
				},
				"methodIdentifiers": {
					"GeneraTokens(address,uint256)": "40c92fde",
					"allowance(address,address)": "dd62ed3e",
					"approve(address,uint256)": "095ea7b3",
					"balanceOf(address)": "70a08231",
					"contrato()": "e1a01e67",
					"decimals()": "313ce567",
					"decreaseAllowance(address,uint256)": "a457c2d7",
					"increaseAllowance(address,uint256)": "39509351",
					"intermediary()": "79fd022e",
					"name()": "06fdde03",
					"owner()": "8da5cb5b",
					"paymentValue(address,uint256)": "21208530",
					"symbol()": "95d89b41",
					"totalSupply()": "18160ddd",
					"transfer(address,uint256)": "a9059cbb",
					"transferFrom(address,address,uint256)": "23b872dd"
				}
			},
			"storageLayout": {
				"storage": [
					{
						"astId": 185,
						"contract": "contracts/Main.sol:Main",
						"label": "_balances",
						"offset": 0,
						"slot": "0",
						"type": "t_mapping(t_address,t_uint256)"
					},
					{
						"astId": 191,
						"contract": "contracts/Main.sol:Main",
						"label": "_allowances",
						"offset": 0,
						"slot": "1",
						"type": "t_mapping(t_address,t_mapping(t_address,t_uint256))"
					},
					{
						"astId": 193,
						"contract": "contracts/Main.sol:Main",
						"label": "_totalSupply",
						"offset": 0,
						"slot": "2",
						"type": "t_uint256"
					},
					{
						"astId": 195,
						"contract": "contracts/Main.sol:Main",
						"label": "_name",
						"offset": 0,
						"slot": "3",
						"type": "t_string_storage"
					},
					{
						"astId": 197,
						"contract": "contracts/Main.sol:Main",
						"label": "_symbol",
						"offset": 0,
						"slot": "4",
						"type": "t_string_storage"
					},
					{
						"astId": 6,
						"contract": "contracts/Main.sol:Main",
						"label": "owner",
						"offset": 0,
						"slot": "5",
						"type": "t_address"
					},
					{
						"astId": 8,
						"contract": "contracts/Main.sol:Main",
						"label": "contrato",
						"offset": 0,
						"slot": "6",
						"type": "t_address"
					},
					{
						"astId": 11,
						"contract": "contracts/Main.sol:Main",
						"label": "intermediary",
						"offset": 0,
						"slot": "7",
						"type": "t_address"
					}
				],
				"types": {
					"t_address": {
						"encoding": "inplace",
						"label": "address",
						"numberOfBytes": "20"
					},
					"t_mapping(t_address,t_mapping(t_address,t_uint256))": {
						"encoding": "mapping",
						"key": "t_address",
						"label": "mapping(address => mapping(address => uint256))",
						"numberOfBytes": "32",
						"value": "t_mapping(t_address,t_uint256)"
					},
					"t_mapping(t_address,t_uint256)": {
						"encoding": "mapping",
						"key": "t_address",
						"label": "mapping(address => uint256)",
						"numberOfBytes": "32",
						"value": "t_uint256"
					},
					"t_string_storage": {
						"encoding": "bytes",
						"label": "string",
						"numberOfBytes": "32"
					},
					"t_uint256": {
						"encoding": "inplace",
						"label": "uint256",
						"numberOfBytes": "32"
					}
				}
			},
			"userdoc": {
				"kind": "user",
				"methods": {},
				"version": 1
			}
		}
	}
}