{
	"contracts/Main.sol": {
		"Main": {
			"abi": [
				{
					"inputs": [],
					"stateMutability": "payable",
					"type": "constructor"
				},
				{
					"anonymous": false,
					"inputs": [
						{
							"indexed": true,
							"internalType": "address",
							"name": "owner",
							"type": "address"
						},
						{
							"indexed": true,
							"internalType": "address",
							"name": "spender",
							"type": "address"
						},
						{
							"indexed": false,
							"internalType": "uint256",
							"name": "value",
							"type": "uint256"
						}
					],
					"name": "Approval",
					"type": "event"
				},
				{
					"anonymous": false,
					"inputs": [
						{
							"indexed": false,
							"internalType": "address",
							"name": "from",
							"type": "address"
						},
						{
							"indexed": false,
							"internalType": "uint256",
							"name": "amount",
							"type": "uint256"
						}
					],
					"name": "PaymentReceived",
					"type": "event"
				},
				{
					"anonymous": false,
					"inputs": [
						{
							"indexed": false,
							"internalType": "address",
							"name": "to",
							"type": "address"
						},
						{
							"indexed": false,
							"internalType": "uint256",
							"name": "amount",
							"type": "uint256"
						}
					],
					"name": "PaymentSent",
					"type": "event"
				},
				{
					"anonymous": false,
					"inputs": [
						{
							"indexed": true,
							"internalType": "address",
							"name": "from",
							"type": "address"
						},
						{
							"indexed": true,
							"internalType": "address",
							"name": "to",
							"type": "address"
						},
						{
							"indexed": false,
							"internalType": "uint256",
							"name": "value",
							"type": "uint256"
						}
					],
					"name": "Transfer",
					"type": "event"
				},
				{
					"inputs": [
						{
							"internalType": "address",
							"name": "account",
							"type": "address"
						},
						{
							"internalType": "uint256",
							"name": "amount",
							"type": "uint256"
						}
					],
					"name": "GeneraTokens",
					"outputs": [],
					"stateMutability": "nonpayable",
					"type": "function"
				},
				{
					"inputs": [
						{
							"internalType": "uint256",
							"name": "amount",
							"type": "uint256"
						}
					],
					"name": "addEthToBalance",
					"outputs": [],
					"stateMutability": "payable",
					"type": "function"
				},
				{
					"inputs": [
						{
							"internalType": "address",
							"name": "owner",
							"type": "address"
						},
						{
							"internalType": "address",
							"name": "spender",
							"type": "address"
						}
					],
					"name": "allowance",
					"outputs": [
						{
							"internalType": "uint256",
							"name": "",
							"type": "uint256"
						}
					],
					"stateMutability": "view",
					"type": "function"
				},
				{
					"inputs": [
						{
							"internalType": "address",
							"name": "spender",
							"type": "address"
						},
						{
							"internalType": "uint256",
							"name": "amount",
							"type": "uint256"
						}
					],
					"name": "approve",
					"outputs": [
						{
							"internalType": "bool",
							"name": "",
							"type": "bool"
						}
					],
					"stateMutability": "nonpayable",
					"type": "function"
				},
				{
					"inputs": [
						{
							"internalType": "address",
							"name": "account",
							"type": "address"
						}
					],
					"name": "balanceOf",
					"outputs": [
						{
							"internalType": "uint256",
							"name": "",
							"type": "uint256"
						}
					],
					"stateMutability": "view",
					"type": "function"
				},
				{
					"inputs": [],
					"name": "contrato",
					"outputs": [
						{
							"internalType": "address",
							"name": "",
							"type": "address"
						}
					],
					"stateMutability": "view",
					"type": "function"
				},
				{
					"inputs": [],
					"name": "decimals",
					"outputs": [
						{
							"internalType": "uint8",
							"name": "",
							"type": "uint8"
						}
					],
					"stateMutability": "view",
					"type": "function"
				},
				{
					"inputs": [
						{
							"internalType": "address",
							"name": "spender",
							"type": "address"
						},
						{
							"internalType": "uint256",
							"name": "subtractedValue",
							"type": "uint256"
						}
					],
					"name": "decreaseAllowance",
					"outputs": [
						{
							"internalType": "bool",
							"name": "",
							"type": "bool"
						}
					],
					"stateMutability": "nonpayable",
					"type": "function"
				},
				{
					"inputs": [],
					"name": "getContractBalance",
					"outputs": [
						{
							"internalType": "uint256",
							"name": "",
							"type": "uint256"
						}
					],
					"stateMutability": "view",
					"type": "function"
				},
				{
					"inputs": [
						{
							"internalType": "address",
							"name": "spender",
							"type": "address"
						},
						{
							"internalType": "uint256",
							"name": "addedValue",
							"type": "uint256"
						}
					],
					"name": "increaseAllowance",
					"outputs": [
						{
							"internalType": "bool",
							"name": "",
							"type": "bool"
						}
					],
					"stateMutability": "nonpayable",
					"type": "function"
				},
				{
					"inputs": [],
					"name": "intermediary",
					"outputs": [
						{
							"internalType": "address",
							"name": "",
							"type": "address"
						}
					],
					"stateMutability": "view",
					"type": "function"
				},
				{
					"inputs": [],
					"name": "name",
					"outputs": [
						{
							"internalType": "string",
							"name": "",
							"type": "string"
						}
					],
					"stateMutability": "view",
					"type": "function"
				},
				{
					"inputs": [],
					"name": "owner",
					"outputs": [
						{
							"internalType": "address",
							"name": "",
							"type": "address"
						}
					],
					"stateMutability": "view",
					"type": "function"
				},
				{
					"inputs": [
						{
							"internalType": "address",
							"name": "_to",
							"type": "address"
						},
						{
							"internalType": "uint256",
							"name": "_value",
							"type": "uint256"
						}
					],
					"name": "paymentValue",
					"outputs": [],
					"stateMutability": "payable",
					"type": "function"
				},
				{
					"inputs": [],
					"name": "symbol",
					"outputs": [
						{
							"internalType": "string",
							"name": "",
							"type": "string"
						}
					],
					"stateMutability": "view",
					"type": "function"
				},
				{
					"inputs": [],
					"name": "totalSupply",
					"outputs": [
						{
							"internalType": "uint256",
							"name": "",
							"type": "uint256"
						}
					],
					"stateMutability": "view",
					"type": "function"
				},
				{
					"inputs": [
						{
							"internalType": "address",
							"name": "to",
							"type": "address"
						},
						{
							"internalType": "uint256",
							"name": "amount",
							"type": "uint256"
						}
					],
					"name": "transfer",
					"outputs": [
						{
							"internalType": "bool",
							"name": "",
							"type": "bool"
						}
					],
					"stateMutability": "nonpayable",
					"type": "function"
				},
				{
					"inputs": [
						{
							"internalType": "address",
							"name": "from",
							"type": "address"
						},
						{
							"internalType": "address",
							"name": "to",
							"type": "address"
						},
						{
							"internalType": "uint256",
							"name": "amount",
							"type": "uint256"
						}
					],
					"name": "transferFrom",
					"outputs": [
						{
							"internalType": "bool",
							"name": "",
							"type": "bool"
						}
					],
					"stateMutability": "nonpayable",
					"type": "function"
				},
				{
					"inputs": [
						{
							"internalType": "address",
							"name": "sender",
							"type": "address"
						},
						{
							"internalType": "address",
							"name": "receiver",
							"type": "address"
						},
						{
							"internalType": "uint256",
							"name": "numTokens",
							"type": "uint256"
						}
					],
					"name": "transferenciaPago",
					"outputs": [
						{
							"internalType": "bool",
							"name": "",
							"type": "bool"
						}
					],
					"stateMutability": "nonpayable",
					"type": "function"
				}
			],
			"devdoc": {
				"events": {
					"Approval(address,address,uint256)": {
						"details": "Emitted when the allowance of a `spender` for an `owner` is set by a call to {approve}. `value` is the new allowance."
					},
					"Transfer(address,address,uint256)": {
						"details": "Emitted when `value` tokens are moved from one account (`from`) to another (`to`). Note that `value` may be zero."
					}
				},
				"kind": "dev",
				"methods": {
					"allowance(address,address)": {
						"details": "See {IERC20-allowance}."
					},
					"approve(address,uint256)": {
						"details": "See {IERC20-approve}. NOTE: If `amount` is the maximum `uint256`, the allowance is not updated on `transferFrom`. This is semantically equivalent to an infinite approval. Requirements: - `spender` cannot be the zero address."
					},
					"balanceOf(address)": {
						"details": "See {IERC20-balanceOf}."
					},
					"decimals()": {
						"details": "Returns the number of decimals used to get its user representation. For example, if `decimals` equals `2`, a balance of `505` tokens should be displayed to a user as `5.05` (`505 / 10 ** 2`). Tokens usually opt for a value of 18, imitating the relationship between Ether and Wei. This is the default value returned by this function, unless it's overridden. NOTE: This information is only used for _display_ purposes: it in no way affects any of the arithmetic of the contract, including {IERC20-balanceOf} and {IERC20-transfer}."
					},
					"decreaseAllowance(address,uint256)": {
						"details": "Atomically decreases the allowance granted to `spender` by the caller. This is an alternative to {approve} that can be used as a mitigation for problems described in {IERC20-approve}. Emits an {Approval} event indicating the updated allowance. Requirements: - `spender` cannot be the zero address. - `spender` must have allowance for the caller of at least `subtractedValue`."
					},
					"increaseAllowance(address,uint256)": {
						"details": "Atomically increases the allowance granted to `spender` by the caller. This is an alternative to {approve} that can be used as a mitigation for problems described in {IERC20-approve}. Emits an {Approval} event indicating the updated allowance. Requirements: - `spender` cannot be the zero address."
					},
					"name()": {
						"details": "Returns the name of the token."
					},
					"symbol()": {
						"details": "Returns the symbol of the token, usually a shorter version of the name."
					},
					"totalSupply()": {
						"details": "See {IERC20-totalSupply}."
					},
					"transfer(address,uint256)": {
						"details": "See {IERC20-transfer}. Requirements: - `to` cannot be the zero address. - the caller must have a balance of at least `amount`."
					},
					"transferFrom(address,address,uint256)": {
						"details": "See {IERC20-transferFrom}. Emits an {Approval} event indicating the updated allowance. This is not required by the EIP. See the note at the beginning of {ERC20}. NOTE: Does not update the allowance if the current allowance is the maximum `uint256`. Requirements: - `from` and `to` cannot be the zero address. - `from` must have a balance of at least `amount`. - the caller must have allowance for ``from``'s tokens of at least `amount`."
					}
				},
				"version": 1
			},
			"evm": {
				"assembly": "    /* \"contracts/Main.sol\":121:3259  contract Main is ERC20 {... */\n  mstore(0x40, 0x80)\n    /* \"contracts/Main.sol\":692:734  0x72f188f3767fE8FE835b7b22191f28A3b19562D1 */\n  0x72f188f3767fe8fe835b7b22191f28a3b19562d1\n    /* \"contracts/Main.sol\":662:734  address public intermediary = 0x72f188f3767fE8FE835b7b22191f28A3b19562D1 */\n  0x07\n  exp(0x0100, 0x00)\n  dup2\n  sload\n  dup2\n  0xffffffffffffffffffffffffffffffffffffffff\n  mul\n  not\n  and\n  swap1\n  dup4\n  0xffffffffffffffffffffffffffffffffffffffff\n  and\n  mul\n  or\n  swap1\n  sstore\n  pop\n    /* \"contracts/token/ERC20.sol\":733:849  constructor(string memory name_, string memory symbol_) {... */\n  mload(0x40)\n  dup1\n  0x40\n  add\n  0x40\n  mstore\n  dup1\n  0x0b\n  dup2\n  mstore\n  0x20\n  add\n  0x466c69784361706974616c000000000000000000000000000000000000000000\n  dup2\n  mstore\n  pop\n  mload(0x40)\n  dup1\n  0x40\n  add\n  0x40\n  mstore\n  dup1\n  0x03\n  dup2\n  mstore\n  0x20\n  add\n  0x464c580000000000000000000000000000000000000000000000000000000000\n  dup2\n  mstore\n  pop\n    /* \"contracts/token/ERC20.sol\":808:813  name_ */\n  dup2\n    /* \"contracts/token/ERC20.sol\":800:805  _name */\n  0x03\n    /* \"contracts/token/ERC20.sol\":800:813  _name = name_ */\n  swap1\n  dup2\n  tag_4\n  swap2\n  swap1\n  tag_5\n  jump\t// in\ntag_4:\n  pop\n    /* \"contracts/token/ERC20.sol\":834:841  symbol_ */\n  dup1\n    /* \"contracts/token/ERC20.sol\":824:831  _symbol */\n  0x04\n    /* \"contracts/token/ERC20.sol\":824:841  _symbol = symbol_ */\n  swap1\n  dup2\n  tag_6\n  swap2\n  swap1\n  tag_5\n  jump\t// in\ntag_6:\n  pop\n    /* \"contracts/token/ERC20.sol\":733:849  constructor(string memory name_, string memory symbol_) {... */\n  pop\n  pop\n    /* \"contracts/Main.sol\":1039:1049  msg.sender */\n  caller\n    /* \"contracts/Main.sol\":1031:1036  owner */\n  0x05\n  0x00\n    /* \"contracts/Main.sol\":1031:1049  owner = msg.sender */\n  0x0100\n  exp\n  dup2\n  sload\n  dup2\n  0xffffffffffffffffffffffffffffffffffffffff\n  mul\n  not\n  and\n  swap1\n  dup4\n  0xffffffffffffffffffffffffffffffffffffffff\n  and\n  mul\n  or\n  swap1\n  sstore\n  pop\n    /* \"contracts/Main.sol\":1079:1083  this */\n  address\n    /* \"contracts/Main.sol\":1060:1068  contrato */\n  0x06\n  0x00\n    /* \"contracts/Main.sol\":1060:1084  contrato = address(this) */\n  0x0100\n  exp\n  dup2\n  sload\n  dup2\n  0xffffffffffffffffffffffffffffffffffffffff\n  mul\n  not\n  and\n  swap1\n  dup4\n  0xffffffffffffffffffffffffffffffffffffffff\n  and\n  mul\n  or\n  swap1\n  sstore\n  pop\n    /* \"contracts/Main.sol\":121:3259  contract Main is ERC20 {... */\n  jump(tag_8)\n    /* \"#utility.yul\":7:106   */\ntag_9:\n    /* \"#utility.yul\":59:65   */\n  0x00\n    /* \"#utility.yul\":93:98   */\n  dup2\n    /* \"#utility.yul\":87:99   */\n  mload\n    /* \"#utility.yul\":77:99   */\n  swap1\n  pop\n    /* \"#utility.yul\":7:106   */\n  swap2\n  swap1\n  pop\n  jump\t// out\n    /* \"#utility.yul\":112:292   */\ntag_10:\n    /* \"#utility.yul\":160:237   */\n  0x4e487b7100000000000000000000000000000000000000000000000000000000\n    /* \"#utility.yul\":157:158   */\n  0x00\n    /* \"#utility.yul\":150:238   */\n  mstore\n    /* \"#utility.yul\":257:261   */\n  0x41\n    /* \"#utility.yul\":254:255   */\n  0x04\n    /* \"#utility.yul\":247:262   */\n  mstore\n    /* \"#utility.yul\":281:285   */\n  0x24\n    /* \"#utility.yul\":278:279   */\n  0x00\n    /* \"#utility.yul\":271:286   */\n  revert\n    /* \"#utility.yul\":298:478   */\ntag_11:\n    /* \"#utility.yul\":346:423   */\n  0x4e487b7100000000000000000000000000000000000000000000000000000000\n    /* \"#utility.yul\":343:344   */\n  0x00\n    /* \"#utility.yul\":336:424   */\n  mstore\n    /* \"#utility.yul\":443:447   */\n  0x22\n    /* \"#utility.yul\":440:441   */\n  0x04\n    /* \"#utility.yul\":433:448   */\n  mstore\n    /* \"#utility.yul\":467:471   */\n  0x24\n    /* \"#utility.yul\":464:465   */\n  0x00\n    /* \"#utility.yul\":457:472   */\n  revert\n    /* \"#utility.yul\":484:804   */\ntag_12:\n    /* \"#utility.yul\":528:534   */\n  0x00\n    /* \"#utility.yul\":565:566   */\n  0x02\n    /* \"#utility.yul\":559:563   */\n  dup3\n    /* \"#utility.yul\":555:567   */\n  div\n    /* \"#utility.yul\":545:567   */\n  swap1\n  pop\n    /* \"#utility.yul\":612:613   */\n  0x01\n    /* \"#utility.yul\":606:610   */\n  dup3\n    /* \"#utility.yul\":602:614   */\n  and\n    /* \"#utility.yul\":633:651   */\n  dup1\n    /* \"#utility.yul\":623:704   */\n  tag_34\n  jumpi\n    /* \"#utility.yul\":689:693   */\n  0x7f\n    /* \"#utility.yul\":681:687   */\n  dup3\n    /* \"#utility.yul\":677:694   */\n  and\n    /* \"#utility.yul\":667:694   */\n  swap2\n  pop\n    /* \"#utility.yul\":623:704   */\ntag_34:\n    /* \"#utility.yul\":751:753   */\n  0x20\n    /* \"#utility.yul\":743:749   */\n  dup3\n    /* \"#utility.yul\":740:754   */\n  lt\n    /* \"#utility.yul\":720:738   */\n  dup2\n    /* \"#utility.yul\":717:755   */\n  sub\n    /* \"#utility.yul\":714:798   */\n  tag_35\n  jumpi\n    /* \"#utility.yul\":770:788   */\n  tag_36\n  tag_11\n  jump\t// in\ntag_36:\n    /* \"#utility.yul\":714:798   */\ntag_35:\n    /* \"#utility.yul\":535:804   */\n  pop\n    /* \"#utility.yul\":484:804   */\n  swap2\n  swap1\n  pop\n  jump\t// out\n    /* \"#utility.yul\":810:951   */\ntag_13:\n    /* \"#utility.yul\":859:863   */\n  0x00\n    /* \"#utility.yul\":882:885   */\n  dup2\n    /* \"#utility.yul\":874:885   */\n  swap1\n  pop\n    /* \"#utility.yul\":905:908   */\n  dup2\n    /* \"#utility.yul\":902:903   */\n  0x00\n    /* \"#utility.yul\":895:909   */\n  mstore\n    /* \"#utility.yul\":939:943   */\n  0x20\n    /* \"#utility.yul\":936:937   */\n  0x00\n    /* \"#utility.yul\":926:944   */\n  keccak256\n    /* \"#utility.yul\":918:944   */\n  swap1\n  pop\n    /* \"#utility.yul\":810:951   */\n  swap2\n  swap1\n  pop\n  jump\t// out\n    /* \"#utility.yul\":957:1050   */\ntag_14:\n    /* \"#utility.yul\":994:1000   */\n  0x00\n    /* \"#utility.yul\":1041:1043   */\n  0x20\n    /* \"#utility.yul\":1036:1038   */\n  0x1f\n    /* \"#utility.yul\":1029:1034   */\n  dup4\n    /* \"#utility.yul\":1025:1039   */\n  add\n    /* \"#utility.yul\":1021:1044   */\n  div\n    /* \"#utility.yul\":1011:1044   */\n  swap1\n  pop\n    /* \"#utility.yul\":957:1050   */\n  swap2\n  swap1\n  pop\n  jump\t// out\n    /* \"#utility.yul\":1056:1163   */\ntag_15:\n    /* \"#utility.yul\":1100:1108   */\n  0x00\n    /* \"#utility.yul\":1150:1155   */\n  dup3\n    /* \"#utility.yul\":1144:1148   */\n  dup3\n    /* \"#utility.yul\":1140:1156   */\n  shl\n    /* \"#utility.yul\":1119:1156   */\n  swap1\n  pop\n    /* \"#utility.yul\":1056:1163   */\n  swap3\n  swap2\n  pop\n  pop\n  jump\t// out\n    /* \"#utility.yul\":1169:1562   */\ntag_16:\n    /* \"#utility.yul\":1238:1244   */\n  0x00\n    /* \"#utility.yul\":1288:1289   */\n  0x08\n    /* \"#utility.yul\":1276:1286   */\n  dup4\n    /* \"#utility.yul\":1272:1290   */\n  mul\n    /* \"#utility.yul\":1311:1408   */\n  tag_41\n    /* \"#utility.yul\":1341:1407   */\n  0xffffffffffffffffffffffffffffffffffffffffffffffffffffffffffffffff\n    /* \"#utility.yul\":1330:1339   */\n  dup3\n    /* \"#utility.yul\":1311:1408   */\n  tag_15\n  jump\t// in\ntag_41:\n    /* \"#utility.yul\":1429:1468   */\n  tag_42\n    /* \"#utility.yul\":1459:1467   */\n  dup7\n    /* \"#utility.yul\":1448:1457   */\n  dup4\n    /* \"#utility.yul\":1429:1468   */\n  tag_15\n  jump\t// in\ntag_42:\n    /* \"#utility.yul\":1417:1468   */\n  swap6\n  pop\n    /* \"#utility.yul\":1501:1505   */\n  dup1\n    /* \"#utility.yul\":1497:1506   */\n  not\n    /* \"#utility.yul\":1490:1495   */\n  dup5\n    /* \"#utility.yul\":1486:1507   */\n  and\n    /* \"#utility.yul\":1477:1507   */\n  swap4\n  pop\n    /* \"#utility.yul\":1550:1554   */\n  dup1\n    /* \"#utility.yul\":1540:1548   */\n  dup7\n    /* \"#utility.yul\":1536:1555   */\n  and\n    /* \"#utility.yul\":1529:1534   */\n  dup5\n    /* \"#utility.yul\":1526:1556   */\n  or\n    /* \"#utility.yul\":1516:1556   */\n  swap3\n  pop\n    /* \"#utility.yul\":1245:1562   */\n  pop\n  pop\n    /* \"#utility.yul\":1169:1562   */\n  swap4\n  swap3\n  pop\n  pop\n  pop\n  jump\t// out\n    /* \"#utility.yul\":1568:1645   */\ntag_17:\n    /* \"#utility.yul\":1605:1612   */\n  0x00\n    /* \"#utility.yul\":1634:1639   */\n  dup2\n    /* \"#utility.yul\":1623:1639   */\n  swap1\n  pop\n    /* \"#utility.yul\":1568:1645   */\n  swap2\n  swap1\n  pop\n  jump\t// out\n    /* \"#utility.yul\":1651:1711   */\ntag_18:\n    /* \"#utility.yul\":1679:1682   */\n  0x00\n    /* \"#utility.yul\":1700:1705   */\n  dup2\n    /* \"#utility.yul\":1693:1705   */\n  swap1\n  pop\n    /* \"#utility.yul\":1651:1711   */\n  swap2\n  swap1\n  pop\n  jump\t// out\n    /* \"#utility.yul\":1717:1859   */\ntag_19:\n    /* \"#utility.yul\":1767:1776   */\n  0x00\n    /* \"#utility.yul\":1800:1853   */\n  tag_46\n    /* \"#utility.yul\":1818:1852   */\n  tag_47\n    /* \"#utility.yul\":1827:1851   */\n  tag_48\n    /* \"#utility.yul\":1845:1850   */\n  dup5\n    /* \"#utility.yul\":1827:1851   */\n  tag_17\n  jump\t// in\ntag_48:\n    /* \"#utility.yul\":1818:1852   */\n  tag_18\n  jump\t// in\ntag_47:\n    /* \"#utility.yul\":1800:1853   */\n  tag_17\n  jump\t// in\ntag_46:\n    /* \"#utility.yul\":1787:1853   */\n  swap1\n  pop\n    /* \"#utility.yul\":1717:1859   */\n  swap2\n  swap1\n  pop\n  jump\t// out\n    /* \"#utility.yul\":1865:1940   */\ntag_20:\n    /* \"#utility.yul\":1908:1911   */\n  0x00\n    /* \"#utility.yul\":1929:1934   */\n  dup2\n    /* \"#utility.yul\":1922:1934   */\n  swap1\n  pop\n    /* \"#utility.yul\":1865:1940   */\n  swap2\n  swap1\n  pop\n  jump\t// out\n    /* \"#utility.yul\":1946:2215   */\ntag_21:\n    /* \"#utility.yul\":2056:2095   */\n  tag_51\n    /* \"#utility.yul\":2087:2094   */\n  dup4\n    /* \"#utility.yul\":2056:2095   */\n  tag_19\n  jump\t// in\ntag_51:\n    /* \"#utility.yul\":2117:2208   */\n  tag_52\n    /* \"#utility.yul\":2166:2207   */\n  tag_53\n    /* \"#utility.yul\":2190:2206   */\n  dup3\n    /* \"#utility.yul\":2166:2207   */\n  tag_20\n  jump\t// in\ntag_53:\n    /* \"#utility.yul\":2158:2164   */\n  dup5\n    /* \"#utility.yul\":2151:2155   */\n  dup5\n    /* \"#utility.yul\":2145:2156   */\n  sload\n    /* \"#utility.yul\":2117:2208   */\n  tag_16\n  jump\t// in\ntag_52:\n    /* \"#utility.yul\":2111:2115   */\n  dup3\n    /* \"#utility.yul\":2104:2209   */\n  sstore\n    /* \"#utility.yul\":2022:2215   */\n  pop\n    /* \"#utility.yul\":1946:2215   */\n  pop\n  pop\n  pop\n  jump\t// out\n    /* \"#utility.yul\":2221:2294   */\ntag_22:\n    /* \"#utility.yul\":2266:2269   */\n  0x00\n    /* \"#utility.yul\":2221:2294   */\n  swap1\n  jump\t// out\n    /* \"#utility.yul\":2300:2489   */\ntag_23:\n    /* \"#utility.yul\":2377:2409   */\n  tag_56\n  tag_22\n  jump\t// in\ntag_56:\n    /* \"#utility.yul\":2418:2483   */\n  tag_57\n    /* \"#utility.yul\":2476:2482   */\n  dup2\n    /* \"#utility.yul\":2468:2474   */\n  dup5\n    /* \"#utility.yul\":2462:2466   */\n  dup5\n    /* \"#utility.yul\":2418:2483   */\n  tag_21\n  jump\t// in\ntag_57:\n    /* \"#utility.yul\":2353:2489   */\n  pop\n    /* \"#utility.yul\":2300:2489   */\n  pop\n  pop\n  jump\t// out\n    /* \"#utility.yul\":2495:2681   */\ntag_24:\n    /* \"#utility.yul\":2555:2675   */\ntag_59:\n    /* \"#utility.yul\":2572:2575   */\n  dup2\n    /* \"#utility.yul\":2565:2570   */\n  dup2\n    /* \"#utility.yul\":2562:2576   */\n  lt\n    /* \"#utility.yul\":2555:2675   */\n  iszero\n  tag_61\n  jumpi\n    /* \"#utility.yul\":2626:2665   */\n  tag_62\n    /* \"#utility.yul\":2663:2664   */\n  0x00\n    /* \"#utility.yul\":2656:2661   */\n  dup3\n    /* \"#utility.yul\":2626:2665   */\n  tag_23\n  jump\t// in\ntag_62:\n    /* \"#utility.yul\":2599:2600   */\n  0x01\n    /* \"#utility.yul\":2592:2597   */\n  dup2\n    /* \"#utility.yul\":2588:2601   */\n  add\n    /* \"#utility.yul\":2579:2601   */\n  swap1\n  pop\n    /* \"#utility.yul\":2555:2675   */\n  jump(tag_59)\ntag_61:\n    /* \"#utility.yul\":2495:2681   */\n  pop\n  pop\n  jump\t// out\n    /* \"#utility.yul\":2687:3230   */\ntag_25:\n    /* \"#utility.yul\":2788:2790   */\n  0x1f\n    /* \"#utility.yul\":2783:2786   */\n  dup3\n    /* \"#utility.yul\":2780:2791   */\n  gt\n    /* \"#utility.yul\":2777:3223   */\n  iszero\n  tag_64\n  jumpi\n    /* \"#utility.yul\":2822:2860   */\n  tag_65\n    /* \"#utility.yul\":2854:2859   */\n  dup2\n    /* \"#utility.yul\":2822:2860   */\n  tag_13\n  jump\t// in\ntag_65:\n    /* \"#utility.yul\":2906:2935   */\n  tag_66\n    /* \"#utility.yul\":2924:2934   */\n  dup5\n    /* \"#utility.yul\":2906:2935   */\n  tag_14\n  jump\t// in\ntag_66:\n    /* \"#utility.yul\":2896:2904   */\n  dup2\n    /* \"#utility.yul\":2892:2936   */\n  add\n    /* \"#utility.yul\":3089:3091   */\n  0x20\n    /* \"#utility.yul\":3077:3087   */\n  dup6\n    /* \"#utility.yul\":3074:3092   */\n  lt\n    /* \"#utility.yul\":3071:3120   */\n  iszero\n  tag_67\n  jumpi\n    /* \"#utility.yul\":3110:3118   */\n  dup2\n    /* \"#utility.yul\":3095:3118   */\n  swap1\n  pop\n    /* \"#utility.yul\":3071:3120   */\ntag_67:\n    /* \"#utility.yul\":3133:3213   */\n  tag_68\n    /* \"#utility.yul\":3189:3211   */\n  tag_69\n    /* \"#utility.yul\":3207:3210   */\n  dup6\n    /* \"#utility.yul\":3189:3211   */\n  tag_14\n  jump\t// in\ntag_69:\n    /* \"#utility.yul\":3179:3187   */\n  dup4\n    /* \"#utility.yul\":3175:3212   */\n  add\n    /* \"#utility.yul\":3162:3173   */\n  dup3\n    /* \"#utility.yul\":3133:3213   */\n  tag_24\n  jump\t// in\ntag_68:\n    /* \"#utility.yul\":2792:3223   */\n  pop\n  pop\n    /* \"#utility.yul\":2777:3223   */\ntag_64:\n    /* \"#utility.yul\":2687:3230   */\n  pop\n  pop\n  pop\n  jump\t// out\n    /* \"#utility.yul\":3236:3353   */\ntag_26:\n    /* \"#utility.yul\":3290:3298   */\n  0x00\n    /* \"#utility.yul\":3340:3345   */\n  dup3\n    /* \"#utility.yul\":3334:3338   */\n  dup3\n    /* \"#utility.yul\":3330:3346   */\n  shr\n    /* \"#utility.yul\":3309:3346   */\n  swap1\n  pop\n    /* \"#utility.yul\":3236:3353   */\n  swap3\n  swap2\n  pop\n  pop\n  jump\t// out\n    /* \"#utility.yul\":3359:3528   */\ntag_27:\n    /* \"#utility.yul\":3403:3409   */\n  0x00\n    /* \"#utility.yul\":3436:3487   */\n  tag_72\n    /* \"#utility.yul\":3484:3485   */\n  0x00\n    /* \"#utility.yul\":3480:3486   */\n  not\n    /* \"#utility.yul\":3472:3477   */\n  dup5\n    /* \"#utility.yul\":3469:3470   */\n  0x08\n    /* \"#utility.yul\":3465:3478   */\n  mul\n    /* \"#utility.yul\":3436:3487   */\n  tag_26\n  jump\t// in\ntag_72:\n    /* \"#utility.yul\":3432:3488   */\n  not\n    /* \"#utility.yul\":3517:3521   */\n  dup1\n    /* \"#utility.yul\":3511:3515   */\n  dup4\n    /* \"#utility.yul\":3507:3522   */\n  and\n    /* \"#utility.yul\":3497:3522   */\n  swap2\n  pop\n    /* \"#utility.yul\":3410:3528   */\n  pop\n    /* \"#utility.yul\":3359:3528   */\n  swap3\n  swap2\n  pop\n  pop\n  jump\t// out\n    /* \"#utility.yul\":3533:3828   */\ntag_28:\n    /* \"#utility.yul\":3609:3613   */\n  0x00\n    /* \"#utility.yul\":3755:3784   */\n  tag_74\n    /* \"#utility.yul\":3780:3783   */\n  dup4\n    /* \"#utility.yul\":3774:3778   */\n  dup4\n    /* \"#utility.yul\":3755:3784   */\n  tag_27\n  jump\t// in\ntag_74:\n    /* \"#utility.yul\":3747:3784   */\n  swap2\n  pop\n    /* \"#utility.yul\":3817:3820   */\n  dup3\n    /* \"#utility.yul\":3814:3815   */\n  0x02\n    /* \"#utility.yul\":3810:3821   */\n  mul\n    /* \"#utility.yul\":3804:3808   */\n  dup3\n    /* \"#utility.yul\":3801:3822   */\n  or\n    /* \"#utility.yul\":3793:3822   */\n  swap1\n  pop\n    /* \"#utility.yul\":3533:3828   */\n  swap3\n  swap2\n  pop\n  pop\n  jump\t// out\n    /* \"#utility.yul\":3833:5228   */\ntag_5:\n    /* \"#utility.yul\":3950:3987   */\n  tag_76\n    /* \"#utility.yul\":3983:3986   */\n  dup3\n    /* \"#utility.yul\":3950:3987   */\n  tag_9\n  jump\t// in\ntag_76:\n    /* \"#utility.yul\":4052:4070   */\n  0xffffffffffffffff\n    /* \"#utility.yul\":4044:4050   */\n  dup2\n    /* \"#utility.yul\":4041:4071   */\n  gt\n    /* \"#utility.yul\":4038:4094   */\n  iszero\n  tag_77\n  jumpi\n    /* \"#utility.yul\":4074:4092   */\n  tag_78\n  tag_10\n  jump\t// in\ntag_78:\n    /* \"#utility.yul\":4038:4094   */\ntag_77:\n    /* \"#utility.yul\":4118:4156   */\n  tag_79\n    /* \"#utility.yul\":4150:4154   */\n  dup3\n    /* \"#utility.yul\":4144:4155   */\n  sload\n    /* \"#utility.yul\":4118:4156   */\n  tag_12\n  jump\t// in\ntag_79:\n    /* \"#utility.yul\":4203:4270   */\n  tag_80\n    /* \"#utility.yul\":4263:4269   */\n  dup3\n    /* \"#utility.yul\":4255:4261   */\n  dup3\n    /* \"#utility.yul\":4249:4253   */\n  dup6\n    /* \"#utility.yul\":4203:4270   */\n  tag_25\n  jump\t// in\ntag_80:\n    /* \"#utility.yul\":4297:4298   */\n  0x00\n    /* \"#utility.yul\":4321:4325   */\n  0x20\n    /* \"#utility.yul\":4308:4325   */\n  swap1\n  pop\n    /* \"#utility.yul\":4353:4355   */\n  0x1f\n    /* \"#utility.yul\":4345:4351   */\n  dup4\n    /* \"#utility.yul\":4342:4356   */\n  gt\n    /* \"#utility.yul\":4370:4371   */\n  0x01\n    /* \"#utility.yul\":4365:4983   */\n  dup2\n  eq\n  tag_82\n  jumpi\n    /* \"#utility.yul\":5027:5028   */\n  0x00\n    /* \"#utility.yul\":5044:5050   */\n  dup5\n    /* \"#utility.yul\":5041:5118   */\n  iszero\n  tag_83\n  jumpi\n    /* \"#utility.yul\":5093:5102   */\n  dup3\n    /* \"#utility.yul\":5088:5091   */\n  dup8\n    /* \"#utility.yul\":5084:5103   */\n  add\n    /* \"#utility.yul\":5078:5104   */\n  mload\n    /* \"#utility.yul\":5069:5104   */\n  swap1\n  pop\n    /* \"#utility.yul\":5041:5118   */\ntag_83:\n    /* \"#utility.yul\":5144:5211   */\n  tag_84\n    /* \"#utility.yul\":5204:5210   */\n  dup6\n    /* \"#utility.yul\":5197:5202   */\n  dup3\n    /* \"#utility.yul\":5144:5211   */\n  tag_28\n  jump\t// in\ntag_84:\n    /* \"#utility.yul\":5138:5142   */\n  dup7\n    /* \"#utility.yul\":5131:5212   */\n  sstore\n    /* \"#utility.yul\":5000:5222   */\n  pop\n    /* \"#utility.yul\":4335:5222   */\n  jump(tag_81)\n    /* \"#utility.yul\":4365:4983   */\ntag_82:\n    /* \"#utility.yul\":4417:4421   */\n  0x1f\n    /* \"#utility.yul\":4413:4422   */\n  not\n    /* \"#utility.yul\":4405:4411   */\n  dup5\n    /* \"#utility.yul\":4401:4423   */\n  and\n    /* \"#utility.yul\":4451:4488   */\n  tag_85\n    /* \"#utility.yul\":4483:4487   */\n  dup7\n    /* \"#utility.yul\":4451:4488   */\n  tag_13\n  jump\t// in\ntag_85:\n    /* \"#utility.yul\":4510:4511   */\n  0x00\n    /* \"#utility.yul\":4524:4732   */\ntag_86:\n    /* \"#utility.yul\":4538:4545   */\n  dup3\n    /* \"#utility.yul\":4535:4536   */\n  dup2\n    /* \"#utility.yul\":4532:4546   */\n  lt\n    /* \"#utility.yul\":4524:4732   */\n  iszero\n  tag_88\n  jumpi\n    /* \"#utility.yul\":4617:4626   */\n  dup5\n    /* \"#utility.yul\":4612:4615   */\n  dup10\n    /* \"#utility.yul\":4608:4627   */\n  add\n    /* \"#utility.yul\":4602:4628   */\n  mload\n    /* \"#utility.yul\":4594:4600   */\n  dup3\n    /* \"#utility.yul\":4587:4629   */\n  sstore\n    /* \"#utility.yul\":4668:4669   */\n  0x01\n    /* \"#utility.yul\":4660:4666   */\n  dup3\n    /* \"#utility.yul\":4656:4670   */\n  add\n    /* \"#utility.yul\":4646:4670   */\n  swap2\n  pop\n    /* \"#utility.yul\":4715:4717   */\n  0x20\n    /* \"#utility.yul\":4704:4713   */\n  dup6\n    /* \"#utility.yul\":4700:4718   */\n  add\n    /* \"#utility.yul\":4687:4718   */\n  swap5\n  pop\n    /* \"#utility.yul\":4561:4565   */\n  0x20\n    /* \"#utility.yul\":4558:4559   */\n  dup2\n    /* \"#utility.yul\":4554:4566   */\n  add\n    /* \"#utility.yul\":4549:4566   */\n  swap1\n  pop\n    /* \"#utility.yul\":4524:4732   */\n  jump(tag_86)\ntag_88:\n    /* \"#utility.yul\":4760:4766   */\n  dup7\n    /* \"#utility.yul\":4751:4758   */\n  dup4\n    /* \"#utility.yul\":4748:4767   */\n  lt\n    /* \"#utility.yul\":4745:4924   */\n  iszero\n  tag_89\n  jumpi\n    /* \"#utility.yul\":4818:4827   */\n  dup5\n    /* \"#utility.yul\":4813:4816   */\n  dup10\n    /* \"#utility.yul\":4809:4828   */\n  add\n    /* \"#utility.yul\":4803:4829   */\n  mload\n    /* \"#utility.yul\":4861:4909   */\n  tag_90\n    /* \"#utility.yul\":4903:4907   */\n  0x1f\n    /* \"#utility.yul\":4895:4901   */\n  dup10\n    /* \"#utility.yul\":4891:4908   */\n  and\n    /* \"#utility.yul\":4880:4889   */\n  dup3\n    /* \"#utility.yul\":4861:4909   */\n  tag_27\n  jump\t// in\ntag_90:\n    /* \"#utility.yul\":4853:4859   */\n  dup4\n    /* \"#utility.yul\":4846:4910   */\n  sstore\n    /* \"#utility.yul\":4768:4924   */\n  pop\n    /* \"#utility.yul\":4745:4924   */\ntag_89:\n    /* \"#utility.yul\":4970:4971   */\n  0x01\n    /* \"#utility.yul\":4966:4967   */\n  0x02\n    /* \"#utility.yul\":4958:4964   */\n  dup9\n    /* \"#utility.yul\":4954:4968   */\n  mul\n    /* \"#utility.yul\":4950:4972   */\n  add\n    /* \"#utility.yul\":4944:4948   */\n  dup9\n    /* \"#utility.yul\":4937:4973   */\n  sstore\n    /* \"#utility.yul\":4372:4983   */\n  pop\n  pop\n  pop\n    /* \"#utility.yul\":4335:5222   */\ntag_81:\n  pop\n    /* \"#utility.yul\":3925:5228   */\n  pop\n  pop\n  pop\n    /* \"#utility.yul\":3833:5228   */\n  pop\n  pop\n  jump\t// out\n    /* \"contracts/Main.sol\":121:3259  contract Main is ERC20 {... */\ntag_8:\n  dataSize(sub_0)\n  dup1\n  dataOffset(sub_0)\n  0x00\n  codecopy\n  0x00\n  return\nstop\n\nsub_0: assembly {\n        /* \"contracts/Main.sol\":121:3259  contract Main is ERC20 {... */\n      mstore(0x40, 0x80)\n      jumpi(tag_1, lt(calldatasize, 0x04))\n      shr(0xe0, calldataload(0x00))\n      dup1\n      0x70a08231\n      gt\n      tag_21\n      jumpi\n      dup1\n      0xa457c2d7\n      gt\n      tag_22\n      jumpi\n      dup1\n      0xa457c2d7\n      eq\n      tag_16\n      jumpi\n      dup1\n      0xa9059cbb\n      eq\n      tag_17\n      jumpi\n      dup1\n      0xdd62ed3e\n      eq\n      tag_18\n      jumpi\n      dup1\n      0xe1a01e67\n      eq\n      tag_19\n      jumpi\n      dup1\n      0xfecb6b1e\n      eq\n      tag_20\n      jumpi\n      jump(tag_1)\n    tag_22:\n      dup1\n      0x70a08231\n      eq\n      tag_11\n      jumpi\n      dup1\n      0x79fd022e\n      eq\n      tag_12\n      jumpi\n      dup1\n      0x7cdf37f9\n      eq\n      tag_13\n      jumpi\n      dup1\n      0x8da5cb5b\n      eq\n      tag_14\n      jumpi\n      dup1\n      0x95d89b41\n      eq\n      tag_15\n      jumpi\n      jump(tag_1)\n    tag_21:\n      dup1\n      0x23b872dd\n      gt\n      tag_23\n      jumpi\n      dup1\n      0x23b872dd\n      eq\n      tag_6\n      jumpi\n      dup1\n      0x313ce567\n      eq\n      tag_7\n      jumpi\n      dup1\n      0x39509351\n      eq\n      tag_8\n      jumpi\n      dup1\n      0x40c92fde\n      eq\n      tag_9\n      jumpi\n      dup1\n      0x6f9fb98a\n      eq\n      tag_10\n      jumpi\n      jump(tag_1)\n    tag_23:\n      dup1\n      0x06fdde03\n      eq\n      tag_2\n      jumpi\n      dup1\n      0x095ea7b3\n      eq\n      tag_3\n      jumpi\n      dup1\n      0x18160ddd\n      eq\n      tag_4\n      jumpi\n      dup1\n      0x21208530\n      eq\n      tag_5\n      jumpi\n    tag_1:\n      0x00\n      dup1\n      revert\n        /* \"contracts/token/ERC20.sol\":919:1019  function name() public view virtual override returns (string memory) {... */\n    tag_2:\n      callvalue\n      dup1\n      iszero\n      tag_24\n      jumpi\n      0x00\n      dup1\n      revert\n    tag_24:\n      pop\n      tag_25\n      tag_26\n      jump\t// in\n    tag_25:\n      mload(0x40)\n      tag_27\n      swap2\n      swap1\n      tag_28\n      jump\t// in\n    tag_27:\n      mload(0x40)\n      dup1\n      swap2\n      sub\n      swap1\n      return\n        /* \"contracts/token/ERC20.sol\":3279:3480  function approve(address spender, uint256 amount) public virtual override returns (bool) {... */\n    tag_3:\n      callvalue\n      dup1\n      iszero\n      tag_29\n      jumpi\n      0x00\n      dup1\n      revert\n    tag_29:\n      pop\n      tag_30\n      0x04\n      dup1\n      calldatasize\n      sub\n      dup2\n      add\n      swap1\n      tag_31\n      swap2\n      swap1\n      tag_32\n      jump\t// in\n    tag_31:\n      tag_33\n      jump\t// in\n    tag_30:\n      mload(0x40)\n      tag_34\n      swap2\n      swap1\n      tag_35\n      jump\t// in\n    tag_34:\n      mload(0x40)\n      dup1\n      swap2\n      sub\n      swap1\n      return\n        /* \"contracts/token/ERC20.sol\":2048:2156  function totalSupply() public view virtual override returns (uint256) {... */\n    tag_4:\n      callvalue\n      dup1\n      iszero\n      tag_36\n      jumpi\n      0x00\n      dup1\n      revert\n    tag_36:\n      pop\n      tag_37\n      tag_38\n      jump\t// in\n    tag_37:\n      mload(0x40)\n      tag_39\n      swap2\n      swap1\n      tag_40\n      jump\t// in\n    tag_39:\n      mload(0x40)\n      dup1\n      swap2\n      sub\n      swap1\n      return\n        /* \"contracts/Main.sol\":2014:3076  function paymentValue(address _to, uint256 _value) external payable {... */\n    tag_5:\n      tag_41\n      0x04\n      dup1\n      calldatasize\n      sub\n      dup2\n      add\n      swap1\n      tag_42\n      swap2\n      swap1\n      tag_32\n      jump\t// in\n    tag_42:\n      tag_43\n      jump\t// in\n    tag_41:\n      stop\n        /* \"contracts/token/ERC20.sol\":4060:4321  function transferFrom(address from, address to, uint256 amount) public virtual override returns (bool) {... */\n    tag_6:\n      callvalue\n      dup1\n      iszero\n      tag_44\n      jumpi\n      0x00\n      dup1\n      revert\n    tag_44:\n      pop\n      tag_45\n      0x04\n      dup1\n      calldatasize\n      sub\n      dup2\n      add\n      swap1\n      tag_46\n      swap2\n      swap1\n      tag_47\n      jump\t// in\n    tag_46:\n      tag_48\n      jump\t// in\n    tag_45:\n      mload(0x40)\n      tag_49\n      swap2\n      swap1\n      tag_35\n      jump\t// in\n    tag_49:\n      mload(0x40)\n      dup1\n      swap2\n      sub\n      swap1\n      return\n        /* \"contracts/token/ERC20.sol\":1890:1983  function decimals() public view virtual override returns (uint8) {... */\n    tag_7:\n      callvalue\n      dup1\n      iszero\n      tag_50\n      jumpi\n      0x00\n      dup1\n      revert\n    tag_50:\n      pop\n      tag_51\n      tag_52\n      jump\t// in\n    tag_51:\n      mload(0x40)\n      tag_53\n      swap2\n      swap1\n      tag_54\n      jump\t// in\n    tag_53:\n      mload(0x40)\n      dup1\n      swap2\n      sub\n      swap1\n      return\n        /* \"contracts/token/ERC20.sol\":4730:4968  function increaseAllowance(address spender, uint256 addedValue) public virtual returns (bool) {... */\n    tag_8:\n      callvalue\n      dup1\n      iszero\n      tag_55\n      jumpi\n      0x00\n      dup1\n      revert\n    tag_55:\n      pop\n      tag_56\n      0x04\n      dup1\n      calldatasize\n      sub\n      dup2\n      add\n      swap1\n      tag_57\n      swap2\n      swap1\n      tag_32\n      jump\t// in\n    tag_57:\n      tag_58\n      jump\t// in\n    tag_56:\n      mload(0x40)\n      tag_59\n      swap2\n      swap1\n      tag_35\n      jump\t// in\n    tag_59:\n      mload(0x40)\n      dup1\n      swap2\n      sub\n      swap1\n      return\n        /* \"contracts/Main.sol\":1895:2006  function GeneraTokens(address account, uint amount) public onlyOwner(){... */\n    tag_9:\n      callvalue\n      dup1\n      iszero\n      tag_60\n      jumpi\n      0x00\n      dup1\n      revert\n    tag_60:\n      pop\n      tag_61\n      0x04\n      dup1\n      calldatasize\n      sub\n      dup2\n      add\n      swap1\n      tag_62\n      swap2\n      swap1\n      tag_32\n      jump\t// in\n    tag_62:\n      tag_63\n      jump\t// in\n    tag_61:\n      stop\n        /* \"contracts/Main.sol\":3138:3242  function getContractBalance() external view returns (uint256) {... */\n    tag_10:\n      callvalue\n      dup1\n      iszero\n      tag_64\n      jumpi\n      0x00\n      dup1\n      revert\n    tag_64:\n      pop\n      tag_65\n      tag_66\n      jump\t// in\n    tag_65:\n      mload(0x40)\n      tag_67\n      swap2\n      swap1\n      tag_40\n      jump\t// in\n    tag_67:\n      mload(0x40)\n      dup1\n      swap2\n      sub\n      swap1\n      return\n        /* \"contracts/token/ERC20.sol\":2219:2346  function balanceOf(address account) public view virtual override returns (uint256) {... */\n    tag_11:\n      callvalue\n      dup1\n      iszero\n      tag_68\n      jumpi\n      0x00\n      dup1\n      revert\n    tag_68:\n      pop\n      tag_69\n      0x04\n      dup1\n      calldatasize\n      sub\n      dup2\n      add\n      swap1\n      tag_70\n      swap2\n      swap1\n      tag_71\n      jump\t// in\n    tag_70:\n      tag_72\n      jump\t// in\n    tag_69:\n      mload(0x40)\n      tag_73\n      swap2\n      swap1\n      tag_40\n      jump\t// in\n    tag_73:\n      mload(0x40)\n      dup1\n      swap2\n      sub\n      swap1\n      return\n        /* \"contracts/Main.sol\":662:734  address public intermediary = 0x72f188f3767fE8FE835b7b22191f28A3b19562D1 */\n    tag_12:\n      callvalue\n      dup1\n      iszero\n      tag_74\n      jumpi\n      0x00\n      dup1\n      revert\n    tag_74:\n      pop\n      tag_75\n      tag_76\n      jump\t// in\n    tag_75:\n      mload(0x40)\n      tag_77\n      swap2\n      swap1\n      tag_78\n      jump\t// in\n    tag_77:\n      mload(0x40)\n      dup1\n      swap2\n      sub\n      swap1\n      return\n        /* \"contracts/Main.sol\":1109:1351  function addEthToBalance(uint amount) payable external  {... */\n    tag_13:\n      tag_79\n      0x04\n      dup1\n      calldatasize\n      sub\n      dup2\n      add\n      swap1\n      tag_80\n      swap2\n      swap1\n      tag_81\n      jump\t// in\n    tag_80:\n      tag_82\n      jump\t// in\n    tag_79:\n      stop\n        /* \"contracts/Main.sol\":456:476  address public owner */\n    tag_14:\n      callvalue\n      dup1\n      iszero\n      tag_83\n      jumpi\n      0x00\n      dup1\n      revert\n    tag_83:\n      pop\n      tag_84\n      tag_85\n      jump\t// in\n    tag_84:\n      mload(0x40)\n      tag_86\n      swap2\n      swap1\n      tag_78\n      jump\t// in\n    tag_86:\n      mload(0x40)\n      dup1\n      swap2\n      sub\n      swap1\n      return\n        /* \"contracts/token/ERC20.sol\":1138:1242  function symbol() public view virtual override returns (string memory) {... */\n    tag_15:\n      callvalue\n      dup1\n      iszero\n      tag_87\n      jumpi\n      0x00\n      dup1\n      revert\n    tag_87:\n      pop\n      tag_88\n      tag_89\n      jump\t// in\n    tag_88:\n      mload(0x40)\n      tag_90\n      swap2\n      swap1\n      tag_28\n      jump\t// in\n    tag_90:\n      mload(0x40)\n      dup1\n      swap2\n      sub\n      swap1\n      return\n        /* \"contracts/token/ERC20.sol\":5471:5907  function decreaseAllowance(address spender, uint256 subtractedValue) public virtual returns (bool) {... */\n    tag_16:\n      callvalue\n      dup1\n      iszero\n      tag_91\n      jumpi\n      0x00\n      dup1\n      revert\n    tag_91:\n      pop\n      tag_92\n      0x04\n      dup1\n      calldatasize\n      sub\n      dup2\n      add\n      swap1\n      tag_93\n      swap2\n      swap1\n      tag_32\n      jump\t// in\n    tag_93:\n      tag_94\n      jump\t// in\n    tag_92:\n      mload(0x40)\n      tag_95\n      swap2\n      swap1\n      tag_35\n      jump\t// in\n    tag_95:\n      mload(0x40)\n      dup1\n      swap2\n      sub\n      swap1\n      return\n        /* \"contracts/token/ERC20.sol\":2552:2745  function transfer(address to, uint256 amount) public virtual override returns (bool) {... */\n    tag_17:\n      callvalue\n      dup1\n      iszero\n      tag_96\n      jumpi\n      0x00\n      dup1\n      revert\n    tag_96:\n      pop\n      tag_97\n      0x04\n      dup1\n      calldatasize\n      sub\n      dup2\n      add\n      swap1\n      tag_98\n      swap2\n      swap1\n      tag_32\n      jump\t// in\n    tag_98:\n      tag_99\n      jump\t// in\n    tag_97:\n      mload(0x40)\n      tag_100\n      swap2\n      swap1\n      tag_35\n      jump\t// in\n    tag_100:\n      mload(0x40)\n      dup1\n      swap2\n      sub\n      swap1\n      return\n        /* \"contracts/token/ERC20.sol\":2808:2959  function allowance(address owner, address spender) public view virtual override returns (uint256) {... */\n    tag_18:\n      callvalue\n      dup1\n      iszero\n      tag_101\n      jumpi\n      0x00\n      dup1\n      revert\n    tag_101:\n      pop\n      tag_102\n      0x04\n      dup1\n      calldatasize\n      sub\n      dup2\n      add\n      swap1\n      tag_103\n      swap2\n      swap1\n      tag_104\n      jump\t// in\n    tag_103:\n      tag_105\n      jump\t// in\n    tag_102:\n      mload(0x40)\n      tag_106\n      swap2\n      swap1\n      tag_40\n      jump\t// in\n    tag_106:\n      mload(0x40)\n      dup1\n      swap2\n      sub\n      swap1\n      return\n        /* \"contracts/Main.sol\":632:655  address public contrato */\n    tag_19:\n      callvalue\n      dup1\n      iszero\n      tag_107\n      jumpi\n      0x00\n      dup1\n      revert\n    tag_107:\n      pop\n      tag_108\n      tag_109\n      jump\t// in\n    tag_108:\n      mload(0x40)\n      tag_110\n      swap2\n      swap1\n      tag_78\n      jump\t// in\n    tag_110:\n      mload(0x40)\n      dup1\n      swap2\n      sub\n      swap1\n      return\n        /* \"contracts/token/ERC20.sol\":5915:6286  function transferenciaPago(address sender, address receiver, uint256 numTokens) public override returns (bool){... */\n    tag_20:\n      callvalue\n      dup1\n      iszero\n      tag_111\n      jumpi\n      0x00\n      dup1\n      revert\n    tag_111:\n      pop\n      tag_112\n      0x04\n      dup1\n      calldatasize\n      sub\n      dup2\n      add\n      swap1\n      tag_113\n      swap2\n      swap1\n      tag_47\n      jump\t// in\n    tag_113:\n      tag_114\n      jump\t// in\n    tag_112:\n      mload(0x40)\n      tag_115\n      swap2\n      swap1\n      tag_35\n      jump\t// in\n    tag_115:\n      mload(0x40)\n      dup1\n      swap2\n      sub\n      swap1\n      return\n        /* \"contracts/token/ERC20.sol\":919:1019  function name() public view virtual override returns (string memory) {... */\n    tag_26:\n        /* \"contracts/token/ERC20.sol\":973:986  string memory */\n      0x60\n        /* \"contracts/token/ERC20.sol\":1006:1011  _name */\n      0x03\n        /* \"contracts/token/ERC20.sol\":999:1011  return _name */\n      dup1\n      sload\n      tag_117\n      swap1\n      tag_118\n      jump\t// in\n    tag_117:\n      dup1\n      0x1f\n      add\n      0x20\n      dup1\n      swap2\n      div\n      mul\n      0x20\n      add\n      mload(0x40)\n      swap1\n      dup2\n      add\n      0x40\n      mstore\n      dup1\n      swap3\n      swap2\n      swap1\n      dup2\n      dup2\n      mstore\n      0x20\n      add\n      dup3\n      dup1\n      sload\n      tag_119\n      swap1\n      tag_118\n      jump\t// in\n    tag_119:\n      dup1\n      iszero\n      tag_120\n      jumpi\n      dup1\n      0x1f\n      lt\n      tag_121\n      jumpi\n      0x0100\n      dup1\n      dup4\n      sload\n      div\n      mul\n      dup4\n      mstore\n      swap2\n      0x20\n      add\n      swap2\n      jump(tag_120)\n    tag_121:\n      dup3\n      add\n      swap2\n      swap1\n      0x00\n      mstore\n      keccak256(0x00, 0x20)\n      swap1\n    tag_122:\n      dup2\n      sload\n      dup2\n      mstore\n      swap1\n      0x01\n      add\n      swap1\n      0x20\n      add\n      dup1\n      dup4\n      gt\n      tag_122\n      jumpi\n      dup3\n      swap1\n      sub\n      0x1f\n      and\n      dup3\n      add\n      swap2\n    tag_120:\n      pop\n      pop\n      pop\n      pop\n      pop\n      swap1\n      pop\n        /* \"contracts/token/ERC20.sol\":919:1019  function name() public view virtual override returns (string memory) {... */\n      swap1\n      jump\t// out\n        /* \"contracts/token/ERC20.sol\":3279:3480  function approve(address spender, uint256 amount) public virtual override returns (bool) {... */\n    tag_33:\n        /* \"contracts/token/ERC20.sol\":3362:3366  bool */\n      0x00\n        /* \"contracts/token/ERC20.sol\":3379:3392  address owner */\n      dup1\n        /* \"contracts/token/ERC20.sol\":3395:3407  _msgSender() */\n      tag_124\n        /* \"contracts/token/ERC20.sol\":3395:3405  _msgSender */\n      tag_125\n        /* \"contracts/token/ERC20.sol\":3395:3407  _msgSender() */\n      jump\t// in\n    tag_124:\n        /* \"contracts/token/ERC20.sol\":3379:3407  address owner = _msgSender() */\n      swap1\n      pop\n        /* \"contracts/token/ERC20.sol\":3418:3450  _approve(owner, spender, amount) */\n      tag_126\n        /* \"contracts/token/ERC20.sol\":3427:3432  owner */\n      dup2\n        /* \"contracts/token/ERC20.sol\":3434:3441  spender */\n      dup6\n        /* \"contracts/token/ERC20.sol\":3443:3449  amount */\n      dup6\n        /* \"contracts/token/ERC20.sol\":3418:3426  _approve */\n      tag_127\n        /* \"contracts/token/ERC20.sol\":3418:3450  _approve(owner, spender, amount) */\n      jump\t// in\n    tag_126:\n        /* \"contracts/token/ERC20.sol\":3468:3472  true */\n      0x01\n        /* \"contracts/token/ERC20.sol\":3461:3472  return true */\n      swap2\n      pop\n      pop\n        /* \"contracts/token/ERC20.sol\":3279:3480  function approve(address spender, uint256 amount) public virtual override returns (bool) {... */\n      swap3\n      swap2\n      pop\n      pop\n      jump\t// out\n        /* \"contracts/token/ERC20.sol\":2048:2156  function totalSupply() public view virtual override returns (uint256) {... */\n    tag_38:\n        /* \"contracts/token/ERC20.sol\":2109:2116  uint256 */\n      0x00\n        /* \"contracts/token/ERC20.sol\":2136:2148  _totalSupply */\n      sload(0x02)\n        /* \"contracts/token/ERC20.sol\":2129:2148  return _totalSupply */\n      swap1\n      pop\n        /* \"contracts/token/ERC20.sol\":2048:2156  function totalSupply() public view virtual override returns (uint256) {... */\n      swap1\n      jump\t// out\n        /* \"contracts/Main.sol\":2014:3076  function paymentValue(address _to, uint256 _value) external payable {... */\n    tag_43:\n        /* \"contracts/Main.sol\":2096:2106  uint coste */\n      0x00\n        /* \"contracts/Main.sol\":2109:2126  costValue(_value) */\n      tag_130\n        /* \"contracts/Main.sol\":2119:2125  _value */\n      dup3\n        /* \"contracts/Main.sol\":2109:2118  costValue */\n      tag_131\n        /* \"contracts/Main.sol\":2109:2126  costValue(_value) */\n      jump\t// in\n    tag_130:\n        /* \"contracts/Main.sol\":2096:2126  uint coste = costValue(_value) */\n      swap1\n      pop\n        /* \"contracts/Main.sol\":2237:2242  coste */\n      dup1\n        /* \"contracts/Main.sol\":2227:2233  _value */\n      dup3\n        /* \"contracts/Main.sol\":2227:2242  _value >= coste */\n      lt\n      iszero\n        /* \"contracts/Main.sol\":2218:2289  require (_value >= coste, \"Compra menos Tokens o paga con mas Ethers.\") */\n      tag_132\n      jumpi\n      mload(0x40)\n      0x08c379a000000000000000000000000000000000000000000000000000000000\n      dup2\n      mstore\n      0x04\n      add\n      tag_133\n      swap1\n      tag_134\n      jump\t// in\n    tag_133:\n      mload(0x40)\n      dup1\n      swap2\n      sub\n      swap1\n      revert\n    tag_132:\n        /* \"contracts/Main.sol\":2342:2361  uint256 returnValue */\n      0x00\n        /* \"contracts/Main.sol\":2373:2378  coste */\n      dup2\n        /* \"contracts/Main.sol\":2364:2370  _value */\n      dup4\n        /* \"contracts/Main.sol\":2364:2378  _value - coste */\n      tag_135\n      swap2\n      swap1\n      tag_136\n      jump\t// in\n    tag_135:\n        /* \"contracts/Main.sol\":2342:2378  uint256 returnValue = _value - coste */\n      swap1\n      pop\n        /* \"contracts/Main.sol\":2450:2453  _to */\n      dup4\n        /* \"contracts/Main.sol\":2442:2463  payable(_to).transfer */\n      0xffffffffffffffffffffffffffffffffffffffff\n      and\n        /* \"contracts/Main.sol\":2442:2476  payable(_to).transfer(returnValue) */\n      0x08fc\n        /* \"contracts/Main.sol\":2464:2475  returnValue */\n      dup3\n        /* \"contracts/Main.sol\":2442:2476  payable(_to).transfer(returnValue) */\n      swap1\n      dup2\n      iszero\n      mul\n      swap1\n      mload(0x40)\n      0x00\n      mload(0x40)\n      dup1\n      dup4\n      sub\n      dup2\n      dup6\n      dup9\n      dup9\n      call\n      swap4\n      pop\n      pop\n      pop\n      pop\n      iszero\n      dup1\n      iszero\n      tag_138\n      jumpi\n      returndatasize\n      0x00\n      dup1\n      returndatacopy\n      revert(0x00, returndatasize)\n    tag_138:\n      pop\n        /* \"contracts/Main.sol\":2559:2571  intermediary */\n      0x07\n      0x00\n      swap1\n      sload\n      swap1\n      0x0100\n      exp\n      swap1\n      div\n      0xffffffffffffffffffffffffffffffffffffffff\n      and\n        /* \"contracts/Main.sol\":2551:2581  payable(intermediary).transfer */\n      0xffffffffffffffffffffffffffffffffffffffff\n      and\n        /* \"contracts/Main.sol\":2551:2588  payable(intermediary).transfer(coste) */\n      0x08fc\n        /* \"contracts/Main.sol\":2582:2587  coste */\n      dup4\n        /* \"contracts/Main.sol\":2551:2588  payable(intermediary).transfer(coste) */\n      swap1\n      dup2\n      iszero\n      mul\n      swap1\n      mload(0x40)\n      0x00\n      mload(0x40)\n      dup1\n      dup4\n      sub\n      dup2\n      dup6\n      dup9\n      dup9\n      call\n      swap4\n      pop\n      pop\n      pop\n      pop\n      iszero\n      dup1\n      iszero\n      tag_140\n      jumpi\n      returndatasize\n      0x00\n      dup1\n      returndatacopy\n      revert(0x00, returndatasize)\n    tag_140:\n      pop\n        /* \"contracts/Main.sol\":2663:2679  uint256 tbalance */\n      0x00\n        /* \"contracts/Main.sol\":2683:2687  this */\n      address\n        /* \"contracts/Main.sol\":2683:2697  this.balanceOf */\n      0xffffffffffffffffffffffffffffffffffffffff\n      and\n      0x70a08231\n        /* \"contracts/Main.sol\":2698:2706  contrato */\n      0x06\n      0x00\n      swap1\n      sload\n      swap1\n      0x0100\n      exp\n      swap1\n      div\n      0xffffffffffffffffffffffffffffffffffffffff\n      and\n        /* \"contracts/Main.sol\":2683:2707  this.balanceOf(contrato) */\n      mload(0x40)\n      dup3\n      0xffffffff\n      and\n      0xe0\n      shl\n      dup2\n      mstore\n      0x04\n      add\n      tag_141\n      swap2\n      swap1\n      tag_78\n      jump\t// in\n    tag_141:\n      0x20\n      mload(0x40)\n      dup1\n      dup4\n      sub\n      dup2\n      dup7\n      gas\n      staticcall\n      iszero\n      dup1\n      iszero\n      tag_143\n      jumpi\n      returndatasize\n      0x00\n      dup1\n      returndatacopy\n      revert(0x00, returndatasize)\n    tag_143:\n      pop\n      pop\n      pop\n      pop\n      mload(0x40)\n      returndatasize\n      not(0x1f)\n      0x1f\n      dup3\n      add\n      and\n      dup3\n      add\n      dup1\n      0x40\n      mstore\n      pop\n      dup2\n      add\n      swap1\n      tag_144\n      swap2\n      swap1\n      tag_145\n      jump\t// in\n    tag_144:\n        /* \"contracts/Main.sol\":2663:2707  uint256 tbalance =  this.balanceOf(contrato) */\n      swap1\n      pop\n        /* \"contracts/Main.sol\":2828:2836  tbalance */\n      dup1\n        /* \"contracts/Main.sol\":2818:2824  _value */\n      dup5\n        /* \"contracts/Main.sol\":2818:2836  _value <= tbalance */\n      gt\n      iszero\n        /* \"contracts/Main.sol\":2809:2877  require (_value <= tbalance, \"Compra un numero de Tokens adecuado.\") */\n      tag_146\n      jumpi\n      mload(0x40)\n      0x08c379a000000000000000000000000000000000000000000000000000000000\n      dup2\n      mstore\n      0x04\n      add\n      tag_147\n      swap1\n      tag_148\n      jump\t// in\n    tag_147:\n      mload(0x40)\n      dup1\n      swap2\n      sub\n      swap1\n      revert\n    tag_146:\n        /* \"contracts/Main.sol\":2947:2951  this */\n      address\n        /* \"contracts/Main.sol\":2947:2960  this.transfer */\n      0xffffffffffffffffffffffffffffffffffffffff\n      and\n      0xa9059cbb\n        /* \"contracts/Main.sol\":2961:2964  _to */\n      dup7\n        /* \"contracts/Main.sol\":2966:2972  _value */\n      dup7\n        /* \"contracts/Main.sol\":2947:2973  this.transfer(_to, _value) */\n      mload(0x40)\n      dup4\n      0xffffffff\n      and\n      0xe0\n      shl\n      dup2\n      mstore\n      0x04\n      add\n      tag_149\n      swap3\n      swap2\n      swap1\n      tag_150\n      jump\t// in\n    tag_149:\n      0x20\n      mload(0x40)\n      dup1\n      dup4\n      sub\n      dup2\n      0x00\n      dup8\n      gas\n      call\n      iszero\n      dup1\n      iszero\n      tag_152\n      jumpi\n      returndatasize\n      0x00\n      dup1\n      returndatacopy\n      revert(0x00, returndatasize)\n    tag_152:\n      pop\n      pop\n      pop\n      pop\n      mload(0x40)\n      returndatasize\n      not(0x1f)\n      0x1f\n      dup3\n      add\n      and\n      dup3\n      add\n      dup1\n      0x40\n      mstore\n      pop\n      dup2\n      add\n      swap1\n      tag_153\n      swap2\n      swap1\n      tag_154\n      jump\t// in\n    tag_153:\n      pop\n        /* \"contracts/Main.sol\":3044:3068  PaymentSent(_to, _value) */\n      0x47db2abce6d5fbcd80ffd9b4ba74dcde804a746ef732bc7f8a70fabfc912c590\n        /* \"contracts/Main.sol\":3056:3059  _to */\n      dup6\n        /* \"contracts/Main.sol\":3061:3067  _value */\n      dup6\n        /* \"contracts/Main.sol\":3044:3068  PaymentSent(_to, _value) */\n      mload(0x40)\n      tag_155\n      swap3\n      swap2\n      swap1\n      tag_150\n      jump\t// in\n    tag_155:\n      mload(0x40)\n      dup1\n      swap2\n      sub\n      swap1\n      log1\n        /* \"contracts/Main.sol\":2082:3076  {... */\n      pop\n      pop\n      pop\n        /* \"contracts/Main.sol\":2014:3076  function paymentValue(address _to, uint256 _value) external payable {... */\n      pop\n      pop\n      jump\t// out\n        /* \"contracts/token/ERC20.sol\":4060:4321  function transferFrom(address from, address to, uint256 amount) public virtual override returns (bool) {... */\n    tag_48:\n        /* \"contracts/token/ERC20.sol\":4157:4161  bool */\n      0x00\n        /* \"contracts/token/ERC20.sol\":4174:4189  address spender */\n      dup1\n        /* \"contracts/token/ERC20.sol\":4192:4204  _msgSender() */\n      tag_157\n        /* \"contracts/token/ERC20.sol\":4192:4202  _msgSender */\n      tag_125\n        /* \"contracts/token/ERC20.sol\":4192:4204  _msgSender() */\n      jump\t// in\n    tag_157:\n        /* \"contracts/token/ERC20.sol\":4174:4204  address spender = _msgSender() */\n      swap1\n      pop\n        /* \"contracts/token/ERC20.sol\":4215:4253  _spendAllowance(from, spender, amount) */\n      tag_158\n        /* \"contracts/token/ERC20.sol\":4231:4235  from */\n      dup6\n        /* \"contracts/token/ERC20.sol\":4237:4244  spender */\n      dup3\n        /* \"contracts/token/ERC20.sol\":4246:4252  amount */\n      dup6\n        /* \"contracts/token/ERC20.sol\":4215:4230  _spendAllowance */\n      tag_159\n        /* \"contracts/token/ERC20.sol\":4215:4253  _spendAllowance(from, spender, amount) */\n      jump\t// in\n    tag_158:\n        /* \"contracts/token/ERC20.sol\":4264:4291  _transfer(from, to, amount) */\n      tag_160\n        /* \"contracts/token/ERC20.sol\":4274:4278  from */\n      dup6\n        /* \"contracts/token/ERC20.sol\":4280:4282  to */\n      dup6\n        /* \"contracts/token/ERC20.sol\":4284:4290  amount */\n      dup6\n        /* \"contracts/token/ERC20.sol\":4264:4273  _transfer */\n      tag_161\n        /* \"contracts/token/ERC20.sol\":4264:4291  _transfer(from, to, amount) */\n      jump\t// in\n    tag_160:\n        /* \"contracts/token/ERC20.sol\":4309:4313  true */\n      0x01\n        /* \"contracts/token/ERC20.sol\":4302:4313  return true */\n      swap2\n      pop\n      pop\n        /* \"contracts/token/ERC20.sol\":4060:4321  function transferFrom(address from, address to, uint256 amount) public virtual override returns (bool) {... */\n      swap4\n      swap3\n      pop\n      pop\n      pop\n      jump\t// out\n        /* \"contracts/token/ERC20.sol\":1890:1983  function decimals() public view virtual override returns (uint8) {... */\n    tag_52:\n        /* \"contracts/token/ERC20.sol\":1948:1953  uint8 */\n      0x00\n        /* \"contracts/token/ERC20.sol\":1973:1975  18 */\n      0x12\n        /* \"contracts/token/ERC20.sol\":1966:1975  return 18 */\n      swap1\n      pop\n        /* \"contracts/token/ERC20.sol\":1890:1983  function decimals() public view virtual override returns (uint8) {... */\n      swap1\n      jump\t// out\n        /* \"contracts/token/ERC20.sol\":4730:4968  function increaseAllowance(address spender, uint256 addedValue) public virtual returns (bool) {... */\n    tag_58:\n        /* \"contracts/token/ERC20.sol\":4818:4822  bool */\n      0x00\n        /* \"contracts/token/ERC20.sol\":4835:4848  address owner */\n      dup1\n        /* \"contracts/token/ERC20.sol\":4851:4863  _msgSender() */\n      tag_164\n        /* \"contracts/token/ERC20.sol\":4851:4861  _msgSender */\n      tag_125\n        /* \"contracts/token/ERC20.sol\":4851:4863  _msgSender() */\n      jump\t// in\n    tag_164:\n        /* \"contracts/token/ERC20.sol\":4835:4863  address owner = _msgSender() */\n      swap1\n      pop\n        /* \"contracts/token/ERC20.sol\":4874:4938  _approve(owner, spender, allowance(owner, spender) + addedValue) */\n      tag_165\n        /* \"contracts/token/ERC20.sol\":4883:4888  owner */\n      dup2\n        /* \"contracts/token/ERC20.sol\":4890:4897  spender */\n      dup6\n        /* \"contracts/token/ERC20.sol\":4927:4937  addedValue */\n      dup6\n        /* \"contracts/token/ERC20.sol\":4899:4924  allowance(owner, spender) */\n      tag_166\n        /* \"contracts/token/ERC20.sol\":4909:4914  owner */\n      dup6\n        /* \"contracts/token/ERC20.sol\":4916:4923  spender */\n      dup10\n        /* \"contracts/token/ERC20.sol\":4899:4908  allowance */\n      tag_105\n        /* \"contracts/token/ERC20.sol\":4899:4924  allowance(owner, spender) */\n      jump\t// in\n    tag_166:\n        /* \"contracts/token/ERC20.sol\":4899:4937  allowance(owner, spender) + addedValue */\n      tag_167\n      swap2\n      swap1\n      tag_168\n      jump\t// in\n    tag_167:\n        /* \"contracts/token/ERC20.sol\":4874:4882  _approve */\n      tag_127\n        /* \"contracts/token/ERC20.sol\":4874:4938  _approve(owner, spender, allowance(owner, spender) + addedValue) */\n      jump\t// in\n    tag_165:\n        /* \"contracts/token/ERC20.sol\":4956:4960  true */\n      0x01\n        /* \"contracts/token/ERC20.sol\":4949:4960  return true */\n      swap2\n      pop\n      pop\n        /* \"contracts/token/ERC20.sol\":4730:4968  function increaseAllowance(address spender, uint256 addedValue) public virtual returns (bool) {... */\n      swap3\n      swap2\n      pop\n      pop\n      jump\t// out\n        /* \"contracts/Main.sol\":1895:2006  function GeneraTokens(address account, uint amount) public onlyOwner(){... */\n    tag_63:\n        /* \"contracts/Main.sol\":1413:1418  owner */\n      0x05\n      0x00\n      swap1\n      sload\n      swap1\n      0x0100\n      exp\n      swap1\n      div\n      0xffffffffffffffffffffffffffffffffffffffff\n      and\n        /* \"contracts/Main.sol\":1399:1418  msg.sender == owner */\n      0xffffffffffffffffffffffffffffffffffffffff\n      and\n        /* \"contracts/Main.sol\":1399:1409  msg.sender */\n      caller\n        /* \"contracts/Main.sol\":1399:1418  msg.sender == owner */\n      0xffffffffffffffffffffffffffffffffffffffff\n      and\n      eq\n        /* \"contracts/Main.sol\":1391:1471  require(msg.sender == owner, \"Solo el propietario puede ejecutar esta funcion.\") */\n      tag_170\n      jumpi\n      mload(0x40)\n      0x08c379a000000000000000000000000000000000000000000000000000000000\n      dup2\n      mstore\n      0x04\n      add\n      tag_171\n      swap1\n      tag_172\n      jump\t// in\n    tag_171:\n      mload(0x40)\n      dup1\n      swap2\n      sub\n      swap1\n      revert\n    tag_170:\n        /* \"contracts/Main.sol\":1976:1998  _mint(account, amount) */\n      tag_174\n        /* \"contracts/Main.sol\":1982:1989  account */\n      dup3\n        /* \"contracts/Main.sol\":1991:1997  amount */\n      dup3\n        /* \"contracts/Main.sol\":1976:1981  _mint */\n      tag_175\n        /* \"contracts/Main.sol\":1976:1998  _mint(account, amount) */\n      jump\t// in\n    tag_174:\n        /* \"contracts/Main.sol\":1895:2006  function GeneraTokens(address account, uint amount) public onlyOwner(){... */\n      pop\n      pop\n      jump\t// out\n        /* \"contracts/Main.sol\":3138:3242  function getContractBalance() external view returns (uint256) {... */\n    tag_66:\n        /* \"contracts/Main.sol\":3191:3198  uint256 */\n      0x00\n        /* \"contracts/Main.sol\":3218:3226  contrato */\n      0x06\n      0x00\n      swap1\n      sload\n      swap1\n      0x0100\n      exp\n      swap1\n      div\n      0xffffffffffffffffffffffffffffffffffffffff\n      and\n        /* \"contracts/Main.sol\":3218:3234  contrato.balance */\n      0xffffffffffffffffffffffffffffffffffffffff\n      and\n      balance\n        /* \"contracts/Main.sol\":3211:3234  return contrato.balance */\n      swap1\n      pop\n        /* \"contracts/Main.sol\":3138:3242  function getContractBalance() external view returns (uint256) {... */\n      swap1\n      jump\t// out\n        /* \"contracts/token/ERC20.sol\":2219:2346  function balanceOf(address account) public view virtual override returns (uint256) {... */\n    tag_72:\n        /* \"contracts/token/ERC20.sol\":2293:2300  uint256 */\n      0x00\n        /* \"contracts/token/ERC20.sol\":2320:2329  _balances */\n      dup1\n        /* \"contracts/token/ERC20.sol\":2320:2338  _balances[account] */\n      0x00\n        /* \"contracts/token/ERC20.sol\":2330:2337  account */\n      dup4\n        /* \"contracts/token/ERC20.sol\":2320:2338  _balances[account] */\n      0xffffffffffffffffffffffffffffffffffffffff\n      and\n      0xffffffffffffffffffffffffffffffffffffffff\n      and\n      dup2\n      mstore\n      0x20\n      add\n      swap1\n      dup2\n      mstore\n      0x20\n      add\n      0x00\n      keccak256\n      sload\n        /* \"contracts/token/ERC20.sol\":2313:2338  return _balances[account] */\n      swap1\n      pop\n        /* \"contracts/token/ERC20.sol\":2219:2346  function balanceOf(address account) public view virtual override returns (uint256) {... */\n      swap2\n      swap1\n      pop\n      jump\t// out\n        /* \"contracts/Main.sol\":662:734  address public intermediary = 0x72f188f3767fE8FE835b7b22191f28A3b19562D1 */\n    tag_76:\n      0x07\n      0x00\n      swap1\n      sload\n      swap1\n      0x0100\n      exp\n      swap1\n      div\n      0xffffffffffffffffffffffffffffffffffffffff\n      and\n      dup2\n      jump\t// out\n        /* \"contracts/Main.sol\":1109:1351  function addEthToBalance(uint amount) payable external  {... */\n    tag_82:\n        /* \"contracts/Main.sol\":1196:1197  0 */\n      0x00\n        /* \"contracts/Main.sol\":1184:1193  msg.value */\n      callvalue\n        /* \"contracts/Main.sol\":1184:1197  msg.value > 0 */\n      gt\n        /* \"contracts/Main.sol\":1176:1218  require(msg.value > 0, \"Debes enviar ETH\") */\n      tag_179\n      jumpi\n      mload(0x40)\n      0x08c379a000000000000000000000000000000000000000000000000000000000\n      dup2\n      mstore\n      0x04\n      add\n      tag_180\n      swap1\n      tag_181\n      jump\t// in\n    tag_180:\n      mload(0x40)\n      dup1\n      swap2\n      sub\n      swap1\n      revert\n    tag_179:\n        /* \"contracts/Main.sol\":1250:1256  amount */\n      dup1\n        /* \"contracts/Main.sol\":1237:1246  msg.value */\n      callvalue\n        /* \"contracts/Main.sol\":1237:1256  msg.value == amount */\n      eq\n        /* \"contracts/Main.sol\":1229:1286  require(msg.value == amount, \"Valor ingresado no valido\") */\n      tag_182\n      jumpi\n      mload(0x40)\n      0x08c379a000000000000000000000000000000000000000000000000000000000\n      dup2\n      mstore\n      0x04\n      add\n      tag_183\n      swap1\n      tag_184\n      jump\t// in\n    tag_183:\n      mload(0x40)\n      dup1\n      swap2\n      sub\n      swap1\n      revert\n    tag_182:\n        /* \"contracts/Main.sol\":1305:1315  msg.sender */\n      caller\n        /* \"contracts/Main.sol\":1297:1325  payable(msg.sender).transfer */\n      0xffffffffffffffffffffffffffffffffffffffff\n      and\n        /* \"contracts/Main.sol\":1297:1343  payable(msg.sender).transfer(contrato.balance) */\n      0x08fc\n        /* \"contracts/Main.sol\":1326:1334  contrato */\n      0x06\n      0x00\n      swap1\n      sload\n      swap1\n      0x0100\n      exp\n      swap1\n      div\n      0xffffffffffffffffffffffffffffffffffffffff\n      and\n        /* \"contracts/Main.sol\":1326:1342  contrato.balance */\n      0xffffffffffffffffffffffffffffffffffffffff\n      and\n      balance\n        /* \"contracts/Main.sol\":1297:1343  payable(msg.sender).transfer(contrato.balance) */\n      swap1\n      dup2\n      iszero\n      mul\n      swap1\n      mload(0x40)\n      0x00\n      mload(0x40)\n      dup1\n      dup4\n      sub\n      dup2\n      dup6\n      dup9\n      dup9\n      call\n      swap4\n      pop\n      pop\n      pop\n      pop\n      iszero\n      dup1\n      iszero\n      tag_186\n      jumpi\n      returndatasize\n      0x00\n      dup1\n      returndatacopy\n      revert(0x00, returndatasize)\n    tag_186:\n      pop\n        /* \"contracts/Main.sol\":1109:1351  function addEthToBalance(uint amount) payable external  {... */\n      pop\n      jump\t// out\n        /* \"contracts/Main.sol\":456:476  address public owner */\n    tag_85:\n      0x05\n      0x00\n      swap1\n      sload\n      swap1\n      0x0100\n      exp\n      swap1\n      div\n      0xffffffffffffffffffffffffffffffffffffffff\n      and\n      dup2\n      jump\t// out\n        /* \"contracts/token/ERC20.sol\":1138:1242  function symbol() public view virtual override returns (string memory) {... */\n    tag_89:\n        /* \"contracts/token/ERC20.sol\":1194:1207  string memory */\n      0x60\n        /* \"contracts/token/ERC20.sol\":1227:1234  _symbol */\n      0x04\n        /* \"contracts/token/ERC20.sol\":1220:1234  return _symbol */\n      dup1\n      sload\n      tag_188\n      swap1\n      tag_118\n      jump\t// in\n    tag_188:\n      dup1\n      0x1f\n      add\n      0x20\n      dup1\n      swap2\n      div\n      mul\n      0x20\n      add\n      mload(0x40)\n      swap1\n      dup2\n      add\n      0x40\n      mstore\n      dup1\n      swap3\n      swap2\n      swap1\n      dup2\n      dup2\n      mstore\n      0x20\n      add\n      dup3\n      dup1\n      sload\n      tag_189\n      swap1\n      tag_118\n      jump\t// in\n    tag_189:\n      dup1\n      iszero\n      tag_190\n      jumpi\n      dup1\n      0x1f\n      lt\n      tag_191\n      jumpi\n      0x0100\n      dup1\n      dup4\n      sload\n      div\n      mul\n      dup4\n      mstore\n      swap2\n      0x20\n      add\n      swap2\n      jump(tag_190)\n    tag_191:\n      dup3\n      add\n      swap2\n      swap1\n      0x00\n      mstore\n      keccak256(0x00, 0x20)\n      swap1\n    tag_192:\n      dup2\n      sload\n      dup2\n      mstore\n      swap1\n      0x01\n      add\n      swap1\n      0x20\n      add\n      dup1\n      dup4\n      gt\n      tag_192\n      jumpi\n      dup3\n      swap1\n      sub\n      0x1f\n      and\n      dup3\n      add\n      swap2\n    tag_190:\n      pop\n      pop\n      pop\n      pop\n      pop\n      swap1\n      pop\n        /* \"contracts/token/ERC20.sol\":1138:1242  function symbol() public view virtual override returns (string memory) {... */\n      swap1\n      jump\t// out\n        /* \"contracts/token/ERC20.sol\":5471:5907  function decreaseAllowance(address spender, uint256 subtractedValue) public virtual returns (bool) {... */\n    tag_94:\n        /* \"contracts/token/ERC20.sol\":5564:5568  bool */\n      0x00\n        /* \"contracts/token/ERC20.sol\":5581:5594  address owner */\n      dup1\n        /* \"contracts/token/ERC20.sol\":5597:5609  _msgSender() */\n      tag_194\n        /* \"contracts/token/ERC20.sol\":5597:5607  _msgSender */\n      tag_125\n        /* \"contracts/token/ERC20.sol\":5597:5609  _msgSender() */\n      jump\t// in\n    tag_194:\n        /* \"contracts/token/ERC20.sol\":5581:5609  address owner = _msgSender() */\n      swap1\n      pop\n        /* \"contracts/token/ERC20.sol\":5620:5644  uint256 currentAllowance */\n      0x00\n        /* \"contracts/token/ERC20.sol\":5647:5672  allowance(owner, spender) */\n      tag_195\n        /* \"contracts/token/ERC20.sol\":5657:5662  owner */\n      dup3\n        /* \"contracts/token/ERC20.sol\":5664:5671  spender */\n      dup7\n        /* \"contracts/token/ERC20.sol\":5647:5656  allowance */\n      tag_105\n        /* \"contracts/token/ERC20.sol\":5647:5672  allowance(owner, spender) */\n      jump\t// in\n    tag_195:\n        /* \"contracts/token/ERC20.sol\":5620:5672  uint256 currentAllowance = allowance(owner, spender) */\n      swap1\n      pop\n        /* \"contracts/token/ERC20.sol\":5711:5726  subtractedValue */\n      dup4\n        /* \"contracts/token/ERC20.sol\":5691:5707  currentAllowance */\n      dup2\n        /* \"contracts/token/ERC20.sol\":5691:5726  currentAllowance >= subtractedValue */\n      lt\n      iszero\n        /* \"contracts/token/ERC20.sol\":5683:5768  require(currentAllowance >= subtractedValue, \"ERC20: decreased allowance below zero\") */\n      tag_196\n      jumpi\n      mload(0x40)\n      0x08c379a000000000000000000000000000000000000000000000000000000000\n      dup2\n      mstore\n      0x04\n      add\n      tag_197\n      swap1\n      tag_198\n      jump\t// in\n    tag_197:\n      mload(0x40)\n      dup1\n      swap2\n      sub\n      swap1\n      revert\n    tag_196:\n        /* \"contracts/token/ERC20.sol\":5804:5864  _approve(owner, spender, currentAllowance - subtractedValue) */\n      tag_199\n        /* \"contracts/token/ERC20.sol\":5813:5818  owner */\n      dup3\n        /* \"contracts/token/ERC20.sol\":5820:5827  spender */\n      dup7\n        /* \"contracts/token/ERC20.sol\":5848:5863  subtractedValue */\n      dup7\n        /* \"contracts/token/ERC20.sol\":5829:5845  currentAllowance */\n      dup5\n        /* \"contracts/token/ERC20.sol\":5829:5863  currentAllowance - subtractedValue */\n      sub\n        /* \"contracts/token/ERC20.sol\":5804:5812  _approve */\n      tag_127\n        /* \"contracts/token/ERC20.sol\":5804:5864  _approve(owner, spender, currentAllowance - subtractedValue) */\n      jump\t// in\n    tag_199:\n        /* \"contracts/token/ERC20.sol\":5895:5899  true */\n      0x01\n        /* \"contracts/token/ERC20.sol\":5888:5899  return true */\n      swap3\n      pop\n      pop\n      pop\n        /* \"contracts/token/ERC20.sol\":5471:5907  function decreaseAllowance(address spender, uint256 subtractedValue) public virtual returns (bool) {... */\n      swap3\n      swap2\n      pop\n      pop\n      jump\t// out\n        /* \"contracts/token/ERC20.sol\":2552:2745  function transfer(address to, uint256 amount) public virtual override returns (bool) {... */\n    tag_99:\n        /* \"contracts/token/ERC20.sol\":2631:2635  bool */\n      0x00\n        /* \"contracts/token/ERC20.sol\":2648:2661  address owner */\n      dup1\n        /* \"contracts/token/ERC20.sol\":2664:2676  _msgSender() */\n      tag_201\n        /* \"contracts/token/ERC20.sol\":2664:2674  _msgSender */\n      tag_125\n        /* \"contracts/token/ERC20.sol\":2664:2676  _msgSender() */\n      jump\t// in\n    tag_201:\n        /* \"contracts/token/ERC20.sol\":2648:2676  address owner = _msgSender() */\n      swap1\n      pop\n        /* \"contracts/token/ERC20.sol\":2687:2715  _transfer(owner, to, amount) */\n      tag_202\n        /* \"contracts/token/ERC20.sol\":2697:2702  owner */\n      dup2\n        /* \"contracts/token/ERC20.sol\":2704:2706  to */\n      dup6\n        /* \"contracts/token/ERC20.sol\":2708:2714  amount */\n      dup6\n        /* \"contracts/token/ERC20.sol\":2687:2696  _transfer */\n      tag_161\n        /* \"contracts/token/ERC20.sol\":2687:2715  _transfer(owner, to, amount) */\n      jump\t// in\n    tag_202:\n        /* \"contracts/token/ERC20.sol\":2733:2737  true */\n      0x01\n        /* \"contracts/token/ERC20.sol\":2726:2737  return true */\n      swap2\n      pop\n      pop\n        /* \"contracts/token/ERC20.sol\":2552:2745  function transfer(address to, uint256 amount) public virtual override returns (bool) {... */\n      swap3\n      swap2\n      pop\n      pop\n      jump\t// out\n        /* \"contracts/token/ERC20.sol\":2808:2959  function allowance(address owner, address spender) public view virtual override returns (uint256) {... */\n    tag_105:\n        /* \"contracts/token/ERC20.sol\":2897:2904  uint256 */\n      0x00\n        /* \"contracts/token/ERC20.sol\":2924:2935  _allowances */\n      0x01\n        /* \"contracts/token/ERC20.sol\":2924:2942  _allowances[owner] */\n      0x00\n        /* \"contracts/token/ERC20.sol\":2936:2941  owner */\n      dup5\n        /* \"contracts/token/ERC20.sol\":2924:2942  _allowances[owner] */\n      0xffffffffffffffffffffffffffffffffffffffff\n      and\n      0xffffffffffffffffffffffffffffffffffffffff\n      and\n      dup2\n      mstore\n      0x20\n      add\n      swap1\n      dup2\n      mstore\n      0x20\n      add\n      0x00\n      keccak256\n        /* \"contracts/token/ERC20.sol\":2924:2951  _allowances[owner][spender] */\n      0x00\n        /* \"contracts/token/ERC20.sol\":2943:2950  spender */\n      dup4\n        /* \"contracts/token/ERC20.sol\":2924:2951  _allowances[owner][spender] */\n      0xffffffffffffffffffffffffffffffffffffffff\n      and\n      0xffffffffffffffffffffffffffffffffffffffff\n      and\n      dup2\n      mstore\n      0x20\n      add\n      swap1\n      dup2\n      mstore\n      0x20\n      add\n      0x00\n      keccak256\n      sload\n        /* \"contracts/token/ERC20.sol\":2917:2951  return _allowances[owner][spender] */\n      swap1\n      pop\n        /* \"contracts/token/ERC20.sol\":2808:2959  function allowance(address owner, address spender) public view virtual override returns (uint256) {... */\n      swap3\n      swap2\n      pop\n      pop\n      jump\t// out\n        /* \"contracts/Main.sol\":632:655  address public contrato */\n    tag_109:\n      0x06\n      0x00\n      swap1\n      sload\n      swap1\n      0x0100\n      exp\n      swap1\n      div\n      0xffffffffffffffffffffffffffffffffffffffff\n      and\n      dup2\n      jump\t// out\n        /* \"contracts/token/ERC20.sol\":5915:6286  function transferenciaPago(address sender, address receiver, uint256 numTokens) public override returns (bool){... */\n    tag_114:\n        /* \"contracts/token/ERC20.sol\":6020:6024  bool */\n      0x00\n        /* \"contracts/token/ERC20.sol\":6057:6066  _balances */\n      dup1\n        /* \"contracts/token/ERC20.sol\":6057:6074  _balances[sender] */\n      0x00\n        /* \"contracts/token/ERC20.sol\":6067:6073  sender */\n      dup6\n        /* \"contracts/token/ERC20.sol\":6057:6074  _balances[sender] */\n      0xffffffffffffffffffffffffffffffffffffffff\n      and\n      0xffffffffffffffffffffffffffffffffffffffff\n      and\n      dup2\n      mstore\n      0x20\n      add\n      swap1\n      dup2\n      mstore\n      0x20\n      add\n      0x00\n      keccak256\n      sload\n        /* \"contracts/token/ERC20.sol\":6044:6053  numTokens */\n      dup3\n        /* \"contracts/token/ERC20.sol\":6044:6074  numTokens <= _balances[sender] */\n      gt\n      iszero\n        /* \"contracts/token/ERC20.sol\":6036:6075  require(numTokens <= _balances[sender]) */\n      tag_205\n      jumpi\n      0x00\n      dup1\n      revert\n    tag_205:\n        /* \"contracts/token/ERC20.sol\":6106:6138  _balances[sender].sub(numTokens) */\n      tag_206\n        /* \"contracts/token/ERC20.sol\":6128:6137  numTokens */\n      dup3\n        /* \"contracts/token/ERC20.sol\":6106:6115  _balances */\n      0x00\n        /* \"contracts/token/ERC20.sol\":6106:6123  _balances[sender] */\n      dup1\n        /* \"contracts/token/ERC20.sol\":6116:6122  sender */\n      dup8\n        /* \"contracts/token/ERC20.sol\":6106:6123  _balances[sender] */\n      0xffffffffffffffffffffffffffffffffffffffff\n      and\n      0xffffffffffffffffffffffffffffffffffffffff\n      and\n      dup2\n      mstore\n      0x20\n      add\n      swap1\n      dup2\n      mstore\n      0x20\n      add\n      0x00\n      keccak256\n      sload\n        /* \"contracts/token/ERC20.sol\":6106:6127  _balances[sender].sub */\n      tag_207\n      swap1\n        /* \"contracts/token/ERC20.sol\":6106:6138  _balances[sender].sub(numTokens) */\n      swap2\n      swap1\n      0xffffffff\n      and\n      jump\t// in\n    tag_206:\n        /* \"contracts/token/ERC20.sol\":6086:6095  _balances */\n      0x00\n        /* \"contracts/token/ERC20.sol\":6086:6103  _balances[sender] */\n      dup1\n        /* \"contracts/token/ERC20.sol\":6096:6102  sender */\n      dup7\n        /* \"contracts/token/ERC20.sol\":6086:6103  _balances[sender] */\n      0xffffffffffffffffffffffffffffffffffffffff\n      and\n      0xffffffffffffffffffffffffffffffffffffffff\n      and\n      dup2\n      mstore\n      0x20\n      add\n      swap1\n      dup2\n      mstore\n      0x20\n      add\n      0x00\n      keccak256\n        /* \"contracts/token/ERC20.sol\":6086:6138  _balances[sender] = _balances[sender].sub(numTokens) */\n      dup2\n      swap1\n      sstore\n      pop\n        /* \"contracts/token/ERC20.sol\":6171:6205  _balances[receiver].add(numTokens) */\n      tag_208\n        /* \"contracts/token/ERC20.sol\":6195:6204  numTokens */\n      dup3\n        /* \"contracts/token/ERC20.sol\":6171:6180  _balances */\n      0x00\n        /* \"contracts/token/ERC20.sol\":6171:6190  _balances[receiver] */\n      dup1\n        /* \"contracts/token/ERC20.sol\":6181:6189  receiver */\n      dup7\n        /* \"contracts/token/ERC20.sol\":6171:6190  _balances[receiver] */\n      0xffffffffffffffffffffffffffffffffffffffff\n      and\n      0xffffffffffffffffffffffffffffffffffffffff\n      and\n      dup2\n      mstore\n      0x20\n      add\n      swap1\n      dup2\n      mstore\n      0x20\n      add\n      0x00\n      keccak256\n      sload\n        /* \"contracts/token/ERC20.sol\":6171:6194  _balances[receiver].add */\n      tag_209\n      swap1\n        /* \"contracts/token/ERC20.sol\":6171:6205  _balances[receiver].add(numTokens) */\n      swap2\n      swap1\n      0xffffffff\n      and\n      jump\t// in\n    tag_208:\n        /* \"contracts/token/ERC20.sol\":6149:6158  _balances */\n      0x00\n        /* \"contracts/token/ERC20.sol\":6149:6168  _balances[receiver] */\n      dup1\n        /* \"contracts/token/ERC20.sol\":6159:6167  receiver */\n      dup6\n        /* \"contracts/token/ERC20.sol\":6149:6168  _balances[receiver] */\n      0xffffffffffffffffffffffffffffffffffffffff\n      and\n      0xffffffffffffffffffffffffffffffffffffffff\n      and\n      dup2\n      mstore\n      0x20\n      add\n      swap1\n      dup2\n      mstore\n      0x20\n      add\n      0x00\n      keccak256\n        /* \"contracts/token/ERC20.sol\":6149:6205  _balances[receiver] = _balances[receiver].add(numTokens) */\n      dup2\n      swap1\n      sstore\n      pop\n        /* \"contracts/token/ERC20.sol\":6237:6245  receiver */\n      dup3\n        /* \"contracts/token/ERC20.sol\":6221:6256  Transfer(sender,receiver,numTokens) */\n      0xffffffffffffffffffffffffffffffffffffffff\n      and\n        /* \"contracts/token/ERC20.sol\":6230:6236  sender */\n      dup5\n        /* \"contracts/token/ERC20.sol\":6221:6256  Transfer(sender,receiver,numTokens) */\n      0xffffffffffffffffffffffffffffffffffffffff\n      and\n      0xddf252ad1be2c89b69c2b068fc378daa952ba7f163c4a11628f55a4df523b3ef\n        /* \"contracts/token/ERC20.sol\":6246:6255  numTokens */\n      dup5\n        /* \"contracts/token/ERC20.sol\":6221:6256  Transfer(sender,receiver,numTokens) */\n      mload(0x40)\n      tag_210\n      swap2\n      swap1\n      tag_40\n      jump\t// in\n    tag_210:\n      mload(0x40)\n      dup1\n      swap2\n      sub\n      swap1\n      log3\n        /* \"contracts/token/ERC20.sol\":6274:6278  true */\n      0x01\n        /* \"contracts/token/ERC20.sol\":6267:6278  return true */\n      swap1\n      pop\n        /* \"contracts/token/ERC20.sol\":5915:6286  function transferenciaPago(address sender, address receiver, uint256 numTokens) public override returns (bool){... */\n      swap4\n      swap3\n      pop\n      pop\n      pop\n      jump\t// out\n        /* \"contracts/utils/Context.sol\":601:699  function _msgSender() internal view virtual returns (address) {... */\n    tag_125:\n        /* \"contracts/utils/Context.sol\":654:661  address */\n      0x00\n        /* \"contracts/utils/Context.sol\":681:691  msg.sender */\n      caller\n        /* \"contracts/utils/Context.sol\":674:691  return msg.sender */\n      swap1\n      pop\n        /* \"contracts/utils/Context.sol\":601:699  function _msgSender() internal view virtual returns (address) {... */\n      swap1\n      jump\t// out\n        /* \"contracts/token/ERC20.sol\":9843:10189  function _approve(address owner, address spender, uint256 amount) internal virtual {... */\n    tag_127:\n        /* \"contracts/token/ERC20.sol\":9962:9963  0 */\n      0x00\n        /* \"contracts/token/ERC20.sol\":9945:9964  owner != address(0) */\n      0xffffffffffffffffffffffffffffffffffffffff\n      and\n        /* \"contracts/token/ERC20.sol\":9945:9950  owner */\n      dup4\n        /* \"contracts/token/ERC20.sol\":9945:9964  owner != address(0) */\n      0xffffffffffffffffffffffffffffffffffffffff\n      and\n      sub\n        /* \"contracts/token/ERC20.sol\":9937:10005  require(owner != address(0), \"ERC20: approve from the zero address\") */\n      tag_213\n      jumpi\n      mload(0x40)\n      0x08c379a000000000000000000000000000000000000000000000000000000000\n      dup2\n      mstore\n      0x04\n      add\n      tag_214\n      swap1\n      tag_215\n      jump\t// in\n    tag_214:\n      mload(0x40)\n      dup1\n      swap2\n      sub\n      swap1\n      revert\n    tag_213:\n        /* \"contracts/token/ERC20.sol\":10043:10044  0 */\n      0x00\n        /* \"contracts/token/ERC20.sol\":10024:10045  spender != address(0) */\n      0xffffffffffffffffffffffffffffffffffffffff\n      and\n        /* \"contracts/token/ERC20.sol\":10024:10031  spender */\n      dup3\n        /* \"contracts/token/ERC20.sol\":10024:10045  spender != address(0) */\n      0xffffffffffffffffffffffffffffffffffffffff\n      and\n      sub\n        /* \"contracts/token/ERC20.sol\":10016:10084  require(spender != address(0), \"ERC20: approve to the zero address\") */\n      tag_216\n      jumpi\n      mload(0x40)\n      0x08c379a000000000000000000000000000000000000000000000000000000000\n      dup2\n      mstore\n      0x04\n      add\n      tag_217\n      swap1\n      tag_218\n      jump\t// in\n    tag_217:\n      mload(0x40)\n      dup1\n      swap2\n      sub\n      swap1\n      revert\n    tag_216:\n        /* \"contracts/token/ERC20.sol\":10127:10133  amount */\n      dup1\n        /* \"contracts/token/ERC20.sol\":10097:10108  _allowances */\n      0x01\n        /* \"contracts/token/ERC20.sol\":10097:10115  _allowances[owner] */\n      0x00\n        /* \"contracts/token/ERC20.sol\":10109:10114  owner */\n      dup6\n        /* \"contracts/token/ERC20.sol\":10097:10115  _allowances[owner] */\n      0xffffffffffffffffffffffffffffffffffffffff\n      and\n      0xffffffffffffffffffffffffffffffffffffffff\n      and\n      dup2\n      mstore\n      0x20\n      add\n      swap1\n      dup2\n      mstore\n      0x20\n      add\n      0x00\n      keccak256\n        /* \"contracts/token/ERC20.sol\":10097:10124  _allowances[owner][spender] */\n      0x00\n        /* \"contracts/token/ERC20.sol\":10116:10123  spender */\n      dup5\n        /* \"contracts/token/ERC20.sol\":10097:10124  _allowances[owner][spender] */\n      0xffffffffffffffffffffffffffffffffffffffff\n      and\n      0xffffffffffffffffffffffffffffffffffffffff\n      and\n      dup2\n      mstore\n      0x20\n      add\n      swap1\n      dup2\n      mstore\n      0x20\n      add\n      0x00\n      keccak256\n        /* \"contracts/token/ERC20.sol\":10097:10133  _allowances[owner][spender] = amount */\n      dup2\n      swap1\n      sstore\n      pop\n        /* \"contracts/token/ERC20.sol\":10165:10172  spender */\n      dup2\n        /* \"contracts/token/ERC20.sol\":10149:10181  Approval(owner, spender, amount) */\n      0xffffffffffffffffffffffffffffffffffffffff\n      and\n        /* \"contracts/token/ERC20.sol\":10158:10163  owner */\n      dup4\n        /* \"contracts/token/ERC20.sol\":10149:10181  Approval(owner, spender, amount) */\n      0xffffffffffffffffffffffffffffffffffffffff\n      and\n      0x8c5be1e5ebec7d5bd14f71427d1e84f3dd0314c0f7b2291e5b200ac8c7c3b925\n        /* \"contracts/token/ERC20.sol\":10174:10180  amount */\n      dup4\n        /* \"contracts/token/ERC20.sol\":10149:10181  Approval(owner, spender, amount) */\n      mload(0x40)\n      tag_219\n      swap2\n      swap1\n      tag_40\n      jump\t// in\n    tag_219:\n      mload(0x40)\n      dup1\n      swap2\n      sub\n      swap1\n      log3\n        /* \"contracts/token/ERC20.sol\":9843:10189  function _approve(address owner, address spender, uint256 amount) internal virtual {... */\n      pop\n      pop\n      pop\n      jump\t// out\n        /* \"contracts/Main.sol\":1499:1607  function costValue(uint256 number) internal pure returns (uint256){... */\n    tag_131:\n        /* \"contracts/Main.sol\":1557:1564  uint256 */\n      0x00\n        /* \"contracts/Main.sol\":1591:1598  1 ether */\n      0x0de0b6b3a7640000\n        /* \"contracts/Main.sol\":1583:1589  number */\n      dup3\n        /* \"contracts/Main.sol\":1583:1599  number*(1 ether) */\n      tag_221\n      swap2\n      swap1\n      tag_222\n      jump\t// in\n    tag_221:\n        /* \"contracts/Main.sol\":1576:1599  return number*(1 ether) */\n      swap1\n      pop\n        /* \"contracts/Main.sol\":1499:1607  function costValue(uint256 number) internal pure returns (uint256){... */\n      swap2\n      swap1\n      pop\n      jump\t// out\n        /* \"contracts/token/ERC20.sol\":10480:10899  function _spendAllowance(address owner, address spender, uint256 amount) internal virtual {... */\n    tag_159:\n        /* \"contracts/token/ERC20.sol\":10581:10605  uint256 currentAllowance */\n      0x00\n        /* \"contracts/token/ERC20.sol\":10608:10633  allowance(owner, spender) */\n      tag_224\n        /* \"contracts/token/ERC20.sol\":10618:10623  owner */\n      dup5\n        /* \"contracts/token/ERC20.sol\":10625:10632  spender */\n      dup5\n        /* \"contracts/token/ERC20.sol\":10608:10617  allowance */\n      tag_105\n        /* \"contracts/token/ERC20.sol\":10608:10633  allowance(owner, spender) */\n      jump\t// in\n    tag_224:\n        /* \"contracts/token/ERC20.sol\":10581:10633  uint256 currentAllowance = allowance(owner, spender) */\n      swap1\n      pop\n        /* \"contracts/token/ERC20.sol\":10668:10685  type(uint256).max */\n      0xffffffffffffffffffffffffffffffffffffffffffffffffffffffffffffffff\n        /* \"contracts/token/ERC20.sol\":10648:10664  currentAllowance */\n      dup2\n        /* \"contracts/token/ERC20.sol\":10648:10685  currentAllowance != type(uint256).max */\n      eq\n        /* \"contracts/token/ERC20.sol\":10644:10892  if (currentAllowance != type(uint256).max) {... */\n      tag_225\n      jumpi\n        /* \"contracts/token/ERC20.sol\":10730:10736  amount */\n      dup2\n        /* \"contracts/token/ERC20.sol\":10710:10726  currentAllowance */\n      dup2\n        /* \"contracts/token/ERC20.sol\":10710:10736  currentAllowance >= amount */\n      lt\n      iszero\n        /* \"contracts/token/ERC20.sol\":10702:10770  require(currentAllowance >= amount, \"ERC20: insufficient allowance\") */\n      tag_226\n      jumpi\n      mload(0x40)\n      0x08c379a000000000000000000000000000000000000000000000000000000000\n      dup2\n      mstore\n      0x04\n      add\n      tag_227\n      swap1\n      tag_228\n      jump\t// in\n    tag_227:\n      mload(0x40)\n      dup1\n      swap2\n      sub\n      swap1\n      revert\n    tag_226:\n        /* \"contracts/token/ERC20.sol\":10814:10865  _approve(owner, spender, currentAllowance - amount) */\n      tag_229\n        /* \"contracts/token/ERC20.sol\":10823:10828  owner */\n      dup5\n        /* \"contracts/token/ERC20.sol\":10830:10837  spender */\n      dup5\n        /* \"contracts/token/ERC20.sol\":10858:10864  amount */\n      dup5\n        /* \"contracts/token/ERC20.sol\":10839:10855  currentAllowance */\n      dup5\n        /* \"contracts/token/ERC20.sol\":10839:10864  currentAllowance - amount */\n      sub\n        /* \"contracts/token/ERC20.sol\":10814:10822  _approve */\n      tag_127\n        /* \"contracts/token/ERC20.sol\":10814:10865  _approve(owner, spender, currentAllowance - amount) */\n      jump\t// in\n    tag_229:\n        /* \"contracts/token/ERC20.sol\":10644:10892  if (currentAllowance != type(uint256).max) {... */\n    tag_225:\n        /* \"contracts/token/ERC20.sol\":10570:10899  {... */\n      pop\n        /* \"contracts/token/ERC20.sol\":10480:10899  function _spendAllowance(address owner, address spender, uint256 amount) internal virtual {... */\n      pop\n      pop\n      pop\n      jump\t// out\n        /* \"contracts/token/ERC20.sol\":6756:7562  function _transfer(address from, address to, uint256 amount) internal virtual {... */\n    tag_161:\n        /* \"contracts/token/ERC20.sol\":6869:6870  0 */\n      0x00\n        /* \"contracts/token/ERC20.sol\":6853:6871  from != address(0) */\n      0xffffffffffffffffffffffffffffffffffffffff\n      and\n        /* \"contracts/token/ERC20.sol\":6853:6857  from */\n      dup4\n        /* \"contracts/token/ERC20.sol\":6853:6871  from != address(0) */\n      0xffffffffffffffffffffffffffffffffffffffff\n      and\n      sub\n        /* \"contracts/token/ERC20.sol\":6845:6913  require(from != address(0), \"ERC20: transfer from the zero address\") */\n      tag_231\n      jumpi\n      mload(0x40)\n      0x08c379a000000000000000000000000000000000000000000000000000000000\n      dup2\n      mstore\n      0x04\n      add\n      tag_232\n      swap1\n      tag_233\n      jump\t// in\n    tag_232:\n      mload(0x40)\n      dup1\n      swap2\n      sub\n      swap1\n      revert\n    tag_231:\n        /* \"contracts/token/ERC20.sol\":6946:6947  0 */\n      0x00\n        /* \"contracts/token/ERC20.sol\":6932:6948  to != address(0) */\n      0xffffffffffffffffffffffffffffffffffffffff\n      and\n        /* \"contracts/token/ERC20.sol\":6932:6934  to */\n      dup3\n        /* \"contracts/token/ERC20.sol\":6932:6948  to != address(0) */\n      0xffffffffffffffffffffffffffffffffffffffff\n      and\n      sub\n        /* \"contracts/token/ERC20.sol\":6924:6988  require(to != address(0), \"ERC20: transfer to the zero address\") */\n      tag_234\n      jumpi\n      mload(0x40)\n      0x08c379a000000000000000000000000000000000000000000000000000000000\n      dup2\n      mstore\n      0x04\n      add\n      tag_235\n      swap1\n      tag_236\n      jump\t// in\n    tag_235:\n      mload(0x40)\n      dup1\n      swap2\n      sub\n      swap1\n      revert\n    tag_234:\n        /* \"contracts/token/ERC20.sol\":7001:7039  _beforeTokenTransfer(from, to, amount) */\n      tag_237\n        /* \"contracts/token/ERC20.sol\":7022:7026  from */\n      dup4\n        /* \"contracts/token/ERC20.sol\":7028:7030  to */\n      dup4\n        /* \"contracts/token/ERC20.sol\":7032:7038  amount */\n      dup4\n        /* \"contracts/token/ERC20.sol\":7001:7021  _beforeTokenTransfer */\n      tag_238\n        /* \"contracts/token/ERC20.sol\":7001:7039  _beforeTokenTransfer(from, to, amount) */\n      jump\t// in\n    tag_237:\n        /* \"contracts/token/ERC20.sol\":7052:7071  uint256 fromBalance */\n      0x00\n        /* \"contracts/token/ERC20.sol\":7074:7083  _balances */\n      dup1\n        /* \"contracts/token/ERC20.sol\":7074:7089  _balances[from] */\n      0x00\n        /* \"contracts/token/ERC20.sol\":7084:7088  from */\n      dup6\n        /* \"contracts/token/ERC20.sol\":7074:7089  _balances[from] */\n      0xffffffffffffffffffffffffffffffffffffffff\n      and\n      0xffffffffffffffffffffffffffffffffffffffff\n      and\n      dup2\n      mstore\n      0x20\n      add\n      swap1\n      dup2\n      mstore\n      0x20\n      add\n      0x00\n      keccak256\n      sload\n        /* \"contracts/token/ERC20.sol\":7052:7089  uint256 fromBalance = _balances[from] */\n      swap1\n      pop\n        /* \"contracts/token/ERC20.sol\":7123:7129  amount */\n      dup2\n        /* \"contracts/token/ERC20.sol\":7108:7119  fromBalance */\n      dup2\n        /* \"contracts/token/ERC20.sol\":7108:7129  fromBalance >= amount */\n      lt\n      iszero\n        /* \"contracts/token/ERC20.sol\":7100:7172  require(fromBalance >= amount, \"ERC20: transfer amount exceeds balance\") */\n      tag_239\n      jumpi\n      mload(0x40)\n      0x08c379a000000000000000000000000000000000000000000000000000000000\n      dup2\n      mstore\n      0x04\n      add\n      tag_240\n      swap1\n      tag_241\n      jump\t// in\n    tag_240:\n      mload(0x40)\n      dup1\n      swap2\n      sub\n      swap1\n      revert\n    tag_239:\n        /* \"contracts/token/ERC20.sol\":7240:7246  amount */\n      dup2\n        /* \"contracts/token/ERC20.sol\":7226:7237  fromBalance */\n      dup2\n        /* \"contracts/token/ERC20.sol\":7226:7246  fromBalance - amount */\n      sub\n        /* \"contracts/token/ERC20.sol\":7208:7217  _balances */\n      0x00\n        /* \"contracts/token/ERC20.sol\":7208:7223  _balances[from] */\n      dup1\n        /* \"contracts/token/ERC20.sol\":7218:7222  from */\n      dup7\n        /* \"contracts/token/ERC20.sol\":7208:7223  _balances[from] */\n      0xffffffffffffffffffffffffffffffffffffffff\n      and\n      0xffffffffffffffffffffffffffffffffffffffff\n      and\n      dup2\n      mstore\n      0x20\n      add\n      swap1\n      dup2\n      mstore\n      0x20\n      add\n      0x00\n      keccak256\n        /* \"contracts/token/ERC20.sol\":7208:7246  _balances[from] = fromBalance - amount */\n      dup2\n      swap1\n      sstore\n      pop\n        /* \"contracts/token/ERC20.sol\":7443:7449  amount */\n      dup2\n        /* \"contracts/token/ERC20.sol\":7426:7435  _balances */\n      0x00\n        /* \"contracts/token/ERC20.sol\":7426:7439  _balances[to] */\n      dup1\n        /* \"contracts/token/ERC20.sol\":7436:7438  to */\n      dup6\n        /* \"contracts/token/ERC20.sol\":7426:7439  _balances[to] */\n      0xffffffffffffffffffffffffffffffffffffffff\n      and\n      0xffffffffffffffffffffffffffffffffffffffff\n      and\n      dup2\n      mstore\n      0x20\n      add\n      swap1\n      dup2\n      mstore\n      0x20\n      add\n      0x00\n      keccak256\n      0x00\n        /* \"contracts/token/ERC20.sol\":7426:7449  _balances[to] += amount */\n      dup3\n      dup3\n      sload\n      add\n      swap3\n      pop\n      pop\n      dup2\n      swap1\n      sstore\n      pop\n        /* \"contracts/token/ERC20.sol\":7493:7495  to */\n      dup3\n        /* \"contracts/token/ERC20.sol\":7478:7504  Transfer(from, to, amount) */\n      0xffffffffffffffffffffffffffffffffffffffff\n      and\n        /* \"contracts/token/ERC20.sol\":7487:7491  from */\n      dup5\n        /* \"contracts/token/ERC20.sol\":7478:7504  Transfer(from, to, amount) */\n      0xffffffffffffffffffffffffffffffffffffffff\n      and\n      0xddf252ad1be2c89b69c2b068fc378daa952ba7f163c4a11628f55a4df523b3ef\n        /* \"contracts/token/ERC20.sol\":7497:7503  amount */\n      dup5\n        /* \"contracts/token/ERC20.sol\":7478:7504  Transfer(from, to, amount) */\n      mload(0x40)\n      tag_242\n      swap2\n      swap1\n      tag_40\n      jump\t// in\n    tag_242:\n      mload(0x40)\n      dup1\n      swap2\n      sub\n      swap1\n      log3\n        /* \"contracts/token/ERC20.sol\":7517:7554  _afterTokenTransfer(from, to, amount) */\n      tag_243\n        /* \"contracts/token/ERC20.sol\":7537:7541  from */\n      dup5\n        /* \"contracts/token/ERC20.sol\":7543:7545  to */\n      dup5\n        /* \"contracts/token/ERC20.sol\":7547:7553  amount */\n      dup5\n        /* \"contracts/token/ERC20.sol\":7517:7536  _afterTokenTransfer */\n      tag_244\n        /* \"contracts/token/ERC20.sol\":7517:7554  _afterTokenTransfer(from, to, amount) */\n      jump\t// in\n    tag_243:\n        /* \"contracts/token/ERC20.sol\":6834:7562  {... */\n      pop\n        /* \"contracts/token/ERC20.sol\":6756:7562  function _transfer(address from, address to, uint256 amount) internal virtual {... */\n      pop\n      pop\n      pop\n      jump\t// out\n        /* \"contracts/token/ERC20.sol\":7849:8397  function _mint(address account, uint256 amount) internal virtual {... */\n    tag_175:\n        /* \"contracts/token/ERC20.sol\":7952:7953  0 */\n      0x00\n        /* \"contracts/token/ERC20.sol\":7933:7954  account != address(0) */\n      0xffffffffffffffffffffffffffffffffffffffff\n      and\n        /* \"contracts/token/ERC20.sol\":7933:7940  account */\n      dup3\n        /* \"contracts/token/ERC20.sol\":7933:7954  account != address(0) */\n      0xffffffffffffffffffffffffffffffffffffffff\n      and\n      sub\n        /* \"contracts/token/ERC20.sol\":7925:7990  require(account != address(0), \"ERC20: mint to the zero address\") */\n      tag_246\n      jumpi\n      mload(0x40)\n      0x08c379a000000000000000000000000000000000000000000000000000000000\n      dup2\n      mstore\n      0x04\n      add\n      tag_247\n      swap1\n      tag_248\n      jump\t// in\n    tag_247:\n      mload(0x40)\n      dup1\n      swap2\n      sub\n      swap1\n      revert\n    tag_246:\n        /* \"contracts/token/ERC20.sol\":8003:8052  _beforeTokenTransfer(address(0), account, amount) */\n      tag_249\n        /* \"contracts/token/ERC20.sol\":8032:8033  0 */\n      0x00\n        /* \"contracts/token/ERC20.sol\":8036:8043  account */\n      dup4\n        /* \"contracts/token/ERC20.sol\":8045:8051  amount */\n      dup4\n        /* \"contracts/token/ERC20.sol\":8003:8023  _beforeTokenTransfer */\n      tag_238\n        /* \"contracts/token/ERC20.sol\":8003:8052  _beforeTokenTransfer(address(0), account, amount) */\n      jump\t// in\n    tag_249:\n        /* \"contracts/token/ERC20.sol\":8081:8087  amount */\n      dup1\n        /* \"contracts/token/ERC20.sol\":8065:8077  _totalSupply */\n      0x02\n      0x00\n        /* \"contracts/token/ERC20.sol\":8065:8087  _totalSupply += amount */\n      dup3\n      dup3\n      sload\n      tag_250\n      swap2\n      swap1\n      tag_168\n      jump\t// in\n    tag_250:\n      swap3\n      pop\n      pop\n      dup2\n      swap1\n      sstore\n      pop\n        /* \"contracts/token/ERC20.sol\":8258:8264  amount */\n      dup1\n        /* \"contracts/token/ERC20.sol\":8236:8245  _balances */\n      0x00\n        /* \"contracts/token/ERC20.sol\":8236:8254  _balances[account] */\n      dup1\n        /* \"contracts/token/ERC20.sol\":8246:8253  account */\n      dup5\n        /* \"contracts/token/ERC20.sol\":8236:8254  _balances[account] */\n      0xffffffffffffffffffffffffffffffffffffffff\n      and\n      0xffffffffffffffffffffffffffffffffffffffff\n      and\n      dup2\n      mstore\n      0x20\n      add\n      swap1\n      dup2\n      mstore\n      0x20\n      add\n      0x00\n      keccak256\n      0x00\n        /* \"contracts/token/ERC20.sol\":8236:8264  _balances[account] += amount */\n      dup3\n      dup3\n      sload\n      add\n      swap3\n      pop\n      pop\n      dup2\n      swap1\n      sstore\n      pop\n        /* \"contracts/token/ERC20.sol\":8312:8319  account */\n      dup2\n        /* \"contracts/token/ERC20.sol\":8291:8328  Transfer(address(0), account, amount) */\n      0xffffffffffffffffffffffffffffffffffffffff\n      and\n        /* \"contracts/token/ERC20.sol\":8308:8309  0 */\n      0x00\n        /* \"contracts/token/ERC20.sol\":8291:8328  Transfer(address(0), account, amount) */\n      0xffffffffffffffffffffffffffffffffffffffff\n      and\n      0xddf252ad1be2c89b69c2b068fc378daa952ba7f163c4a11628f55a4df523b3ef\n        /* \"contracts/token/ERC20.sol\":8321:8327  amount */\n      dup4\n        /* \"contracts/token/ERC20.sol\":8291:8328  Transfer(address(0), account, amount) */\n      mload(0x40)\n      tag_251\n      swap2\n      swap1\n      tag_40\n      jump\t// in\n    tag_251:\n      mload(0x40)\n      dup1\n      swap2\n      sub\n      swap1\n      log3\n        /* \"contracts/token/ERC20.sol\":8341:8389  _afterTokenTransfer(address(0), account, amount) */\n      tag_252\n        /* \"contracts/token/ERC20.sol\":8369:8370  0 */\n      0x00\n        /* \"contracts/token/ERC20.sol\":8373:8380  account */\n      dup4\n        /* \"contracts/token/ERC20.sol\":8382:8388  amount */\n      dup4\n        /* \"contracts/token/ERC20.sol\":8341:8360  _afterTokenTransfer */\n      tag_244\n        /* \"contracts/token/ERC20.sol\":8341:8389  _afterTokenTransfer(address(0), account, amount) */\n      jump\t// in\n    tag_252:\n        /* \"contracts/token/ERC20.sol\":7849:8397  function _mint(address account, uint256 amount) internal virtual {... */\n      pop\n      pop\n      jump\t// out\n        /* \"contracts/utils/SafeMath.sol\":311:430  function sub(uint256 a, uint256 b) internal pure returns (uint256) {... */\n    tag_207:\n        /* \"contracts/utils/SafeMath.sol\":369:376  uint256 */\n      0x00\n        /* \"contracts/utils/SafeMath.sol\":399:400  a */\n      dup3\n        /* \"contracts/utils/SafeMath.sol\":394:395  b */\n      dup3\n        /* \"contracts/utils/SafeMath.sol\":394:400  b <= a */\n      gt\n      iszero\n        /* \"contracts/utils/SafeMath.sol\":387:401  assert(b <= a) */\n      tag_254\n      jumpi\n      tag_255\n      tag_256\n      jump\t// in\n    tag_255:\n    tag_254:\n        /* \"contracts/utils/SafeMath.sol\":421:422  b */\n      dup2\n        /* \"contracts/utils/SafeMath.sol\":417:418  a */\n      dup4\n        /* \"contracts/utils/SafeMath.sol\":417:422  a - b */\n      tag_257\n      swap2\n      swap1\n      tag_136\n      jump\t// in\n    tag_257:\n        /* \"contracts/utils/SafeMath.sol\":410:422  return a - b */\n      swap1\n      pop\n        /* \"contracts/utils/SafeMath.sol\":311:430  function sub(uint256 a, uint256 b) internal pure returns (uint256) {... */\n      swap3\n      swap2\n      pop\n      pop\n      jump\t// out\n        /* \"contracts/utils/SafeMath.sol\":456:597  function add(uint256 a, uint256 b) internal pure returns (uint256) {... */\n    tag_209:\n        /* \"contracts/utils/SafeMath.sol\":514:521  uint256 */\n      0x00\n        /* \"contracts/utils/SafeMath.sol\":532:541  uint256 c */\n      dup1\n        /* \"contracts/utils/SafeMath.sol\":548:549  b */\n      dup3\n        /* \"contracts/utils/SafeMath.sol\":544:545  a */\n      dup5\n        /* \"contracts/utils/SafeMath.sol\":544:549  a + b */\n      tag_259\n      swap2\n      swap1\n      tag_168\n      jump\t// in\n    tag_259:\n        /* \"contracts/utils/SafeMath.sol\":532:549  uint256 c = a + b */\n      swap1\n      pop\n        /* \"contracts/utils/SafeMath.sol\":570:571  a */\n      dup4\n        /* \"contracts/utils/SafeMath.sol\":565:566  c */\n      dup2\n        /* \"contracts/utils/SafeMath.sol\":565:571  c >= a */\n      lt\n      iszero\n        /* \"contracts/utils/SafeMath.sol\":558:572  assert(c >= a) */\n      tag_260\n      jumpi\n      tag_261\n      tag_256\n      jump\t// in\n    tag_261:\n    tag_260:\n        /* \"contracts/utils/SafeMath.sol\":588:589  c */\n      dup1\n        /* \"contracts/utils/SafeMath.sol\":581:589  return c */\n      swap2\n      pop\n      pop\n        /* \"contracts/utils/SafeMath.sol\":456:597  function add(uint256 a, uint256 b) internal pure returns (uint256) {... */\n      swap3\n      swap2\n      pop\n      pop\n      jump\t// out\n        /* \"contracts/token/ERC20.sol\":11499:11590  function _beforeTokenTransfer(address from, address to, uint256 amount) internal virtual {} */\n    tag_238:\n      pop\n      pop\n      pop\n      jump\t// out\n        /* \"contracts/token/ERC20.sol\":12194:12284  function _afterTokenTransfer(address from, address to, uint256 amount) internal virtual {} */\n    tag_244:\n      pop\n      pop\n      pop\n      jump\t// out\n        /* \"#utility.yul\":7:106   */\n    tag_264:\n        /* \"#utility.yul\":59:65   */\n      0x00\n        /* \"#utility.yul\":93:98   */\n      dup2\n        /* \"#utility.yul\":87:99   */\n      mload\n        /* \"#utility.yul\":77:99   */\n      swap1\n      pop\n        /* \"#utility.yul\":7:106   */\n      swap2\n      swap1\n      pop\n      jump\t// out\n        /* \"#utility.yul\":112:281   */\n    tag_265:\n        /* \"#utility.yul\":196:207   */\n      0x00\n        /* \"#utility.yul\":230:236   */\n      dup3\n        /* \"#utility.yul\":225:228   */\n      dup3\n        /* \"#utility.yul\":218:237   */\n      mstore\n        /* \"#utility.yul\":270:274   */\n      0x20\n        /* \"#utility.yul\":265:268   */\n      dup3\n        /* \"#utility.yul\":261:275   */\n      add\n        /* \"#utility.yul\":246:275   */\n      swap1\n      pop\n        /* \"#utility.yul\":112:281   */\n      swap3\n      swap2\n      pop\n      pop\n      jump\t// out\n        /* \"#utility.yul\":287:533   */\n    tag_266:\n        /* \"#utility.yul\":368:369   */\n      0x00\n        /* \"#utility.yul\":378:491   */\n    tag_320:\n        /* \"#utility.yul\":392:398   */\n      dup4\n        /* \"#utility.yul\":389:390   */\n      dup2\n        /* \"#utility.yul\":386:399   */\n      lt\n        /* \"#utility.yul\":378:491   */\n      iszero\n      tag_322\n      jumpi\n        /* \"#utility.yul\":477:478   */\n      dup1\n        /* \"#utility.yul\":472:475   */\n      dup3\n        /* \"#utility.yul\":468:479   */\n      add\n        /* \"#utility.yul\":462:480   */\n      mload\n        /* \"#utility.yul\":458:459   */\n      dup2\n        /* \"#utility.yul\":453:456   */\n      dup5\n        /* \"#utility.yul\":449:460   */\n      add\n        /* \"#utility.yul\":442:481   */\n      mstore\n        /* \"#utility.yul\":414:416   */\n      0x20\n        /* \"#utility.yul\":411:412   */\n      dup2\n        /* \"#utility.yul\":407:417   */\n      add\n        /* \"#utility.yul\":402:417   */\n      swap1\n      pop\n        /* \"#utility.yul\":378:491   */\n      jump(tag_320)\n    tag_322:\n        /* \"#utility.yul\":525:526   */\n      0x00\n        /* \"#utility.yul\":516:522   */\n      dup5\n        /* \"#utility.yul\":511:514   */\n      dup5\n        /* \"#utility.yul\":507:523   */\n      add\n        /* \"#utility.yul\":500:527   */\n      mstore\n        /* \"#utility.yul\":349:533   */\n      pop\n        /* \"#utility.yul\":287:533   */\n      pop\n      pop\n      pop\n      jump\t// out\n        /* \"#utility.yul\":539:641   */\n    tag_267:\n        /* \"#utility.yul\":580:586   */\n      0x00\n        /* \"#utility.yul\":631:633   */\n      0x1f\n        /* \"#utility.yul\":627:634   */\n      not\n        /* \"#utility.yul\":622:624   */\n      0x1f\n        /* \"#utility.yul\":615:620   */\n      dup4\n        /* \"#utility.yul\":611:625   */\n      add\n        /* \"#utility.yul\":607:635   */\n      and\n        /* \"#utility.yul\":597:635   */\n      swap1\n      pop\n        /* \"#utility.yul\":539:641   */\n      swap2\n      swap1\n      pop\n      jump\t// out\n        /* \"#utility.yul\":647:1024   */\n    tag_268:\n        /* \"#utility.yul\":735:738   */\n      0x00\n        /* \"#utility.yul\":763:802   */\n      tag_325\n        /* \"#utility.yul\":796:801   */\n      dup3\n        /* \"#utility.yul\":763:802   */\n      tag_264\n      jump\t// in\n    tag_325:\n        /* \"#utility.yul\":818:889   */\n      tag_326\n        /* \"#utility.yul\":882:888   */\n      dup2\n        /* \"#utility.yul\":877:880   */\n      dup6\n        /* \"#utility.yul\":818:889   */\n      tag_265\n      jump\t// in\n    tag_326:\n        /* \"#utility.yul\":811:889   */\n      swap4\n      pop\n        /* \"#utility.yul\":898:963   */\n      tag_327\n        /* \"#utility.yul\":956:962   */\n      dup2\n        /* \"#utility.yul\":951:954   */\n      dup6\n        /* \"#utility.yul\":944:948   */\n      0x20\n        /* \"#utility.yul\":937:942   */\n      dup7\n        /* \"#utility.yul\":933:949   */\n      add\n        /* \"#utility.yul\":898:963   */\n      tag_266\n      jump\t// in\n    tag_327:\n        /* \"#utility.yul\":988:1017   */\n      tag_328\n        /* \"#utility.yul\":1010:1016   */\n      dup2\n        /* \"#utility.yul\":988:1017   */\n      tag_267\n      jump\t// in\n    tag_328:\n        /* \"#utility.yul\":983:986   */\n      dup5\n        /* \"#utility.yul\":979:1018   */\n      add\n        /* \"#utility.yul\":972:1018   */\n      swap2\n      pop\n        /* \"#utility.yul\":739:1024   */\n      pop\n        /* \"#utility.yul\":647:1024   */\n      swap3\n      swap2\n      pop\n      pop\n      jump\t// out\n        /* \"#utility.yul\":1030:1343   */\n    tag_28:\n        /* \"#utility.yul\":1143:1147   */\n      0x00\n        /* \"#utility.yul\":1181:1183   */\n      0x20\n        /* \"#utility.yul\":1170:1179   */\n      dup3\n        /* \"#utility.yul\":1166:1184   */\n      add\n        /* \"#utility.yul\":1158:1184   */\n      swap1\n      pop\n        /* \"#utility.yul\":1230:1239   */\n      dup2\n        /* \"#utility.yul\":1224:1228   */\n      dup2\n        /* \"#utility.yul\":1220:1240   */\n      sub\n        /* \"#utility.yul\":1216:1217   */\n      0x00\n        /* \"#utility.yul\":1205:1214   */\n      dup4\n        /* \"#utility.yul\":1201:1218   */\n      add\n        /* \"#utility.yul\":1194:1241   */\n      mstore\n        /* \"#utility.yul\":1258:1336   */\n      tag_330\n        /* \"#utility.yul\":1331:1335   */\n      dup2\n        /* \"#utility.yul\":1322:1328   */\n      dup5\n        /* \"#utility.yul\":1258:1336   */\n      tag_268\n      jump\t// in\n    tag_330:\n        /* \"#utility.yul\":1250:1336   */\n      swap1\n      pop\n        /* \"#utility.yul\":1030:1343   */\n      swap3\n      swap2\n      pop\n      pop\n      jump\t// out\n        /* \"#utility.yul\":1430:1547   */\n    tag_270:\n        /* \"#utility.yul\":1539:1540   */\n      0x00\n        /* \"#utility.yul\":1536:1537   */\n      dup1\n        /* \"#utility.yul\":1529:1541   */\n      revert\n        /* \"#utility.yul\":1676:1802   */\n    tag_272:\n        /* \"#utility.yul\":1713:1720   */\n      0x00\n        /* \"#utility.yul\":1753:1795   */\n      0xffffffffffffffffffffffffffffffffffffffff\n        /* \"#utility.yul\":1746:1751   */\n      dup3\n        /* \"#utility.yul\":1742:1796   */\n      and\n        /* \"#utility.yul\":1731:1796   */\n      swap1\n      pop\n        /* \"#utility.yul\":1676:1802   */\n      swap2\n      swap1\n      pop\n      jump\t// out\n        /* \"#utility.yul\":1808:1904   */\n    tag_273:\n        /* \"#utility.yul\":1845:1852   */\n      0x00\n        /* \"#utility.yul\":1874:1898   */\n      tag_336\n        /* \"#utility.yul\":1892:1897   */\n      dup3\n        /* \"#utility.yul\":1874:1898   */\n      tag_272\n      jump\t// in\n    tag_336:\n        /* \"#utility.yul\":1863:1898   */\n      swap1\n      pop\n        /* \"#utility.yul\":1808:1904   */\n      swap2\n      swap1\n      pop\n      jump\t// out\n        /* \"#utility.yul\":1910:2032   */\n    tag_274:\n        /* \"#utility.yul\":1983:2007   */\n      tag_338\n        /* \"#utility.yul\":2001:2006   */\n      dup2\n        /* \"#utility.yul\":1983:2007   */\n      tag_273\n      jump\t// in\n    tag_338:\n        /* \"#utility.yul\":1976:1981   */\n      dup2\n        /* \"#utility.yul\":1973:2008   */\n      eq\n        /* \"#utility.yul\":1963:2026   */\n      tag_339\n      jumpi\n        /* \"#utility.yul\":2022:2023   */\n      0x00\n        /* \"#utility.yul\":2019:2020   */\n      dup1\n        /* \"#utility.yul\":2012:2024   */\n      revert\n        /* \"#utility.yul\":1963:2026   */\n    tag_339:\n        /* \"#utility.yul\":1910:2032   */\n      pop\n      jump\t// out\n        /* \"#utility.yul\":2038:2177   */\n    tag_275:\n        /* \"#utility.yul\":2084:2089   */\n      0x00\n        /* \"#utility.yul\":2122:2128   */\n      dup2\n        /* \"#utility.yul\":2109:2129   */\n      calldataload\n        /* \"#utility.yul\":2100:2129   */\n      swap1\n      pop\n        /* \"#utility.yul\":2138:2171   */\n      tag_341\n        /* \"#utility.yul\":2165:2170   */\n      dup2\n        /* \"#utility.yul\":2138:2171   */\n      tag_274\n      jump\t// in\n    tag_341:\n        /* \"#utility.yul\":2038:2177   */\n      swap3\n      swap2\n      pop\n      pop\n      jump\t// out\n        /* \"#utility.yul\":2183:2260   */\n    tag_276:\n        /* \"#utility.yul\":2220:2227   */\n      0x00\n        /* \"#utility.yul\":2249:2254   */\n      dup2\n        /* \"#utility.yul\":2238:2254   */\n      swap1\n      pop\n        /* \"#utility.yul\":2183:2260   */\n      swap2\n      swap1\n      pop\n      jump\t// out\n        /* \"#utility.yul\":2266:2388   */\n    tag_277:\n        /* \"#utility.yul\":2339:2363   */\n      tag_344\n        /* \"#utility.yul\":2357:2362   */\n      dup2\n        /* \"#utility.yul\":2339:2363   */\n      tag_276\n      jump\t// in\n    tag_344:\n        /* \"#utility.yul\":2332:2337   */\n      dup2\n        /* \"#utility.yul\":2329:2364   */\n      eq\n        /* \"#utility.yul\":2319:2382   */\n      tag_345\n      jumpi\n        /* \"#utility.yul\":2378:2379   */\n      0x00\n        /* \"#utility.yul\":2375:2376   */\n      dup1\n        /* \"#utility.yul\":2368:2380   */\n      revert\n        /* \"#utility.yul\":2319:2382   */\n    tag_345:\n        /* \"#utility.yul\":2266:2388   */\n      pop\n      jump\t// out\n        /* \"#utility.yul\":2394:2533   */\n    tag_278:\n        /* \"#utility.yul\":2440:2445   */\n      0x00\n        /* \"#utility.yul\":2478:2484   */\n      dup2\n        /* \"#utility.yul\":2465:2485   */\n      calldataload\n        /* \"#utility.yul\":2456:2485   */\n      swap1\n      pop\n        /* \"#utility.yul\":2494:2527   */\n      tag_347\n        /* \"#utility.yul\":2521:2526   */\n      dup2\n        /* \"#utility.yul\":2494:2527   */\n      tag_277\n      jump\t// in\n    tag_347:\n        /* \"#utility.yul\":2394:2533   */\n      swap3\n      swap2\n      pop\n      pop\n      jump\t// out\n        /* \"#utility.yul\":2539:3013   */\n    tag_32:\n        /* \"#utility.yul\":2607:2613   */\n      0x00\n        /* \"#utility.yul\":2615:2621   */\n      dup1\n        /* \"#utility.yul\":2664:2666   */\n      0x40\n        /* \"#utility.yul\":2652:2661   */\n      dup4\n        /* \"#utility.yul\":2643:2650   */\n      dup6\n        /* \"#utility.yul\":2639:2662   */\n      sub\n        /* \"#utility.yul\":2635:2667   */\n      slt\n        /* \"#utility.yul\":2632:2751   */\n      iszero\n      tag_349\n      jumpi\n        /* \"#utility.yul\":2670:2749   */\n      tag_350\n      tag_270\n      jump\t// in\n    tag_350:\n        /* \"#utility.yul\":2632:2751   */\n    tag_349:\n        /* \"#utility.yul\":2790:2791   */\n      0x00\n        /* \"#utility.yul\":2815:2868   */\n      tag_351\n        /* \"#utility.yul\":2860:2867   */\n      dup6\n        /* \"#utility.yul\":2851:2857   */\n      dup3\n        /* \"#utility.yul\":2840:2849   */\n      dup7\n        /* \"#utility.yul\":2836:2858   */\n      add\n        /* \"#utility.yul\":2815:2868   */\n      tag_275\n      jump\t// in\n    tag_351:\n        /* \"#utility.yul\":2805:2868   */\n      swap3\n      pop\n        /* \"#utility.yul\":2761:2878   */\n      pop\n        /* \"#utility.yul\":2917:2919   */\n      0x20\n        /* \"#utility.yul\":2943:2996   */\n      tag_352\n        /* \"#utility.yul\":2988:2995   */\n      dup6\n        /* \"#utility.yul\":2979:2985   */\n      dup3\n        /* \"#utility.yul\":2968:2977   */\n      dup7\n        /* \"#utility.yul\":2964:2986   */\n      add\n        /* \"#utility.yul\":2943:2996   */\n      tag_278\n      jump\t// in\n    tag_352:\n        /* \"#utility.yul\":2933:2996   */\n      swap2\n      pop\n        /* \"#utility.yul\":2888:3006   */\n      pop\n        /* \"#utility.yul\":2539:3013   */\n      swap3\n      pop\n      swap3\n      swap1\n      pop\n      jump\t// out\n        /* \"#utility.yul\":3019:3109   */\n    tag_279:\n        /* \"#utility.yul\":3053:3060   */\n      0x00\n        /* \"#utility.yul\":3096:3101   */\n      dup2\n        /* \"#utility.yul\":3089:3102   */\n      iszero\n        /* \"#utility.yul\":3082:3103   */\n      iszero\n        /* \"#utility.yul\":3071:3103   */\n      swap1\n      pop\n        /* \"#utility.yul\":3019:3109   */\n      swap2\n      swap1\n      pop\n      jump\t// out\n        /* \"#utility.yul\":3115:3224   */\n    tag_280:\n        /* \"#utility.yul\":3196:3217   */\n      tag_355\n        /* \"#utility.yul\":3211:3216   */\n      dup2\n        /* \"#utility.yul\":3196:3217   */\n      tag_279\n      jump\t// in\n    tag_355:\n        /* \"#utility.yul\":3191:3194   */\n      dup3\n        /* \"#utility.yul\":3184:3218   */\n      mstore\n        /* \"#utility.yul\":3115:3224   */\n      pop\n      pop\n      jump\t// out\n        /* \"#utility.yul\":3230:3440   */\n    tag_35:\n        /* \"#utility.yul\":3317:3321   */\n      0x00\n        /* \"#utility.yul\":3355:3357   */\n      0x20\n        /* \"#utility.yul\":3344:3353   */\n      dup3\n        /* \"#utility.yul\":3340:3358   */\n      add\n        /* \"#utility.yul\":3332:3358   */\n      swap1\n      pop\n        /* \"#utility.yul\":3368:3433   */\n      tag_357\n        /* \"#utility.yul\":3430:3431   */\n      0x00\n        /* \"#utility.yul\":3419:3428   */\n      dup4\n        /* \"#utility.yul\":3415:3432   */\n      add\n        /* \"#utility.yul\":3406:3412   */\n      dup5\n        /* \"#utility.yul\":3368:3433   */\n      tag_280\n      jump\t// in\n    tag_357:\n        /* \"#utility.yul\":3230:3440   */\n      swap3\n      swap2\n      pop\n      pop\n      jump\t// out\n        /* \"#utility.yul\":3446:3564   */\n    tag_281:\n        /* \"#utility.yul\":3533:3557   */\n      tag_359\n        /* \"#utility.yul\":3551:3556   */\n      dup2\n        /* \"#utility.yul\":3533:3557   */\n      tag_276\n      jump\t// in\n    tag_359:\n        /* \"#utility.yul\":3528:3531   */\n      dup3\n        /* \"#utility.yul\":3521:3558   */\n      mstore\n        /* \"#utility.yul\":3446:3564   */\n      pop\n      pop\n      jump\t// out\n        /* \"#utility.yul\":3570:3792   */\n    tag_40:\n        /* \"#utility.yul\":3663:3667   */\n      0x00\n        /* \"#utility.yul\":3701:3703   */\n      0x20\n        /* \"#utility.yul\":3690:3699   */\n      dup3\n        /* \"#utility.yul\":3686:3704   */\n      add\n        /* \"#utility.yul\":3678:3704   */\n      swap1\n      pop\n        /* \"#utility.yul\":3714:3785   */\n      tag_361\n        /* \"#utility.yul\":3782:3783   */\n      0x00\n        /* \"#utility.yul\":3771:3780   */\n      dup4\n        /* \"#utility.yul\":3767:3784   */\n      add\n        /* \"#utility.yul\":3758:3764   */\n      dup5\n        /* \"#utility.yul\":3714:3785   */\n      tag_281\n      jump\t// in\n    tag_361:\n        /* \"#utility.yul\":3570:3792   */\n      swap3\n      swap2\n      pop\n      pop\n      jump\t// out\n        /* \"#utility.yul\":3798:4417   */\n    tag_47:\n        /* \"#utility.yul\":3875:3881   */\n      0x00\n        /* \"#utility.yul\":3883:3889   */\n      dup1\n        /* \"#utility.yul\":3891:3897   */\n      0x00\n        /* \"#utility.yul\":3940:3942   */\n      0x60\n        /* \"#utility.yul\":3928:3937   */\n      dup5\n        /* \"#utility.yul\":3919:3926   */\n      dup7\n        /* \"#utility.yul\":3915:3938   */\n      sub\n        /* \"#utility.yul\":3911:3943   */\n      slt\n        /* \"#utility.yul\":3908:4027   */\n      iszero\n      tag_363\n      jumpi\n        /* \"#utility.yul\":3946:4025   */\n      tag_364\n      tag_270\n      jump\t// in\n    tag_364:\n        /* \"#utility.yul\":3908:4027   */\n    tag_363:\n        /* \"#utility.yul\":4066:4067   */\n      0x00\n        /* \"#utility.yul\":4091:4144   */\n      tag_365\n        /* \"#utility.yul\":4136:4143   */\n      dup7\n        /* \"#utility.yul\":4127:4133   */\n      dup3\n        /* \"#utility.yul\":4116:4125   */\n      dup8\n        /* \"#utility.yul\":4112:4134   */\n      add\n        /* \"#utility.yul\":4091:4144   */\n      tag_275\n      jump\t// in\n    tag_365:\n        /* \"#utility.yul\":4081:4144   */\n      swap4\n      pop\n        /* \"#utility.yul\":4037:4154   */\n      pop\n        /* \"#utility.yul\":4193:4195   */\n      0x20\n        /* \"#utility.yul\":4219:4272   */\n      tag_366\n        /* \"#utility.yul\":4264:4271   */\n      dup7\n        /* \"#utility.yul\":4255:4261   */\n      dup3\n        /* \"#utility.yul\":4244:4253   */\n      dup8\n        /* \"#utility.yul\":4240:4262   */\n      add\n        /* \"#utility.yul\":4219:4272   */\n      tag_275\n      jump\t// in\n    tag_366:\n        /* \"#utility.yul\":4209:4272   */\n      swap3\n      pop\n        /* \"#utility.yul\":4164:4282   */\n      pop\n        /* \"#utility.yul\":4321:4323   */\n      0x40\n        /* \"#utility.yul\":4347:4400   */\n      tag_367\n        /* \"#utility.yul\":4392:4399   */\n      dup7\n        /* \"#utility.yul\":4383:4389   */\n      dup3\n        /* \"#utility.yul\":4372:4381   */\n      dup8\n        /* \"#utility.yul\":4368:4390   */\n      add\n        /* \"#utility.yul\":4347:4400   */\n      tag_278\n      jump\t// in\n    tag_367:\n        /* \"#utility.yul\":4337:4400   */\n      swap2\n      pop\n        /* \"#utility.yul\":4292:4410   */\n      pop\n        /* \"#utility.yul\":3798:4417   */\n      swap3\n      pop\n      swap3\n      pop\n      swap3\n      jump\t// out\n        /* \"#utility.yul\":4423:4509   */\n    tag_282:\n        /* \"#utility.yul\":4458:4465   */\n      0x00\n        /* \"#utility.yul\":4498:4502   */\n      0xff\n        /* \"#utility.yul\":4491:4496   */\n      dup3\n        /* \"#utility.yul\":4487:4503   */\n      and\n        /* \"#utility.yul\":4476:4503   */\n      swap1\n      pop\n        /* \"#utility.yul\":4423:4509   */\n      swap2\n      swap1\n      pop\n      jump\t// out\n        /* \"#utility.yul\":4515:4627   */\n    tag_283:\n        /* \"#utility.yul\":4598:4620   */\n      tag_370\n        /* \"#utility.yul\":4614:4619   */\n      dup2\n        /* \"#utility.yul\":4598:4620   */\n      tag_282\n      jump\t// in\n    tag_370:\n        /* \"#utility.yul\":4593:4596   */\n      dup3\n        /* \"#utility.yul\":4586:4621   */\n      mstore\n        /* \"#utility.yul\":4515:4627   */\n      pop\n      pop\n      jump\t// out\n        /* \"#utility.yul\":4633:4847   */\n    tag_54:\n        /* \"#utility.yul\":4722:4726   */\n      0x00\n        /* \"#utility.yul\":4760:4762   */\n      0x20\n        /* \"#utility.yul\":4749:4758   */\n      dup3\n        /* \"#utility.yul\":4745:4763   */\n      add\n        /* \"#utility.yul\":4737:4763   */\n      swap1\n      pop\n        /* \"#utility.yul\":4773:4840   */\n      tag_372\n        /* \"#utility.yul\":4837:4838   */\n      0x00\n        /* \"#utility.yul\":4826:4835   */\n      dup4\n        /* \"#utility.yul\":4822:4839   */\n      add\n        /* \"#utility.yul\":4813:4819   */\n      dup5\n        /* \"#utility.yul\":4773:4840   */\n      tag_283\n      jump\t// in\n    tag_372:\n        /* \"#utility.yul\":4633:4847   */\n      swap3\n      swap2\n      pop\n      pop\n      jump\t// out\n        /* \"#utility.yul\":4853:5182   */\n    tag_71:\n        /* \"#utility.yul\":4912:4918   */\n      0x00\n        /* \"#utility.yul\":4961:4963   */\n      0x20\n        /* \"#utility.yul\":4949:4958   */\n      dup3\n        /* \"#utility.yul\":4940:4947   */\n      dup5\n        /* \"#utility.yul\":4936:4959   */\n      sub\n        /* \"#utility.yul\":4932:4964   */\n      slt\n        /* \"#utility.yul\":4929:5048   */\n      iszero\n      tag_374\n      jumpi\n        /* \"#utility.yul\":4967:5046   */\n      tag_375\n      tag_270\n      jump\t// in\n    tag_375:\n        /* \"#utility.yul\":4929:5048   */\n    tag_374:\n        /* \"#utility.yul\":5087:5088   */\n      0x00\n        /* \"#utility.yul\":5112:5165   */\n      tag_376\n        /* \"#utility.yul\":5157:5164   */\n      dup5\n        /* \"#utility.yul\":5148:5154   */\n      dup3\n        /* \"#utility.yul\":5137:5146   */\n      dup6\n        /* \"#utility.yul\":5133:5155   */\n      add\n        /* \"#utility.yul\":5112:5165   */\n      tag_275\n      jump\t// in\n    tag_376:\n        /* \"#utility.yul\":5102:5165   */\n      swap2\n      pop\n        /* \"#utility.yul\":5058:5175   */\n      pop\n        /* \"#utility.yul\":4853:5182   */\n      swap3\n      swap2\n      pop\n      pop\n      jump\t// out\n        /* \"#utility.yul\":5188:5306   */\n    tag_284:\n        /* \"#utility.yul\":5275:5299   */\n      tag_378\n        /* \"#utility.yul\":5293:5298   */\n      dup2\n        /* \"#utility.yul\":5275:5299   */\n      tag_273\n      jump\t// in\n    tag_378:\n        /* \"#utility.yul\":5270:5273   */\n      dup3\n        /* \"#utility.yul\":5263:5300   */\n      mstore\n        /* \"#utility.yul\":5188:5306   */\n      pop\n      pop\n      jump\t// out\n        /* \"#utility.yul\":5312:5534   */\n    tag_78:\n        /* \"#utility.yul\":5405:5409   */\n      0x00\n        /* \"#utility.yul\":5443:5445   */\n      0x20\n        /* \"#utility.yul\":5432:5441   */\n      dup3\n        /* \"#utility.yul\":5428:5446   */\n      add\n        /* \"#utility.yul\":5420:5446   */\n      swap1\n      pop\n        /* \"#utility.yul\":5456:5527   */\n      tag_380\n        /* \"#utility.yul\":5524:5525   */\n      0x00\n        /* \"#utility.yul\":5513:5522   */\n      dup4\n        /* \"#utility.yul\":5509:5526   */\n      add\n        /* \"#utility.yul\":5500:5506   */\n      dup5\n        /* \"#utility.yul\":5456:5527   */\n      tag_284\n      jump\t// in\n    tag_380:\n        /* \"#utility.yul\":5312:5534   */\n      swap3\n      swap2\n      pop\n      pop\n      jump\t// out\n        /* \"#utility.yul\":5540:5869   */\n    tag_81:\n        /* \"#utility.yul\":5599:5605   */\n      0x00\n        /* \"#utility.yul\":5648:5650   */\n      0x20\n        /* \"#utility.yul\":5636:5645   */\n      dup3\n        /* \"#utility.yul\":5627:5634   */\n      dup5\n        /* \"#utility.yul\":5623:5646   */\n      sub\n        /* \"#utility.yul\":5619:5651   */\n      slt\n        /* \"#utility.yul\":5616:5735   */\n      iszero\n      tag_382\n      jumpi\n        /* \"#utility.yul\":5654:5733   */\n      tag_383\n      tag_270\n      jump\t// in\n    tag_383:\n        /* \"#utility.yul\":5616:5735   */\n    tag_382:\n        /* \"#utility.yul\":5774:5775   */\n      0x00\n        /* \"#utility.yul\":5799:5852   */\n      tag_384\n        /* \"#utility.yul\":5844:5851   */\n      dup5\n        /* \"#utility.yul\":5835:5841   */\n      dup3\n        /* \"#utility.yul\":5824:5833   */\n      dup6\n        /* \"#utility.yul\":5820:5842   */\n      add\n        /* \"#utility.yul\":5799:5852   */\n      tag_278\n      jump\t// in\n    tag_384:\n        /* \"#utility.yul\":5789:5852   */\n      swap2\n      pop\n        /* \"#utility.yul\":5745:5862   */\n      pop\n        /* \"#utility.yul\":5540:5869   */\n      swap3\n      swap2\n      pop\n      pop\n      jump\t// out\n        /* \"#utility.yul\":5875:6349   */\n    tag_104:\n        /* \"#utility.yul\":5943:5949   */\n      0x00\n        /* \"#utility.yul\":5951:5957   */\n      dup1\n        /* \"#utility.yul\":6000:6002   */\n      0x40\n        /* \"#utility.yul\":5988:5997   */\n      dup4\n        /* \"#utility.yul\":5979:5986   */\n      dup6\n        /* \"#utility.yul\":5975:5998   */\n      sub\n        /* \"#utility.yul\":5971:6003   */\n      slt\n        /* \"#utility.yul\":5968:6087   */\n      iszero\n      tag_386\n      jumpi\n        /* \"#utility.yul\":6006:6085   */\n      tag_387\n      tag_270\n      jump\t// in\n    tag_387:\n        /* \"#utility.yul\":5968:6087   */\n    tag_386:\n        /* \"#utility.yul\":6126:6127   */\n      0x00\n        /* \"#utility.yul\":6151:6204   */\n      tag_388\n        /* \"#utility.yul\":6196:6203   */\n      dup6\n        /* \"#utility.yul\":6187:6193   */\n      dup3\n        /* \"#utility.yul\":6176:6185   */\n      dup7\n        /* \"#utility.yul\":6172:6194   */\n      add\n        /* \"#utility.yul\":6151:6204   */\n      tag_275\n      jump\t// in\n    tag_388:\n        /* \"#utility.yul\":6141:6204   */\n      swap3\n      pop\n        /* \"#utility.yul\":6097:6214   */\n      pop\n        /* \"#utility.yul\":6253:6255   */\n      0x20\n        /* \"#utility.yul\":6279:6332   */\n      tag_389\n        /* \"#utility.yul\":6324:6331   */\n      dup6\n        /* \"#utility.yul\":6315:6321   */\n      dup3\n        /* \"#utility.yul\":6304:6313   */\n      dup7\n        /* \"#utility.yul\":6300:6322   */\n      add\n        /* \"#utility.yul\":6279:6332   */\n      tag_275\n      jump\t// in\n    tag_389:\n        /* \"#utility.yul\":6269:6332   */\n      swap2\n      pop\n        /* \"#utility.yul\":6224:6342   */\n      pop\n        /* \"#utility.yul\":5875:6349   */\n      swap3\n      pop\n      swap3\n      swap1\n      pop\n      jump\t// out\n        /* \"#utility.yul\":6355:6535   */\n    tag_285:\n        /* \"#utility.yul\":6403:6480   */\n      0x4e487b7100000000000000000000000000000000000000000000000000000000\n        /* \"#utility.yul\":6400:6401   */\n      0x00\n        /* \"#utility.yul\":6393:6481   */\n      mstore\n        /* \"#utility.yul\":6500:6504   */\n      0x22\n        /* \"#utility.yul\":6497:6498   */\n      0x04\n        /* \"#utility.yul\":6490:6505   */\n      mstore\n        /* \"#utility.yul\":6524:6528   */\n      0x24\n        /* \"#utility.yul\":6521:6522   */\n      0x00\n        /* \"#utility.yul\":6514:6529   */\n      revert\n        /* \"#utility.yul\":6541:6861   */\n    tag_118:\n        /* \"#utility.yul\":6585:6591   */\n      0x00\n        /* \"#utility.yul\":6622:6623   */\n      0x02\n        /* \"#utility.yul\":6616:6620   */\n      dup3\n        /* \"#utility.yul\":6612:6624   */\n      div\n        /* \"#utility.yul\":6602:6624   */\n      swap1\n      pop\n        /* \"#utility.yul\":6669:6670   */\n      0x01\n        /* \"#utility.yul\":6663:6667   */\n      dup3\n        /* \"#utility.yul\":6659:6671   */\n      and\n        /* \"#utility.yul\":6690:6708   */\n      dup1\n        /* \"#utility.yul\":6680:6761   */\n      tag_392\n      jumpi\n        /* \"#utility.yul\":6746:6750   */\n      0x7f\n        /* \"#utility.yul\":6738:6744   */\n      dup3\n        /* \"#utility.yul\":6734:6751   */\n      and\n        /* \"#utility.yul\":6724:6751   */\n      swap2\n      pop\n        /* \"#utility.yul\":6680:6761   */\n    tag_392:\n        /* \"#utility.yul\":6808:6810   */\n      0x20\n        /* \"#utility.yul\":6800:6806   */\n      dup3\n        /* \"#utility.yul\":6797:6811   */\n      lt\n        /* \"#utility.yul\":6777:6795   */\n      dup2\n        /* \"#utility.yul\":6774:6812   */\n      sub\n        /* \"#utility.yul\":6771:6855   */\n      tag_393\n      jumpi\n        /* \"#utility.yul\":6827:6845   */\n      tag_394\n      tag_285\n      jump\t// in\n    tag_394:\n        /* \"#utility.yul\":6771:6855   */\n    tag_393:\n        /* \"#utility.yul\":6592:6861   */\n      pop\n        /* \"#utility.yul\":6541:6861   */\n      swap2\n      swap1\n      pop\n      jump\t// out\n        /* \"#utility.yul\":6867:7096   */\n    tag_286:\n        /* \"#utility.yul\":7007:7041   */\n      0x436f6d707261206d656e6f7320546f6b656e73206f207061676120636f6e206d\n        /* \"#utility.yul\":7003:7004   */\n      0x00\n        /* \"#utility.yul\":6995:7001   */\n      dup3\n        /* \"#utility.yul\":6991:7005   */\n      add\n        /* \"#utility.yul\":6984:7042   */\n      mstore\n        /* \"#utility.yul\":7076:7088   */\n      0x6173204574686572732e00000000000000000000000000000000000000000000\n        /* \"#utility.yul\":7071:7073   */\n      0x20\n        /* \"#utility.yul\":7063:7069   */\n      dup3\n        /* \"#utility.yul\":7059:7074   */\n      add\n        /* \"#utility.yul\":7052:7089   */\n      mstore\n        /* \"#utility.yul\":6867:7096   */\n      pop\n      jump\t// out\n        /* \"#utility.yul\":7102:7468   */\n    tag_287:\n        /* \"#utility.yul\":7244:7247   */\n      0x00\n        /* \"#utility.yul\":7265:7332   */\n      tag_397\n        /* \"#utility.yul\":7329:7331   */\n      0x2a\n        /* \"#utility.yul\":7324:7327   */\n      dup4\n        /* \"#utility.yul\":7265:7332   */\n      tag_265\n      jump\t// in\n    tag_397:\n        /* \"#utility.yul\":7258:7332   */\n      swap2\n      pop\n        /* \"#utility.yul\":7341:7434   */\n      tag_398\n        /* \"#utility.yul\":7430:7433   */\n      dup3\n        /* \"#utility.yul\":7341:7434   */\n      tag_286\n      jump\t// in\n    tag_398:\n        /* \"#utility.yul\":7459:7461   */\n      0x40\n        /* \"#utility.yul\":7454:7457   */\n      dup3\n        /* \"#utility.yul\":7450:7462   */\n      add\n        /* \"#utility.yul\":7443:7462   */\n      swap1\n      pop\n        /* \"#utility.yul\":7102:7468   */\n      swap2\n      swap1\n      pop\n      jump\t// out\n        /* \"#utility.yul\":7474:7893   */\n    tag_134:\n        /* \"#utility.yul\":7640:7644   */\n      0x00\n        /* \"#utility.yul\":7678:7680   */\n      0x20\n        /* \"#utility.yul\":7667:7676   */\n      dup3\n        /* \"#utility.yul\":7663:7681   */\n      add\n        /* \"#utility.yul\":7655:7681   */\n      swap1\n      pop\n        /* \"#utility.yul\":7727:7736   */\n      dup2\n        /* \"#utility.yul\":7721:7725   */\n      dup2\n        /* \"#utility.yul\":7717:7737   */\n      sub\n        /* \"#utility.yul\":7713:7714   */\n      0x00\n        /* \"#utility.yul\":7702:7711   */\n      dup4\n        /* \"#utility.yul\":7698:7715   */\n      add\n        /* \"#utility.yul\":7691:7738   */\n      mstore\n        /* \"#utility.yul\":7755:7886   */\n      tag_400\n        /* \"#utility.yul\":7881:7885   */\n      dup2\n        /* \"#utility.yul\":7755:7886   */\n      tag_287\n      jump\t// in\n    tag_400:\n        /* \"#utility.yul\":7747:7886   */\n      swap1\n      pop\n        /* \"#utility.yul\":7474:7893   */\n      swap2\n      swap1\n      pop\n      jump\t// out\n        /* \"#utility.yul\":7899:8079   */\n    tag_288:\n        /* \"#utility.yul\":7947:8024   */\n      0x4e487b7100000000000000000000000000000000000000000000000000000000\n        /* \"#utility.yul\":7944:7945   */\n      0x00\n        /* \"#utility.yul\":7937:8025   */\n      mstore\n        /* \"#utility.yul\":8044:8048   */\n      0x11\n        /* \"#utility.yul\":8041:8042   */\n      0x04\n        /* \"#utility.yul\":8034:8049   */\n      mstore\n        /* \"#utility.yul\":8068:8072   */\n      0x24\n        /* \"#utility.yul\":8065:8066   */\n      0x00\n        /* \"#utility.yul\":8058:8073   */\n      revert\n        /* \"#utility.yul\":8085:8279   */\n    tag_136:\n        /* \"#utility.yul\":8125:8129   */\n      0x00\n        /* \"#utility.yul\":8145:8165   */\n      tag_403\n        /* \"#utility.yul\":8163:8164   */\n      dup3\n        /* \"#utility.yul\":8145:8165   */\n      tag_276\n      jump\t// in\n    tag_403:\n        /* \"#utility.yul\":8140:8165   */\n      swap2\n      pop\n        /* \"#utility.yul\":8179:8199   */\n      tag_404\n        /* \"#utility.yul\":8197:8198   */\n      dup4\n        /* \"#utility.yul\":8179:8199   */\n      tag_276\n      jump\t// in\n    tag_404:\n        /* \"#utility.yul\":8174:8199   */\n      swap3\n      pop\n        /* \"#utility.yul\":8223:8224   */\n      dup3\n        /* \"#utility.yul\":8220:8221   */\n      dup3\n        /* \"#utility.yul\":8216:8225   */\n      sub\n        /* \"#utility.yul\":8208:8225   */\n      swap1\n      pop\n        /* \"#utility.yul\":8247:8248   */\n      dup2\n        /* \"#utility.yul\":8241:8245   */\n      dup2\n        /* \"#utility.yul\":8238:8249   */\n      gt\n        /* \"#utility.yul\":8235:8272   */\n      iszero\n      tag_405\n      jumpi\n        /* \"#utility.yul\":8252:8270   */\n      tag_406\n      tag_288\n      jump\t// in\n    tag_406:\n        /* \"#utility.yul\":8235:8272   */\n    tag_405:\n        /* \"#utility.yul\":8085:8279   */\n      swap3\n      swap2\n      pop\n      pop\n      jump\t// out\n        /* \"#utility.yul\":8285:8428   */\n    tag_289:\n        /* \"#utility.yul\":8342:8347   */\n      0x00\n        /* \"#utility.yul\":8373:8379   */\n      dup2\n        /* \"#utility.yul\":8367:8380   */\n      mload\n        /* \"#utility.yul\":8358:8380   */\n      swap1\n      pop\n        /* \"#utility.yul\":8389:8422   */\n      tag_408\n        /* \"#utility.yul\":8416:8421   */\n      dup2\n        /* \"#utility.yul\":8389:8422   */\n      tag_277\n      jump\t// in\n    tag_408:\n        /* \"#utility.yul\":8285:8428   */\n      swap3\n      swap2\n      pop\n      pop\n      jump\t// out\n        /* \"#utility.yul\":8434:8785   */\n    tag_145:\n        /* \"#utility.yul\":8504:8510   */\n      0x00\n        /* \"#utility.yul\":8553:8555   */\n      0x20\n        /* \"#utility.yul\":8541:8550   */\n      dup3\n        /* \"#utility.yul\":8532:8539   */\n      dup5\n        /* \"#utility.yul\":8528:8551   */\n      sub\n        /* \"#utility.yul\":8524:8556   */\n      slt\n        /* \"#utility.yul\":8521:8640   */\n      iszero\n      tag_410\n      jumpi\n        /* \"#utility.yul\":8559:8638   */\n      tag_411\n      tag_270\n      jump\t// in\n    tag_411:\n        /* \"#utility.yul\":8521:8640   */\n    tag_410:\n        /* \"#utility.yul\":8679:8680   */\n      0x00\n        /* \"#utility.yul\":8704:8768   */\n      tag_412\n        /* \"#utility.yul\":8760:8767   */\n      dup5\n        /* \"#utility.yul\":8751:8757   */\n      dup3\n        /* \"#utility.yul\":8740:8749   */\n      dup6\n        /* \"#utility.yul\":8736:8758   */\n      add\n        /* \"#utility.yul\":8704:8768   */\n      tag_289\n      jump\t// in\n    tag_412:\n        /* \"#utility.yul\":8694:8768   */\n      swap2\n      pop\n        /* \"#utility.yul\":8650:8778   */\n      pop\n        /* \"#utility.yul\":8434:8785   */\n      swap3\n      swap2\n      pop\n      pop\n      jump\t// out\n        /* \"#utility.yul\":8791:9014   */\n    tag_290:\n        /* \"#utility.yul\":8931:8965   */\n      0x436f6d70726120756e206e756d65726f20646520546f6b656e73206164656375\n        /* \"#utility.yul\":8927:8928   */\n      0x00\n        /* \"#utility.yul\":8919:8925   */\n      dup3\n        /* \"#utility.yul\":8915:8929   */\n      add\n        /* \"#utility.yul\":8908:8966   */\n      mstore\n        /* \"#utility.yul\":9000:9006   */\n      0x61646f2e00000000000000000000000000000000000000000000000000000000\n        /* \"#utility.yul\":8995:8997   */\n      0x20\n        /* \"#utility.yul\":8987:8993   */\n      dup3\n        /* \"#utility.yul\":8983:8998   */\n      add\n        /* \"#utility.yul\":8976:9007   */\n      mstore\n        /* \"#utility.yul\":8791:9014   */\n      pop\n      jump\t// out\n        /* \"#utility.yul\":9020:9386   */\n    tag_291:\n        /* \"#utility.yul\":9162:9165   */\n      0x00\n        /* \"#utility.yul\":9183:9250   */\n      tag_415\n        /* \"#utility.yul\":9247:9249   */\n      0x24\n        /* \"#utility.yul\":9242:9245   */\n      dup4\n        /* \"#utility.yul\":9183:9250   */\n      tag_265\n      jump\t// in\n    tag_415:\n        /* \"#utility.yul\":9176:9250   */\n      swap2\n      pop\n        /* \"#utility.yul\":9259:9352   */\n      tag_416\n        /* \"#utility.yul\":9348:9351   */\n      dup3\n        /* \"#utility.yul\":9259:9352   */\n      tag_290\n      jump\t// in\n    tag_416:\n        /* \"#utility.yul\":9377:9379   */\n      0x40\n        /* \"#utility.yul\":9372:9375   */\n      dup3\n        /* \"#utility.yul\":9368:9380   */\n      add\n        /* \"#utility.yul\":9361:9380   */\n      swap1\n      pop\n        /* \"#utility.yul\":9020:9386   */\n      swap2\n      swap1\n      pop\n      jump\t// out\n        /* \"#utility.yul\":9392:9811   */\n    tag_148:\n        /* \"#utility.yul\":9558:9562   */\n      0x00\n        /* \"#utility.yul\":9596:9598   */\n      0x20\n        /* \"#utility.yul\":9585:9594   */\n      dup3\n        /* \"#utility.yul\":9581:9599   */\n      add\n        /* \"#utility.yul\":9573:9599   */\n      swap1\n      pop\n        /* \"#utility.yul\":9645:9654   */\n      dup2\n        /* \"#utility.yul\":9639:9643   */\n      dup2\n        /* \"#utility.yul\":9635:9655   */\n      sub\n        /* \"#utility.yul\":9631:9632   */\n      0x00\n        /* \"#utility.yul\":9620:9629   */\n      dup4\n        /* \"#utility.yul\":9616:9633   */\n      add\n        /* \"#utility.yul\":9609:9656   */\n      mstore\n        /* \"#utility.yul\":9673:9804   */\n      tag_418\n        /* \"#utility.yul\":9799:9803   */\n      dup2\n        /* \"#utility.yul\":9673:9804   */\n      tag_291\n      jump\t// in\n    tag_418:\n        /* \"#utility.yul\":9665:9804   */\n      swap1\n      pop\n        /* \"#utility.yul\":9392:9811   */\n      swap2\n      swap1\n      pop\n      jump\t// out\n        /* \"#utility.yul\":9817:10149   */\n    tag_150:\n        /* \"#utility.yul\":9938:9942   */\n      0x00\n        /* \"#utility.yul\":9976:9978   */\n      0x40\n        /* \"#utility.yul\":9965:9974   */\n      dup3\n        /* \"#utility.yul\":9961:9979   */\n      add\n        /* \"#utility.yul\":9953:9979   */\n      swap1\n      pop\n        /* \"#utility.yul\":9989:10060   */\n      tag_420\n        /* \"#utility.yul\":10057:10058   */\n      0x00\n        /* \"#utility.yul\":10046:10055   */\n      dup4\n        /* \"#utility.yul\":10042:10059   */\n      add\n        /* \"#utility.yul\":10033:10039   */\n      dup6\n        /* \"#utility.yul\":9989:10060   */\n      tag_284\n      jump\t// in\n    tag_420:\n        /* \"#utility.yul\":10070:10142   */\n      tag_421\n        /* \"#utility.yul\":10138:10140   */\n      0x20\n        /* \"#utility.yul\":10127:10136   */\n      dup4\n        /* \"#utility.yul\":10123:10141   */\n      add\n        /* \"#utility.yul\":10114:10120   */\n      dup5\n        /* \"#utility.yul\":10070:10142   */\n      tag_281\n      jump\t// in\n    tag_421:\n        /* \"#utility.yul\":9817:10149   */\n      swap4\n      swap3\n      pop\n      pop\n      pop\n      jump\t// out\n        /* \"#utility.yul\":10155:10271   */\n    tag_292:\n        /* \"#utility.yul\":10225:10246   */\n      tag_423\n        /* \"#utility.yul\":10240:10245   */\n      dup2\n        /* \"#utility.yul\":10225:10246   */\n      tag_279\n      jump\t// in\n    tag_423:\n        /* \"#utility.yul\":10218:10223   */\n      dup2\n        /* \"#utility.yul\":10215:10247   */\n      eq\n        /* \"#utility.yul\":10205:10265   */\n      tag_424\n      jumpi\n        /* \"#utility.yul\":10261:10262   */\n      0x00\n        /* \"#utility.yul\":10258:10259   */\n      dup1\n        /* \"#utility.yul\":10251:10263   */\n      revert\n        /* \"#utility.yul\":10205:10265   */\n    tag_424:\n        /* \"#utility.yul\":10155:10271   */\n      pop\n      jump\t// out\n        /* \"#utility.yul\":10277:10414   */\n    tag_293:\n        /* \"#utility.yul\":10331:10336   */\n      0x00\n        /* \"#utility.yul\":10362:10368   */\n      dup2\n        /* \"#utility.yul\":10356:10369   */\n      mload\n        /* \"#utility.yul\":10347:10369   */\n      swap1\n      pop\n        /* \"#utility.yul\":10378:10408   */\n      tag_426\n        /* \"#utility.yul\":10402:10407   */\n      dup2\n        /* \"#utility.yul\":10378:10408   */\n      tag_292\n      jump\t// in\n    tag_426:\n        /* \"#utility.yul\":10277:10414   */\n      swap3\n      swap2\n      pop\n      pop\n      jump\t// out\n        /* \"#utility.yul\":10420:10765   */\n    tag_154:\n        /* \"#utility.yul\":10487:10493   */\n      0x00\n        /* \"#utility.yul\":10536:10538   */\n      0x20\n        /* \"#utility.yul\":10524:10533   */\n      dup3\n        /* \"#utility.yul\":10515:10522   */\n      dup5\n        /* \"#utility.yul\":10511:10534   */\n      sub\n        /* \"#utility.yul\":10507:10539   */\n      slt\n        /* \"#utility.yul\":10504:10623   */\n      iszero\n      tag_428\n      jumpi\n        /* \"#utility.yul\":10542:10621   */\n      tag_429\n      tag_270\n      jump\t// in\n    tag_429:\n        /* \"#utility.yul\":10504:10623   */\n    tag_428:\n        /* \"#utility.yul\":10662:10663   */\n      0x00\n        /* \"#utility.yul\":10687:10748   */\n      tag_430\n        /* \"#utility.yul\":10740:10747   */\n      dup5\n        /* \"#utility.yul\":10731:10737   */\n      dup3\n        /* \"#utility.yul\":10720:10729   */\n      dup6\n        /* \"#utility.yul\":10716:10738   */\n      add\n        /* \"#utility.yul\":10687:10748   */\n      tag_293\n      jump\t// in\n    tag_430:\n        /* \"#utility.yul\":10677:10748   */\n      swap2\n      pop\n        /* \"#utility.yul\":10633:10758   */\n      pop\n        /* \"#utility.yul\":10420:10765   */\n      swap3\n      swap2\n      pop\n      pop\n      jump\t// out\n        /* \"#utility.yul\":10771:10962   */\n    tag_168:\n        /* \"#utility.yul\":10811:10814   */\n      0x00\n        /* \"#utility.yul\":10830:10850   */\n      tag_432\n        /* \"#utility.yul\":10848:10849   */\n      dup3\n        /* \"#utility.yul\":10830:10850   */\n      tag_276\n      jump\t// in\n    tag_432:\n        /* \"#utility.yul\":10825:10850   */\n      swap2\n      pop\n        /* \"#utility.yul\":10864:10884   */\n      tag_433\n        /* \"#utility.yul\":10882:10883   */\n      dup4\n        /* \"#utility.yul\":10864:10884   */\n      tag_276\n      jump\t// in\n    tag_433:\n        /* \"#utility.yul\":10859:10884   */\n      swap3\n      pop\n        /* \"#utility.yul\":10907:10908   */\n      dup3\n        /* \"#utility.yul\":10904:10905   */\n      dup3\n        /* \"#utility.yul\":10900:10909   */\n      add\n        /* \"#utility.yul\":10893:10909   */\n      swap1\n      pop\n        /* \"#utility.yul\":10928:10931   */\n      dup1\n        /* \"#utility.yul\":10925:10926   */\n      dup3\n        /* \"#utility.yul\":10922:10932   */\n      gt\n        /* \"#utility.yul\":10919:10955   */\n      iszero\n      tag_434\n      jumpi\n        /* \"#utility.yul\":10935:10953   */\n      tag_435\n      tag_288\n      jump\t// in\n    tag_435:\n        /* \"#utility.yul\":10919:10955   */\n    tag_434:\n        /* \"#utility.yul\":10771:10962   */\n      swap3\n      swap2\n      pop\n      pop\n      jump\t// out\n        /* \"#utility.yul\":10968:11203   */\n    tag_294:\n        /* \"#utility.yul\":11108:11142   */\n      0x536f6c6f20656c2070726f706965746172696f20707565646520656a65637574\n        /* \"#utility.yul\":11104:11105   */\n      0x00\n        /* \"#utility.yul\":11096:11102   */\n      dup3\n        /* \"#utility.yul\":11092:11106   */\n      add\n        /* \"#utility.yul\":11085:11143   */\n      mstore\n        /* \"#utility.yul\":11177:11195   */\n      0x617220657374612066756e63696f6e2e00000000000000000000000000000000\n        /* \"#utility.yul\":11172:11174   */\n      0x20\n        /* \"#utility.yul\":11164:11170   */\n      dup3\n        /* \"#utility.yul\":11160:11175   */\n      add\n        /* \"#utility.yul\":11153:11196   */\n      mstore\n        /* \"#utility.yul\":10968:11203   */\n      pop\n      jump\t// out\n        /* \"#utility.yul\":11209:11575   */\n    tag_295:\n        /* \"#utility.yul\":11351:11354   */\n      0x00\n        /* \"#utility.yul\":11372:11439   */\n      tag_438\n        /* \"#utility.yul\":11436:11438   */\n      0x30\n        /* \"#utility.yul\":11431:11434   */\n      dup4\n        /* \"#utility.yul\":11372:11439   */\n      tag_265\n      jump\t// in\n    tag_438:\n        /* \"#utility.yul\":11365:11439   */\n      swap2\n      pop\n        /* \"#utility.yul\":11448:11541   */\n      tag_439\n        /* \"#utility.yul\":11537:11540   */\n      dup3\n        /* \"#utility.yul\":11448:11541   */\n      tag_294\n      jump\t// in\n    tag_439:\n        /* \"#utility.yul\":11566:11568   */\n      0x40\n        /* \"#utility.yul\":11561:11564   */\n      dup3\n        /* \"#utility.yul\":11557:11569   */\n      add\n        /* \"#utility.yul\":11550:11569   */\n      swap1\n      pop\n        /* \"#utility.yul\":11209:11575   */\n      swap2\n      swap1\n      pop\n      jump\t// out\n        /* \"#utility.yul\":11581:12000   */\n    tag_172:\n        /* \"#utility.yul\":11747:11751   */\n      0x00\n        /* \"#utility.yul\":11785:11787   */\n      0x20\n        /* \"#utility.yul\":11774:11783   */\n      dup3\n        /* \"#utility.yul\":11770:11788   */\n      add\n        /* \"#utility.yul\":11762:11788   */\n      swap1\n      pop\n        /* \"#utility.yul\":11834:11843   */\n      dup2\n        /* \"#utility.yul\":11828:11832   */\n      dup2\n        /* \"#utility.yul\":11824:11844   */\n      sub\n        /* \"#utility.yul\":11820:11821   */\n      0x00\n        /* \"#utility.yul\":11809:11818   */\n      dup4\n        /* \"#utility.yul\":11805:11822   */\n      add\n        /* \"#utility.yul\":11798:11845   */\n      mstore\n        /* \"#utility.yul\":11862:11993   */\n      tag_441\n        /* \"#utility.yul\":11988:11992   */\n      dup2\n        /* \"#utility.yul\":11862:11993   */\n      tag_295\n      jump\t// in\n    tag_441:\n        /* \"#utility.yul\":11854:11993   */\n      swap1\n      pop\n        /* \"#utility.yul\":11581:12000   */\n      swap2\n      swap1\n      pop\n      jump\t// out\n        /* \"#utility.yul\":12006:12172   */\n    tag_296:\n        /* \"#utility.yul\":12146:12164   */\n      0x446562657320656e766961722045544800000000000000000000000000000000\n        /* \"#utility.yul\":12142:12143   */\n      0x00\n        /* \"#utility.yul\":12134:12140   */\n      dup3\n        /* \"#utility.yul\":12130:12144   */\n      add\n        /* \"#utility.yul\":12123:12165   */\n      mstore\n        /* \"#utility.yul\":12006:12172   */\n      pop\n      jump\t// out\n        /* \"#utility.yul\":12178:12544   */\n    tag_297:\n        /* \"#utility.yul\":12320:12323   */\n      0x00\n        /* \"#utility.yul\":12341:12408   */\n      tag_444\n        /* \"#utility.yul\":12405:12407   */\n      0x10\n        /* \"#utility.yul\":12400:12403   */\n      dup4\n        /* \"#utility.yul\":12341:12408   */\n      tag_265\n      jump\t// in\n    tag_444:\n        /* \"#utility.yul\":12334:12408   */\n      swap2\n      pop\n        /* \"#utility.yul\":12417:12510   */\n      tag_445\n        /* \"#utility.yul\":12506:12509   */\n      dup3\n        /* \"#utility.yul\":12417:12510   */\n      tag_296\n      jump\t// in\n    tag_445:\n        /* \"#utility.yul\":12535:12537   */\n      0x20\n        /* \"#utility.yul\":12530:12533   */\n      dup3\n        /* \"#utility.yul\":12526:12538   */\n      add\n        /* \"#utility.yul\":12519:12538   */\n      swap1\n      pop\n        /* \"#utility.yul\":12178:12544   */\n      swap2\n      swap1\n      pop\n      jump\t// out\n        /* \"#utility.yul\":12550:12969   */\n    tag_181:\n        /* \"#utility.yul\":12716:12720   */\n      0x00\n        /* \"#utility.yul\":12754:12756   */\n      0x20\n        /* \"#utility.yul\":12743:12752   */\n      dup3\n        /* \"#utility.yul\":12739:12757   */\n      add\n        /* \"#utility.yul\":12731:12757   */\n      swap1\n      pop\n        /* \"#utility.yul\":12803:12812   */\n      dup2\n        /* \"#utility.yul\":12797:12801   */\n      dup2\n        /* \"#utility.yul\":12793:12813   */\n      sub\n        /* \"#utility.yul\":12789:12790   */\n      0x00\n        /* \"#utility.yul\":12778:12787   */\n      dup4\n        /* \"#utility.yul\":12774:12791   */\n      add\n        /* \"#utility.yul\":12767:12814   */\n      mstore\n        /* \"#utility.yul\":12831:12962   */\n      tag_447\n        /* \"#utility.yul\":12957:12961   */\n      dup2\n        /* \"#utility.yul\":12831:12962   */\n      tag_297\n      jump\t// in\n    tag_447:\n        /* \"#utility.yul\":12823:12962   */\n      swap1\n      pop\n        /* \"#utility.yul\":12550:12969   */\n      swap2\n      swap1\n      pop\n      jump\t// out\n        /* \"#utility.yul\":12975:13150   */\n    tag_298:\n        /* \"#utility.yul\":13115:13142   */\n      0x56616c6f7220696e6772657361646f206e6f2076616c69646f00000000000000\n        /* \"#utility.yul\":13111:13112   */\n      0x00\n        /* \"#utility.yul\":13103:13109   */\n      dup3\n        /* \"#utility.yul\":13099:13113   */\n      add\n        /* \"#utility.yul\":13092:13143   */\n      mstore\n        /* \"#utility.yul\":12975:13150   */\n      pop\n      jump\t// out\n        /* \"#utility.yul\":13156:13522   */\n    tag_299:\n        /* \"#utility.yul\":13298:13301   */\n      0x00\n        /* \"#utility.yul\":13319:13386   */\n      tag_450\n        /* \"#utility.yul\":13383:13385   */\n      0x19\n        /* \"#utility.yul\":13378:13381   */\n      dup4\n        /* \"#utility.yul\":13319:13386   */\n      tag_265\n      jump\t// in\n    tag_450:\n        /* \"#utility.yul\":13312:13386   */\n      swap2\n      pop\n        /* \"#utility.yul\":13395:13488   */\n      tag_451\n        /* \"#utility.yul\":13484:13487   */\n      dup3\n        /* \"#utility.yul\":13395:13488   */\n      tag_298\n      jump\t// in\n    tag_451:\n        /* \"#utility.yul\":13513:13515   */\n      0x20\n        /* \"#utility.yul\":13508:13511   */\n      dup3\n        /* \"#utility.yul\":13504:13516   */\n      add\n        /* \"#utility.yul\":13497:13516   */\n      swap1\n      pop\n        /* \"#utility.yul\":13156:13522   */\n      swap2\n      swap1\n      pop\n      jump\t// out\n        /* \"#utility.yul\":13528:13947   */\n    tag_184:\n        /* \"#utility.yul\":13694:13698   */\n      0x00\n        /* \"#utility.yul\":13732:13734   */\n      0x20\n        /* \"#utility.yul\":13721:13730   */\n      dup3\n        /* \"#utility.yul\":13717:13735   */\n      add\n        /* \"#utility.yul\":13709:13735   */\n      swap1\n      pop\n        /* \"#utility.yul\":13781:13790   */\n      dup2\n        /* \"#utility.yul\":13775:13779   */\n      dup2\n        /* \"#utility.yul\":13771:13791   */\n      sub\n        /* \"#utility.yul\":13767:13768   */\n      0x00\n        /* \"#utility.yul\":13756:13765   */\n      dup4\n        /* \"#utility.yul\":13752:13769   */\n      add\n        /* \"#utility.yul\":13745:13792   */\n      mstore\n        /* \"#utility.yul\":13809:13940   */\n      tag_453\n        /* \"#utility.yul\":13935:13939   */\n      dup2\n        /* \"#utility.yul\":13809:13940   */\n      tag_299\n      jump\t// in\n    tag_453:\n        /* \"#utility.yul\":13801:13940   */\n      swap1\n      pop\n        /* \"#utility.yul\":13528:13947   */\n      swap2\n      swap1\n      pop\n      jump\t// out\n        /* \"#utility.yul\":13953:14177   */\n    tag_300:\n        /* \"#utility.yul\":14093:14127   */\n      0x45524332303a2064656372656173656420616c6c6f77616e63652062656c6f77\n        /* \"#utility.yul\":14089:14090   */\n      0x00\n        /* \"#utility.yul\":14081:14087   */\n      dup3\n        /* \"#utility.yul\":14077:14091   */\n      add\n        /* \"#utility.yul\":14070:14128   */\n      mstore\n        /* \"#utility.yul\":14162:14169   */\n      0x207a65726f000000000000000000000000000000000000000000000000000000\n        /* \"#utility.yul\":14157:14159   */\n      0x20\n        /* \"#utility.yul\":14149:14155   */\n      dup3\n        /* \"#utility.yul\":14145:14160   */\n      add\n        /* \"#utility.yul\":14138:14170   */\n      mstore\n        /* \"#utility.yul\":13953:14177   */\n      pop\n      jump\t// out\n        /* \"#utility.yul\":14183:14549   */\n    tag_301:\n        /* \"#utility.yul\":14325:14328   */\n      0x00\n        /* \"#utility.yul\":14346:14413   */\n      tag_456\n        /* \"#utility.yul\":14410:14412   */\n      0x25\n        /* \"#utility.yul\":14405:14408   */\n      dup4\n        /* \"#utility.yul\":14346:14413   */\n      tag_265\n      jump\t// in\n    tag_456:\n        /* \"#utility.yul\":14339:14413   */\n      swap2\n      pop\n        /* \"#utility.yul\":14422:14515   */\n      tag_457\n        /* \"#utility.yul\":14511:14514   */\n      dup3\n        /* \"#utility.yul\":14422:14515   */\n      tag_300\n      jump\t// in\n    tag_457:\n        /* \"#utility.yul\":14540:14542   */\n      0x40\n        /* \"#utility.yul\":14535:14538   */\n      dup3\n        /* \"#utility.yul\":14531:14543   */\n      add\n        /* \"#utility.yul\":14524:14543   */\n      swap1\n      pop\n        /* \"#utility.yul\":14183:14549   */\n      swap2\n      swap1\n      pop\n      jump\t// out\n        /* \"#utility.yul\":14555:14974   */\n    tag_198:\n        /* \"#utility.yul\":14721:14725   */\n      0x00\n        /* \"#utility.yul\":14759:14761   */\n      0x20\n        /* \"#utility.yul\":14748:14757   */\n      dup3\n        /* \"#utility.yul\":14744:14762   */\n      add\n        /* \"#utility.yul\":14736:14762   */\n      swap1\n      pop\n        /* \"#utility.yul\":14808:14817   */\n      dup2\n        /* \"#utility.yul\":14802:14806   */\n      dup2\n        /* \"#utility.yul\":14798:14818   */\n      sub\n        /* \"#utility.yul\":14794:14795   */\n      0x00\n        /* \"#utility.yul\":14783:14792   */\n      dup4\n        /* \"#utility.yul\":14779:14796   */\n      add\n        /* \"#utility.yul\":14772:14819   */\n      mstore\n        /* \"#utility.yul\":14836:14967   */\n      tag_459\n        /* \"#utility.yul\":14962:14966   */\n      dup2\n        /* \"#utility.yul\":14836:14967   */\n      tag_301\n      jump\t// in\n    tag_459:\n        /* \"#utility.yul\":14828:14967   */\n      swap1\n      pop\n        /* \"#utility.yul\":14555:14974   */\n      swap2\n      swap1\n      pop\n      jump\t// out\n        /* \"#utility.yul\":14980:15203   */\n    tag_302:\n        /* \"#utility.yul\":15120:15154   */\n      0x45524332303a20617070726f76652066726f6d20746865207a65726f20616464\n        /* \"#utility.yul\":15116:15117   */\n      0x00\n        /* \"#utility.yul\":15108:15114   */\n      dup3\n        /* \"#utility.yul\":15104:15118   */\n      add\n        /* \"#utility.yul\":15097:15155   */\n      mstore\n        /* \"#utility.yul\":15189:15195   */\n      0x7265737300000000000000000000000000000000000000000000000000000000\n        /* \"#utility.yul\":15184:15186   */\n      0x20\n        /* \"#utility.yul\":15176:15182   */\n      dup3\n        /* \"#utility.yul\":15172:15187   */\n      add\n        /* \"#utility.yul\":15165:15196   */\n      mstore\n        /* \"#utility.yul\":14980:15203   */\n      pop\n      jump\t// out\n        /* \"#utility.yul\":15209:15575   */\n    tag_303:\n        /* \"#utility.yul\":15351:15354   */\n      0x00\n        /* \"#utility.yul\":15372:15439   */\n      tag_462\n        /* \"#utility.yul\":15436:15438   */\n      0x24\n        /* \"#utility.yul\":15431:15434   */\n      dup4\n        /* \"#utility.yul\":15372:15439   */\n      tag_265\n      jump\t// in\n    tag_462:\n        /* \"#utility.yul\":15365:15439   */\n      swap2\n      pop\n        /* \"#utility.yul\":15448:15541   */\n      tag_463\n        /* \"#utility.yul\":15537:15540   */\n      dup3\n        /* \"#utility.yul\":15448:15541   */\n      tag_302\n      jump\t// in\n    tag_463:\n        /* \"#utility.yul\":15566:15568   */\n      0x40\n        /* \"#utility.yul\":15561:15564   */\n      dup3\n        /* \"#utility.yul\":15557:15569   */\n      add\n        /* \"#utility.yul\":15550:15569   */\n      swap1\n      pop\n        /* \"#utility.yul\":15209:15575   */\n      swap2\n      swap1\n      pop\n      jump\t// out\n        /* \"#utility.yul\":15581:16000   */\n    tag_215:\n        /* \"#utility.yul\":15747:15751   */\n      0x00\n        /* \"#utility.yul\":15785:15787   */\n      0x20\n        /* \"#utility.yul\":15774:15783   */\n      dup3\n        /* \"#utility.yul\":15770:15788   */\n      add\n        /* \"#utility.yul\":15762:15788   */\n      swap1\n      pop\n        /* \"#utility.yul\":15834:15843   */\n      dup2\n        /* \"#utility.yul\":15828:15832   */\n      dup2\n        /* \"#utility.yul\":15824:15844   */\n      sub\n        /* \"#utility.yul\":15820:15821   */\n      0x00\n        /* \"#utility.yul\":15809:15818   */\n      dup4\n        /* \"#utility.yul\":15805:15822   */\n      add\n        /* \"#utility.yul\":15798:15845   */\n      mstore\n        /* \"#utility.yul\":15862:15993   */\n      tag_465\n        /* \"#utility.yul\":15988:15992   */\n      dup2\n        /* \"#utility.yul\":15862:15993   */\n      tag_303\n      jump\t// in\n    tag_465:\n        /* \"#utility.yul\":15854:15993   */\n      swap1\n      pop\n        /* \"#utility.yul\":15581:16000   */\n      swap2\n      swap1\n      pop\n      jump\t// out\n        /* \"#utility.yul\":16006:16227   */\n    tag_304:\n        /* \"#utility.yul\":16146:16180   */\n      0x45524332303a20617070726f766520746f20746865207a65726f206164647265\n        /* \"#utility.yul\":16142:16143   */\n      0x00\n        /* \"#utility.yul\":16134:16140   */\n      dup3\n        /* \"#utility.yul\":16130:16144   */\n      add\n        /* \"#utility.yul\":16123:16181   */\n      mstore\n        /* \"#utility.yul\":16215:16219   */\n      0x7373000000000000000000000000000000000000000000000000000000000000\n        /* \"#utility.yul\":16210:16212   */\n      0x20\n        /* \"#utility.yul\":16202:16208   */\n      dup3\n        /* \"#utility.yul\":16198:16213   */\n      add\n        /* \"#utility.yul\":16191:16220   */\n      mstore\n        /* \"#utility.yul\":16006:16227   */\n      pop\n      jump\t// out\n        /* \"#utility.yul\":16233:16599   */\n    tag_305:\n        /* \"#utility.yul\":16375:16378   */\n      0x00\n        /* \"#utility.yul\":16396:16463   */\n      tag_468\n        /* \"#utility.yul\":16460:16462   */\n      0x22\n        /* \"#utility.yul\":16455:16458   */\n      dup4\n        /* \"#utility.yul\":16396:16463   */\n      tag_265\n      jump\t// in\n    tag_468:\n        /* \"#utility.yul\":16389:16463   */\n      swap2\n      pop\n        /* \"#utility.yul\":16472:16565   */\n      tag_469\n        /* \"#utility.yul\":16561:16564   */\n      dup3\n        /* \"#utility.yul\":16472:16565   */\n      tag_304\n      jump\t// in\n    tag_469:\n        /* \"#utility.yul\":16590:16592   */\n      0x40\n        /* \"#utility.yul\":16585:16588   */\n      dup3\n        /* \"#utility.yul\":16581:16593   */\n      add\n        /* \"#utility.yul\":16574:16593   */\n      swap1\n      pop\n        /* \"#utility.yul\":16233:16599   */\n      swap2\n      swap1\n      pop\n      jump\t// out\n        /* \"#utility.yul\":16605:17024   */\n    tag_218:\n        /* \"#utility.yul\":16771:16775   */\n      0x00\n        /* \"#utility.yul\":16809:16811   */\n      0x20\n        /* \"#utility.yul\":16798:16807   */\n      dup3\n        /* \"#utility.yul\":16794:16812   */\n      add\n        /* \"#utility.yul\":16786:16812   */\n      swap1\n      pop\n        /* \"#utility.yul\":16858:16867   */\n      dup2\n        /* \"#utility.yul\":16852:16856   */\n      dup2\n        /* \"#utility.yul\":16848:16868   */\n      sub\n        /* \"#utility.yul\":16844:16845   */\n      0x00\n        /* \"#utility.yul\":16833:16842   */\n      dup4\n        /* \"#utility.yul\":16829:16846   */\n      add\n        /* \"#utility.yul\":16822:16869   */\n      mstore\n        /* \"#utility.yul\":16886:17017   */\n      tag_471\n        /* \"#utility.yul\":17012:17016   */\n      dup2\n        /* \"#utility.yul\":16886:17017   */\n      tag_305\n      jump\t// in\n    tag_471:\n        /* \"#utility.yul\":16878:17017   */\n      swap1\n      pop\n        /* \"#utility.yul\":16605:17024   */\n      swap2\n      swap1\n      pop\n      jump\t// out\n        /* \"#utility.yul\":17030:17440   */\n    tag_222:\n        /* \"#utility.yul\":17070:17077   */\n      0x00\n        /* \"#utility.yul\":17093:17113   */\n      tag_473\n        /* \"#utility.yul\":17111:17112   */\n      dup3\n        /* \"#utility.yul\":17093:17113   */\n      tag_276\n      jump\t// in\n    tag_473:\n        /* \"#utility.yul\":17088:17113   */\n      swap2\n      pop\n        /* \"#utility.yul\":17127:17147   */\n      tag_474\n        /* \"#utility.yul\":17145:17146   */\n      dup4\n        /* \"#utility.yul\":17127:17147   */\n      tag_276\n      jump\t// in\n    tag_474:\n        /* \"#utility.yul\":17122:17147   */\n      swap3\n      pop\n        /* \"#utility.yul\":17182:17183   */\n      dup3\n        /* \"#utility.yul\":17179:17180   */\n      dup3\n        /* \"#utility.yul\":17175:17184   */\n      mul\n        /* \"#utility.yul\":17204:17234   */\n      tag_475\n        /* \"#utility.yul\":17222:17233   */\n      dup2\n        /* \"#utility.yul\":17204:17234   */\n      tag_276\n      jump\t// in\n    tag_475:\n        /* \"#utility.yul\":17193:17234   */\n      swap2\n      pop\n        /* \"#utility.yul\":17383:17384   */\n      dup3\n        /* \"#utility.yul\":17374:17381   */\n      dup3\n        /* \"#utility.yul\":17370:17385   */\n      div\n        /* \"#utility.yul\":17367:17368   */\n      dup5\n        /* \"#utility.yul\":17364:17386   */\n      eq\n        /* \"#utility.yul\":17344:17345   */\n      dup4\n        /* \"#utility.yul\":17337:17346   */\n      iszero\n        /* \"#utility.yul\":17317:17400   */\n      or\n        /* \"#utility.yul\":17294:17433   */\n      tag_476\n      jumpi\n        /* \"#utility.yul\":17413:17431   */\n      tag_477\n      tag_288\n      jump\t// in\n    tag_477:\n        /* \"#utility.yul\":17294:17433   */\n    tag_476:\n        /* \"#utility.yul\":17078:17440   */\n      pop\n        /* \"#utility.yul\":17030:17440   */\n      swap3\n      swap2\n      pop\n      pop\n      jump\t// out\n        /* \"#utility.yul\":17446:17625   */\n    tag_306:\n        /* \"#utility.yul\":17586:17617   */\n      0x45524332303a20696e73756666696369656e7420616c6c6f77616e6365000000\n        /* \"#utility.yul\":17582:17583   */\n      0x00\n        /* \"#utility.yul\":17574:17580   */\n      dup3\n        /* \"#utility.yul\":17570:17584   */\n      add\n        /* \"#utility.yul\":17563:17618   */\n      mstore\n        /* \"#utility.yul\":17446:17625   */\n      pop\n      jump\t// out\n        /* \"#utility.yul\":17631:17997   */\n    tag_307:\n        /* \"#utility.yul\":17773:17776   */\n      0x00\n        /* \"#utility.yul\":17794:17861   */\n      tag_480\n        /* \"#utility.yul\":17858:17860   */\n      0x1d\n        /* \"#utility.yul\":17853:17856   */\n      dup4\n        /* \"#utility.yul\":17794:17861   */\n      tag_265\n      jump\t// in\n    tag_480:\n        /* \"#utility.yul\":17787:17861   */\n      swap2\n      pop\n        /* \"#utility.yul\":17870:17963   */\n      tag_481\n        /* \"#utility.yul\":17959:17962   */\n      dup3\n        /* \"#utility.yul\":17870:17963   */\n      tag_306\n      jump\t// in\n    tag_481:\n        /* \"#utility.yul\":17988:17990   */\n      0x20\n        /* \"#utility.yul\":17983:17986   */\n      dup3\n        /* \"#utility.yul\":17979:17991   */\n      add\n        /* \"#utility.yul\":17972:17991   */\n      swap1\n      pop\n        /* \"#utility.yul\":17631:17997   */\n      swap2\n      swap1\n      pop\n      jump\t// out\n        /* \"#utility.yul\":18003:18422   */\n    tag_228:\n        /* \"#utility.yul\":18169:18173   */\n      0x00\n        /* \"#utility.yul\":18207:18209   */\n      0x20\n        /* \"#utility.yul\":18196:18205   */\n      dup3\n        /* \"#utility.yul\":18192:18210   */\n      add\n        /* \"#utility.yul\":18184:18210   */\n      swap1\n      pop\n        /* \"#utility.yul\":18256:18265   */\n      dup2\n        /* \"#utility.yul\":18250:18254   */\n      dup2\n        /* \"#utility.yul\":18246:18266   */\n      sub\n        /* \"#utility.yul\":18242:18243   */\n      0x00\n        /* \"#utility.yul\":18231:18240   */\n      dup4\n        /* \"#utility.yul\":18227:18244   */\n      add\n        /* \"#utility.yul\":18220:18267   */\n      mstore\n        /* \"#utility.yul\":18284:18415   */\n      tag_483\n        /* \"#utility.yul\":18410:18414   */\n      dup2\n        /* \"#utility.yul\":18284:18415   */\n      tag_307\n      jump\t// in\n    tag_483:\n        /* \"#utility.yul\":18276:18415   */\n      swap1\n      pop\n        /* \"#utility.yul\":18003:18422   */\n      swap2\n      swap1\n      pop\n      jump\t// out\n        /* \"#utility.yul\":18428:18652   */\n    tag_308:\n        /* \"#utility.yul\":18568:18602   */\n      0x45524332303a207472616e736665722066726f6d20746865207a65726f206164\n        /* \"#utility.yul\":18564:18565   */\n      0x00\n        /* \"#utility.yul\":18556:18562   */\n      dup3\n        /* \"#utility.yul\":18552:18566   */\n      add\n        /* \"#utility.yul\":18545:18603   */\n      mstore\n        /* \"#utility.yul\":18637:18644   */\n      0x6472657373000000000000000000000000000000000000000000000000000000\n        /* \"#utility.yul\":18632:18634   */\n      0x20\n        /* \"#utility.yul\":18624:18630   */\n      dup3\n        /* \"#utility.yul\":18620:18635   */\n      add\n        /* \"#utility.yul\":18613:18645   */\n      mstore\n        /* \"#utility.yul\":18428:18652   */\n      pop\n      jump\t// out\n        /* \"#utility.yul\":18658:19024   */\n    tag_309:\n        /* \"#utility.yul\":18800:18803   */\n      0x00\n        /* \"#utility.yul\":18821:18888   */\n      tag_486\n        /* \"#utility.yul\":18885:18887   */\n      0x25\n        /* \"#utility.yul\":18880:18883   */\n      dup4\n        /* \"#utility.yul\":18821:18888   */\n      tag_265\n      jump\t// in\n    tag_486:\n        /* \"#utility.yul\":18814:18888   */\n      swap2\n      pop\n        /* \"#utility.yul\":18897:18990   */\n      tag_487\n        /* \"#utility.yul\":18986:18989   */\n      dup3\n        /* \"#utility.yul\":18897:18990   */\n      tag_308\n      jump\t// in\n    tag_487:\n        /* \"#utility.yul\":19015:19017   */\n      0x40\n        /* \"#utility.yul\":19010:19013   */\n      dup3\n        /* \"#utility.yul\":19006:19018   */\n      add\n        /* \"#utility.yul\":18999:19018   */\n      swap1\n      pop\n        /* \"#utility.yul\":18658:19024   */\n      swap2\n      swap1\n      pop\n      jump\t// out\n        /* \"#utility.yul\":19030:19449   */\n    tag_233:\n        /* \"#utility.yul\":19196:19200   */\n      0x00\n        /* \"#utility.yul\":19234:19236   */\n      0x20\n        /* \"#utility.yul\":19223:19232   */\n      dup3\n        /* \"#utility.yul\":19219:19237   */\n      add\n        /* \"#utility.yul\":19211:19237   */\n      swap1\n      pop\n        /* \"#utility.yul\":19283:19292   */\n      dup2\n        /* \"#utility.yul\":19277:19281   */\n      dup2\n        /* \"#utility.yul\":19273:19293   */\n      sub\n        /* \"#utility.yul\":19269:19270   */\n      0x00\n        /* \"#utility.yul\":19258:19267   */\n      dup4\n        /* \"#utility.yul\":19254:19271   */\n      add\n        /* \"#utility.yul\":19247:19294   */\n      mstore\n        /* \"#utility.yul\":19311:19442   */\n      tag_489\n        /* \"#utility.yul\":19437:19441   */\n      dup2\n        /* \"#utility.yul\":19311:19442   */\n      tag_309\n      jump\t// in\n    tag_489:\n        /* \"#utility.yul\":19303:19442   */\n      swap1\n      pop\n        /* \"#utility.yul\":19030:19449   */\n      swap2\n      swap1\n      pop\n      jump\t// out\n        /* \"#utility.yul\":19455:19677   */\n    tag_310:\n        /* \"#utility.yul\":19595:19629   */\n      0x45524332303a207472616e7366657220746f20746865207a65726f2061646472\n        /* \"#utility.yul\":19591:19592   */\n      0x00\n        /* \"#utility.yul\":19583:19589   */\n      dup3\n        /* \"#utility.yul\":19579:19593   */\n      add\n        /* \"#utility.yul\":19572:19630   */\n      mstore\n        /* \"#utility.yul\":19664:19669   */\n      0x6573730000000000000000000000000000000000000000000000000000000000\n        /* \"#utility.yul\":19659:19661   */\n      0x20\n        /* \"#utility.yul\":19651:19657   */\n      dup3\n        /* \"#utility.yul\":19647:19662   */\n      add\n        /* \"#utility.yul\":19640:19670   */\n      mstore\n        /* \"#utility.yul\":19455:19677   */\n      pop\n      jump\t// out\n        /* \"#utility.yul\":19683:20049   */\n    tag_311:\n        /* \"#utility.yul\":19825:19828   */\n      0x00\n        /* \"#utility.yul\":19846:19913   */\n      tag_492\n        /* \"#utility.yul\":19910:19912   */\n      0x23\n        /* \"#utility.yul\":19905:19908   */\n      dup4\n        /* \"#utility.yul\":19846:19913   */\n      tag_265\n      jump\t// in\n    tag_492:\n        /* \"#utility.yul\":19839:19913   */\n      swap2\n      pop\n        /* \"#utility.yul\":19922:20015   */\n      tag_493\n        /* \"#utility.yul\":20011:20014   */\n      dup3\n        /* \"#utility.yul\":19922:20015   */\n      tag_310\n      jump\t// in\n    tag_493:\n        /* \"#utility.yul\":20040:20042   */\n      0x40\n        /* \"#utility.yul\":20035:20038   */\n      dup3\n        /* \"#utility.yul\":20031:20043   */\n      add\n        /* \"#utility.yul\":20024:20043   */\n      swap1\n      pop\n        /* \"#utility.yul\":19683:20049   */\n      swap2\n      swap1\n      pop\n      jump\t// out\n        /* \"#utility.yul\":20055:20474   */\n    tag_236:\n        /* \"#utility.yul\":20221:20225   */\n      0x00\n        /* \"#utility.yul\":20259:20261   */\n      0x20\n        /* \"#utility.yul\":20248:20257   */\n      dup3\n        /* \"#utility.yul\":20244:20262   */\n      add\n        /* \"#utility.yul\":20236:20262   */\n      swap1\n      pop\n        /* \"#utility.yul\":20308:20317   */\n      dup2\n        /* \"#utility.yul\":20302:20306   */\n      dup2\n        /* \"#utility.yul\":20298:20318   */\n      sub\n        /* \"#utility.yul\":20294:20295   */\n      0x00\n        /* \"#utility.yul\":20283:20292   */\n      dup4\n        /* \"#utility.yul\":20279:20296   */\n      add\n        /* \"#utility.yul\":20272:20319   */\n      mstore\n        /* \"#utility.yul\":20336:20467   */\n      tag_495\n        /* \"#utility.yul\":20462:20466   */\n      dup2\n        /* \"#utility.yul\":20336:20467   */\n      tag_311\n      jump\t// in\n    tag_495:\n        /* \"#utility.yul\":20328:20467   */\n      swap1\n      pop\n        /* \"#utility.yul\":20055:20474   */\n      swap2\n      swap1\n      pop\n      jump\t// out\n        /* \"#utility.yul\":20480:20705   */\n    tag_312:\n        /* \"#utility.yul\":20620:20654   */\n      0x45524332303a207472616e7366657220616d6f756e7420657863656564732062\n        /* \"#utility.yul\":20616:20617   */\n      0x00\n        /* \"#utility.yul\":20608:20614   */\n      dup3\n        /* \"#utility.yul\":20604:20618   */\n      add\n        /* \"#utility.yul\":20597:20655   */\n      mstore\n        /* \"#utility.yul\":20689:20697   */\n      0x616c616e63650000000000000000000000000000000000000000000000000000\n        /* \"#utility.yul\":20684:20686   */\n      0x20\n        /* \"#utility.yul\":20676:20682   */\n      dup3\n        /* \"#utility.yul\":20672:20687   */\n      add\n        /* \"#utility.yul\":20665:20698   */\n      mstore\n        /* \"#utility.yul\":20480:20705   */\n      pop\n      jump\t// out\n        /* \"#utility.yul\":20711:21077   */\n    tag_313:\n        /* \"#utility.yul\":20853:20856   */\n      0x00\n        /* \"#utility.yul\":20874:20941   */\n      tag_498\n        /* \"#utility.yul\":20938:20940   */\n      0x26\n        /* \"#utility.yul\":20933:20936   */\n      dup4\n        /* \"#utility.yul\":20874:20941   */\n      tag_265\n      jump\t// in\n    tag_498:\n        /* \"#utility.yul\":20867:20941   */\n      swap2\n      pop\n        /* \"#utility.yul\":20950:21043   */\n      tag_499\n        /* \"#utility.yul\":21039:21042   */\n      dup3\n        /* \"#utility.yul\":20950:21043   */\n      tag_312\n      jump\t// in\n    tag_499:\n        /* \"#utility.yul\":21068:21070   */\n      0x40\n        /* \"#utility.yul\":21063:21066   */\n      dup3\n        /* \"#utility.yul\":21059:21071   */\n      add\n        /* \"#utility.yul\":21052:21071   */\n      swap1\n      pop\n        /* \"#utility.yul\":20711:21077   */\n      swap2\n      swap1\n      pop\n      jump\t// out\n        /* \"#utility.yul\":21083:21502   */\n    tag_241:\n        /* \"#utility.yul\":21249:21253   */\n      0x00\n        /* \"#utility.yul\":21287:21289   */\n      0x20\n        /* \"#utility.yul\":21276:21285   */\n      dup3\n        /* \"#utility.yul\":21272:21290   */\n      add\n        /* \"#utility.yul\":21264:21290   */\n      swap1\n      pop\n        /* \"#utility.yul\":21336:21345   */\n      dup2\n        /* \"#utility.yul\":21330:21334   */\n      dup2\n        /* \"#utility.yul\":21326:21346   */\n      sub\n        /* \"#utility.yul\":21322:21323   */\n      0x00\n        /* \"#utility.yul\":21311:21320   */\n      dup4\n        /* \"#utility.yul\":21307:21324   */\n      add\n        /* \"#utility.yul\":21300:21347   */\n      mstore\n        /* \"#utility.yul\":21364:21495   */\n      tag_501\n        /* \"#utility.yul\":21490:21494   */\n      dup2\n        /* \"#utility.yul\":21364:21495   */\n      tag_313\n      jump\t// in\n    tag_501:\n        /* \"#utility.yul\":21356:21495   */\n      swap1\n      pop\n        /* \"#utility.yul\":21083:21502   */\n      swap2\n      swap1\n      pop\n      jump\t// out\n        /* \"#utility.yul\":21508:21689   */\n    tag_314:\n        /* \"#utility.yul\":21648:21681   */\n      0x45524332303a206d696e7420746f20746865207a65726f206164647265737300\n        /* \"#utility.yul\":21644:21645   */\n      0x00\n        /* \"#utility.yul\":21636:21642   */\n      dup3\n        /* \"#utility.yul\":21632:21646   */\n      add\n        /* \"#utility.yul\":21625:21682   */\n      mstore\n        /* \"#utility.yul\":21508:21689   */\n      pop\n      jump\t// out\n        /* \"#utility.yul\":21695:22061   */\n    tag_315:\n        /* \"#utility.yul\":21837:21840   */\n      0x00\n        /* \"#utility.yul\":21858:21925   */\n      tag_504\n        /* \"#utility.yul\":21922:21924   */\n      0x1f\n        /* \"#utility.yul\":21917:21920   */\n      dup4\n        /* \"#utility.yul\":21858:21925   */\n      tag_265\n      jump\t// in\n    tag_504:\n        /* \"#utility.yul\":21851:21925   */\n      swap2\n      pop\n        /* \"#utility.yul\":21934:22027   */\n      tag_505\n        /* \"#utility.yul\":22023:22026   */\n      dup3\n        /* \"#utility.yul\":21934:22027   */\n      tag_314\n      jump\t// in\n    tag_505:\n        /* \"#utility.yul\":22052:22054   */\n      0x20\n        /* \"#utility.yul\":22047:22050   */\n      dup3\n        /* \"#utility.yul\":22043:22055   */\n      add\n        /* \"#utility.yul\":22036:22055   */\n      swap1\n      pop\n        /* \"#utility.yul\":21695:22061   */\n      swap2\n      swap1\n      pop\n      jump\t// out\n        /* \"#utility.yul\":22067:22486   */\n    tag_248:\n        /* \"#utility.yul\":22233:22237   */\n      0x00\n        /* \"#utility.yul\":22271:22273   */\n      0x20\n        /* \"#utility.yul\":22260:22269   */\n      dup3\n        /* \"#utility.yul\":22256:22274   */\n      add\n        /* \"#utility.yul\":22248:22274   */\n      swap1\n      pop\n        /* \"#utility.yul\":22320:22329   */\n      dup2\n        /* \"#utility.yul\":22314:22318   */\n      dup2\n        /* \"#utility.yul\":22310:22330   */\n      sub\n        /* \"#utility.yul\":22306:22307   */\n      0x00\n        /* \"#utility.yul\":22295:22304   */\n      dup4\n        /* \"#utility.yul\":22291:22308   */\n      add\n        /* \"#utility.yul\":22284:22331   */\n      mstore\n        /* \"#utility.yul\":22348:22479   */\n      tag_507\n        /* \"#utility.yul\":22474:22478   */\n      dup2\n        /* \"#utility.yul\":22348:22479   */\n      tag_315\n      jump\t// in\n    tag_507:\n        /* \"#utility.yul\":22340:22479   */\n      swap1\n      pop\n        /* \"#utility.yul\":22067:22486   */\n      swap2\n      swap1\n      pop\n      jump\t// out\n        /* \"#utility.yul\":22492:22672   */\n    tag_256:\n        /* \"#utility.yul\":22540:22617   */\n      0x4e487b7100000000000000000000000000000000000000000000000000000000\n        /* \"#utility.yul\":22537:22538   */\n      0x00\n        /* \"#utility.yul\":22530:22618   */\n      mstore\n        /* \"#utility.yul\":22637:22641   */\n      0x01\n        /* \"#utility.yul\":22634:22635   */\n      0x04\n        /* \"#utility.yul\":22627:22642   */\n      mstore\n        /* \"#utility.yul\":22661:22665   */\n      0x24\n        /* \"#utility.yul\":22658:22659   */\n      0x00\n        /* \"#utility.yul\":22651:22666   */\n      revert\n\n    auxdata: 0xa2646970667358221220e0b7807fe6c35a86677c3dfdff922edb7db25b1b89d5758df712346276f89a6c64736f6c63430008120033\n}\n",
				"bytecode": {
					"linkReferences": {},
					"object": "60806040527372f188f3767fe8fe835b7b22191f28a3b19562d1600760006101000a81548173ffffffffffffffffffffffffffffffffffffffff021916908373ffffffffffffffffffffffffffffffffffffffff1602179055506040518060400160405280600b81526020017f466c69784361706974616c0000000000000000000000000000000000000000008152506040518060400160405280600381526020017f464c5800000000000000000000000000000000000000000000000000000000008152508160039081620000d69190620003ed565b508060049081620000e89190620003ed565b50505033600560006101000a81548173ffffffffffffffffffffffffffffffffffffffff021916908373ffffffffffffffffffffffffffffffffffffffff16021790555030600660006101000a81548173ffffffffffffffffffffffffffffffffffffffff021916908373ffffffffffffffffffffffffffffffffffffffff160217905550620004d4565b600081519050919050565b7f4e487b7100000000000000000000000000000000000000000000000000000000600052604160045260246000fd5b7f4e487b7100000000000000000000000000000000000000000000000000000000600052602260045260246000fd5b60006002820490506001821680620001f557607f821691505b6020821081036200020b576200020a620001ad565b5b50919050565b60008190508160005260206000209050919050565b60006020601f8301049050919050565b600082821b905092915050565b600060088302620002757fffffffffffffffffffffffffffffffffffffffffffffffffffffffffffffffff8262000236565b62000281868362000236565b95508019841693508086168417925050509392505050565b6000819050919050565b6000819050919050565b6000620002ce620002c8620002c28462000299565b620002a3565b62000299565b9050919050565b6000819050919050565b620002ea83620002ad565b62000302620002f982620002d5565b84845462000243565b825550505050565b600090565b620003196200030a565b62000326818484620002df565b505050565b5b818110156200034e57620003426000826200030f565b6001810190506200032c565b5050565b601f8211156200039d57620003678162000211565b620003728462000226565b8101602085101562000382578190505b6200039a620003918562000226565b8301826200032b565b50505b505050565b600082821c905092915050565b6000620003c260001984600802620003a2565b1980831691505092915050565b6000620003dd8383620003af565b9150826002028217905092915050565b620003f88262000173565b67ffffffffffffffff8111156200041457620004136200017e565b5b620004208254620001dc565b6200042d82828562000352565b600060209050601f83116001811462000465576000841562000450578287015190505b6200045c8582620003cf565b865550620004cc565b601f198416620004758662000211565b60005b828110156200049f5784890151825560018201915060208501945060208101905062000478565b86831015620004bf5784890151620004bb601f891682620003af565b8355505b6001600288020188555050505b505050505050565b6121e180620004e46000396000f3fe6080604052600436106101145760003560e01c806370a08231116100a0578063a457c2d711610064578063a457c2d71461039b578063a9059cbb146103d8578063dd62ed3e14610415578063e1a01e6714610452578063fecb6b1e1461047d57610114565b806370a08231146102c157806379fd022e146102fe5780637cdf37f9146103295780638da5cb5b1461034557806395d89b411461037057610114565b806323b872dd116100e757806323b872dd146101c8578063313ce56714610205578063395093511461023057806340c92fde1461026d5780636f9fb98a1461029657610114565b806306fdde0314610119578063095ea7b31461014457806318160ddd1461018157806321208530146101ac575b600080fd5b34801561012557600080fd5b5061012e6104ba565b60405161013b9190611604565b60405180910390f35b34801561015057600080fd5b5061016b600480360381019061016691906116bf565b61054c565b604051610178919061171a565b60405180910390f35b34801561018d57600080fd5b5061019661056f565b6040516101a39190611744565b60405180910390f35b6101c660048036038101906101c191906116bf565b610579565b005b3480156101d457600080fd5b506101ef60048036038101906101ea919061175f565b61082b565b6040516101fc919061171a565b60405180910390f35b34801561021157600080fd5b5061021a61085a565b60405161022791906117ce565b60405180910390f35b34801561023c57600080fd5b50610257600480360381019061025291906116bf565b610863565b604051610264919061171a565b60405180910390f35b34801561027957600080fd5b50610294600480360381019061028f91906116bf565b61089a565b005b3480156102a257600080fd5b506102ab610938565b6040516102b89190611744565b60405180910390f35b3480156102cd57600080fd5b506102e860048036038101906102e391906117e9565b610979565b6040516102f59190611744565b60405180910390f35b34801561030a57600080fd5b506103136109c1565b6040516103209190611825565b60405180910390f35b610343600480360381019061033e9190611840565b6109e7565b005b34801561035157600080fd5b5061035a610aef565b6040516103679190611825565b60405180910390f35b34801561037c57600080fd5b50610385610b15565b6040516103929190611604565b60405180910390f35b3480156103a757600080fd5b506103c260048036038101906103bd91906116bf565b610ba7565b6040516103cf919061171a565b60405180910390f35b3480156103e457600080fd5b506103ff60048036038101906103fa91906116bf565b610c1e565b60405161040c919061171a565b60405180910390f35b34801561042157600080fd5b5061043c6004803603810190610437919061186d565b610c41565b6040516104499190611744565b60405180910390f35b34801561045e57600080fd5b50610467610cc8565b6040516104749190611825565b60405180910390f35b34801561048957600080fd5b506104a4600480360381019061049f919061175f565b610cee565b6040516104b1919061171a565b60405180910390f35b6060600380546104c9906118dc565b80601f01602080910402602001604051908101604052809291908181526020018280546104f5906118dc565b80156105425780601f1061051757610100808354040283529160200191610542565b820191906000526020600020905b81548152906001019060200180831161052557829003601f168201915b5050505050905090565b600080610557610ed1565b9050610564818585610ed9565b600191505092915050565b6000600254905090565b6000610584826110a2565b9050808210156105c9576040517f08c379a00000000000000000000000000000000000000000000000000000000081526004016105c09061197f565b60405180910390fd5b600081836105d791906119ce565b90508373ffffffffffffffffffffffffffffffffffffffff166108fc829081150290604051600060405180830381858888f1935050505015801561061f573d6000803e3d6000fd5b50600760009054906101000a900473ffffffffffffffffffffffffffffffffffffffff1673ffffffffffffffffffffffffffffffffffffffff166108fc839081150290604051600060405180830381858888f19350505050158015610688573d6000803e3d6000fd5b5060003073ffffffffffffffffffffffffffffffffffffffff166370a08231600660009054906101000a900473ffffffffffffffffffffffffffffffffffffffff166040518263ffffffff1660e01b81526004016106e69190611825565b602060405180830381865afa158015610703573d6000803e3d6000fd5b505050506040513d601f19601f820116820180604052508101906107279190611a17565b90508084111561076c576040517f08c379a000000000000000000000000000000000000000000000000000000000815260040161076390611ab6565b60405180910390fd5b3073ffffffffffffffffffffffffffffffffffffffff1663a9059cbb86866040518363ffffffff1660e01b81526004016107a7929190611ad6565b6020604051808303816000875af11580156107c6573d6000803e3d6000fd5b505050506040513d601f19601f820116820180604052508101906107ea9190611b2b565b507f47db2abce6d5fbcd80ffd9b4ba74dcde804a746ef732bc7f8a70fabfc912c590858560405161081c929190611ad6565b60405180910390a15050505050565b600080610836610ed1565b90506108438582856110bf565b61084e85858561114b565b60019150509392505050565b60006012905090565b60008061086e610ed1565b905061088f8185856108808589610c41565b61088a9190611b58565b610ed9565b600191505092915050565b600560009054906101000a900473ffffffffffffffffffffffffffffffffffffffff1673ffffffffffffffffffffffffffffffffffffffff163373ffffffffffffffffffffffffffffffffffffffff161461092a576040517f08c379a000000000000000000000000000000000000000000000000000000000815260040161092190611bfe565b60405180910390fd5b61093482826113c1565b5050565b6000600660009054906101000a900473ffffffffffffffffffffffffffffffffffffffff1673ffffffffffffffffffffffffffffffffffffffff1631905090565b60008060008373ffffffffffffffffffffffffffffffffffffffff1673ffffffffffffffffffffffffffffffffffffffff168152602001908152602001600020549050919050565b600760009054906101000a900473ffffffffffffffffffffffffffffffffffffffff1681565b60003411610a2a576040517f08c379a0000000000000000000000000000000000000000000000000000000008152600401610a2190611c6a565b60405180910390fd5b803414610a6c576040517f08c379a0000000000000000000000000000000000000000000000000000000008152600401610a6390611cd6565b60405180910390fd5b3373ffffffffffffffffffffffffffffffffffffffff166108fc600660009054906101000a900473ffffffffffffffffffffffffffffffffffffffff1673ffffffffffffffffffffffffffffffffffffffff16319081150290604051600060405180830381858888f19350505050158015610aeb573d6000803e3d6000fd5b5050565b600560009054906101000a900473ffffffffffffffffffffffffffffffffffffffff1681565b606060048054610b24906118dc565b80601f0160208091040260200160405190810160405280929190818152602001828054610b50906118dc565b8015610b9d5780601f10610b7257610100808354040283529160200191610b9d565b820191906000526020600020905b815481529060010190602001808311610b8057829003601f168201915b5050505050905090565b600080610bb2610ed1565b90506000610bc08286610c41565b905083811015610c05576040517f08c379a0000000000000000000000000000000000000000000000000000000008152600401610bfc90611d68565b60405180910390fd5b610c128286868403610ed9565b60019250505092915050565b600080610c29610ed1565b9050610c3681858561114b565b600191505092915050565b6000600160008473ffffffffffffffffffffffffffffffffffffffff1673ffffffffffffffffffffffffffffffffffffffff16815260200190815260200160002060008373ffffffffffffffffffffffffffffffffffffffff1673ffffffffffffffffffffffffffffffffffffffff16815260200190815260200160002054905092915050565b600660009054906101000a900473ffffffffffffffffffffffffffffffffffffffff1681565b60008060008573ffffffffffffffffffffffffffffffffffffffff1673ffffffffffffffffffffffffffffffffffffffff16815260200190815260200160002054821115610d3b57600080fd5b610d8c826000808773ffffffffffffffffffffffffffffffffffffffff1673ffffffffffffffffffffffffffffffffffffffff1681526020019081526020016000205461151790919063ffffffff16565b6000808673ffffffffffffffffffffffffffffffffffffffff1673ffffffffffffffffffffffffffffffffffffffff16815260200190815260200160002081905550610e1f826000808673ffffffffffffffffffffffffffffffffffffffff1673ffffffffffffffffffffffffffffffffffffffff1681526020019081526020016000205461153e90919063ffffffff16565b6000808573ffffffffffffffffffffffffffffffffffffffff1673ffffffffffffffffffffffffffffffffffffffff168152602001908152602001600020819055508273ffffffffffffffffffffffffffffffffffffffff168473ffffffffffffffffffffffffffffffffffffffff167fddf252ad1be2c89b69c2b068fc378daa952ba7f163c4a11628f55a4df523b3ef84604051610ebe9190611744565b60405180910390a3600190509392505050565b600033905090565b600073ffffffffffffffffffffffffffffffffffffffff168373ffffffffffffffffffffffffffffffffffffffff1603610f48576040517f08c379a0000000000000000000000000000000000000000000000000000000008152600401610f3f90611dfa565b60405180910390fd5b600073ffffffffffffffffffffffffffffffffffffffff168273ffffffffffffffffffffffffffffffffffffffff1603610fb7576040517f08c379a0000000000000000000000000000000000000000000000000000000008152600401610fae90611e8c565b60405180910390fd5b80600160008573ffffffffffffffffffffffffffffffffffffffff1673ffffffffffffffffffffffffffffffffffffffff16815260200190815260200160002060008473ffffffffffffffffffffffffffffffffffffffff1673ffffffffffffffffffffffffffffffffffffffff168152602001908152602001600020819055508173ffffffffffffffffffffffffffffffffffffffff168373ffffffffffffffffffffffffffffffffffffffff167f8c5be1e5ebec7d5bd14f71427d1e84f3dd0314c0f7b2291e5b200ac8c7c3b925836040516110959190611744565b60405180910390a3505050565b6000670de0b6b3a7640000826110b89190611eac565b9050919050565b60006110cb8484610c41565b90507fffffffffffffffffffffffffffffffffffffffffffffffffffffffffffffffff81146111455781811015611137576040517f08c379a000000000000000000000000000000000000000000000000000000000815260040161112e90611f3a565b60405180910390fd5b6111448484848403610ed9565b5b50505050565b600073ffffffffffffffffffffffffffffffffffffffff168373ffffffffffffffffffffffffffffffffffffffff16036111ba576040517f08c379a00000000000000000000000000000000000000000000000000000000081526004016111b190611fcc565b60405180910390fd5b600073ffffffffffffffffffffffffffffffffffffffff168273ffffffffffffffffffffffffffffffffffffffff1603611229576040517f08c379a00000000000000000000000000000000000000000000000000000000081526004016112209061205e565b60405180910390fd5b61123483838361156a565b60008060008573ffffffffffffffffffffffffffffffffffffffff1673ffffffffffffffffffffffffffffffffffffffff168152602001908152602001600020549050818110156112ba576040517f08c379a00000000000000000000000000000000000000000000000000000000081526004016112b1906120f0565b60405180910390fd5b8181036000808673ffffffffffffffffffffffffffffffffffffffff1673ffffffffffffffffffffffffffffffffffffffff16815260200190815260200160002081905550816000808573ffffffffffffffffffffffffffffffffffffffff1673ffffffffffffffffffffffffffffffffffffffff168152602001908152602001600020600082825401925050819055508273ffffffffffffffffffffffffffffffffffffffff168473ffffffffffffffffffffffffffffffffffffffff167fddf252ad1be2c89b69c2b068fc378daa952ba7f163c4a11628f55a4df523b3ef846040516113a89190611744565b60405180910390a36113bb84848461156f565b50505050565b600073ffffffffffffffffffffffffffffffffffffffff168273ffffffffffffffffffffffffffffffffffffffff1603611430576040517f08c379a00000000000000000000000000000000000000000000000000000000081526004016114279061215c565b60405180910390fd5b61143c6000838361156a565b806002600082825461144e9190611b58565b92505081905550806000808473ffffffffffffffffffffffffffffffffffffffff1673ffffffffffffffffffffffffffffffffffffffff168152602001908152602001600020600082825401925050819055508173ffffffffffffffffffffffffffffffffffffffff16600073ffffffffffffffffffffffffffffffffffffffff167fddf252ad1be2c89b69c2b068fc378daa952ba7f163c4a11628f55a4df523b3ef836040516114ff9190611744565b60405180910390a36115136000838361156f565b5050565b60008282111561152a5761152961217c565b5b818361153691906119ce565b905092915050565b600080828461154d9190611b58565b9050838110156115605761155f61217c565b5b8091505092915050565b505050565b505050565b600081519050919050565b600082825260208201905092915050565b60005b838110156115ae578082015181840152602081019050611593565b60008484015250505050565b6000601f19601f8301169050919050565b60006115d682611574565b6115e0818561157f565b93506115f0818560208601611590565b6115f9816115ba565b840191505092915050565b6000602082019050818103600083015261161e81846115cb565b905092915050565b600080fd5b600073ffffffffffffffffffffffffffffffffffffffff82169050919050565b60006116568261162b565b9050919050565b6116668161164b565b811461167157600080fd5b50565b6000813590506116838161165d565b92915050565b6000819050919050565b61169c81611689565b81146116a757600080fd5b50565b6000813590506116b981611693565b92915050565b600080604083850312156116d6576116d5611626565b5b60006116e485828601611674565b92505060206116f5858286016116aa565b9150509250929050565b60008115159050919050565b611714816116ff565b82525050565b600060208201905061172f600083018461170b565b92915050565b61173e81611689565b82525050565b60006020820190506117596000830184611735565b92915050565b60008060006060848603121561177857611777611626565b5b600061178686828701611674565b935050602061179786828701611674565b92505060406117a8868287016116aa565b9150509250925092565b600060ff82169050919050565b6117c8816117b2565b82525050565b60006020820190506117e360008301846117bf565b92915050565b6000602082840312156117ff576117fe611626565b5b600061180d84828501611674565b91505092915050565b61181f8161164b565b82525050565b600060208201905061183a6000830184611816565b92915050565b60006020828403121561185657611855611626565b5b6000611864848285016116aa565b91505092915050565b6000806040838503121561188457611883611626565b5b600061189285828601611674565b92505060206118a385828601611674565b9150509250929050565b7f4e487b7100000000000000000000000000000000000000000000000000000000600052602260045260246000fd5b600060028204905060018216806118f457607f821691505b602082108103611907576119066118ad565b5b50919050565b7f436f6d707261206d656e6f7320546f6b656e73206f207061676120636f6e206d60008201527f6173204574686572732e00000000000000000000000000000000000000000000602082015250565b6000611969602a8361157f565b91506119748261190d565b604082019050919050565b600060208201905081810360008301526119988161195c565b9050919050565b7f4e487b7100000000000000000000000000000000000000000000000000000000600052601160045260246000fd5b60006119d982611689565b91506119e483611689565b92508282039050818111156119fc576119fb61199f565b5b92915050565b600081519050611a1181611693565b92915050565b600060208284031215611a2d57611a2c611626565b5b6000611a3b84828501611a02565b91505092915050565b7f436f6d70726120756e206e756d65726f20646520546f6b656e7320616465637560008201527f61646f2e00000000000000000000000000000000000000000000000000000000602082015250565b6000611aa060248361157f565b9150611aab82611a44565b604082019050919050565b60006020820190508181036000830152611acf81611a93565b9050919050565b6000604082019050611aeb6000830185611816565b611af86020830184611735565b9392505050565b611b08816116ff565b8114611b1357600080fd5b50565b600081519050611b2581611aff565b92915050565b600060208284031215611b4157611b40611626565b5b6000611b4f84828501611b16565b91505092915050565b6000611b6382611689565b9150611b6e83611689565b9250828201905080821115611b8657611b8561199f565b5b92915050565b7f536f6c6f20656c2070726f706965746172696f20707565646520656a6563757460008201527f617220657374612066756e63696f6e2e00000000000000000000000000000000602082015250565b6000611be860308361157f565b9150611bf382611b8c565b604082019050919050565b60006020820190508181036000830152611c1781611bdb565b9050919050565b7f446562657320656e766961722045544800000000000000000000000000000000600082015250565b6000611c5460108361157f565b9150611c5f82611c1e565b602082019050919050565b60006020820190508181036000830152611c8381611c47565b9050919050565b7f56616c6f7220696e6772657361646f206e6f2076616c69646f00000000000000600082015250565b6000611cc060198361157f565b9150611ccb82611c8a565b602082019050919050565b60006020820190508181036000830152611cef81611cb3565b9050919050565b7f45524332303a2064656372656173656420616c6c6f77616e63652062656c6f7760008201527f207a65726f000000000000000000000000000000000000000000000000000000602082015250565b6000611d5260258361157f565b9150611d5d82611cf6565b604082019050919050565b60006020820190508181036000830152611d8181611d45565b9050919050565b7f45524332303a20617070726f76652066726f6d20746865207a65726f2061646460008201527f7265737300000000000000000000000000000000000000000000000000000000602082015250565b6000611de460248361157f565b9150611def82611d88565b604082019050919050565b60006020820190508181036000830152611e1381611dd7565b9050919050565b7f45524332303a20617070726f766520746f20746865207a65726f20616464726560008201527f7373000000000000000000000000000000000000000000000000000000000000602082015250565b6000611e7660228361157f565b9150611e8182611e1a565b604082019050919050565b60006020820190508181036000830152611ea581611e69565b9050919050565b6000611eb782611689565b9150611ec283611689565b9250828202611ed081611689565b91508282048414831517611ee757611ee661199f565b5b5092915050565b7f45524332303a20696e73756666696369656e7420616c6c6f77616e6365000000600082015250565b6000611f24601d8361157f565b9150611f2f82611eee565b602082019050919050565b60006020820190508181036000830152611f5381611f17565b9050919050565b7f45524332303a207472616e736665722066726f6d20746865207a65726f20616460008201527f6472657373000000000000000000000000000000000000000000000000000000602082015250565b6000611fb660258361157f565b9150611fc182611f5a565b604082019050919050565b60006020820190508181036000830152611fe581611fa9565b9050919050565b7f45524332303a207472616e7366657220746f20746865207a65726f206164647260008201527f6573730000000000000000000000000000000000000000000000000000000000602082015250565b600061204860238361157f565b915061205382611fec565b604082019050919050565b600060208201905081810360008301526120778161203b565b9050919050565b7f45524332303a207472616e7366657220616d6f756e742065786365656473206260008201527f616c616e63650000000000000000000000000000000000000000000000000000602082015250565b60006120da60268361157f565b91506120e58261207e565b604082019050919050565b60006020820190508181036000830152612109816120cd565b9050919050565b7f45524332303a206d696e7420746f20746865207a65726f206164647265737300600082015250565b6000612146601f8361157f565b915061215182612110565b602082019050919050565b6000602082019050818103600083015261217581612139565b9050919050565b7f4e487b7100000000000000000000000000000000000000000000000000000000600052600160045260246000fdfea2646970667358221220e0b7807fe6c35a86677c3dfdff922edb7db25b1b89d5758df712346276f89a6c64736f6c63430008120033",
					"opcodes": "PUSH1 0x80 PUSH1 0x40 MSTORE PUSH20 0x72F188F3767FE8FE835B7B22191F28A3B19562D1 PUSH1 0x7 PUSH1 0x0 PUSH2 0x100 EXP DUP2 SLOAD DUP2 PUSH20 0xFFFFFFFFFFFFFFFFFFFFFFFFFFFFFFFFFFFFFFFF MUL NOT AND SWAP1 DUP4 PUSH20 0xFFFFFFFFFFFFFFFFFFFFFFFFFFFFFFFFFFFFFFFF AND MUL OR SWAP1 SSTORE POP PUSH1 0x40 MLOAD DUP1 PUSH1 0x40 ADD PUSH1 0x40 MSTORE DUP1 PUSH1 0xB DUP2 MSTORE PUSH1 0x20 ADD PUSH32 0x466C69784361706974616C000000000000000000000000000000000000000000 DUP2 MSTORE POP PUSH1 0x40 MLOAD DUP1 PUSH1 0x40 ADD PUSH1 0x40 MSTORE DUP1 PUSH1 0x3 DUP2 MSTORE PUSH1 0x20 ADD PUSH32 0x464C580000000000000000000000000000000000000000000000000000000000 DUP2 MSTORE POP DUP2 PUSH1 0x3 SWAP1 DUP2 PUSH3 0xD6 SWAP2 SWAP1 PUSH3 0x3ED JUMP JUMPDEST POP DUP1 PUSH1 0x4 SWAP1 DUP2 PUSH3 0xE8 SWAP2 SWAP1 PUSH3 0x3ED JUMP JUMPDEST POP POP POP CALLER PUSH1 0x5 PUSH1 0x0 PUSH2 0x100 EXP DUP2 SLOAD DUP2 PUSH20 0xFFFFFFFFFFFFFFFFFFFFFFFFFFFFFFFFFFFFFFFF MUL NOT AND SWAP1 DUP4 PUSH20 0xFFFFFFFFFFFFFFFFFFFFFFFFFFFFFFFFFFFFFFFF AND MUL OR SWAP1 SSTORE POP ADDRESS PUSH1 0x6 PUSH1 0x0 PUSH2 0x100 EXP DUP2 SLOAD DUP2 PUSH20 0xFFFFFFFFFFFFFFFFFFFFFFFFFFFFFFFFFFFFFFFF MUL NOT AND SWAP1 DUP4 PUSH20 0xFFFFFFFFFFFFFFFFFFFFFFFFFFFFFFFFFFFFFFFF AND MUL OR SWAP1 SSTORE POP PUSH3 0x4D4 JUMP JUMPDEST PUSH1 0x0 DUP2 MLOAD SWAP1 POP SWAP2 SWAP1 POP JUMP JUMPDEST PUSH32 0x4E487B7100000000000000000000000000000000000000000000000000000000 PUSH1 0x0 MSTORE PUSH1 0x41 PUSH1 0x4 MSTORE PUSH1 0x24 PUSH1 0x0 REVERT JUMPDEST PUSH32 0x4E487B7100000000000000000000000000000000000000000000000000000000 PUSH1 0x0 MSTORE PUSH1 0x22 PUSH1 0x4 MSTORE PUSH1 0x24 PUSH1 0x0 REVERT JUMPDEST PUSH1 0x0 PUSH1 0x2 DUP3 DIV SWAP1 POP PUSH1 0x1 DUP3 AND DUP1 PUSH3 0x1F5 JUMPI PUSH1 0x7F DUP3 AND SWAP2 POP JUMPDEST PUSH1 0x20 DUP3 LT DUP2 SUB PUSH3 0x20B JUMPI PUSH3 0x20A PUSH3 0x1AD JUMP JUMPDEST JUMPDEST POP SWAP2 SWAP1 POP JUMP JUMPDEST PUSH1 0x0 DUP2 SWAP1 POP DUP2 PUSH1 0x0 MSTORE PUSH1 0x20 PUSH1 0x0 KECCAK256 SWAP1 POP SWAP2 SWAP1 POP JUMP JUMPDEST PUSH1 0x0 PUSH1 0x20 PUSH1 0x1F DUP4 ADD DIV SWAP1 POP SWAP2 SWAP1 POP JUMP JUMPDEST PUSH1 0x0 DUP3 DUP3 SHL SWAP1 POP SWAP3 SWAP2 POP POP JUMP JUMPDEST PUSH1 0x0 PUSH1 0x8 DUP4 MUL PUSH3 0x275 PUSH32 0xFFFFFFFFFFFFFFFFFFFFFFFFFFFFFFFFFFFFFFFFFFFFFFFFFFFFFFFFFFFFFFFF DUP3 PUSH3 0x236 JUMP JUMPDEST PUSH3 0x281 DUP7 DUP4 PUSH3 0x236 JUMP JUMPDEST SWAP6 POP DUP1 NOT DUP5 AND SWAP4 POP DUP1 DUP7 AND DUP5 OR SWAP3 POP POP POP SWAP4 SWAP3 POP POP POP JUMP JUMPDEST PUSH1 0x0 DUP2 SWAP1 POP SWAP2 SWAP1 POP JUMP JUMPDEST PUSH1 0x0 DUP2 SWAP1 POP SWAP2 SWAP1 POP JUMP JUMPDEST PUSH1 0x0 PUSH3 0x2CE PUSH3 0x2C8 PUSH3 0x2C2 DUP5 PUSH3 0x299 JUMP JUMPDEST PUSH3 0x2A3 JUMP JUMPDEST PUSH3 0x299 JUMP JUMPDEST SWAP1 POP SWAP2 SWAP1 POP JUMP JUMPDEST PUSH1 0x0 DUP2 SWAP1 POP SWAP2 SWAP1 POP JUMP JUMPDEST PUSH3 0x2EA DUP4 PUSH3 0x2AD JUMP JUMPDEST PUSH3 0x302 PUSH3 0x2F9 DUP3 PUSH3 0x2D5 JUMP JUMPDEST DUP5 DUP5 SLOAD PUSH3 0x243 JUMP JUMPDEST DUP3 SSTORE POP POP POP POP JUMP JUMPDEST PUSH1 0x0 SWAP1 JUMP JUMPDEST PUSH3 0x319 PUSH3 0x30A JUMP JUMPDEST PUSH3 0x326 DUP2 DUP5 DUP5 PUSH3 0x2DF JUMP JUMPDEST POP POP POP JUMP JUMPDEST JUMPDEST DUP2 DUP2 LT ISZERO PUSH3 0x34E JUMPI PUSH3 0x342 PUSH1 0x0 DUP3 PUSH3 0x30F JUMP JUMPDEST PUSH1 0x1 DUP2 ADD SWAP1 POP PUSH3 0x32C JUMP JUMPDEST POP POP JUMP JUMPDEST PUSH1 0x1F DUP3 GT ISZERO PUSH3 0x39D JUMPI PUSH3 0x367 DUP2 PUSH3 0x211 JUMP JUMPDEST PUSH3 0x372 DUP5 PUSH3 0x226 JUMP JUMPDEST DUP2 ADD PUSH1 0x20 DUP6 LT ISZERO PUSH3 0x382 JUMPI DUP2 SWAP1 POP JUMPDEST PUSH3 0x39A PUSH3 0x391 DUP6 PUSH3 0x226 JUMP JUMPDEST DUP4 ADD DUP3 PUSH3 0x32B JUMP JUMPDEST POP POP JUMPDEST POP POP POP JUMP JUMPDEST PUSH1 0x0 DUP3 DUP3 SHR SWAP1 POP SWAP3 SWAP2 POP POP JUMP JUMPDEST PUSH1 0x0 PUSH3 0x3C2 PUSH1 0x0 NOT DUP5 PUSH1 0x8 MUL PUSH3 0x3A2 JUMP JUMPDEST NOT DUP1 DUP4 AND SWAP2 POP POP SWAP3 SWAP2 POP POP JUMP JUMPDEST PUSH1 0x0 PUSH3 0x3DD DUP4 DUP4 PUSH3 0x3AF JUMP JUMPDEST SWAP2 POP DUP3 PUSH1 0x2 MUL DUP3 OR SWAP1 POP SWAP3 SWAP2 POP POP JUMP JUMPDEST PUSH3 0x3F8 DUP3 PUSH3 0x173 JUMP JUMPDEST PUSH8 0xFFFFFFFFFFFFFFFF DUP2 GT ISZERO PUSH3 0x414 JUMPI PUSH3 0x413 PUSH3 0x17E JUMP JUMPDEST JUMPDEST PUSH3 0x420 DUP3 SLOAD PUSH3 0x1DC JUMP JUMPDEST PUSH3 0x42D DUP3 DUP3 DUP6 PUSH3 0x352 JUMP JUMPDEST PUSH1 0x0 PUSH1 0x20 SWAP1 POP PUSH1 0x1F DUP4 GT PUSH1 0x1 DUP2 EQ PUSH3 0x465 JUMPI PUSH1 0x0 DUP5 ISZERO PUSH3 0x450 JUMPI DUP3 DUP8 ADD MLOAD SWAP1 POP JUMPDEST PUSH3 0x45C DUP6 DUP3 PUSH3 0x3CF JUMP JUMPDEST DUP7 SSTORE POP PUSH3 0x4CC JUMP JUMPDEST PUSH1 0x1F NOT DUP5 AND PUSH3 0x475 DUP7 PUSH3 0x211 JUMP JUMPDEST PUSH1 0x0 JUMPDEST DUP3 DUP2 LT ISZERO PUSH3 0x49F JUMPI DUP5 DUP10 ADD MLOAD DUP3 SSTORE PUSH1 0x1 DUP3 ADD SWAP2 POP PUSH1 0x20 DUP6 ADD SWAP5 POP PUSH1 0x20 DUP2 ADD SWAP1 POP PUSH3 0x478 JUMP JUMPDEST DUP7 DUP4 LT ISZERO PUSH3 0x4BF JUMPI DUP5 DUP10 ADD MLOAD PUSH3 0x4BB PUSH1 0x1F DUP10 AND DUP3 PUSH3 0x3AF JUMP JUMPDEST DUP4 SSTORE POP JUMPDEST PUSH1 0x1 PUSH1 0x2 DUP9 MUL ADD DUP9 SSTORE POP POP POP JUMPDEST POP POP POP POP POP POP JUMP JUMPDEST PUSH2 0x21E1 DUP1 PUSH3 0x4E4 PUSH1 0x0 CODECOPY PUSH1 0x0 RETURN INVALID PUSH1 0x80 PUSH1 0x40 MSTORE PUSH1 0x4 CALLDATASIZE LT PUSH2 0x114 JUMPI PUSH1 0x0 CALLDATALOAD PUSH1 0xE0 SHR DUP1 PUSH4 0x70A08231 GT PUSH2 0xA0 JUMPI DUP1 PUSH4 0xA457C2D7 GT PUSH2 0x64 JUMPI DUP1 PUSH4 0xA457C2D7 EQ PUSH2 0x39B JUMPI DUP1 PUSH4 0xA9059CBB EQ PUSH2 0x3D8 JUMPI DUP1 PUSH4 0xDD62ED3E EQ PUSH2 0x415 JUMPI DUP1 PUSH4 0xE1A01E67 EQ PUSH2 0x452 JUMPI DUP1 PUSH4 0xFECB6B1E EQ PUSH2 0x47D JUMPI PUSH2 0x114 JUMP JUMPDEST DUP1 PUSH4 0x70A08231 EQ PUSH2 0x2C1 JUMPI DUP1 PUSH4 0x79FD022E EQ PUSH2 0x2FE JUMPI DUP1 PUSH4 0x7CDF37F9 EQ PUSH2 0x329 JUMPI DUP1 PUSH4 0x8DA5CB5B EQ PUSH2 0x345 JUMPI DUP1 PUSH4 0x95D89B41 EQ PUSH2 0x370 JUMPI PUSH2 0x114 JUMP JUMPDEST DUP1 PUSH4 0x23B872DD GT PUSH2 0xE7 JUMPI DUP1 PUSH4 0x23B872DD EQ PUSH2 0x1C8 JUMPI DUP1 PUSH4 0x313CE567 EQ PUSH2 0x205 JUMPI DUP1 PUSH4 0x39509351 EQ PUSH2 0x230 JUMPI DUP1 PUSH4 0x40C92FDE EQ PUSH2 0x26D JUMPI DUP1 PUSH4 0x6F9FB98A EQ PUSH2 0x296 JUMPI PUSH2 0x114 JUMP JUMPDEST DUP1 PUSH4 0x6FDDE03 EQ PUSH2 0x119 JUMPI DUP1 PUSH4 0x95EA7B3 EQ PUSH2 0x144 JUMPI DUP1 PUSH4 0x18160DDD EQ PUSH2 0x181 JUMPI DUP1 PUSH4 0x21208530 EQ PUSH2 0x1AC JUMPI JUMPDEST PUSH1 0x0 DUP1 REVERT JUMPDEST CALLVALUE DUP1 ISZERO PUSH2 0x125 JUMPI PUSH1 0x0 DUP1 REVERT JUMPDEST POP PUSH2 0x12E PUSH2 0x4BA JUMP JUMPDEST PUSH1 0x40 MLOAD PUSH2 0x13B SWAP2 SWAP1 PUSH2 0x1604 JUMP JUMPDEST PUSH1 0x40 MLOAD DUP1 SWAP2 SUB SWAP1 RETURN JUMPDEST CALLVALUE DUP1 ISZERO PUSH2 0x150 JUMPI PUSH1 0x0 DUP1 REVERT JUMPDEST POP PUSH2 0x16B PUSH1 0x4 DUP1 CALLDATASIZE SUB DUP2 ADD SWAP1 PUSH2 0x166 SWAP2 SWAP1 PUSH2 0x16BF JUMP JUMPDEST PUSH2 0x54C JUMP JUMPDEST PUSH1 0x40 MLOAD PUSH2 0x178 SWAP2 SWAP1 PUSH2 0x171A JUMP JUMPDEST PUSH1 0x40 MLOAD DUP1 SWAP2 SUB SWAP1 RETURN JUMPDEST CALLVALUE DUP1 ISZERO PUSH2 0x18D JUMPI PUSH1 0x0 DUP1 REVERT JUMPDEST POP PUSH2 0x196 PUSH2 0x56F JUMP JUMPDEST PUSH1 0x40 MLOAD PUSH2 0x1A3 SWAP2 SWAP1 PUSH2 0x1744 JUMP JUMPDEST PUSH1 0x40 MLOAD DUP1 SWAP2 SUB SWAP1 RETURN JUMPDEST PUSH2 0x1C6 PUSH1 0x4 DUP1 CALLDATASIZE SUB DUP2 ADD SWAP1 PUSH2 0x1C1 SWAP2 SWAP1 PUSH2 0x16BF JUMP JUMPDEST PUSH2 0x579 JUMP JUMPDEST STOP JUMPDEST CALLVALUE DUP1 ISZERO PUSH2 0x1D4 JUMPI PUSH1 0x0 DUP1 REVERT JUMPDEST POP PUSH2 0x1EF PUSH1 0x4 DUP1 CALLDATASIZE SUB DUP2 ADD SWAP1 PUSH2 0x1EA SWAP2 SWAP1 PUSH2 0x175F JUMP JUMPDEST PUSH2 0x82B JUMP JUMPDEST PUSH1 0x40 MLOAD PUSH2 0x1FC SWAP2 SWAP1 PUSH2 0x171A JUMP JUMPDEST PUSH1 0x40 MLOAD DUP1 SWAP2 SUB SWAP1 RETURN JUMPDEST CALLVALUE DUP1 ISZERO PUSH2 0x211 JUMPI PUSH1 0x0 DUP1 REVERT JUMPDEST POP PUSH2 0x21A PUSH2 0x85A JUMP JUMPDEST PUSH1 0x40 MLOAD PUSH2 0x227 SWAP2 SWAP1 PUSH2 0x17CE JUMP JUMPDEST PUSH1 0x40 MLOAD DUP1 SWAP2 SUB SWAP1 RETURN JUMPDEST CALLVALUE DUP1 ISZERO PUSH2 0x23C JUMPI PUSH1 0x0 DUP1 REVERT JUMPDEST POP PUSH2 0x257 PUSH1 0x4 DUP1 CALLDATASIZE SUB DUP2 ADD SWAP1 PUSH2 0x252 SWAP2 SWAP1 PUSH2 0x16BF JUMP JUMPDEST PUSH2 0x863 JUMP JUMPDEST PUSH1 0x40 MLOAD PUSH2 0x264 SWAP2 SWAP1 PUSH2 0x171A JUMP JUMPDEST PUSH1 0x40 MLOAD DUP1 SWAP2 SUB SWAP1 RETURN JUMPDEST CALLVALUE DUP1 ISZERO PUSH2 0x279 JUMPI PUSH1 0x0 DUP1 REVERT JUMPDEST POP PUSH2 0x294 PUSH1 0x4 DUP1 CALLDATASIZE SUB DUP2 ADD SWAP1 PUSH2 0x28F SWAP2 SWAP1 PUSH2 0x16BF JUMP JUMPDEST PUSH2 0x89A JUMP JUMPDEST STOP JUMPDEST CALLVALUE DUP1 ISZERO PUSH2 0x2A2 JUMPI PUSH1 0x0 DUP1 REVERT JUMPDEST POP PUSH2 0x2AB PUSH2 0x938 JUMP JUMPDEST PUSH1 0x40 MLOAD PUSH2 0x2B8 SWAP2 SWAP1 PUSH2 0x1744 JUMP JUMPDEST PUSH1 0x40 MLOAD DUP1 SWAP2 SUB SWAP1 RETURN JUMPDEST CALLVALUE DUP1 ISZERO PUSH2 0x2CD JUMPI PUSH1 0x0 DUP1 REVERT JUMPDEST POP PUSH2 0x2E8 PUSH1 0x4 DUP1 CALLDATASIZE SUB DUP2 ADD SWAP1 PUSH2 0x2E3 SWAP2 SWAP1 PUSH2 0x17E9 JUMP JUMPDEST PUSH2 0x979 JUMP JUMPDEST PUSH1 0x40 MLOAD PUSH2 0x2F5 SWAP2 SWAP1 PUSH2 0x1744 JUMP JUMPDEST PUSH1 0x40 MLOAD DUP1 SWAP2 SUB SWAP1 RETURN JUMPDEST CALLVALUE DUP1 ISZERO PUSH2 0x30A JUMPI PUSH1 0x0 DUP1 REVERT JUMPDEST POP PUSH2 0x313 PUSH2 0x9C1 JUMP JUMPDEST PUSH1 0x40 MLOAD PUSH2 0x320 SWAP2 SWAP1 PUSH2 0x1825 JUMP JUMPDEST PUSH1 0x40 MLOAD DUP1 SWAP2 SUB SWAP1 RETURN JUMPDEST PUSH2 0x343 PUSH1 0x4 DUP1 CALLDATASIZE SUB DUP2 ADD SWAP1 PUSH2 0x33E SWAP2 SWAP1 PUSH2 0x1840 JUMP JUMPDEST PUSH2 0x9E7 JUMP JUMPDEST STOP JUMPDEST CALLVALUE DUP1 ISZERO PUSH2 0x351 JUMPI PUSH1 0x0 DUP1 REVERT JUMPDEST POP PUSH2 0x35A PUSH2 0xAEF JUMP JUMPDEST PUSH1 0x40 MLOAD PUSH2 0x367 SWAP2 SWAP1 PUSH2 0x1825 JUMP JUMPDEST PUSH1 0x40 MLOAD DUP1 SWAP2 SUB SWAP1 RETURN JUMPDEST CALLVALUE DUP1 ISZERO PUSH2 0x37C JUMPI PUSH1 0x0 DUP1 REVERT JUMPDEST POP PUSH2 0x385 PUSH2 0xB15 JUMP JUMPDEST PUSH1 0x40 MLOAD PUSH2 0x392 SWAP2 SWAP1 PUSH2 0x1604 JUMP JUMPDEST PUSH1 0x40 MLOAD DUP1 SWAP2 SUB SWAP1 RETURN JUMPDEST CALLVALUE DUP1 ISZERO PUSH2 0x3A7 JUMPI PUSH1 0x0 DUP1 REVERT JUMPDEST POP PUSH2 0x3C2 PUSH1 0x4 DUP1 CALLDATASIZE SUB DUP2 ADD SWAP1 PUSH2 0x3BD SWAP2 SWAP1 PUSH2 0x16BF JUMP JUMPDEST PUSH2 0xBA7 JUMP JUMPDEST PUSH1 0x40 MLOAD PUSH2 0x3CF SWAP2 SWAP1 PUSH2 0x171A JUMP JUMPDEST PUSH1 0x40 MLOAD DUP1 SWAP2 SUB SWAP1 RETURN JUMPDEST CALLVALUE DUP1 ISZERO PUSH2 0x3E4 JUMPI PUSH1 0x0 DUP1 REVERT JUMPDEST POP PUSH2 0x3FF PUSH1 0x4 DUP1 CALLDATASIZE SUB DUP2 ADD SWAP1 PUSH2 0x3FA SWAP2 SWAP1 PUSH2 0x16BF JUMP JUMPDEST PUSH2 0xC1E JUMP JUMPDEST PUSH1 0x40 MLOAD PUSH2 0x40C SWAP2 SWAP1 PUSH2 0x171A JUMP JUMPDEST PUSH1 0x40 MLOAD DUP1 SWAP2 SUB SWAP1 RETURN JUMPDEST CALLVALUE DUP1 ISZERO PUSH2 0x421 JUMPI PUSH1 0x0 DUP1 REVERT JUMPDEST POP PUSH2 0x43C PUSH1 0x4 DUP1 CALLDATASIZE SUB DUP2 ADD SWAP1 PUSH2 0x437 SWAP2 SWAP1 PUSH2 0x186D JUMP JUMPDEST PUSH2 0xC41 JUMP JUMPDEST PUSH1 0x40 MLOAD PUSH2 0x449 SWAP2 SWAP1 PUSH2 0x1744 JUMP JUMPDEST PUSH1 0x40 MLOAD DUP1 SWAP2 SUB SWAP1 RETURN JUMPDEST CALLVALUE DUP1 ISZERO PUSH2 0x45E JUMPI PUSH1 0x0 DUP1 REVERT JUMPDEST POP PUSH2 0x467 PUSH2 0xCC8 JUMP JUMPDEST PUSH1 0x40 MLOAD PUSH2 0x474 SWAP2 SWAP1 PUSH2 0x1825 JUMP JUMPDEST PUSH1 0x40 MLOAD DUP1 SWAP2 SUB SWAP1 RETURN JUMPDEST CALLVALUE DUP1 ISZERO PUSH2 0x489 JUMPI PUSH1 0x0 DUP1 REVERT JUMPDEST POP PUSH2 0x4A4 PUSH1 0x4 DUP1 CALLDATASIZE SUB DUP2 ADD SWAP1 PUSH2 0x49F SWAP2 SWAP1 PUSH2 0x175F JUMP JUMPDEST PUSH2 0xCEE JUMP JUMPDEST PUSH1 0x40 MLOAD PUSH2 0x4B1 SWAP2 SWAP1 PUSH2 0x171A JUMP JUMPDEST PUSH1 0x40 MLOAD DUP1 SWAP2 SUB SWAP1 RETURN JUMPDEST PUSH1 0x60 PUSH1 0x3 DUP1 SLOAD PUSH2 0x4C9 SWAP1 PUSH2 0x18DC JUMP JUMPDEST DUP1 PUSH1 0x1F ADD PUSH1 0x20 DUP1 SWAP2 DIV MUL PUSH1 0x20 ADD PUSH1 0x40 MLOAD SWAP1 DUP2 ADD PUSH1 0x40 MSTORE DUP1 SWAP3 SWAP2 SWAP1 DUP2 DUP2 MSTORE PUSH1 0x20 ADD DUP3 DUP1 SLOAD PUSH2 0x4F5 SWAP1 PUSH2 0x18DC JUMP JUMPDEST DUP1 ISZERO PUSH2 0x542 JUMPI DUP1 PUSH1 0x1F LT PUSH2 0x517 JUMPI PUSH2 0x100 DUP1 DUP4 SLOAD DIV MUL DUP4 MSTORE SWAP2 PUSH1 0x20 ADD SWAP2 PUSH2 0x542 JUMP JUMPDEST DUP3 ADD SWAP2 SWAP1 PUSH1 0x0 MSTORE PUSH1 0x20 PUSH1 0x0 KECCAK256 SWAP1 JUMPDEST DUP2 SLOAD DUP2 MSTORE SWAP1 PUSH1 0x1 ADD SWAP1 PUSH1 0x20 ADD DUP1 DUP4 GT PUSH2 0x525 JUMPI DUP3 SWAP1 SUB PUSH1 0x1F AND DUP3 ADD SWAP2 JUMPDEST POP POP POP POP POP SWAP1 POP SWAP1 JUMP JUMPDEST PUSH1 0x0 DUP1 PUSH2 0x557 PUSH2 0xED1 JUMP JUMPDEST SWAP1 POP PUSH2 0x564 DUP2 DUP6 DUP6 PUSH2 0xED9 JUMP JUMPDEST PUSH1 0x1 SWAP2 POP POP SWAP3 SWAP2 POP POP JUMP JUMPDEST PUSH1 0x0 PUSH1 0x2 SLOAD SWAP1 POP SWAP1 JUMP JUMPDEST PUSH1 0x0 PUSH2 0x584 DUP3 PUSH2 0x10A2 JUMP JUMPDEST SWAP1 POP DUP1 DUP3 LT ISZERO PUSH2 0x5C9 JUMPI PUSH1 0x40 MLOAD PUSH32 0x8C379A000000000000000000000000000000000000000000000000000000000 DUP2 MSTORE PUSH1 0x4 ADD PUSH2 0x5C0 SWAP1 PUSH2 0x197F JUMP JUMPDEST PUSH1 0x40 MLOAD DUP1 SWAP2 SUB SWAP1 REVERT JUMPDEST PUSH1 0x0 DUP2 DUP4 PUSH2 0x5D7 SWAP2 SWAP1 PUSH2 0x19CE JUMP JUMPDEST SWAP1 POP DUP4 PUSH20 0xFFFFFFFFFFFFFFFFFFFFFFFFFFFFFFFFFFFFFFFF AND PUSH2 0x8FC DUP3 SWAP1 DUP2 ISZERO MUL SWAP1 PUSH1 0x40 MLOAD PUSH1 0x0 PUSH1 0x40 MLOAD DUP1 DUP4 SUB DUP2 DUP6 DUP9 DUP9 CALL SWAP4 POP POP POP POP ISZERO DUP1 ISZERO PUSH2 0x61F JUMPI RETURNDATASIZE PUSH1 0x0 DUP1 RETURNDATACOPY RETURNDATASIZE PUSH1 0x0 REVERT JUMPDEST POP PUSH1 0x7 PUSH1 0x0 SWAP1 SLOAD SWAP1 PUSH2 0x100 EXP SWAP1 DIV PUSH20 0xFFFFFFFFFFFFFFFFFFFFFFFFFFFFFFFFFFFFFFFF AND PUSH20 0xFFFFFFFFFFFFFFFFFFFFFFFFFFFFFFFFFFFFFFFF AND PUSH2 0x8FC DUP4 SWAP1 DUP2 ISZERO MUL SWAP1 PUSH1 0x40 MLOAD PUSH1 0x0 PUSH1 0x40 MLOAD DUP1 DUP4 SUB DUP2 DUP6 DUP9 DUP9 CALL SWAP4 POP POP POP POP ISZERO DUP1 ISZERO PUSH2 0x688 JUMPI RETURNDATASIZE PUSH1 0x0 DUP1 RETURNDATACOPY RETURNDATASIZE PUSH1 0x0 REVERT JUMPDEST POP PUSH1 0x0 ADDRESS PUSH20 0xFFFFFFFFFFFFFFFFFFFFFFFFFFFFFFFFFFFFFFFF AND PUSH4 0x70A08231 PUSH1 0x6 PUSH1 0x0 SWAP1 SLOAD SWAP1 PUSH2 0x100 EXP SWAP1 DIV PUSH20 0xFFFFFFFFFFFFFFFFFFFFFFFFFFFFFFFFFFFFFFFF AND PUSH1 0x40 MLOAD DUP3 PUSH4 0xFFFFFFFF AND PUSH1 0xE0 SHL DUP2 MSTORE PUSH1 0x4 ADD PUSH2 0x6E6 SWAP2 SWAP1 PUSH2 0x1825 JUMP JUMPDEST PUSH1 0x20 PUSH1 0x40 MLOAD DUP1 DUP4 SUB DUP2 DUP7 GAS STATICCALL ISZERO DUP1 ISZERO PUSH2 0x703 JUMPI RETURNDATASIZE PUSH1 0x0 DUP1 RETURNDATACOPY RETURNDATASIZE PUSH1 0x0 REVERT JUMPDEST POP POP POP POP PUSH1 0x40 MLOAD RETURNDATASIZE PUSH1 0x1F NOT PUSH1 0x1F DUP3 ADD AND DUP3 ADD DUP1 PUSH1 0x40 MSTORE POP DUP2 ADD SWAP1 PUSH2 0x727 SWAP2 SWAP1 PUSH2 0x1A17 JUMP JUMPDEST SWAP1 POP DUP1 DUP5 GT ISZERO PUSH2 0x76C JUMPI PUSH1 0x40 MLOAD PUSH32 0x8C379A000000000000000000000000000000000000000000000000000000000 DUP2 MSTORE PUSH1 0x4 ADD PUSH2 0x763 SWAP1 PUSH2 0x1AB6 JUMP JUMPDEST PUSH1 0x40 MLOAD DUP1 SWAP2 SUB SWAP1 REVERT JUMPDEST ADDRESS PUSH20 0xFFFFFFFFFFFFFFFFFFFFFFFFFFFFFFFFFFFFFFFF AND PUSH4 0xA9059CBB DUP7 DUP7 PUSH1 0x40 MLOAD DUP4 PUSH4 0xFFFFFFFF AND PUSH1 0xE0 SHL DUP2 MSTORE PUSH1 0x4 ADD PUSH2 0x7A7 SWAP3 SWAP2 SWAP1 PUSH2 0x1AD6 JUMP JUMPDEST PUSH1 0x20 PUSH1 0x40 MLOAD DUP1 DUP4 SUB DUP2 PUSH1 0x0 DUP8 GAS CALL ISZERO DUP1 ISZERO PUSH2 0x7C6 JUMPI RETURNDATASIZE PUSH1 0x0 DUP1 RETURNDATACOPY RETURNDATASIZE PUSH1 0x0 REVERT JUMPDEST POP POP POP POP PUSH1 0x40 MLOAD RETURNDATASIZE PUSH1 0x1F NOT PUSH1 0x1F DUP3 ADD AND DUP3 ADD DUP1 PUSH1 0x40 MSTORE POP DUP2 ADD SWAP1 PUSH2 0x7EA SWAP2 SWAP1 PUSH2 0x1B2B JUMP JUMPDEST POP PUSH32 0x47DB2ABCE6D5FBCD80FFD9B4BA74DCDE804A746EF732BC7F8A70FABFC912C590 DUP6 DUP6 PUSH1 0x40 MLOAD PUSH2 0x81C SWAP3 SWAP2 SWAP1 PUSH2 0x1AD6 JUMP JUMPDEST PUSH1 0x40 MLOAD DUP1 SWAP2 SUB SWAP1 LOG1 POP POP POP POP POP JUMP JUMPDEST PUSH1 0x0 DUP1 PUSH2 0x836 PUSH2 0xED1 JUMP JUMPDEST SWAP1 POP PUSH2 0x843 DUP6 DUP3 DUP6 PUSH2 0x10BF JUMP JUMPDEST PUSH2 0x84E DUP6 DUP6 DUP6 PUSH2 0x114B JUMP JUMPDEST PUSH1 0x1 SWAP2 POP POP SWAP4 SWAP3 POP POP POP JUMP JUMPDEST PUSH1 0x0 PUSH1 0x12 SWAP1 POP SWAP1 JUMP JUMPDEST PUSH1 0x0 DUP1 PUSH2 0x86E PUSH2 0xED1 JUMP JUMPDEST SWAP1 POP PUSH2 0x88F DUP2 DUP6 DUP6 PUSH2 0x880 DUP6 DUP10 PUSH2 0xC41 JUMP JUMPDEST PUSH2 0x88A SWAP2 SWAP1 PUSH2 0x1B58 JUMP JUMPDEST PUSH2 0xED9 JUMP JUMPDEST PUSH1 0x1 SWAP2 POP POP SWAP3 SWAP2 POP POP JUMP JUMPDEST PUSH1 0x5 PUSH1 0x0 SWAP1 SLOAD SWAP1 PUSH2 0x100 EXP SWAP1 DIV PUSH20 0xFFFFFFFFFFFFFFFFFFFFFFFFFFFFFFFFFFFFFFFF AND PUSH20 0xFFFFFFFFFFFFFFFFFFFFFFFFFFFFFFFFFFFFFFFF AND CALLER PUSH20 0xFFFFFFFFFFFFFFFFFFFFFFFFFFFFFFFFFFFFFFFF AND EQ PUSH2 0x92A JUMPI PUSH1 0x40 MLOAD PUSH32 0x8C379A000000000000000000000000000000000000000000000000000000000 DUP2 MSTORE PUSH1 0x4 ADD PUSH2 0x921 SWAP1 PUSH2 0x1BFE JUMP JUMPDEST PUSH1 0x40 MLOAD DUP1 SWAP2 SUB SWAP1 REVERT JUMPDEST PUSH2 0x934 DUP3 DUP3 PUSH2 0x13C1 JUMP JUMPDEST POP POP JUMP JUMPDEST PUSH1 0x0 PUSH1 0x6 PUSH1 0x0 SWAP1 SLOAD SWAP1 PUSH2 0x100 EXP SWAP1 DIV PUSH20 0xFFFFFFFFFFFFFFFFFFFFFFFFFFFFFFFFFFFFFFFF AND PUSH20 0xFFFFFFFFFFFFFFFFFFFFFFFFFFFFFFFFFFFFFFFF AND BALANCE SWAP1 POP SWAP1 JUMP JUMPDEST PUSH1 0x0 DUP1 PUSH1 0x0 DUP4 PUSH20 0xFFFFFFFFFFFFFFFFFFFFFFFFFFFFFFFFFFFFFFFF AND PUSH20 0xFFFFFFFFFFFFFFFFFFFFFFFFFFFFFFFFFFFFFFFF AND DUP2 MSTORE PUSH1 0x20 ADD SWAP1 DUP2 MSTORE PUSH1 0x20 ADD PUSH1 0x0 KECCAK256 SLOAD SWAP1 POP SWAP2 SWAP1 POP JUMP JUMPDEST PUSH1 0x7 PUSH1 0x0 SWAP1 SLOAD SWAP1 PUSH2 0x100 EXP SWAP1 DIV PUSH20 0xFFFFFFFFFFFFFFFFFFFFFFFFFFFFFFFFFFFFFFFF AND DUP2 JUMP JUMPDEST PUSH1 0x0 CALLVALUE GT PUSH2 0xA2A JUMPI PUSH1 0x40 MLOAD PUSH32 0x8C379A000000000000000000000000000000000000000000000000000000000 DUP2 MSTORE PUSH1 0x4 ADD PUSH2 0xA21 SWAP1 PUSH2 0x1C6A JUMP JUMPDEST PUSH1 0x40 MLOAD DUP1 SWAP2 SUB SWAP1 REVERT JUMPDEST DUP1 CALLVALUE EQ PUSH2 0xA6C JUMPI PUSH1 0x40 MLOAD PUSH32 0x8C379A000000000000000000000000000000000000000000000000000000000 DUP2 MSTORE PUSH1 0x4 ADD PUSH2 0xA63 SWAP1 PUSH2 0x1CD6 JUMP JUMPDEST PUSH1 0x40 MLOAD DUP1 SWAP2 SUB SWAP1 REVERT JUMPDEST CALLER PUSH20 0xFFFFFFFFFFFFFFFFFFFFFFFFFFFFFFFFFFFFFFFF AND PUSH2 0x8FC PUSH1 0x6 PUSH1 0x0 SWAP1 SLOAD SWAP1 PUSH2 0x100 EXP SWAP1 DIV PUSH20 0xFFFFFFFFFFFFFFFFFFFFFFFFFFFFFFFFFFFFFFFF AND PUSH20 0xFFFFFFFFFFFFFFFFFFFFFFFFFFFFFFFFFFFFFFFF AND BALANCE SWAP1 DUP2 ISZERO MUL SWAP1 PUSH1 0x40 MLOAD PUSH1 0x0 PUSH1 0x40 MLOAD DUP1 DUP4 SUB DUP2 DUP6 DUP9 DUP9 CALL SWAP4 POP POP POP POP ISZERO DUP1 ISZERO PUSH2 0xAEB JUMPI RETURNDATASIZE PUSH1 0x0 DUP1 RETURNDATACOPY RETURNDATASIZE PUSH1 0x0 REVERT JUMPDEST POP POP JUMP JUMPDEST PUSH1 0x5 PUSH1 0x0 SWAP1 SLOAD SWAP1 PUSH2 0x100 EXP SWAP1 DIV PUSH20 0xFFFFFFFFFFFFFFFFFFFFFFFFFFFFFFFFFFFFFFFF AND DUP2 JUMP JUMPDEST PUSH1 0x60 PUSH1 0x4 DUP1 SLOAD PUSH2 0xB24 SWAP1 PUSH2 0x18DC JUMP JUMPDEST DUP1 PUSH1 0x1F ADD PUSH1 0x20 DUP1 SWAP2 DIV MUL PUSH1 0x20 ADD PUSH1 0x40 MLOAD SWAP1 DUP2 ADD PUSH1 0x40 MSTORE DUP1 SWAP3 SWAP2 SWAP1 DUP2 DUP2 MSTORE PUSH1 0x20 ADD DUP3 DUP1 SLOAD PUSH2 0xB50 SWAP1 PUSH2 0x18DC JUMP JUMPDEST DUP1 ISZERO PUSH2 0xB9D JUMPI DUP1 PUSH1 0x1F LT PUSH2 0xB72 JUMPI PUSH2 0x100 DUP1 DUP4 SLOAD DIV MUL DUP4 MSTORE SWAP2 PUSH1 0x20 ADD SWAP2 PUSH2 0xB9D JUMP JUMPDEST DUP3 ADD SWAP2 SWAP1 PUSH1 0x0 MSTORE PUSH1 0x20 PUSH1 0x0 KECCAK256 SWAP1 JUMPDEST DUP2 SLOAD DUP2 MSTORE SWAP1 PUSH1 0x1 ADD SWAP1 PUSH1 0x20 ADD DUP1 DUP4 GT PUSH2 0xB80 JUMPI DUP3 SWAP1 SUB PUSH1 0x1F AND DUP3 ADD SWAP2 JUMPDEST POP POP POP POP POP SWAP1 POP SWAP1 JUMP JUMPDEST PUSH1 0x0 DUP1 PUSH2 0xBB2 PUSH2 0xED1 JUMP JUMPDEST SWAP1 POP PUSH1 0x0 PUSH2 0xBC0 DUP3 DUP7 PUSH2 0xC41 JUMP JUMPDEST SWAP1 POP DUP4 DUP2 LT ISZERO PUSH2 0xC05 JUMPI PUSH1 0x40 MLOAD PUSH32 0x8C379A000000000000000000000000000000000000000000000000000000000 DUP2 MSTORE PUSH1 0x4 ADD PUSH2 0xBFC SWAP1 PUSH2 0x1D68 JUMP JUMPDEST PUSH1 0x40 MLOAD DUP1 SWAP2 SUB SWAP1 REVERT JUMPDEST PUSH2 0xC12 DUP3 DUP7 DUP7 DUP5 SUB PUSH2 0xED9 JUMP JUMPDEST PUSH1 0x1 SWAP3 POP POP POP SWAP3 SWAP2 POP POP JUMP JUMPDEST PUSH1 0x0 DUP1 PUSH2 0xC29 PUSH2 0xED1 JUMP JUMPDEST SWAP1 POP PUSH2 0xC36 DUP2 DUP6 DUP6 PUSH2 0x114B JUMP JUMPDEST PUSH1 0x1 SWAP2 POP POP SWAP3 SWAP2 POP POP JUMP JUMPDEST PUSH1 0x0 PUSH1 0x1 PUSH1 0x0 DUP5 PUSH20 0xFFFFFFFFFFFFFFFFFFFFFFFFFFFFFFFFFFFFFFFF AND PUSH20 0xFFFFFFFFFFFFFFFFFFFFFFFFFFFFFFFFFFFFFFFF AND DUP2 MSTORE PUSH1 0x20 ADD SWAP1 DUP2 MSTORE PUSH1 0x20 ADD PUSH1 0x0 KECCAK256 PUSH1 0x0 DUP4 PUSH20 0xFFFFFFFFFFFFFFFFFFFFFFFFFFFFFFFFFFFFFFFF AND PUSH20 0xFFFFFFFFFFFFFFFFFFFFFFFFFFFFFFFFFFFFFFFF AND DUP2 MSTORE PUSH1 0x20 ADD SWAP1 DUP2 MSTORE PUSH1 0x20 ADD PUSH1 0x0 KECCAK256 SLOAD SWAP1 POP SWAP3 SWAP2 POP POP JUMP JUMPDEST PUSH1 0x6 PUSH1 0x0 SWAP1 SLOAD SWAP1 PUSH2 0x100 EXP SWAP1 DIV PUSH20 0xFFFFFFFFFFFFFFFFFFFFFFFFFFFFFFFFFFFFFFFF AND DUP2 JUMP JUMPDEST PUSH1 0x0 DUP1 PUSH1 0x0 DUP6 PUSH20 0xFFFFFFFFFFFFFFFFFFFFFFFFFFFFFFFFFFFFFFFF AND PUSH20 0xFFFFFFFFFFFFFFFFFFFFFFFFFFFFFFFFFFFFFFFF AND DUP2 MSTORE PUSH1 0x20 ADD SWAP1 DUP2 MSTORE PUSH1 0x20 ADD PUSH1 0x0 KECCAK256 SLOAD DUP3 GT ISZERO PUSH2 0xD3B JUMPI PUSH1 0x0 DUP1 REVERT JUMPDEST PUSH2 0xD8C DUP3 PUSH1 0x0 DUP1 DUP8 PUSH20 0xFFFFFFFFFFFFFFFFFFFFFFFFFFFFFFFFFFFFFFFF AND PUSH20 0xFFFFFFFFFFFFFFFFFFFFFFFFFFFFFFFFFFFFFFFF AND DUP2 MSTORE PUSH1 0x20 ADD SWAP1 DUP2 MSTORE PUSH1 0x20 ADD PUSH1 0x0 KECCAK256 SLOAD PUSH2 0x1517 SWAP1 SWAP2 SWAP1 PUSH4 0xFFFFFFFF AND JUMP JUMPDEST PUSH1 0x0 DUP1 DUP7 PUSH20 0xFFFFFFFFFFFFFFFFFFFFFFFFFFFFFFFFFFFFFFFF AND PUSH20 0xFFFFFFFFFFFFFFFFFFFFFFFFFFFFFFFFFFFFFFFF AND DUP2 MSTORE PUSH1 0x20 ADD SWAP1 DUP2 MSTORE PUSH1 0x20 ADD PUSH1 0x0 KECCAK256 DUP2 SWAP1 SSTORE POP PUSH2 0xE1F DUP3 PUSH1 0x0 DUP1 DUP7 PUSH20 0xFFFFFFFFFFFFFFFFFFFFFFFFFFFFFFFFFFFFFFFF AND PUSH20 0xFFFFFFFFFFFFFFFFFFFFFFFFFFFFFFFFFFFFFFFF AND DUP2 MSTORE PUSH1 0x20 ADD SWAP1 DUP2 MSTORE PUSH1 0x20 ADD PUSH1 0x0 KECCAK256 SLOAD PUSH2 0x153E SWAP1 SWAP2 SWAP1 PUSH4 0xFFFFFFFF AND JUMP JUMPDEST PUSH1 0x0 DUP1 DUP6 PUSH20 0xFFFFFFFFFFFFFFFFFFFFFFFFFFFFFFFFFFFFFFFF AND PUSH20 0xFFFFFFFFFFFFFFFFFFFFFFFFFFFFFFFFFFFFFFFF AND DUP2 MSTORE PUSH1 0x20 ADD SWAP1 DUP2 MSTORE PUSH1 0x20 ADD PUSH1 0x0 KECCAK256 DUP2 SWAP1 SSTORE POP DUP3 PUSH20 0xFFFFFFFFFFFFFFFFFFFFFFFFFFFFFFFFFFFFFFFF AND DUP5 PUSH20 0xFFFFFFFFFFFFFFFFFFFFFFFFFFFFFFFFFFFFFFFF AND PUSH32 0xDDF252AD1BE2C89B69C2B068FC378DAA952BA7F163C4A11628F55A4DF523B3EF DUP5 PUSH1 0x40 MLOAD PUSH2 0xEBE SWAP2 SWAP1 PUSH2 0x1744 JUMP JUMPDEST PUSH1 0x40 MLOAD DUP1 SWAP2 SUB SWAP1 LOG3 PUSH1 0x1 SWAP1 POP SWAP4 SWAP3 POP POP POP JUMP JUMPDEST PUSH1 0x0 CALLER SWAP1 POP SWAP1 JUMP JUMPDEST PUSH1 0x0 PUSH20 0xFFFFFFFFFFFFFFFFFFFFFFFFFFFFFFFFFFFFFFFF AND DUP4 PUSH20 0xFFFFFFFFFFFFFFFFFFFFFFFFFFFFFFFFFFFFFFFF AND SUB PUSH2 0xF48 JUMPI PUSH1 0x40 MLOAD PUSH32 0x8C379A000000000000000000000000000000000000000000000000000000000 DUP2 MSTORE PUSH1 0x4 ADD PUSH2 0xF3F SWAP1 PUSH2 0x1DFA JUMP JUMPDEST PUSH1 0x40 MLOAD DUP1 SWAP2 SUB SWAP1 REVERT JUMPDEST PUSH1 0x0 PUSH20 0xFFFFFFFFFFFFFFFFFFFFFFFFFFFFFFFFFFFFFFFF AND DUP3 PUSH20 0xFFFFFFFFFFFFFFFFFFFFFFFFFFFFFFFFFFFFFFFF AND SUB PUSH2 0xFB7 JUMPI PUSH1 0x40 MLOAD PUSH32 0x8C379A000000000000000000000000000000000000000000000000000000000 DUP2 MSTORE PUSH1 0x4 ADD PUSH2 0xFAE SWAP1 PUSH2 0x1E8C JUMP JUMPDEST PUSH1 0x40 MLOAD DUP1 SWAP2 SUB SWAP1 REVERT JUMPDEST DUP1 PUSH1 0x1 PUSH1 0x0 DUP6 PUSH20 0xFFFFFFFFFFFFFFFFFFFFFFFFFFFFFFFFFFFFFFFF AND PUSH20 0xFFFFFFFFFFFFFFFFFFFFFFFFFFFFFFFFFFFFFFFF AND DUP2 MSTORE PUSH1 0x20 ADD SWAP1 DUP2 MSTORE PUSH1 0x20 ADD PUSH1 0x0 KECCAK256 PUSH1 0x0 DUP5 PUSH20 0xFFFFFFFFFFFFFFFFFFFFFFFFFFFFFFFFFFFFFFFF AND PUSH20 0xFFFFFFFFFFFFFFFFFFFFFFFFFFFFFFFFFFFFFFFF AND DUP2 MSTORE PUSH1 0x20 ADD SWAP1 DUP2 MSTORE PUSH1 0x20 ADD PUSH1 0x0 KECCAK256 DUP2 SWAP1 SSTORE POP DUP2 PUSH20 0xFFFFFFFFFFFFFFFFFFFFFFFFFFFFFFFFFFFFFFFF AND DUP4 PUSH20 0xFFFFFFFFFFFFFFFFFFFFFFFFFFFFFFFFFFFFFFFF AND PUSH32 0x8C5BE1E5EBEC7D5BD14F71427D1E84F3DD0314C0F7B2291E5B200AC8C7C3B925 DUP4 PUSH1 0x40 MLOAD PUSH2 0x1095 SWAP2 SWAP1 PUSH2 0x1744 JUMP JUMPDEST PUSH1 0x40 MLOAD DUP1 SWAP2 SUB SWAP1 LOG3 POP POP POP JUMP JUMPDEST PUSH1 0x0 PUSH8 0xDE0B6B3A7640000 DUP3 PUSH2 0x10B8 SWAP2 SWAP1 PUSH2 0x1EAC JUMP JUMPDEST SWAP1 POP SWAP2 SWAP1 POP JUMP JUMPDEST PUSH1 0x0 PUSH2 0x10CB DUP5 DUP5 PUSH2 0xC41 JUMP JUMPDEST SWAP1 POP PUSH32 0xFFFFFFFFFFFFFFFFFFFFFFFFFFFFFFFFFFFFFFFFFFFFFFFFFFFFFFFFFFFFFFFF DUP2 EQ PUSH2 0x1145 JUMPI DUP2 DUP2 LT ISZERO PUSH2 0x1137 JUMPI PUSH1 0x40 MLOAD PUSH32 0x8C379A000000000000000000000000000000000000000000000000000000000 DUP2 MSTORE PUSH1 0x4 ADD PUSH2 0x112E SWAP1 PUSH2 0x1F3A JUMP JUMPDEST PUSH1 0x40 MLOAD DUP1 SWAP2 SUB SWAP1 REVERT JUMPDEST PUSH2 0x1144 DUP5 DUP5 DUP5 DUP5 SUB PUSH2 0xED9 JUMP JUMPDEST JUMPDEST POP POP POP POP JUMP JUMPDEST PUSH1 0x0 PUSH20 0xFFFFFFFFFFFFFFFFFFFFFFFFFFFFFFFFFFFFFFFF AND DUP4 PUSH20 0xFFFFFFFFFFFFFFFFFFFFFFFFFFFFFFFFFFFFFFFF AND SUB PUSH2 0x11BA JUMPI PUSH1 0x40 MLOAD PUSH32 0x8C379A000000000000000000000000000000000000000000000000000000000 DUP2 MSTORE PUSH1 0x4 ADD PUSH2 0x11B1 SWAP1 PUSH2 0x1FCC JUMP JUMPDEST PUSH1 0x40 MLOAD DUP1 SWAP2 SUB SWAP1 REVERT JUMPDEST PUSH1 0x0 PUSH20 0xFFFFFFFFFFFFFFFFFFFFFFFFFFFFFFFFFFFFFFFF AND DUP3 PUSH20 0xFFFFFFFFFFFFFFFFFFFFFFFFFFFFFFFFFFFFFFFF AND SUB PUSH2 0x1229 JUMPI PUSH1 0x40 MLOAD PUSH32 0x8C379A000000000000000000000000000000000000000000000000000000000 DUP2 MSTORE PUSH1 0x4 ADD PUSH2 0x1220 SWAP1 PUSH2 0x205E JUMP JUMPDEST PUSH1 0x40 MLOAD DUP1 SWAP2 SUB SWAP1 REVERT JUMPDEST PUSH2 0x1234 DUP4 DUP4 DUP4 PUSH2 0x156A JUMP JUMPDEST PUSH1 0x0 DUP1 PUSH1 0x0 DUP6 PUSH20 0xFFFFFFFFFFFFFFFFFFFFFFFFFFFFFFFFFFFFFFFF AND PUSH20 0xFFFFFFFFFFFFFFFFFFFFFFFFFFFFFFFFFFFFFFFF AND DUP2 MSTORE PUSH1 0x20 ADD SWAP1 DUP2 MSTORE PUSH1 0x20 ADD PUSH1 0x0 KECCAK256 SLOAD SWAP1 POP DUP2 DUP2 LT ISZERO PUSH2 0x12BA JUMPI PUSH1 0x40 MLOAD PUSH32 0x8C379A000000000000000000000000000000000000000000000000000000000 DUP2 MSTORE PUSH1 0x4 ADD PUSH2 0x12B1 SWAP1 PUSH2 0x20F0 JUMP JUMPDEST PUSH1 0x40 MLOAD DUP1 SWAP2 SUB SWAP1 REVERT JUMPDEST DUP2 DUP2 SUB PUSH1 0x0 DUP1 DUP7 PUSH20 0xFFFFFFFFFFFFFFFFFFFFFFFFFFFFFFFFFFFFFFFF AND PUSH20 0xFFFFFFFFFFFFFFFFFFFFFFFFFFFFFFFFFFFFFFFF AND DUP2 MSTORE PUSH1 0x20 ADD SWAP1 DUP2 MSTORE PUSH1 0x20 ADD PUSH1 0x0 KECCAK256 DUP2 SWAP1 SSTORE POP DUP2 PUSH1 0x0 DUP1 DUP6 PUSH20 0xFFFFFFFFFFFFFFFFFFFFFFFFFFFFFFFFFFFFFFFF AND PUSH20 0xFFFFFFFFFFFFFFFFFFFFFFFFFFFFFFFFFFFFFFFF AND DUP2 MSTORE PUSH1 0x20 ADD SWAP1 DUP2 MSTORE PUSH1 0x20 ADD PUSH1 0x0 KECCAK256 PUSH1 0x0 DUP3 DUP3 SLOAD ADD SWAP3 POP POP DUP2 SWAP1 SSTORE POP DUP3 PUSH20 0xFFFFFFFFFFFFFFFFFFFFFFFFFFFFFFFFFFFFFFFF AND DUP5 PUSH20 0xFFFFFFFFFFFFFFFFFFFFFFFFFFFFFFFFFFFFFFFF AND PUSH32 0xDDF252AD1BE2C89B69C2B068FC378DAA952BA7F163C4A11628F55A4DF523B3EF DUP5 PUSH1 0x40 MLOAD PUSH2 0x13A8 SWAP2 SWAP1 PUSH2 0x1744 JUMP JUMPDEST PUSH1 0x40 MLOAD DUP1 SWAP2 SUB SWAP1 LOG3 PUSH2 0x13BB DUP5 DUP5 DUP5 PUSH2 0x156F JUMP JUMPDEST POP POP POP POP JUMP JUMPDEST PUSH1 0x0 PUSH20 0xFFFFFFFFFFFFFFFFFFFFFFFFFFFFFFFFFFFFFFFF AND DUP3 PUSH20 0xFFFFFFFFFFFFFFFFFFFFFFFFFFFFFFFFFFFFFFFF AND SUB PUSH2 0x1430 JUMPI PUSH1 0x40 MLOAD PUSH32 0x8C379A000000000000000000000000000000000000000000000000000000000 DUP2 MSTORE PUSH1 0x4 ADD PUSH2 0x1427 SWAP1 PUSH2 0x215C JUMP JUMPDEST PUSH1 0x40 MLOAD DUP1 SWAP2 SUB SWAP1 REVERT JUMPDEST PUSH2 0x143C PUSH1 0x0 DUP4 DUP4 PUSH2 0x156A JUMP JUMPDEST DUP1 PUSH1 0x2 PUSH1 0x0 DUP3 DUP3 SLOAD PUSH2 0x144E SWAP2 SWAP1 PUSH2 0x1B58 JUMP JUMPDEST SWAP3 POP POP DUP2 SWAP1 SSTORE POP DUP1 PUSH1 0x0 DUP1 DUP5 PUSH20 0xFFFFFFFFFFFFFFFFFFFFFFFFFFFFFFFFFFFFFFFF AND PUSH20 0xFFFFFFFFFFFFFFFFFFFFFFFFFFFFFFFFFFFFFFFF AND DUP2 MSTORE PUSH1 0x20 ADD SWAP1 DUP2 MSTORE PUSH1 0x20 ADD PUSH1 0x0 KECCAK256 PUSH1 0x0 DUP3 DUP3 SLOAD ADD SWAP3 POP POP DUP2 SWAP1 SSTORE POP DUP2 PUSH20 0xFFFFFFFFFFFFFFFFFFFFFFFFFFFFFFFFFFFFFFFF AND PUSH1 0x0 PUSH20 0xFFFFFFFFFFFFFFFFFFFFFFFFFFFFFFFFFFFFFFFF AND PUSH32 0xDDF252AD1BE2C89B69C2B068FC378DAA952BA7F163C4A11628F55A4DF523B3EF DUP4 PUSH1 0x40 MLOAD PUSH2 0x14FF SWAP2 SWAP1 PUSH2 0x1744 JUMP JUMPDEST PUSH1 0x40 MLOAD DUP1 SWAP2 SUB SWAP1 LOG3 PUSH2 0x1513 PUSH1 0x0 DUP4 DUP4 PUSH2 0x156F JUMP JUMPDEST POP POP JUMP JUMPDEST PUSH1 0x0 DUP3 DUP3 GT ISZERO PUSH2 0x152A JUMPI PUSH2 0x1529 PUSH2 0x217C JUMP JUMPDEST JUMPDEST DUP2 DUP4 PUSH2 0x1536 SWAP2 SWAP1 PUSH2 0x19CE JUMP JUMPDEST SWAP1 POP SWAP3 SWAP2 POP POP JUMP JUMPDEST PUSH1 0x0 DUP1 DUP3 DUP5 PUSH2 0x154D SWAP2 SWAP1 PUSH2 0x1B58 JUMP JUMPDEST SWAP1 POP DUP4 DUP2 LT ISZERO PUSH2 0x1560 JUMPI PUSH2 0x155F PUSH2 0x217C JUMP JUMPDEST JUMPDEST DUP1 SWAP2 POP POP SWAP3 SWAP2 POP POP JUMP JUMPDEST POP POP POP JUMP JUMPDEST POP POP POP JUMP JUMPDEST PUSH1 0x0 DUP2 MLOAD SWAP1 POP SWAP2 SWAP1 POP JUMP JUMPDEST PUSH1 0x0 DUP3 DUP3 MSTORE PUSH1 0x20 DUP3 ADD SWAP1 POP SWAP3 SWAP2 POP POP JUMP JUMPDEST PUSH1 0x0 JUMPDEST DUP4 DUP2 LT ISZERO PUSH2 0x15AE JUMPI DUP1 DUP3 ADD MLOAD DUP2 DUP5 ADD MSTORE PUSH1 0x20 DUP2 ADD SWAP1 POP PUSH2 0x1593 JUMP JUMPDEST PUSH1 0x0 DUP5 DUP5 ADD MSTORE POP POP POP POP JUMP JUMPDEST PUSH1 0x0 PUSH1 0x1F NOT PUSH1 0x1F DUP4 ADD AND SWAP1 POP SWAP2 SWAP1 POP JUMP JUMPDEST PUSH1 0x0 PUSH2 0x15D6 DUP3 PUSH2 0x1574 JUMP JUMPDEST PUSH2 0x15E0 DUP2 DUP6 PUSH2 0x157F JUMP JUMPDEST SWAP4 POP PUSH2 0x15F0 DUP2 DUP6 PUSH1 0x20 DUP7 ADD PUSH2 0x1590 JUMP JUMPDEST PUSH2 0x15F9 DUP2 PUSH2 0x15BA JUMP JUMPDEST DUP5 ADD SWAP2 POP POP SWAP3 SWAP2 POP POP JUMP JUMPDEST PUSH1 0x0 PUSH1 0x20 DUP3 ADD SWAP1 POP DUP2 DUP2 SUB PUSH1 0x0 DUP4 ADD MSTORE PUSH2 0x161E DUP2 DUP5 PUSH2 0x15CB JUMP JUMPDEST SWAP1 POP SWAP3 SWAP2 POP POP JUMP JUMPDEST PUSH1 0x0 DUP1 REVERT JUMPDEST PUSH1 0x0 PUSH20 0xFFFFFFFFFFFFFFFFFFFFFFFFFFFFFFFFFFFFFFFF DUP3 AND SWAP1 POP SWAP2 SWAP1 POP JUMP JUMPDEST PUSH1 0x0 PUSH2 0x1656 DUP3 PUSH2 0x162B JUMP JUMPDEST SWAP1 POP SWAP2 SWAP1 POP JUMP JUMPDEST PUSH2 0x1666 DUP2 PUSH2 0x164B JUMP JUMPDEST DUP2 EQ PUSH2 0x1671 JUMPI PUSH1 0x0 DUP1 REVERT JUMPDEST POP JUMP JUMPDEST PUSH1 0x0 DUP2 CALLDATALOAD SWAP1 POP PUSH2 0x1683 DUP2 PUSH2 0x165D JUMP JUMPDEST SWAP3 SWAP2 POP POP JUMP JUMPDEST PUSH1 0x0 DUP2 SWAP1 POP SWAP2 SWAP1 POP JUMP JUMPDEST PUSH2 0x169C DUP2 PUSH2 0x1689 JUMP JUMPDEST DUP2 EQ PUSH2 0x16A7 JUMPI PUSH1 0x0 DUP1 REVERT JUMPDEST POP JUMP JUMPDEST PUSH1 0x0 DUP2 CALLDATALOAD SWAP1 POP PUSH2 0x16B9 DUP2 PUSH2 0x1693 JUMP JUMPDEST SWAP3 SWAP2 POP POP JUMP JUMPDEST PUSH1 0x0 DUP1 PUSH1 0x40 DUP4 DUP6 SUB SLT ISZERO PUSH2 0x16D6 JUMPI PUSH2 0x16D5 PUSH2 0x1626 JUMP JUMPDEST JUMPDEST PUSH1 0x0 PUSH2 0x16E4 DUP6 DUP3 DUP7 ADD PUSH2 0x1674 JUMP JUMPDEST SWAP3 POP POP PUSH1 0x20 PUSH2 0x16F5 DUP6 DUP3 DUP7 ADD PUSH2 0x16AA JUMP JUMPDEST SWAP2 POP POP SWAP3 POP SWAP3 SWAP1 POP JUMP JUMPDEST PUSH1 0x0 DUP2 ISZERO ISZERO SWAP1 POP SWAP2 SWAP1 POP JUMP JUMPDEST PUSH2 0x1714 DUP2 PUSH2 0x16FF JUMP JUMPDEST DUP3 MSTORE POP POP JUMP JUMPDEST PUSH1 0x0 PUSH1 0x20 DUP3 ADD SWAP1 POP PUSH2 0x172F PUSH1 0x0 DUP4 ADD DUP5 PUSH2 0x170B JUMP JUMPDEST SWAP3 SWAP2 POP POP JUMP JUMPDEST PUSH2 0x173E DUP2 PUSH2 0x1689 JUMP JUMPDEST DUP3 MSTORE POP POP JUMP JUMPDEST PUSH1 0x0 PUSH1 0x20 DUP3 ADD SWAP1 POP PUSH2 0x1759 PUSH1 0x0 DUP4 ADD DUP5 PUSH2 0x1735 JUMP JUMPDEST SWAP3 SWAP2 POP POP JUMP JUMPDEST PUSH1 0x0 DUP1 PUSH1 0x0 PUSH1 0x60 DUP5 DUP7 SUB SLT ISZERO PUSH2 0x1778 JUMPI PUSH2 0x1777 PUSH2 0x1626 JUMP JUMPDEST JUMPDEST PUSH1 0x0 PUSH2 0x1786 DUP7 DUP3 DUP8 ADD PUSH2 0x1674 JUMP JUMPDEST SWAP4 POP POP PUSH1 0x20 PUSH2 0x1797 DUP7 DUP3 DUP8 ADD PUSH2 0x1674 JUMP JUMPDEST SWAP3 POP POP PUSH1 0x40 PUSH2 0x17A8 DUP7 DUP3 DUP8 ADD PUSH2 0x16AA JUMP JUMPDEST SWAP2 POP POP SWAP3 POP SWAP3 POP SWAP3 JUMP JUMPDEST PUSH1 0x0 PUSH1 0xFF DUP3 AND SWAP1 POP SWAP2 SWAP1 POP JUMP JUMPDEST PUSH2 0x17C8 DUP2 PUSH2 0x17B2 JUMP JUMPDEST DUP3 MSTORE POP POP JUMP JUMPDEST PUSH1 0x0 PUSH1 0x20 DUP3 ADD SWAP1 POP PUSH2 0x17E3 PUSH1 0x0 DUP4 ADD DUP5 PUSH2 0x17BF JUMP JUMPDEST SWAP3 SWAP2 POP POP JUMP JUMPDEST PUSH1 0x0 PUSH1 0x20 DUP3 DUP5 SUB SLT ISZERO PUSH2 0x17FF JUMPI PUSH2 0x17FE PUSH2 0x1626 JUMP JUMPDEST JUMPDEST PUSH1 0x0 PUSH2 0x180D DUP5 DUP3 DUP6 ADD PUSH2 0x1674 JUMP JUMPDEST SWAP2 POP POP SWAP3 SWAP2 POP POP JUMP JUMPDEST PUSH2 0x181F DUP2 PUSH2 0x164B JUMP JUMPDEST DUP3 MSTORE POP POP JUMP JUMPDEST PUSH1 0x0 PUSH1 0x20 DUP3 ADD SWAP1 POP PUSH2 0x183A PUSH1 0x0 DUP4 ADD DUP5 PUSH2 0x1816 JUMP JUMPDEST SWAP3 SWAP2 POP POP JUMP JUMPDEST PUSH1 0x0 PUSH1 0x20 DUP3 DUP5 SUB SLT ISZERO PUSH2 0x1856 JUMPI PUSH2 0x1855 PUSH2 0x1626 JUMP JUMPDEST JUMPDEST PUSH1 0x0 PUSH2 0x1864 DUP5 DUP3 DUP6 ADD PUSH2 0x16AA JUMP JUMPDEST SWAP2 POP POP SWAP3 SWAP2 POP POP JUMP JUMPDEST PUSH1 0x0 DUP1 PUSH1 0x40 DUP4 DUP6 SUB SLT ISZERO PUSH2 0x1884 JUMPI PUSH2 0x1883 PUSH2 0x1626 JUMP JUMPDEST JUMPDEST PUSH1 0x0 PUSH2 0x1892 DUP6 DUP3 DUP7 ADD PUSH2 0x1674 JUMP JUMPDEST SWAP3 POP POP PUSH1 0x20 PUSH2 0x18A3 DUP6 DUP3 DUP7 ADD PUSH2 0x1674 JUMP JUMPDEST SWAP2 POP POP SWAP3 POP SWAP3 SWAP1 POP JUMP JUMPDEST PUSH32 0x4E487B7100000000000000000000000000000000000000000000000000000000 PUSH1 0x0 MSTORE PUSH1 0x22 PUSH1 0x4 MSTORE PUSH1 0x24 PUSH1 0x0 REVERT JUMPDEST PUSH1 0x0 PUSH1 0x2 DUP3 DIV SWAP1 POP PUSH1 0x1 DUP3 AND DUP1 PUSH2 0x18F4 JUMPI PUSH1 0x7F DUP3 AND SWAP2 POP JUMPDEST PUSH1 0x20 DUP3 LT DUP2 SUB PUSH2 0x1907 JUMPI PUSH2 0x1906 PUSH2 0x18AD JUMP JUMPDEST JUMPDEST POP SWAP2 SWAP1 POP JUMP JUMPDEST PUSH32 0x436F6D707261206D656E6F7320546F6B656E73206F207061676120636F6E206D PUSH1 0x0 DUP3 ADD MSTORE PUSH32 0x6173204574686572732E00000000000000000000000000000000000000000000 PUSH1 0x20 DUP3 ADD MSTORE POP JUMP JUMPDEST PUSH1 0x0 PUSH2 0x1969 PUSH1 0x2A DUP4 PUSH2 0x157F JUMP JUMPDEST SWAP2 POP PUSH2 0x1974 DUP3 PUSH2 0x190D JUMP JUMPDEST PUSH1 0x40 DUP3 ADD SWAP1 POP SWAP2 SWAP1 POP JUMP JUMPDEST PUSH1 0x0 PUSH1 0x20 DUP3 ADD SWAP1 POP DUP2 DUP2 SUB PUSH1 0x0 DUP4 ADD MSTORE PUSH2 0x1998 DUP2 PUSH2 0x195C JUMP JUMPDEST SWAP1 POP SWAP2 SWAP1 POP JUMP JUMPDEST PUSH32 0x4E487B7100000000000000000000000000000000000000000000000000000000 PUSH1 0x0 MSTORE PUSH1 0x11 PUSH1 0x4 MSTORE PUSH1 0x24 PUSH1 0x0 REVERT JUMPDEST PUSH1 0x0 PUSH2 0x19D9 DUP3 PUSH2 0x1689 JUMP JUMPDEST SWAP2 POP PUSH2 0x19E4 DUP4 PUSH2 0x1689 JUMP JUMPDEST SWAP3 POP DUP3 DUP3 SUB SWAP1 POP DUP2 DUP2 GT ISZERO PUSH2 0x19FC JUMPI PUSH2 0x19FB PUSH2 0x199F JUMP JUMPDEST JUMPDEST SWAP3 SWAP2 POP POP JUMP JUMPDEST PUSH1 0x0 DUP2 MLOAD SWAP1 POP PUSH2 0x1A11 DUP2 PUSH2 0x1693 JUMP JUMPDEST SWAP3 SWAP2 POP POP JUMP JUMPDEST PUSH1 0x0 PUSH1 0x20 DUP3 DUP5 SUB SLT ISZERO PUSH2 0x1A2D JUMPI PUSH2 0x1A2C PUSH2 0x1626 JUMP JUMPDEST JUMPDEST PUSH1 0x0 PUSH2 0x1A3B DUP5 DUP3 DUP6 ADD PUSH2 0x1A02 JUMP JUMPDEST SWAP2 POP POP SWAP3 SWAP2 POP POP JUMP JUMPDEST PUSH32 0x436F6D70726120756E206E756D65726F20646520546F6B656E73206164656375 PUSH1 0x0 DUP3 ADD MSTORE PUSH32 0x61646F2E00000000000000000000000000000000000000000000000000000000 PUSH1 0x20 DUP3 ADD MSTORE POP JUMP JUMPDEST PUSH1 0x0 PUSH2 0x1AA0 PUSH1 0x24 DUP4 PUSH2 0x157F JUMP JUMPDEST SWAP2 POP PUSH2 0x1AAB DUP3 PUSH2 0x1A44 JUMP JUMPDEST PUSH1 0x40 DUP3 ADD SWAP1 POP SWAP2 SWAP1 POP JUMP JUMPDEST PUSH1 0x0 PUSH1 0x20 DUP3 ADD SWAP1 POP DUP2 DUP2 SUB PUSH1 0x0 DUP4 ADD MSTORE PUSH2 0x1ACF DUP2 PUSH2 0x1A93 JUMP JUMPDEST SWAP1 POP SWAP2 SWAP1 POP JUMP JUMPDEST PUSH1 0x0 PUSH1 0x40 DUP3 ADD SWAP1 POP PUSH2 0x1AEB PUSH1 0x0 DUP4 ADD DUP6 PUSH2 0x1816 JUMP JUMPDEST PUSH2 0x1AF8 PUSH1 0x20 DUP4 ADD DUP5 PUSH2 0x1735 JUMP JUMPDEST SWAP4 SWAP3 POP POP POP JUMP JUMPDEST PUSH2 0x1B08 DUP2 PUSH2 0x16FF JUMP JUMPDEST DUP2 EQ PUSH2 0x1B13 JUMPI PUSH1 0x0 DUP1 REVERT JUMPDEST POP JUMP JUMPDEST PUSH1 0x0 DUP2 MLOAD SWAP1 POP PUSH2 0x1B25 DUP2 PUSH2 0x1AFF JUMP JUMPDEST SWAP3 SWAP2 POP POP JUMP JUMPDEST PUSH1 0x0 PUSH1 0x20 DUP3 DUP5 SUB SLT ISZERO PUSH2 0x1B41 JUMPI PUSH2 0x1B40 PUSH2 0x1626 JUMP JUMPDEST JUMPDEST PUSH1 0x0 PUSH2 0x1B4F DUP5 DUP3 DUP6 ADD PUSH2 0x1B16 JUMP JUMPDEST SWAP2 POP POP SWAP3 SWAP2 POP POP JUMP JUMPDEST PUSH1 0x0 PUSH2 0x1B63 DUP3 PUSH2 0x1689 JUMP JUMPDEST SWAP2 POP PUSH2 0x1B6E DUP4 PUSH2 0x1689 JUMP JUMPDEST SWAP3 POP DUP3 DUP3 ADD SWAP1 POP DUP1 DUP3 GT ISZERO PUSH2 0x1B86 JUMPI PUSH2 0x1B85 PUSH2 0x199F JUMP JUMPDEST JUMPDEST SWAP3 SWAP2 POP POP JUMP JUMPDEST PUSH32 0x536F6C6F20656C2070726F706965746172696F20707565646520656A65637574 PUSH1 0x0 DUP3 ADD MSTORE PUSH32 0x617220657374612066756E63696F6E2E00000000000000000000000000000000 PUSH1 0x20 DUP3 ADD MSTORE POP JUMP JUMPDEST PUSH1 0x0 PUSH2 0x1BE8 PUSH1 0x30 DUP4 PUSH2 0x157F JUMP JUMPDEST SWAP2 POP PUSH2 0x1BF3 DUP3 PUSH2 0x1B8C JUMP JUMPDEST PUSH1 0x40 DUP3 ADD SWAP1 POP SWAP2 SWAP1 POP JUMP JUMPDEST PUSH1 0x0 PUSH1 0x20 DUP3 ADD SWAP1 POP DUP2 DUP2 SUB PUSH1 0x0 DUP4 ADD MSTORE PUSH2 0x1C17 DUP2 PUSH2 0x1BDB JUMP JUMPDEST SWAP1 POP SWAP2 SWAP1 POP JUMP JUMPDEST PUSH32 0x446562657320656E766961722045544800000000000000000000000000000000 PUSH1 0x0 DUP3 ADD MSTORE POP JUMP JUMPDEST PUSH1 0x0 PUSH2 0x1C54 PUSH1 0x10 DUP4 PUSH2 0x157F JUMP JUMPDEST SWAP2 POP PUSH2 0x1C5F DUP3 PUSH2 0x1C1E JUMP JUMPDEST PUSH1 0x20 DUP3 ADD SWAP1 POP SWAP2 SWAP1 POP JUMP JUMPDEST PUSH1 0x0 PUSH1 0x20 DUP3 ADD SWAP1 POP DUP2 DUP2 SUB PUSH1 0x0 DUP4 ADD MSTORE PUSH2 0x1C83 DUP2 PUSH2 0x1C47 JUMP JUMPDEST SWAP1 POP SWAP2 SWAP1 POP JUMP JUMPDEST PUSH32 0x56616C6F7220696E6772657361646F206E6F2076616C69646F00000000000000 PUSH1 0x0 DUP3 ADD MSTORE POP JUMP JUMPDEST PUSH1 0x0 PUSH2 0x1CC0 PUSH1 0x19 DUP4 PUSH2 0x157F JUMP JUMPDEST SWAP2 POP PUSH2 0x1CCB DUP3 PUSH2 0x1C8A JUMP JUMPDEST PUSH1 0x20 DUP3 ADD SWAP1 POP SWAP2 SWAP1 POP JUMP JUMPDEST PUSH1 0x0 PUSH1 0x20 DUP3 ADD SWAP1 POP DUP2 DUP2 SUB PUSH1 0x0 DUP4 ADD MSTORE PUSH2 0x1CEF DUP2 PUSH2 0x1CB3 JUMP JUMPDEST SWAP1 POP SWAP2 SWAP1 POP JUMP JUMPDEST PUSH32 0x45524332303A2064656372656173656420616C6C6F77616E63652062656C6F77 PUSH1 0x0 DUP3 ADD MSTORE PUSH32 0x207A65726F000000000000000000000000000000000000000000000000000000 PUSH1 0x20 DUP3 ADD MSTORE POP JUMP JUMPDEST PUSH1 0x0 PUSH2 0x1D52 PUSH1 0x25 DUP4 PUSH2 0x157F JUMP JUMPDEST SWAP2 POP PUSH2 0x1D5D DUP3 PUSH2 0x1CF6 JUMP JUMPDEST PUSH1 0x40 DUP3 ADD SWAP1 POP SWAP2 SWAP1 POP JUMP JUMPDEST PUSH1 0x0 PUSH1 0x20 DUP3 ADD SWAP1 POP DUP2 DUP2 SUB PUSH1 0x0 DUP4 ADD MSTORE PUSH2 0x1D81 DUP2 PUSH2 0x1D45 JUMP JUMPDEST SWAP1 POP SWAP2 SWAP1 POP JUMP JUMPDEST PUSH32 0x45524332303A20617070726F76652066726F6D20746865207A65726F20616464 PUSH1 0x0 DUP3 ADD MSTORE PUSH32 0x7265737300000000000000000000000000000000000000000000000000000000 PUSH1 0x20 DUP3 ADD MSTORE POP JUMP JUMPDEST PUSH1 0x0 PUSH2 0x1DE4 PUSH1 0x24 DUP4 PUSH2 0x157F JUMP JUMPDEST SWAP2 POP PUSH2 0x1DEF DUP3 PUSH2 0x1D88 JUMP JUMPDEST PUSH1 0x40 DUP3 ADD SWAP1 POP SWAP2 SWAP1 POP JUMP JUMPDEST PUSH1 0x0 PUSH1 0x20 DUP3 ADD SWAP1 POP DUP2 DUP2 SUB PUSH1 0x0 DUP4 ADD MSTORE PUSH2 0x1E13 DUP2 PUSH2 0x1DD7 JUMP JUMPDEST SWAP1 POP SWAP2 SWAP1 POP JUMP JUMPDEST PUSH32 0x45524332303A20617070726F766520746F20746865207A65726F206164647265 PUSH1 0x0 DUP3 ADD MSTORE PUSH32 0x7373000000000000000000000000000000000000000000000000000000000000 PUSH1 0x20 DUP3 ADD MSTORE POP JUMP JUMPDEST PUSH1 0x0 PUSH2 0x1E76 PUSH1 0x22 DUP4 PUSH2 0x157F JUMP JUMPDEST SWAP2 POP PUSH2 0x1E81 DUP3 PUSH2 0x1E1A JUMP JUMPDEST PUSH1 0x40 DUP3 ADD SWAP1 POP SWAP2 SWAP1 POP JUMP JUMPDEST PUSH1 0x0 PUSH1 0x20 DUP3 ADD SWAP1 POP DUP2 DUP2 SUB PUSH1 0x0 DUP4 ADD MSTORE PUSH2 0x1EA5 DUP2 PUSH2 0x1E69 JUMP JUMPDEST SWAP1 POP SWAP2 SWAP1 POP JUMP JUMPDEST PUSH1 0x0 PUSH2 0x1EB7 DUP3 PUSH2 0x1689 JUMP JUMPDEST SWAP2 POP PUSH2 0x1EC2 DUP4 PUSH2 0x1689 JUMP JUMPDEST SWAP3 POP DUP3 DUP3 MUL PUSH2 0x1ED0 DUP2 PUSH2 0x1689 JUMP JUMPDEST SWAP2 POP DUP3 DUP3 DIV DUP5 EQ DUP4 ISZERO OR PUSH2 0x1EE7 JUMPI PUSH2 0x1EE6 PUSH2 0x199F JUMP JUMPDEST JUMPDEST POP SWAP3 SWAP2 POP POP JUMP JUMPDEST PUSH32 0x45524332303A20696E73756666696369656E7420616C6C6F77616E6365000000 PUSH1 0x0 DUP3 ADD MSTORE POP JUMP JUMPDEST PUSH1 0x0 PUSH2 0x1F24 PUSH1 0x1D DUP4 PUSH2 0x157F JUMP JUMPDEST SWAP2 POP PUSH2 0x1F2F DUP3 PUSH2 0x1EEE JUMP JUMPDEST PUSH1 0x20 DUP3 ADD SWAP1 POP SWAP2 SWAP1 POP JUMP JUMPDEST PUSH1 0x0 PUSH1 0x20 DUP3 ADD SWAP1 POP DUP2 DUP2 SUB PUSH1 0x0 DUP4 ADD MSTORE PUSH2 0x1F53 DUP2 PUSH2 0x1F17 JUMP JUMPDEST SWAP1 POP SWAP2 SWAP1 POP JUMP JUMPDEST PUSH32 0x45524332303A207472616E736665722066726F6D20746865207A65726F206164 PUSH1 0x0 DUP3 ADD MSTORE PUSH32 0x6472657373000000000000000000000000000000000000000000000000000000 PUSH1 0x20 DUP3 ADD MSTORE POP JUMP JUMPDEST PUSH1 0x0 PUSH2 0x1FB6 PUSH1 0x25 DUP4 PUSH2 0x157F JUMP JUMPDEST SWAP2 POP PUSH2 0x1FC1 DUP3 PUSH2 0x1F5A JUMP JUMPDEST PUSH1 0x40 DUP3 ADD SWAP1 POP SWAP2 SWAP1 POP JUMP JUMPDEST PUSH1 0x0 PUSH1 0x20 DUP3 ADD SWAP1 POP DUP2 DUP2 SUB PUSH1 0x0 DUP4 ADD MSTORE PUSH2 0x1FE5 DUP2 PUSH2 0x1FA9 JUMP JUMPDEST SWAP1 POP SWAP2 SWAP1 POP JUMP JUMPDEST PUSH32 0x45524332303A207472616E7366657220746F20746865207A65726F2061646472 PUSH1 0x0 DUP3 ADD MSTORE PUSH32 0x6573730000000000000000000000000000000000000000000000000000000000 PUSH1 0x20 DUP3 ADD MSTORE POP JUMP JUMPDEST PUSH1 0x0 PUSH2 0x2048 PUSH1 0x23 DUP4 PUSH2 0x157F JUMP JUMPDEST SWAP2 POP PUSH2 0x2053 DUP3 PUSH2 0x1FEC JUMP JUMPDEST PUSH1 0x40 DUP3 ADD SWAP1 POP SWAP2 SWAP1 POP JUMP JUMPDEST PUSH1 0x0 PUSH1 0x20 DUP3 ADD SWAP1 POP DUP2 DUP2 SUB PUSH1 0x0 DUP4 ADD MSTORE PUSH2 0x2077 DUP2 PUSH2 0x203B JUMP JUMPDEST SWAP1 POP SWAP2 SWAP1 POP JUMP JUMPDEST PUSH32 0x45524332303A207472616E7366657220616D6F756E7420657863656564732062 PUSH1 0x0 DUP3 ADD MSTORE PUSH32 0x616C616E63650000000000000000000000000000000000000000000000000000 PUSH1 0x20 DUP3 ADD MSTORE POP JUMP JUMPDEST PUSH1 0x0 PUSH2 0x20DA PUSH1 0x26 DUP4 PUSH2 0x157F JUMP JUMPDEST SWAP2 POP PUSH2 0x20E5 DUP3 PUSH2 0x207E JUMP JUMPDEST PUSH1 0x40 DUP3 ADD SWAP1 POP SWAP2 SWAP1 POP JUMP JUMPDEST PUSH1 0x0 PUSH1 0x20 DUP3 ADD SWAP1 POP DUP2 DUP2 SUB PUSH1 0x0 DUP4 ADD MSTORE PUSH2 0x2109 DUP2 PUSH2 0x20CD JUMP JUMPDEST SWAP1 POP SWAP2 SWAP1 POP JUMP JUMPDEST PUSH32 0x45524332303A206D696E7420746F20746865207A65726F206164647265737300 PUSH1 0x0 DUP3 ADD MSTORE POP JUMP JUMPDEST PUSH1 0x0 PUSH2 0x2146 PUSH1 0x1F DUP4 PUSH2 0x157F JUMP JUMPDEST SWAP2 POP PUSH2 0x2151 DUP3 PUSH2 0x2110 JUMP JUMPDEST PUSH1 0x20 DUP3 ADD SWAP1 POP SWAP2 SWAP1 POP JUMP JUMPDEST PUSH1 0x0 PUSH1 0x20 DUP3 ADD SWAP1 POP DUP2 DUP2 SUB PUSH1 0x0 DUP4 ADD MSTORE PUSH2 0x2175 DUP2 PUSH2 0x2139 JUMP JUMPDEST SWAP1 POP SWAP2 SWAP1 POP JUMP JUMPDEST PUSH32 0x4E487B7100000000000000000000000000000000000000000000000000000000 PUSH1 0x0 MSTORE PUSH1 0x1 PUSH1 0x4 MSTORE PUSH1 0x24 PUSH1 0x0 REVERT INVALID LOG2 PUSH5 0x6970667358 0x22 SLT KECCAK256 0xE0 0xB7 DUP1 PUSH32 0xE6C35A86677C3DFDFF922EDB7DB25B1B89D5758DF712346276F89A6C64736F6C PUSH4 0x43000812 STOP CALLER "
				},
				"gasEstimates": {
					"creation": {
						"codeDepositCost": "1734600",
						"executionCost": "infinite",
						"totalCost": "infinite"
					},
					"external": {
						"GeneraTokens(address,uint256)": "infinite",
						"addEthToBalance(uint256)": "infinite",
						"allowance(address,address)": "infinite",
						"approve(address,uint256)": "infinite",
						"balanceOf(address)": "2864",
						"contrato()": "2602",
						"decimals()": "388",
						"decreaseAllowance(address,uint256)": "infinite",
						"getContractBalance()": "5190",
						"increaseAllowance(address,uint256)": "infinite",
						"intermediary()": "2559",
						"name()": "infinite",
						"owner()": "2603",
						"paymentValue(address,uint256)": "infinite",
						"symbol()": "infinite",
						"totalSupply()": "2505",
						"transfer(address,uint256)": "infinite",
						"transferFrom(address,address,uint256)": "infinite",
						"transferenciaPago(address,address,uint256)": "infinite"
					},
					"internal": {
						"costValue(uint256)": "infinite",
						"valueTransaction(uint256)": "infinite"
					}
				},
				"methodIdentifiers": {
					"GeneraTokens(address,uint256)": "40c92fde",
					"addEthToBalance(uint256)": "7cdf37f9",
					"allowance(address,address)": "dd62ed3e",
					"approve(address,uint256)": "095ea7b3",
					"balanceOf(address)": "70a08231",
					"contrato()": "e1a01e67",
					"decimals()": "313ce567",
					"decreaseAllowance(address,uint256)": "a457c2d7",
					"getContractBalance()": "6f9fb98a",
					"increaseAllowance(address,uint256)": "39509351",
					"intermediary()": "79fd022e",
					"name()": "06fdde03",
					"owner()": "8da5cb5b",
					"paymentValue(address,uint256)": "21208530",
					"symbol()": "95d89b41",
					"totalSupply()": "18160ddd",
					"transfer(address,uint256)": "a9059cbb",
					"transferFrom(address,address,uint256)": "23b872dd",
					"transferenciaPago(address,address,uint256)": "fecb6b1e"
				}
			},
			"storageLayout": {
				"storage": [
					{
						"astId": 230,
						"contract": "contracts/Main.sol:Main",
						"label": "_balances",
						"offset": 0,
						"slot": "0",
						"type": "t_mapping(t_address,t_uint256)"
					},
					{
						"astId": 236,
						"contract": "contracts/Main.sol:Main",
						"label": "_allowances",
						"offset": 0,
						"slot": "1",
						"type": "t_mapping(t_address,t_mapping(t_address,t_uint256))"
					},
					{
						"astId": 238,
						"contract": "contracts/Main.sol:Main",
						"label": "_totalSupply",
						"offset": 0,
						"slot": "2",
						"type": "t_uint256"
					},
					{
						"astId": 240,
						"contract": "contracts/Main.sol:Main",
						"label": "_name",
						"offset": 0,
						"slot": "3",
						"type": "t_string_storage"
					},
					{
						"astId": 242,
						"contract": "contracts/Main.sol:Main",
						"label": "_symbol",
						"offset": 0,
						"slot": "4",
						"type": "t_string_storage"
					},
					{
						"astId": 10,
						"contract": "contracts/Main.sol:Main",
						"label": "owner",
						"offset": 0,
						"slot": "5",
						"type": "t_address"
					},
					{
						"astId": 12,
						"contract": "contracts/Main.sol:Main",
						"label": "contrato",
						"offset": 0,
						"slot": "6",
						"type": "t_address"
					},
					{
						"astId": 15,
						"contract": "contracts/Main.sol:Main",
						"label": "intermediary",
						"offset": 0,
						"slot": "7",
						"type": "t_address"
					}
				],
				"types": {
					"t_address": {
						"encoding": "inplace",
						"label": "address",
						"numberOfBytes": "20"
					},
					"t_mapping(t_address,t_mapping(t_address,t_uint256))": {
						"encoding": "mapping",
						"key": "t_address",
						"label": "mapping(address => mapping(address => uint256))",
						"numberOfBytes": "32",
						"value": "t_mapping(t_address,t_uint256)"
					},
					"t_mapping(t_address,t_uint256)": {
						"encoding": "mapping",
						"key": "t_address",
						"label": "mapping(address => uint256)",
						"numberOfBytes": "32",
						"value": "t_uint256"
					},
					"t_string_storage": {
						"encoding": "bytes",
						"label": "string",
						"numberOfBytes": "32"
					},
					"t_uint256": {
						"encoding": "inplace",
						"label": "uint256",
						"numberOfBytes": "32"
					}
				}
			},
			"userdoc": {
				"kind": "user",
				"methods": {},
				"version": 1
			}
		}
	}
}